{"abi":[{"inputs":[{"internalType":"string","name":"__name","type":"string"},{"internalType":"string","name":"__symbol","type":"string"},{"internalType":"uint256","name":"auctionStart","type":"uint256"},{"internalType":"uint256","name":"deadlineLength","type":"uint256"},{"internalType":"uint256","name":"startPrice","type":"uint256"},{"internalType":"uint256","name":"basis","type":"uint256"},{"internalType":"string","name":"_tokenURI","type":"string"},{"internalType":"string","name":"_messageInput","type":"string"}],"stateMutability":"nonpayable","type":"constructor"},{"anonymous":false,"inputs":[{"indexed":true,"internalType":"address","name":"owner","type":"address"},{"indexed":true,"internalType":"address","name":"approved","type":"address"},{"indexed":true,"internalType":"uint256","name":"tokenId","type":"uint256"}],"name":"Approval","type":"event"},{"anonymous":false,"inputs":[{"indexed":true,"internalType":"address","name":"owner","type":"address"},{"indexed":true,"internalType":"address","name":"operator","type":"address"},{"indexed":false,"internalType":"bool","name":"approved","type":"bool"}],"name":"ApprovalForAll","type":"event"},{"anonymous":false,"inputs":[{"indexed":false,"internalType":"string","name":"___name","type":"string"},{"indexed":false,"internalType":"string","name":"___symbol","type":"string"},{"indexed":false,"internalType":"uint256","name":"_auctionStart","type":"uint256"},{"indexed":false,"internalType":"uint256","name":"_deadlineLength","type":"uint256"},{"indexed":false,"internalType":"uint256","name":"_startPrice","type":"uint256"},{"indexed":false,"internalType":"uint256","name":"_basis","type":"uint256"},{"indexed":false,"internalType":"string","name":"__tokenURI","type":"string"}],"name":"ContractCreated","type":"event"},{"anonymous":false,"inputs":[{"indexed":true,"internalType":"address","name":"previousOwner","type":"address"},{"indexed":true,"internalType":"address","name":"newOwner","type":"address"}],"name":"OwnershipTransferred","type":"event"},{"anonymous":false,"inputs":[{"indexed":true,"internalType":"address","name":"from","type":"address"},{"indexed":true,"internalType":"address","name":"to","type":"address"},{"indexed":true,"internalType":"uint256","name":"tokenId","type":"uint256"}],"name":"Transfer","type":"event"},{"inputs":[{"internalType":"address","name":"_address","type":"address"},{"internalType":"uint256","name":"_amount","type":"uint256"}],"name":"addEarning","outputs":[],"stateMutability":"nonpayable","type":"function"},{"inputs":[{"internalType":"address","name":"_newOwner","type":"address"},{"internalType":"string","name":"message","type":"string"}],"name":"addNewOwner","outputs":[],"stateMutability":"nonpayable","type":"function"},{"inputs":[{"internalType":"address","name":"_address","type":"address"}],"name":"addressWasOwner","outputs":[{"internalType":"bool","name":"","type":"bool"}],"stateMutability":"view","type":"function"},{"inputs":[{"internalType":"address","name":"to","type":"address"},{"internalType":"uint256","name":"tokenId","type":"uint256"}],"name":"approve","outputs":[],"stateMutability":"nonpayable","type":"function"},{"inputs":[{"internalType":"address","name":"owner","type":"address"}],"name":"balanceOf","outputs":[{"internalType":"uint256","name":"","type":"uint256"}],"stateMutability":"view","type":"function"},{"inputs":[],"name":"decimals","outputs":[{"internalType":"uint8","name":"","type":"uint8"}],"stateMutability":"pure","type":"function"},{"inputs":[],"name":"endAuction","outputs":[],"stateMutability":"nonpayable","type":"function"},{"inputs":[{"internalType":"uint256","name":"tokenId","type":"uint256"}],"name":"getApproved","outputs":[{"internalType":"address","name":"","type":"address"}],"stateMutability":"view","type":"function"},{"inputs":[],"name":"getDexAddress","outputs":[{"internalType":"address","name":"","type":"address"}],"stateMutability":"view","type":"function"},{"inputs":[{"internalType":"address","name":"_address","type":"address"}],"name":"getEarned","outputs":[{"internalType":"uint256","name":"","type":"uint256"}],"stateMutability":"view","type":"function"},{"inputs":[{"internalType":"uint256","name":"number","type":"uint256"}],"name":"getMessageByOrder","outputs":[{"internalType":"string","name":"","type":"string"}],"stateMutability":"view","type":"function"},{"inputs":[{"internalType":"address","name":"_address","type":"address"}],"name":"getMessageByOwner","outputs":[{"internalType":"string","name":"","type":"string"}],"stateMutability":"view","type":"function"},{"inputs":[{"internalType":"uint256","name":"_placeN","type":"uint256"}],"name":"getMessageByPlace","outputs":[{"internalType":"string","name":"","type":"string"}],"stateMutability":"view","type":"function"},{"inputs":[{"internalType":"address","name":"_address","type":"address"}],"name":"getOrderByOwner","outputs":[{"internalType":"uint256","name":"","type":"uint256"}],"stateMutability":"view","type":"function"},{"inputs":[{"internalType":"uint256","name":"number","type":"uint256"}],"name":"getOwnerByOrder","outputs":[{"internalType":"address","name":"","type":"address"}],"stateMutability":"view","type":"function"},{"inputs":[{"internalType":"uint256","name":"_placeN","type":"uint256"}],"name":"getOwnerByPlace","outputs":[{"internalType":"address","name":"","type":"address"}],"stateMutability":"view","type":"function"},{"inputs":[],"name":"getOwnerSize","outputs":[{"internalType":"uint256","name":"","type":"uint256"}],"stateMutability":"view","type":"function"},{"inputs":[{"internalType":"address","name":"_address","type":"address"}],"name":"getPaidByOwner","outputs":[{"internalType":"uint256","name":"","type":"uint256"}],"stateMutability":"view","type":"function"},{"inputs":[{"internalType":"address","name":"_address","type":"address"}],"name":"getPlaceByOwner","outputs":[{"internalType":"uint256","name":"","type":"uint256"}],"stateMutability":"view","type":"function"},{"inputs":[],"name":"getRichest","outputs":[{"internalType":"address","name":"","type":"address"}],"stateMutability":"view","type":"function"},{"inputs":[],"name":"getTokenId","outputs":[{"internalType":"uint256","name":"","type":"uint256"}],"stateMutability":"view","type":"function"},{"inputs":[{"internalType":"address","name":"owner","type":"address"},{"internalType":"address","name":"operator","type":"address"}],"name":"isApprovedForAll","outputs":[{"internalType":"bool","name":"","type":"bool"}],"stateMutability":"view","type":"function"},{"inputs":[],"name":"isEnded","outputs":[{"internalType":"bool","name":"","type":"bool"}],"stateMutability":"view","type":"function"},{"inputs":[],"name":"name","outputs":[{"internalType":"string","name":"","type":"string"}],"stateMutability":"view","type":"function"},{"inputs":[{"internalType":"address","name":"","type":"address"},{"internalType":"address","name":"","type":"address"},{"internalType":"uint256","name":"","type":"uint256"},{"internalType":"bytes","name":"","type":"bytes"}],"name":"onERC721Received","outputs":[{"internalType":"bytes4","name":"","type":"bytes4"}],"stateMutability":"nonpayable","type":"function"},{"inputs":[],"name":"owner","outputs":[{"internalType":"address","name":"","type":"address"}],"stateMutability":"view","type":"function"},{"inputs":[{"internalType":"uint256","name":"tokenId","type":"uint256"}],"name":"ownerOf","outputs":[{"internalType":"address","name":"","type":"address"}],"stateMutability":"view","type":"function"},{"inputs":[],"name":"renounceOwnership","outputs":[],"stateMutability":"nonpayable","type":"function"},{"inputs":[{"internalType":"address","name":"from","type":"address"},{"internalType":"address","name":"to","type":"address"},{"internalType":"uint256","name":"tokenId","type":"uint256"}],"name":"safeTransferFrom","outputs":[],"stateMutability":"nonpayable","type":"function"},{"inputs":[{"internalType":"address","name":"from","type":"address"},{"internalType":"address","name":"to","type":"address"},{"internalType":"uint256","name":"tokenId","type":"uint256"},{"internalType":"bytes","name":"_data","type":"bytes"}],"name":"safeTransferFrom","outputs":[],"stateMutability":"nonpayable","type":"function"},{"inputs":[{"internalType":"address","name":"operator","type":"address"},{"internalType":"bool","name":"approved","type":"bool"}],"name":"setApprovalForAll","outputs":[],"stateMutability":"nonpayable","type":"function"},{"inputs":[{"internalType":"bytes4","name":"interfaceId","type":"bytes4"}],"name":"supportsInterface","outputs":[{"internalType":"bool","name":"","type":"bool"}],"stateMutability":"view","type":"function"},{"inputs":[],"name":"symbol","outputs":[{"internalType":"string","name":"","type":"string"}],"stateMutability":"view","type":"function"},{"inputs":[{"internalType":"uint256","name":"tokenId","type":"uint256"}],"name":"tokenURI","outputs":[{"internalType":"string","name":"","type":"string"}],"stateMutability":"view","type":"function"},{"inputs":[{"internalType":"address","name":"from","type":"address"},{"internalType":"address","name":"to","type":"address"},{"internalType":"uint256","name":"tokenId","type":"uint256"}],"name":"transferFrom","outputs":[],"stateMutability":"nonpayable","type":"function"},{"inputs":[{"internalType":"address","name":"newOwner","type":"address"}],"name":"transferOwnership","outputs":[],"stateMutability":"nonpayable","type":"function"}],"devdoc":{"kind":"dev","methods":{"approve(address,uint256)":{"details":"See {IERC721-approve}."},"balanceOf(address)":{"details":"See {IERC721-balanceOf}."},"getApproved(uint256)":{"details":"See {IERC721-getApproved}."},"isApprovedForAll(address,address)":{"details":"See {IERC721-isApprovedForAll}."},"name()":{"details":"See {IERC721Metadata-name}."},"onERC721Received(address,address,uint256,bytes)":{"details":"See {IERC721Receiver-onERC721Received}. Always returns `IERC721Receiver.onERC721Received.selector`."},"owner()":{"details":"Returns the address of the current owner."},"ownerOf(uint256)":{"details":"See {IERC721-ownerOf}."},"renounceOwnership()":{"details":"Leaves the contract without owner. It will not be possible to call `onlyOwner` functions anymore. Can only be called by the current owner. NOTE: Renouncing ownership will leave the contract without an owner, thereby removing any functionality that is only available to the owner."},"safeTransferFrom(address,address,uint256)":{"details":"Safely transfers `tokenId` token from `from` to `to`, checking first that contract recipients are aware of the ERC721 protocol to prevent tokens from being forever locked. Requirements: - `from` cannot be the zero address. - `to` cannot be the zero address. - `tokenId` token must exist and be owned by `from`. - If the caller is not `from`, it must be have been allowed to move this token by either {approve} or {setApprovalForAll}. - If `to` refers to a smart contract, it must implement {IERC721Receiver-onERC721Received}, which is called upon a safe transfer. Emits a {Transfer} event."},"setApprovalForAll(address,bool)":{"details":"See {IERC721-setApprovalForAll}."},"supportsInterface(bytes4)":{"details":"See {IERC165-supportsInterface}."},"symbol()":{"details":"See {IERC721Metadata-symbol}."},"tokenURI(uint256)":{"details":"See {IERC721Metadata-tokenURI}."},"transferFrom(address,address,uint256)":{"details":"Transfers `tokenId` token from `from` to `to`. WARNING: Usage of this method is discouraged, use {safeTransferFrom} whenever possible. Requirements: - `from` cannot be the zero address. - `to` cannot be the zero address. - `tokenId` token must be owned by `from`. - If the caller is not `from`, it must be approved to move this token by either {approve} or {setApprovalForAll}. Emits a {Transfer} event."},"transferOwnership(address)":{"details":"Transfers ownership of the contract to a new account (`newOwner`). Can only be called by the current owner."}},"version":1},"evm":{"assembly":"    /* \"Contract\":920:939  string baseURI = \"\" */\n  0xa0\n    /* \"Contract\":703:20093  contract RichCoin is ERC721Holder, ERC165, IERC721Metadata, Ownable, IRichCoin{\r... */\n  0x40\n    /* \"Contract\":920:939  string baseURI = \"\" */\n  dup2\n  swap1\n  mstore\n  0x00\n    /* \"Contract\":703:20093  contract RichCoin is ERC721Holder, ERC165, IERC721Metadata, Ownable, IRichCoin{\r... */\n  0x80\n    /* \"Contract\":920:939  string baseURI = \"\" */\n  dup2\n  swap1\n  mstore\n  tag_1\n  swap2\n  0x02\n  swap2\n  tag_2\n  jump\t// in\ntag_1:\n  pop\n    /* \"Contract\":14027:14047  bool  _ended = false */\n  0x0a\n  dup1\n  sload\n  not(shl(0xa0, 0xff))\n  and\n  swap1\n  sstore\n    /* \"Contract\":16158:16934  constructor( string memory __name, string memory __symbol, uint256 auctionStart, uint256 deadlineLength, uint256 startPrice, uint256 basis, string memory _tokenURI, string memory _messageInput){\r... */\n  callvalue\n  dup1\n  iszero\n  tag_3\n  jumpi\n  0x00\n  dup1\n  revert\ntag_3:\n  pop\n  mload(0x40)\n  sub(codesize, bytecodeSize)\n  dup1\n  bytecodeSize\n  dup4\n  codecopy\n  dup2\n  add\n  0x40\n  dup2\n  swap1\n  mstore\n  tag_4\n  swap2\n  tag_5\n  jump\t// in\ntag_4:\n    /* \"openzeppelin/contracts/access/Ownable.sol\":867:890   */\n  tag_9\n    /* \"openzeppelin/contracts/utils/Context.sol\":666:676   */\n  caller\n    /* \"openzeppelin/contracts/access/Ownable.sol\":867:876   */\n  tag_12\n    /* \"openzeppelin/contracts/access/Ownable.sol\":867:890   */\n  jump\t// in\ntag_9:\n    /* \"Contract\":16370:16380  msg.sender */\n  caller\n    /* \"Contract\":16384:16393  tx.origin */\n  origin\n    /* \"Contract\":16370:16393  msg.sender == tx.origin */\n  eq\n    /* \"Contract\":16362:16447  require(msg.sender == tx.origin, \"You can't create an auction from a Smart Contract\") */\n  tag_14\n  jumpi\n  mload(0x40)\n  shl(0xe5, 0x461bcd)\n  dup2\n  mstore\n    /* \"#utility.yul\":6064:6066   */\n  0x20\n    /* \"Contract\":16362:16447  require(msg.sender == tx.origin, \"You can't create an auction from a Smart Contract\") */\n  0x04\n  dup3\n  add\n    /* \"#utility.yul\":6046:6067   */\n  mstore\n    /* \"#utility.yul\":6103:6105   */\n  0x31\n    /* \"#utility.yul\":6083:6101   */\n  0x24\n  dup3\n  add\n    /* \"#utility.yul\":6076:6106   */\n  mstore\n    /* \"#utility.yul\":6142:6176   */\n  0x596f752063616e27742063726561746520616e2061756374696f6e2066726f6d\n    /* \"#utility.yul\":6122:6140   */\n  0x44\n  dup3\n  add\n    /* \"#utility.yul\":6115:6177   */\n  mstore\n  shl(0x7a, 0x08184814db585c9d0810dbdb9d1c9858dd)\n    /* \"#utility.yul\":6193:6211   */\n  0x64\n  dup3\n  add\n    /* \"#utility.yul\":6186:6233   */\n  mstore\n    /* \"#utility.yul\":6250:6269   */\n  0x84\n  add\n    /* \"Contract\":16362:16447  require(msg.sender == tx.origin, \"You can't create an auction from a Smart Contract\") */\ntag_15:\n  mload(0x40)\n  dup1\n  swap2\n  sub\n  swap1\n  revert\ntag_14:\n    /* \"Contract\":16458:16472  _name = __name */\n  dup8\n  mload\n  tag_17\n  swap1\n    /* \"Contract\":16458:16463  _name */\n  0x03\n  swap1\n    /* \"Contract\":16458:16472  _name = __name */\n  0x20\n  dup12\n  add\n  swap1\n  tag_2\n  jump\t// in\ntag_17:\n  pop\n    /* \"Contract\":16483:16501  _symbol = __symbol */\n  dup7\n  mload\n  tag_18\n  swap1\n    /* \"Contract\":16483:16490  _symbol */\n  0x04\n  swap1\n    /* \"Contract\":16483:16501  _symbol = __symbol */\n  0x20\n  dup11\n  add\n  swap1\n  tag_2\n  jump\t// in\ntag_18:\n  pop\n    /* \"Contract\":16535:16539  this */\n  address\n    /* \"Contract\":16542:16554  auctionStart */\n  dup7\n    /* \"Contract\":16556:16570  deadlineLength */\n  dup7\n    /* \"Contract\":16572:16582  startPrice */\n  dup7\n    /* \"Contract\":16584:16589  basis */\n  dup7\n    /* \"Contract\":16519:16590  new DEX(address(this), auctionStart, deadlineLength, startPrice, basis) */\n  mload(0x40)\n  tag_19\n  swap1\n  tag_20\n  jump\t// in\ntag_19:\n  sub(shl(0xa0, 0x01), 0x01)\n    /* \"#utility.yul\":3256:3288   */\n  swap1\n  swap6\n  and\n    /* \"#utility.yul\":3238:3289   */\n  dup6\n  mstore\n    /* \"#utility.yul\":3320:3322   */\n  0x20\n    /* \"#utility.yul\":3305:3323   */\n  dup6\n  add\n    /* \"#utility.yul\":3298:3332   */\n  swap4\n  swap1\n  swap4\n  mstore\n    /* \"#utility.yul\":3363:3365   */\n  0x40\n    /* \"#utility.yul\":3348:3366   */\n  dup5\n  add\n    /* \"#utility.yul\":3341:3375   */\n  swap2\n  swap1\n  swap2\n  mstore\n    /* \"#utility.yul\":3406:3408   */\n  0x60\n    /* \"#utility.yul\":3391:3409   */\n  dup4\n  add\n    /* \"#utility.yul\":3384:3418   */\n  mstore\n    /* \"#utility.yul\":3449:3452   */\n  0x80\n    /* \"#utility.yul\":3434:3453   */\n  dup3\n  add\n    /* \"#utility.yul\":3427:3462   */\n  mstore\n    /* \"#utility.yul\":3225:3228   */\n  0xa0\n    /* \"#utility.yul\":3210:3229   */\n  add\n    /* \"Contract\":16519:16590  new DEX(address(this), auctionStart, deadlineLength, startPrice, basis) */\n  mload(0x40)\n  dup1\n  swap2\n  sub\n  swap1\n  0x00\n  create\n  dup1\n  iszero\n  dup1\n  iszero\n  tag_23\n  jumpi\n  returndatasize\n  0x00\n  dup1\n  returndatacopy\n  revert(0x00, returndatasize)\ntag_23:\n  pop\n    /* \"Contract\":16512:16516  _dex */\n  0x0a\n    /* \"Contract\":16512:16590  _dex = new DEX(address(this), auctionStart, deadlineLength, startPrice, basis) */\n  dup1\n  sload\n  not(sub(shl(0xa0, 0x01), 0x01))\n  and\n  sub(shl(0xa0, 0x01), 0x01)\n  swap3\n  swap1\n  swap3\n  and\n  swap2\n  swap1\n  swap2\n  or\n  swap1\n  sstore\n  0x00\n    /* \"Contract\":16649:16657  _tokenId */\n  0x09\n    /* \"Contract\":16649:16661  _tokenId = 0 */\n  dup2\n  swap1\n  sstore\n    /* \"Contract\":16627:16637  msg.sender */\n  caller\n  swap1\n    /* \"Contract\":16672:16700  _safeMint(_sender, _tokenId) */\n  tag_24\n  swap1\n    /* \"Contract\":16627:16637  msg.sender */\n  dup3\n  swap1\n    /* \"Contract\":16672:16681  _safeMint */\n  tag_25\n    /* \"Contract\":16672:16700  _safeMint(_sender, _tokenId) */\n  jump\t// in\ntag_24:\n    /* \"Contract\":16711:16737  _setTokenURI(0, _tokenURI) */\n  tag_26\n    /* \"Contract\":16724:16725  0 */\n  0x00\n    /* \"Contract\":16727:16736  _tokenURI */\n  dup5\n    /* \"Contract\":16711:16723  _setTokenURI */\n  tag_27\n    /* \"Contract\":16711:16737  _setTokenURI(0, _tokenURI) */\n  jump\t// in\ntag_26:\n    /* \"Contract\":16748:16783  addOwner(msg.sender, _messageInput) */\n  tag_28\n    /* \"Contract\":16757:16767  msg.sender */\n  caller\n    /* \"Contract\":16769:16782  _messageInput */\n  dup4\n    /* \"Contract\":16748:16756  addOwner */\n  tag_29\n    /* \"Contract\":16748:16783  addOwner(msg.sender, _messageInput) */\n  jump\t// in\ntag_28:\n    /* \"Contract\":16799:16892  ContractCreated(__name, __symbol, auctionStart, deadlineLength, startPrice, basis, _tokenURI) */\n  0xc7947f43485688b2f636fcdd616229dc345b08d5b66d9ced2ced30fbde5113\n    /* \"Contract\":16815:16821  __name */\n  dup10\n    /* \"Contract\":16823:16831  __symbol */\n  dup10\n    /* \"Contract\":16833:16845  auctionStart */\n  dup10\n    /* \"Contract\":16847:16861  deadlineLength */\n  dup10\n    /* \"Contract\":16863:16873  startPrice */\n  dup10\n    /* \"Contract\":16875:16880  basis */\n  dup10\n    /* \"Contract\":16882:16891  _tokenURI */\n  dup10\n    /* \"Contract\":16799:16892  ContractCreated(__name, __symbol, auctionStart, deadlineLength, startPrice, basis, _tokenURI) */\n  mload(0x40)\n  tag_30\n  swap8\n  swap7\n  swap6\n  swap5\n  swap4\n  swap3\n  swap2\n  swap1\n  tag_31\n  jump\t// in\ntag_30:\n  mload(0x40)\n  dup1\n  swap2\n  sub\n  swap1\n  log1\n    /* \"Contract\":16351:16934  {\r... */\n  pop\n    /* \"Contract\":16158:16934  constructor( string memory __name, string memory __symbol, uint256 auctionStart, uint256 deadlineLength, uint256 startPrice, uint256 basis, string memory _tokenURI, string memory _messageInput){\r... */\n  pop\n  pop\n  pop\n  pop\n  pop\n  pop\n  pop\n  pop\n    /* \"Contract\":703:20093  contract RichCoin is ERC721Holder, ERC165, IERC721Metadata, Ownable, IRichCoin{\r... */\n  jump(tag_105)\n    /* \"openzeppelin/contracts/access/Ownable.sol\":2041:2210   */\ntag_12:\n    /* \"openzeppelin/contracts/access/Ownable.sol\":2096:2112   */\n  0x00\n    /* \"openzeppelin/contracts/access/Ownable.sol\":2115:2121   */\n  dup1\n  sload\n  sub(shl(0xa0, 0x01), 0x01)\n    /* \"openzeppelin/contracts/access/Ownable.sol\":2131:2148   */\n  dup4\n  dup2\n  and\n  not(sub(shl(0xa0, 0x01), 0x01))\n  dup4\n  and\n  dup2\n  or\n  dup5\n  sstore\n    /* \"openzeppelin/contracts/access/Ownable.sol\":2163:2203   */\n  mload(0x40)\n    /* \"openzeppelin/contracts/access/Ownable.sol\":2115:2121   */\n  swap2\n  swap1\n  swap3\n  and\n  swap3\n  dup4\n  swap2\n    /* \"openzeppelin/contracts/access/Ownable.sol\":2163:2203   */\n  0x8be0079c531659141344cd1fd0a4f28419497f9722a3daafe3b4186f6b6457e0\n  swap2\n    /* \"openzeppelin/contracts/access/Ownable.sol\":2096:2112   */\n  swap1\n    /* \"openzeppelin/contracts/access/Ownable.sol\":2163:2203   */\n  log3\n    /* \"openzeppelin/contracts/access/Ownable.sol\":2086:2210   */\n  pop\n    /* \"openzeppelin/contracts/access/Ownable.sol\":2041:2210   */\n  pop\n  jump\t// out\n    /* \"Contract\":8654:8756  function _safeMint(address to, uint256 tokenId) internal {\r... */\ntag_25:\n    /* \"Contract\":8722:8748  _safeMint(to, tokenId, \"\") */\n  tag_36\n    /* \"Contract\":8732:8734  to */\n  dup3\n    /* \"Contract\":8736:8743  tokenId */\n  dup3\n    /* \"Contract\":8722:8748  _safeMint(to, tokenId, \"\") */\n  mload(0x40)\n  dup1\n  0x20\n  add\n  0x40\n  mstore\n  dup1\n  0x00\n  dup2\n  mstore\n  pop\n    /* \"Contract\":8722:8731  _safeMint */\n  shl(0x20, tag_37)\n    /* \"Contract\":8722:8748  _safeMint(to, tokenId, \"\") */\n  0x20\n  shr\n  jump\t// in\ntag_36:\n    /* \"Contract\":8654:8756  function _safeMint(address to, uint256 tokenId) internal {\r... */\n  pop\n  pop\n  jump\t// out\n    /* \"Contract\":1858:2088  function _setTokenURI(uint256 tokenId, string memory _tokenURI) internal { //external onlyOwner\r... */\ntag_27:\n    /* \"Contract\":7745:7749  bool */\n  0x00\n    /* \"Contract\":7769:7785  _owners[tokenId] */\n  dup3\n  dup2\n  mstore\n    /* \"Contract\":7769:7776  _owners */\n  0x05\n    /* \"Contract\":7769:7785  _owners[tokenId] */\n  0x20\n  mstore\n  0x40\n  swap1\n  keccak256\n  sload\n  sub(shl(0xa0, 0x01), 0x01)\n  and\n    /* \"Contract\":1963:2038  require(_exists(tokenId), \"ERC721URIStorage: URI set of nonexistent token\") */\n  tag_41\n  jumpi\n  mload(0x40)\n  shl(0xe5, 0x461bcd)\n  dup2\n  mstore\n    /* \"#utility.yul\":5288:5290   */\n  0x20\n    /* \"Contract\":1963:2038  require(_exists(tokenId), \"ERC721URIStorage: URI set of nonexistent token\") */\n  0x04\n  dup3\n  add\n    /* \"#utility.yul\":5270:5291   */\n  mstore\n    /* \"#utility.yul\":5327:5329   */\n  0x2e\n    /* \"#utility.yul\":5307:5325   */\n  0x24\n  dup3\n  add\n    /* \"#utility.yul\":5300:5330   */\n  mstore\n    /* \"#utility.yul\":5366:5400   */\n  0x45524337323155524953746f726167653a2055524920736574206f66206e6f6e\n    /* \"#utility.yul\":5346:5364   */\n  0x44\n  dup3\n  add\n    /* \"#utility.yul\":5339:5401   */\n  mstore\n  shl(0x91, 0x32bc34b9ba32b73a103a37b5b2b7)\n    /* \"#utility.yul\":5417:5435   */\n  0x64\n  dup3\n  add\n    /* \"#utility.yul\":5410:5454   */\n  mstore\n    /* \"#utility.yul\":5471:5490   */\n  0x84\n  add\n    /* \"Contract\":1963:2038  require(_exists(tokenId), \"ERC721URIStorage: URI set of nonexistent token\") */\n  tag_15\n    /* \"#utility.yul\":5260:5496   */\n  jump\n    /* \"Contract\":1963:2038  require(_exists(tokenId), \"ERC721URIStorage: URI set of nonexistent token\") */\ntag_41:\n    /* \"Contract\":2049:2068  _tokenURIs[tokenId] */\n  0x00\n  dup3\n  dup2\n  mstore\n    /* \"Contract\":2049:2059  _tokenURIs */\n  0x01\n    /* \"Contract\":2049:2068  _tokenURIs[tokenId] */\n  0x20\n  swap1\n  dup2\n  mstore\n  0x40\n  swap1\n  swap2\n  keccak256\n    /* \"Contract\":2049:2080  _tokenURIs[tokenId] = _tokenURI */\n  dup3\n  mload\n  tag_44\n  swap3\n  dup5\n  add\n  swap1\n  tag_2\n  jump\t// in\ntag_44:\n  pop\n    /* \"Contract\":1858:2088  function _setTokenURI(uint256 tokenId, string memory _tokenURI) internal { //external onlyOwner\r... */\n  pop\n  pop\n  jump\t// out\n    /* \"Contract\":17574:17848  function addOwner(address _newOwner, string memory message) internal{\r... */\ntag_29:\n  sub(shl(0xa0, 0x01), 0x01)\n    /* \"Contract\":17653:17673  _wasOwner[_newOwner] */\n  dup3\n  and\n  0x00\n  swap1\n  dup2\n  mstore\n    /* \"Contract\":17653:17662  _wasOwner */\n  0x0b\n    /* \"Contract\":17653:17673  _wasOwner[_newOwner] */\n  0x20\n  mstore\n  0x40\n  dup2\n  keccak256\n    /* \"Contract\":17653:17680  _wasOwner[_newOwner] = true */\n  dup1\n  sload\n  not(0xff)\n  and\n    /* \"Contract\":17676:17680  true */\n  0x01\n    /* \"Contract\":17653:17680  _wasOwner[_newOwner] = true */\n  or\n  swap1\n  sstore\n    /* \"Contract\":17691:17699  _counter */\n  0x10\n    /* \"Contract\":17691:17701  _counter++ */\n  dup1\n  sload\n  swap2\n  tag_46\n  dup4\n  tag_47\n  jump\t// in\ntag_46:\n  swap1\n  swap2\n  sstore\n  pop\n  pop\n    /* \"Contract\":17724:17732  _counter */\n  0x10\n  dup1\n  sload\n    /* \"Contract\":17712:17733  _ownerOrder[_counter] */\n  0x00\n  swap1\n  dup2\n  mstore\n    /* \"Contract\":17712:17723  _ownerOrder */\n  0x0c\n    /* \"Contract\":17712:17733  _ownerOrder[_counter] */\n  0x20\n  swap1\n  dup2\n  mstore\n  0x40\n  dup1\n  dup4\n  keccak256\n    /* \"Contract\":17712:17745  _ownerOrder[_counter] = _newOwner */\n  dup1\n  sload\n  not(sub(shl(0xa0, 0x01), 0x01))\n  and\n  sub(shl(0xa0, 0x01), 0x01)\n  dup9\n  and\n  swap1\n  dup2\n  or\n  swap1\n  swap2\n  sstore\n    /* \"Contract\":17783:17791  _counter */\n  swap4\n  sload\n    /* \"Contract\":17756:17780  _orderToOwner[_newOwner] */\n  swap4\n  dup4\n  mstore\n    /* \"Contract\":17756:17769  _orderToOwner */\n  0x0d\n    /* \"Contract\":17756:17780  _orderToOwner[_newOwner] */\n  dup3\n  mstore\n  dup1\n  dup4\n  keccak256\n    /* \"Contract\":17756:17791  _orderToOwner[_newOwner] = _counter */\n  swap4\n  swap1\n  swap4\n  sstore\n    /* \"Contract\":17802:17817  _ownerToMessage */\n  0x0e\n    /* \"Contract\":17802:17828  _ownerToMessage[_newOwner] */\n  dup2\n  mstore\n  swap2\n  swap1\n  keccak256\n    /* \"Contract\":17802:17838  _ownerToMessage[_newOwner] = message */\n  dup3\n  mload\n  tag_44\n  swap3\n  dup5\n  add\n  swap1\n  tag_2\n  jump\t// in\n    /* \"Contract\":8983:9296  function _safeMint(\r... */\ntag_37:\n    /* \"Contract\":9105:9123  _mint(to, tokenId) */\n  tag_50\n    /* \"Contract\":9111:9113  to */\n  dup4\n    /* \"Contract\":9115:9122  tokenId */\n  dup4\n    /* \"Contract\":9105:9110  _mint */\n  tag_51\n    /* \"Contract\":9105:9123  _mint(to, tokenId) */\n  jump\t// in\ntag_50:\n    /* \"Contract\":9156:9210  _checkOnERC721Received(address(0), to, tokenId, _data) */\n  tag_52\n    /* \"Contract\":9187:9188  0 */\n  0x00\n    /* \"Contract\":9191:9193  to */\n  dup5\n    /* \"Contract\":9195:9202  tokenId */\n  dup5\n    /* \"Contract\":9204:9209  _data */\n  dup5\n    /* \"Contract\":9156:9178  _checkOnERC721Received */\n  tag_53\n    /* \"Contract\":9156:9210  _checkOnERC721Received(address(0), to, tokenId, _data) */\n  jump\t// in\ntag_52:\n    /* \"Contract\":9134:9288  require(\r... */\n  tag_44\n  jumpi\n  mload(0x40)\n  shl(0xe5, 0x461bcd)\n  dup2\n  mstore\n    /* \"#utility.yul\":4512:4514   */\n  0x20\n    /* \"Contract\":9134:9288  require(\r... */\n  0x04\n  dup3\n  add\n    /* \"#utility.yul\":4494:4515   */\n  mstore\n    /* \"#utility.yul\":4551:4553   */\n  0x32\n    /* \"#utility.yul\":4531:4549   */\n  0x24\n  dup3\n  add\n    /* \"#utility.yul\":4524:4554   */\n  mstore\n  0x00\n  dup1\n  mload\n  0x20\n  data_161bc498ca71a282f0083506b6a0f45d7fff1984aafe7ae73f8ebf614f6aa872\n  dup4\n  codecopy\n  dup2\n  mload\n  swap2\n  mstore\n    /* \"#utility.yul\":4570:4588   */\n  0x44\n  dup3\n  add\n    /* \"#utility.yul\":4563:4625   */\n  mstore\n  shl(0x71, 0x31b2b4bb32b91034b6b83632b6b2b73a32b9)\n    /* \"#utility.yul\":4641:4659   */\n  0x64\n  dup3\n  add\n    /* \"#utility.yul\":4634:4682   */\n  mstore\n    /* \"#utility.yul\":4699:4718   */\n  0x84\n  add\n    /* \"Contract\":9134:9288  require(\r... */\n  tag_15\n    /* \"#utility.yul\":4484:4724   */\n  jump\n    /* \"Contract\":9632:10006  function _mint(address to, uint256 tokenId) internal {\r... */\ntag_51:\n  sub(shl(0xa0, 0x01), 0x01)\n    /* \"Contract\":9704:9720  to != address(0) */\n  dup3\n  and\n    /* \"Contract\":9696:9757  require(to != address(0), \"ERC721: mint to the zero address\") */\n  tag_59\n  jumpi\n  mload(0x40)\n  shl(0xe5, 0x461bcd)\n  dup2\n  mstore\n    /* \"#utility.yul\":5703:5705   */\n  0x20\n    /* \"Contract\":9696:9757  require(to != address(0), \"ERC721: mint to the zero address\") */\n  0x04\n  dup3\n  add\n    /* \"#utility.yul\":5685:5706   */\n  dup2\n  swap1\n  mstore\n    /* \"#utility.yul\":5722:5740   */\n  0x24\n  dup3\n  add\n    /* \"#utility.yul\":5715:5745   */\n  mstore\n    /* \"#utility.yul\":5781:5815   */\n  0x4552433732313a206d696e7420746f20746865207a65726f2061646472657373\n    /* \"#utility.yul\":5761:5779   */\n  0x44\n  dup3\n  add\n    /* \"#utility.yul\":5754:5816   */\n  mstore\n    /* \"#utility.yul\":5833:5851   */\n  0x64\n  add\n    /* \"Contract\":9696:9757  require(to != address(0), \"ERC721: mint to the zero address\") */\n  tag_15\n    /* \"#utility.yul\":5675:5857   */\n  jump\n    /* \"Contract\":9696:9757  require(to != address(0), \"ERC721: mint to the zero address\") */\ntag_59:\n    /* \"Contract\":7745:7749  bool */\n  0x00\n    /* \"Contract\":7769:7785  _owners[tokenId] */\n  dup2\n  dup2\n  mstore\n    /* \"Contract\":7769:7776  _owners */\n  0x05\n    /* \"Contract\":7769:7785  _owners[tokenId] */\n  0x20\n  mstore\n  0x40\n  swap1\n  keccak256\n  sload\n  sub(shl(0xa0, 0x01), 0x01)\n  and\n    /* \"Contract\":7769:7799  _owners[tokenId] != address(0) */\n  iszero\n    /* \"Contract\":9768:9826  require(!_exists(tokenId), \"ERC721: token already minted\") */\n  tag_63\n  jumpi\n  mload(0x40)\n  shl(0xe5, 0x461bcd)\n  dup2\n  mstore\n    /* \"#utility.yul\":4931:4933   */\n  0x20\n    /* \"Contract\":9768:9826  require(!_exists(tokenId), \"ERC721: token already minted\") */\n  0x04\n  dup3\n  add\n    /* \"#utility.yul\":4913:4934   */\n  mstore\n    /* \"#utility.yul\":4970:4972   */\n  0x1c\n    /* \"#utility.yul\":4950:4968   */\n  0x24\n  dup3\n  add\n    /* \"#utility.yul\":4943:4973   */\n  mstore\n    /* \"#utility.yul\":5009:5039   */\n  0x4552433732313a20746f6b656e20616c7265616479206d696e74656400000000\n    /* \"#utility.yul\":4989:5007   */\n  0x44\n  dup3\n  add\n    /* \"#utility.yul\":4982:5040   */\n  mstore\n    /* \"#utility.yul\":5057:5075   */\n  0x64\n  add\n    /* \"Contract\":9768:9826  require(!_exists(tokenId), \"ERC721: token already minted\") */\n  tag_15\n    /* \"#utility.yul\":4903:5081   */\n  jump\n    /* \"Contract\":9768:9826  require(!_exists(tokenId), \"ERC721: token already minted\") */\ntag_63:\n  sub(shl(0xa0, 0x01), 0x01)\n    /* \"Contract\":9897:9910  _balances[to] */\n  dup3\n  and\n  0x00\n  swap1\n  dup2\n  mstore\n    /* \"Contract\":9897:9906  _balances */\n  0x06\n    /* \"Contract\":9897:9910  _balances[to] */\n  0x20\n  mstore\n  0x40\n  dup2\n  keccak256\n    /* \"Contract\":9897:9915  _balances[to] += 1 */\n  dup1\n  sload\n    /* \"Contract\":9914:9915  1 */\n  0x01\n  swap3\n    /* \"Contract\":9897:9910  _balances[to] */\n  swap1\n    /* \"Contract\":9897:9915  _balances[to] += 1 */\n  tag_68\n  swap1\n    /* \"Contract\":9914:9915  1 */\n  dup5\n  swap1\n    /* \"Contract\":9897:9915  _balances[to] += 1 */\n  tag_69\n  jump\t// in\ntag_68:\n  swap1\n  swap2\n  sstore\n  pop\n  pop\n    /* \"Contract\":9926:9942  _owners[tokenId] */\n  0x00\n  dup2\n  dup2\n  mstore\n    /* \"Contract\":9926:9933  _owners */\n  0x05\n    /* \"Contract\":9926:9942  _owners[tokenId] */\n  0x20\n  mstore\n  0x40\n  dup1\n  dup3\n  keccak256\n    /* \"Contract\":9926:9947  _owners[tokenId] = to */\n  dup1\n  sload\n  not(sub(shl(0xa0, 0x01), 0x01))\n  and\n  sub(shl(0xa0, 0x01), 0x01)\n  dup7\n  and\n  swap1\n  dup2\n  or\n  swap1\n  swap2\n  sstore\n    /* \"Contract\":9965:9998  Transfer(address(0), to, tokenId) */\n  swap1\n  mload\n    /* \"Contract\":9926:9942  _owners[tokenId] */\n  dup4\n  swap3\n  swap1\n    /* \"Contract\":9965:9998  Transfer(address(0), to, tokenId) */\n  0xddf252ad1be2c89b69c2b068fc378daa952ba7f163c4a11628f55a4df523b3ef\n  swap1\n    /* \"Contract\":9926:9942  _owners[tokenId] */\n  dup3\n  swap1\n    /* \"Contract\":9965:9998  Transfer(address(0), to, tokenId) */\n  log4\n    /* \"Contract\":9632:10006  function _mint(address to, uint256 tokenId) internal {\r... */\n  pop\n  pop\n  jump\t// out\n    /* \"Contract\":12448:13247  function _checkOnERC721Received(\r... */\ntag_53:\n    /* \"Contract\":12603:12607  bool */\n  0x00\n    /* \"Contract\":12624:12639  to.isContract() */\n  tag_71\n    /* \"Contract\":12624:12626  to */\n  dup5\n  sub(shl(0xa0, 0x01), 0x01)\n    /* \"Contract\":12624:12637  to.isContract */\n  and\n  or(tag_0_184, shl(0x20, tag_72))\n    /* \"Contract\":12624:12639  to.isContract() */\n  0x20\n  shr\n  jump\t// in\ntag_71:\n    /* \"Contract\":12620:13240  if (to.isContract()) {\r... */\n  iszero\n  tag_73\n  jumpi\n    /* \"Contract\":12660:12732  IERC721Receiver(to).onERC721Received(_msgSender(), from, tokenId, _data) */\n  mload(0x40)\n  shl(0xe1, 0x0a85bd01)\n  dup2\n  mstore\n  sub(shl(0xa0, 0x01), 0x01)\n    /* \"Contract\":12660:12696  IERC721Receiver(to).onERC721Received */\n  dup6\n  and\n  swap1\n  0x150b7a02\n  swap1\n    /* \"Contract\":12660:12732  IERC721Receiver(to).onERC721Received(_msgSender(), from, tokenId, _data) */\n  tag_75\n  swap1\n    /* \"openzeppelin/contracts/utils/Context.sol\":666:676   */\n  caller\n  swap1\n    /* \"Contract\":12711:12715  from */\n  dup10\n  swap1\n    /* \"Contract\":12717:12724  tokenId */\n  dup9\n  swap1\n    /* \"Contract\":12726:12731  _data */\n  dup9\n  swap1\n    /* \"Contract\":12660:12732  IERC721Receiver(to).onERC721Received(_msgSender(), from, tokenId, _data) */\n  0x04\n  add\n  tag_76\n  jump\t// in\ntag_75:\n  0x20\n  mload(0x40)\n  dup1\n  dup4\n  sub\n  dup2\n  0x00\n  dup8\n  dup1\n  extcodesize\n  iszero\n  dup1\n  iszero\n  tag_77\n  jumpi\n  0x00\n  dup1\n  revert\ntag_77:\n  pop\n  gas\n  call\n  swap3\n  pop\n  pop\n  pop\n  dup1\n  iszero\n  tag_78\n  jumpi\n  pop\n  0x40\n  dup1\n  mload\n  0x1f\n  returndatasize\n  swap1\n  dup2\n  add\n  not(0x1f)\n  and\n  dup3\n  add\n  swap1\n  swap3\n  mstore\n  tag_79\n  swap2\n  dup2\n  add\n  swap1\n  tag_80\n  jump\t// in\ntag_79:\n  0x01\ntag_78:\n    /* \"Contract\":12656:13185  try IERC721Receiver(to).onERC721Received(_msgSender(), from, tokenId, _data) returns (bytes4 retval) {\r... */\n  tag_81\n  jumpi\n  returndatasize\n  dup1\n  dup1\n  iszero\n  tag_86\n  jumpi\n  mload(0x40)\n  swap2\n  pop\n  and(add(returndatasize, 0x3f), not(0x1f))\n  dup3\n  add\n  0x40\n  mstore\n  returndatasize\n  dup3\n  mstore\n  returndatasize\n  0x00\n  0x20\n  dup5\n  add\n  returndatacopy\n  jump(tag_85)\ntag_86:\n  0x60\n  swap2\n  pop\ntag_85:\n  pop\n    /* \"Contract\":12902:12915  reason.length */\n  dup1\n  mload\n    /* \"Contract\":12898:13170  if (reason.length == 0) {\r... */\n  tag_87\n  jumpi\n    /* \"Contract\":12945:13005  revert(\"ERC721: transfer to non ERC721Receiver implementer\") */\n  mload(0x40)\n  shl(0xe5, 0x461bcd)\n  dup2\n  mstore\n    /* \"#utility.yul\":4512:4514   */\n  0x20\n    /* \"Contract\":12945:13005  revert(\"ERC721: transfer to non ERC721Receiver implementer\") */\n  0x04\n  dup3\n  add\n    /* \"#utility.yul\":4494:4515   */\n  mstore\n    /* \"#utility.yul\":4551:4553   */\n  0x32\n    /* \"#utility.yul\":4531:4549   */\n  0x24\n  dup3\n  add\n    /* \"#utility.yul\":4524:4554   */\n  mstore\n  0x00\n  dup1\n  mload\n  0x20\n  data_161bc498ca71a282f0083506b6a0f45d7fff1984aafe7ae73f8ebf614f6aa872\n  dup4\n  codecopy\n  dup2\n  mload\n  swap2\n  mstore\n    /* \"#utility.yul\":4570:4588   */\n  0x44\n  dup3\n  add\n    /* \"#utility.yul\":4563:4625   */\n  mstore\n  shl(0x71, 0x31b2b4bb32b91034b6b83632b6b2b73a32b9)\n    /* \"#utility.yul\":4641:4659   */\n  0x64\n  dup3\n  add\n    /* \"#utility.yul\":4634:4682   */\n  mstore\n    /* \"#utility.yul\":4699:4718   */\n  0x84\n  add\n    /* \"Contract\":12945:13005  revert(\"ERC721: transfer to non ERC721Receiver implementer\") */\n  tag_15\n    /* \"#utility.yul\":4484:4724   */\n  jump\n    /* \"Contract\":12898:13170  if (reason.length == 0) {\r... */\ntag_87:\n    /* \"Contract\":13120:13126  reason */\n  dup1\n    /* \"Contract\":13114:13127  mload(reason) */\n  mload\n    /* \"Contract\":13105:13111  reason */\n  dup2\n    /* \"Contract\":13101:13103  32 */\n  0x20\n    /* \"Contract\":13097:13112  add(32, reason) */\n  add\n    /* \"Contract\":13090:13128  revert(add(32, reason), mload(reason)) */\n  revert\n    /* \"Contract\":12656:13185  try IERC721Receiver(to).onERC721Received(_msgSender(), from, tokenId, _data) returns (bytes4 retval) {\r... */\ntag_81:\n  not(sub(shl(0xe0, 0x01), 0x01))\n    /* \"Contract\":12783:12834  retval == IERC721Receiver.onERC721Received.selector */\n  and\n  shl(0xe1, 0x0a85bd01)\n  eq\n  swap1\n  pop\n    /* \"Contract\":12776:12834  return retval == IERC721Receiver.onERC721Received.selector */\n  jump(tag_91)\n    /* \"Contract\":12620:13240  if (to.isContract()) {\r... */\ntag_73:\n  pop\n    /* \"Contract\":13224:13228  true */\n  0x01\n    /* \"Contract\":12620:13240  if (to.isContract()) {\r... */\ntag_91:\n    /* \"Contract\":12448:13247  function _checkOnERC721Received(\r... */\n  swap5\n  swap4\n  pop\n  pop\n  pop\n  pop\n  jump\t// out\n    /* \"openzeppelin/contracts/utils/Address.sol\":718:1095   */\ntag_72:\n    /* \"openzeppelin/contracts/utils/Address.sol\":1034:1054   */\n  extcodesize\n    /* \"openzeppelin/contracts/utils/Address.sol\":1080:1088   */\n  iszero\n  iszero\n  swap1\n    /* \"openzeppelin/contracts/utils/Address.sol\":718:1095   */\n  jump\t// out\n    /* \"Contract\":703:20093  contract RichCoin is ERC721Holder, ERC165, IERC721Metadata, Ownable, IRichCoin{\r... */\ntag_2:\n  dup3\n  dup1\n  sload\n  tag_94\n  swap1\n  tag_95\n  jump\t// in\ntag_94:\n  swap1\n  0x00\n  mstore\n  keccak256(0x00, 0x20)\n  swap1\n  0x1f\n  add\n  0x20\n  swap1\n  div\n  dup2\n  add\n  swap3\n  dup3\n  tag_97\n  jumpi\n  0x00\n  dup6\n  sstore\n  jump(tag_100)\ntag_97:\n  dup3\n  0x1f\n  lt\n  tag_98\n  jumpi\n  dup1\n  mload\n  not(0xff)\n  and\n  dup4\n  dup1\n  add\n  or\n  dup6\n  sstore\n  jump(tag_100)\ntag_98:\n  dup3\n  dup1\n  add\n  0x01\n  add\n  dup6\n  sstore\n  dup3\n  iszero\n  tag_100\n  jumpi\n  swap2\n  dup3\n  add\ntag_99:\n  dup3\n  dup2\n  gt\n  iszero\n  tag_100\n  jumpi\n  dup3\n  mload\n  dup3\n  sstore\n  swap2\n  0x20\n  add\n  swap2\n  swap1\n  0x01\n  add\n  swap1\n  jump(tag_99)\ntag_100:\n  pop\n  tag_101\n  swap3\n  swap2\n  pop\n  tag_102\n  jump\t// in\ntag_101:\n  pop\n  swap1\n  jump\t// out\ntag_20:\n  dataSize(sub_1)\n  dup1\n  dataOffset(sub_1)\n  dup4\n  codecopy\n  add\n  swap1\n  jump\t// out\ntag_102:\ntag_103:\n  dup1\n  dup3\n  gt\n  iszero\n  tag_101\n  jumpi\n  0x00\n  dup2\n  sstore\n  0x01\n  add\n  jump(tag_103)\n    /* \"#utility.yul\":14:700   */\ntag_106:\n    /* \"#utility.yul\":68:73   */\n  0x00\n    /* \"#utility.yul\":121:124   */\n  dup3\n    /* \"#utility.yul\":114:118   */\n  0x1f\n    /* \"#utility.yul\":106:112   */\n  dup4\n    /* \"#utility.yul\":102:119   */\n  add\n    /* \"#utility.yul\":98:125   */\n  slt\n    /* \"#utility.yul\":88:90   */\n  tag_108\n  jumpi\n    /* \"#utility.yul\":139:140   */\n  0x00\n    /* \"#utility.yul\":136:137   */\n  dup1\n    /* \"#utility.yul\":129:141   */\n  revert\n    /* \"#utility.yul\":88:90   */\ntag_108:\n    /* \"#utility.yul\":162:175   */\n  dup2\n  mload\n  sub(shl(0x40, 0x01), 0x01)\n    /* \"#utility.yul\":224:234   */\n  dup1\n  dup3\n  gt\n    /* \"#utility.yul\":221:223   */\n  iszero\n  tag_110\n  jumpi\n    /* \"#utility.yul\":237:255   */\n  tag_110\n  tag_111\n  jump\t// in\ntag_110:\n    /* \"#utility.yul\":312:314   */\n  0x40\n    /* \"#utility.yul\":306:315   */\n  mload\n    /* \"#utility.yul\":280:282   */\n  0x1f\n    /* \"#utility.yul\":366:379   */\n  dup4\n  add\n  not(0x1f)\n    /* \"#utility.yul\":362:384   */\n  swap1\n  dup2\n  and\n    /* \"#utility.yul\":386:388   */\n  0x3f\n    /* \"#utility.yul\":358:389   */\n  add\n    /* \"#utility.yul\":354:394   */\n  and\n    /* \"#utility.yul\":342:395   */\n  dup2\n  add\n  swap1\n    /* \"#utility.yul\":410:428   */\n  dup3\n  dup3\n  gt\n    /* \"#utility.yul\":430:452   */\n  dup2\n  dup4\n  lt\n    /* \"#utility.yul\":407:453   */\n  or\n    /* \"#utility.yul\":404:406   */\n  iszero\n  tag_113\n  jumpi\n    /* \"#utility.yul\":456:474   */\n  tag_113\n  tag_111\n  jump\t// in\ntag_113:\n    /* \"#utility.yul\":496:506   */\n  dup2\n    /* \"#utility.yul\":492:494   */\n  0x40\n    /* \"#utility.yul\":485:507   */\n  mstore\n    /* \"#utility.yul\":531:533   */\n  dup4\n    /* \"#utility.yul\":523:529   */\n  dup2\n    /* \"#utility.yul\":516:534   */\n  mstore\n    /* \"#utility.yul\":577:580   */\n  dup7\n    /* \"#utility.yul\":570:574   */\n  0x20\n    /* \"#utility.yul\":565:567   */\n  dup6\n    /* \"#utility.yul\":557:563   */\n  dup9\n    /* \"#utility.yul\":553:568   */\n  add\n    /* \"#utility.yul\":549:575   */\n  add\n    /* \"#utility.yul\":546:581   */\n  gt\n    /* \"#utility.yul\":543:545   */\n  iszero\n  tag_114\n  jumpi\n    /* \"#utility.yul\":594:595   */\n  0x00\n    /* \"#utility.yul\":591:592   */\n  dup1\n    /* \"#utility.yul\":584:596   */\n  revert\n    /* \"#utility.yul\":543:545   */\ntag_114:\n    /* \"#utility.yul\":607:670   */\n  tag_115\n    /* \"#utility.yul\":667:669   */\n  dup5\n    /* \"#utility.yul\":660:664   */\n  0x20\n    /* \"#utility.yul\":652:658   */\n  dup4\n    /* \"#utility.yul\":648:665   */\n  add\n    /* \"#utility.yul\":641:645   */\n  0x20\n    /* \"#utility.yul\":633:639   */\n  dup10\n    /* \"#utility.yul\":629:646   */\n  add\n    /* \"#utility.yul\":607:670   */\n  tag_116\n  jump\t// in\ntag_115:\n    /* \"#utility.yul\":688:694   */\n  swap7\n    /* \"#utility.yul\":78:700   */\n  swap6\n  pop\n  pop\n  pop\n  pop\n  pop\n  pop\n  jump\t// out\n    /* \"#utility.yul\":705:995   */\ntag_80:\n    /* \"#utility.yul\":774:780   */\n  0x00\n    /* \"#utility.yul\":827:829   */\n  0x20\n    /* \"#utility.yul\":815:824   */\n  dup3\n    /* \"#utility.yul\":806:813   */\n  dup5\n    /* \"#utility.yul\":802:825   */\n  sub\n    /* \"#utility.yul\":798:830   */\n  slt\n    /* \"#utility.yul\":795:797   */\n  iszero\n  tag_118\n  jumpi\n    /* \"#utility.yul\":843:844   */\n  0x00\n    /* \"#utility.yul\":840:841   */\n  dup1\n    /* \"#utility.yul\":833:845   */\n  revert\n    /* \"#utility.yul\":795:797   */\ntag_118:\n    /* \"#utility.yul\":869:885   */\n  dup2\n  mload\n  not(sub(shl(0xe0, 0x01), 0x01))\n    /* \"#utility.yul\":914:946   */\n  dup2\n  and\n    /* \"#utility.yul\":904:947   */\n  dup2\n  eq\n    /* \"#utility.yul\":894:896   */\n  tag_119\n  jumpi\n    /* \"#utility.yul\":961:962   */\n  0x00\n    /* \"#utility.yul\":958:959   */\n  dup1\n    /* \"#utility.yul\":951:963   */\n  revert\n    /* \"#utility.yul\":894:896   */\ntag_119:\n    /* \"#utility.yul\":984:989   */\n  swap4\n    /* \"#utility.yul\":785:995   */\n  swap3\n  pop\n  pop\n  pop\n  jump\t// out\n    /* \"#utility.yul\":1000:2219   */\ntag_5:\n    /* \"#utility.yul\":1173:1179   */\n  0x00\n    /* \"#utility.yul\":1181:1187   */\n  dup1\n    /* \"#utility.yul\":1189:1195   */\n  0x00\n    /* \"#utility.yul\":1197:1203   */\n  dup1\n    /* \"#utility.yul\":1205:1211   */\n  0x00\n    /* \"#utility.yul\":1213:1219   */\n  dup1\n    /* \"#utility.yul\":1221:1227   */\n  0x00\n    /* \"#utility.yul\":1229:1235   */\n  dup1\n    /* \"#utility.yul\":1282:1285   */\n  0x0100\n    /* \"#utility.yul\":1270:1279   */\n  dup10\n    /* \"#utility.yul\":1261:1268   */\n  dup12\n    /* \"#utility.yul\":1257:1280   */\n  sub\n    /* \"#utility.yul\":1253:1286   */\n  slt\n    /* \"#utility.yul\":1250:1252   */\n  iszero\n  tag_121\n  jumpi\n    /* \"#utility.yul\":1299:1300   */\n  0x00\n    /* \"#utility.yul\":1296:1297   */\n  dup1\n    /* \"#utility.yul\":1289:1301   */\n  revert\n    /* \"#utility.yul\":1250:1252   */\ntag_121:\n    /* \"#utility.yul\":1326:1342   */\n  dup9\n  mload\n  sub(shl(0x40, 0x01), 0x01)\n    /* \"#utility.yul\":1391:1405   */\n  dup1\n  dup3\n  gt\n    /* \"#utility.yul\":1388:1390   */\n  iszero\n  tag_122\n  jumpi\n    /* \"#utility.yul\":1418:1419   */\n  0x00\n    /* \"#utility.yul\":1415:1416   */\n  dup1\n    /* \"#utility.yul\":1408:1420   */\n  revert\n    /* \"#utility.yul\":1388:1390   */\ntag_122:\n    /* \"#utility.yul\":1441:1502   */\n  tag_123\n    /* \"#utility.yul\":1494:1501   */\n  dup13\n    /* \"#utility.yul\":1485:1491   */\n  dup4\n    /* \"#utility.yul\":1474:1483   */\n  dup14\n    /* \"#utility.yul\":1470:1492   */\n  add\n    /* \"#utility.yul\":1441:1502   */\n  tag_106\n  jump\t// in\ntag_123:\n    /* \"#utility.yul\":1431:1502   */\n  swap10\n  pop\n    /* \"#utility.yul\":1548:1550   */\n  0x20\n    /* \"#utility.yul\":1537:1546   */\n  dup12\n    /* \"#utility.yul\":1533:1551   */\n  add\n    /* \"#utility.yul\":1527:1552   */\n  mload\n    /* \"#utility.yul\":1511:1552   */\n  swap2\n  pop\n    /* \"#utility.yul\":1577:1579   */\n  dup1\n    /* \"#utility.yul\":1567:1575   */\n  dup3\n    /* \"#utility.yul\":1564:1580   */\n  gt\n    /* \"#utility.yul\":1561:1563   */\n  iszero\n  tag_124\n  jumpi\n    /* \"#utility.yul\":1593:1594   */\n  0x00\n    /* \"#utility.yul\":1590:1591   */\n  dup1\n    /* \"#utility.yul\":1583:1595   */\n  revert\n    /* \"#utility.yul\":1561:1563   */\ntag_124:\n    /* \"#utility.yul\":1616:1679   */\n  tag_125\n    /* \"#utility.yul\":1671:1678   */\n  dup13\n    /* \"#utility.yul\":1660:1668   */\n  dup4\n    /* \"#utility.yul\":1649:1658   */\n  dup14\n    /* \"#utility.yul\":1645:1669   */\n  add\n    /* \"#utility.yul\":1616:1679   */\n  tag_106\n  jump\t// in\ntag_125:\n    /* \"#utility.yul\":1606:1679   */\n  swap9\n  pop\n    /* \"#utility.yul\":1719:1721   */\n  0x40\n    /* \"#utility.yul\":1708:1717   */\n  dup12\n    /* \"#utility.yul\":1704:1722   */\n  add\n    /* \"#utility.yul\":1698:1723   */\n  mload\n    /* \"#utility.yul\":1688:1723   */\n  swap8\n  pop\n    /* \"#utility.yul\":1763:1765   */\n  0x60\n    /* \"#utility.yul\":1752:1761   */\n  dup12\n    /* \"#utility.yul\":1748:1766   */\n  add\n    /* \"#utility.yul\":1742:1767   */\n  mload\n    /* \"#utility.yul\":1732:1767   */\n  swap7\n  pop\n    /* \"#utility.yul\":1807:1810   */\n  0x80\n    /* \"#utility.yul\":1796:1805   */\n  dup12\n    /* \"#utility.yul\":1792:1811   */\n  add\n    /* \"#utility.yul\":1786:1812   */\n  mload\n    /* \"#utility.yul\":1776:1812   */\n  swap6\n  pop\n    /* \"#utility.yul\":1852:1855   */\n  0xa0\n    /* \"#utility.yul\":1841:1850   */\n  dup12\n    /* \"#utility.yul\":1837:1856   */\n  add\n    /* \"#utility.yul\":1831:1857   */\n  mload\n    /* \"#utility.yul\":1821:1857   */\n  swap5\n  pop\n    /* \"#utility.yul\":1903:1906   */\n  0xc0\n    /* \"#utility.yul\":1892:1901   */\n  dup12\n    /* \"#utility.yul\":1888:1907   */\n  add\n    /* \"#utility.yul\":1882:1908   */\n  mload\n    /* \"#utility.yul\":1866:1908   */\n  swap2\n  pop\n    /* \"#utility.yul\":1933:1935   */\n  dup1\n    /* \"#utility.yul\":1923:1931   */\n  dup3\n    /* \"#utility.yul\":1920:1936   */\n  gt\n    /* \"#utility.yul\":1917:1919   */\n  iszero\n  tag_126\n  jumpi\n    /* \"#utility.yul\":1949:1950   */\n  0x00\n    /* \"#utility.yul\":1946:1947   */\n  dup1\n    /* \"#utility.yul\":1939:1951   */\n  revert\n    /* \"#utility.yul\":1917:1919   */\ntag_126:\n    /* \"#utility.yul\":1972:2035   */\n  tag_127\n    /* \"#utility.yul\":2027:2034   */\n  dup13\n    /* \"#utility.yul\":2016:2024   */\n  dup4\n    /* \"#utility.yul\":2005:2014   */\n  dup14\n    /* \"#utility.yul\":2001:2025   */\n  add\n    /* \"#utility.yul\":1972:2035   */\n  tag_106\n  jump\t// in\ntag_127:\n    /* \"#utility.yul\":1962:2035   */\n  swap4\n  pop\n    /* \"#utility.yul\":2081:2084   */\n  0xe0\n    /* \"#utility.yul\":2070:2079   */\n  dup12\n    /* \"#utility.yul\":2066:2085   */\n  add\n    /* \"#utility.yul\":2060:2086   */\n  mload\n    /* \"#utility.yul\":2044:2086   */\n  swap2\n  pop\n    /* \"#utility.yul\":2111:2113   */\n  dup1\n    /* \"#utility.yul\":2101:2109   */\n  dup3\n    /* \"#utility.yul\":2098:2114   */\n  gt\n    /* \"#utility.yul\":2095:2097   */\n  iszero\n  tag_128\n  jumpi\n    /* \"#utility.yul\":2127:2128   */\n  0x00\n    /* \"#utility.yul\":2124:2125   */\n  dup1\n    /* \"#utility.yul\":2117:2129   */\n  revert\n    /* \"#utility.yul\":2095:2097   */\ntag_128:\n  pop\n    /* \"#utility.yul\":2150:2213   */\n  tag_129\n    /* \"#utility.yul\":2205:2212   */\n  dup12\n    /* \"#utility.yul\":2194:2202   */\n  dup3\n    /* \"#utility.yul\":2183:2192   */\n  dup13\n    /* \"#utility.yul\":2179:2203   */\n  add\n    /* \"#utility.yul\":2150:2213   */\n  tag_106\n  jump\t// in\ntag_129:\n    /* \"#utility.yul\":2140:2213   */\n  swap2\n  pop\n  pop\n    /* \"#utility.yul\":1240:2219   */\n  swap3\n  swap6\n  swap9\n  pop\n  swap3\n  swap6\n  swap9\n  swap1\n  swap4\n  swap7\n  pop\n  jump\t// out\n    /* \"#utility.yul\":2224:2481   */\ntag_130:\n    /* \"#utility.yul\":2265:2268   */\n  0x00\n    /* \"#utility.yul\":2303:2308   */\n  dup2\n    /* \"#utility.yul\":2297:2309   */\n  mload\n    /* \"#utility.yul\":2330:2336   */\n  dup1\n    /* \"#utility.yul\":2325:2328   */\n  dup5\n    /* \"#utility.yul\":2318:2337   */\n  mstore\n    /* \"#utility.yul\":2346:2409   */\n  tag_132\n    /* \"#utility.yul\":2402:2408   */\n  dup2\n    /* \"#utility.yul\":2395:2399   */\n  0x20\n    /* \"#utility.yul\":2390:2393   */\n  dup7\n    /* \"#utility.yul\":2386:2400   */\n  add\n    /* \"#utility.yul\":2379:2383   */\n  0x20\n    /* \"#utility.yul\":2372:2377   */\n  dup7\n    /* \"#utility.yul\":2368:2384   */\n  add\n    /* \"#utility.yul\":2346:2409   */\n  tag_116\n  jump\t// in\ntag_132:\n    /* \"#utility.yul\":2463:2465   */\n  0x1f\n    /* \"#utility.yul\":2442:2457   */\n  add\n  not(0x1f)\n    /* \"#utility.yul\":2438:2467   */\n  and\n    /* \"#utility.yul\":2429:2468   */\n  swap3\n  swap1\n  swap3\n  add\n    /* \"#utility.yul\":2470:2474   */\n  0x20\n    /* \"#utility.yul\":2425:2475   */\n  add\n  swap3\n    /* \"#utility.yul\":2273:2481   */\n  swap2\n  pop\n  pop\n  jump\t// out\n    /* \"#utility.yul\":2486:2974   */\ntag_76:\n  sub(shl(0xa0, 0x01), 0x01)\n    /* \"#utility.yul\":2755:2770   */\n  dup6\n  dup2\n  and\n    /* \"#utility.yul\":2737:2771   */\n  dup3\n  mstore\n    /* \"#utility.yul\":2807:2822   */\n  dup5\n  and\n    /* \"#utility.yul\":2802:2804   */\n  0x20\n    /* \"#utility.yul\":2787:2805   */\n  dup3\n  add\n    /* \"#utility.yul\":2780:2823   */\n  mstore\n    /* \"#utility.yul\":2854:2856   */\n  0x40\n    /* \"#utility.yul\":2839:2857   */\n  dup2\n  add\n    /* \"#utility.yul\":2832:2866   */\n  dup4\n  swap1\n  mstore\n    /* \"#utility.yul\":2902:2905   */\n  0x80\n    /* \"#utility.yul\":2897:2899   */\n  0x60\n    /* \"#utility.yul\":2882:2900   */\n  dup3\n  add\n    /* \"#utility.yul\":2875:2906   */\n  dup2\n  swap1\n  mstore\n    /* \"#utility.yul\":2680:2684   */\n  0x00\n  swap1\n    /* \"#utility.yul\":2923:2968   */\n  tag_115\n  swap1\n    /* \"#utility.yul\":2948:2967   */\n  dup4\n  add\n    /* \"#utility.yul\":2940:2946   */\n  dup5\n    /* \"#utility.yul\":2923:2968   */\n  tag_130\n  jump\t// in\n    /* \"#utility.yul\":3473:4305   */\ntag_31:\n    /* \"#utility.yul\":3830:3833   */\n  0xe0\n    /* \"#utility.yul\":3819:3828   */\n  dup2\n    /* \"#utility.yul\":3812:3834   */\n  mstore\n    /* \"#utility.yul\":3793:3797   */\n  0x00\n    /* \"#utility.yul\":3857:3902   */\n  tag_137\n    /* \"#utility.yul\":3897:3900   */\n  0xe0\n    /* \"#utility.yul\":3886:3895   */\n  dup4\n    /* \"#utility.yul\":3882:3901   */\n  add\n    /* \"#utility.yul\":3874:3880   */\n  dup11\n    /* \"#utility.yul\":3857:3902   */\n  tag_130\n  jump\t// in\ntag_137:\n    /* \"#utility.yul\":3950:3959   */\n  dup3\n    /* \"#utility.yul\":3942:3948   */\n  dup2\n    /* \"#utility.yul\":3938:3960   */\n  sub\n    /* \"#utility.yul\":3933:3935   */\n  0x20\n    /* \"#utility.yul\":3922:3931   */\n  dup5\n    /* \"#utility.yul\":3918:3936   */\n  add\n    /* \"#utility.yul\":3911:3961   */\n  mstore\n    /* \"#utility.yul\":3984:4016   */\n  tag_138\n    /* \"#utility.yul\":4009:4015   */\n  dup2\n    /* \"#utility.yul\":4001:4007   */\n  dup11\n    /* \"#utility.yul\":3984:4016   */\n  tag_130\n  jump\t// in\ntag_138:\n    /* \"#utility.yul\":3970:4016   */\n  swap1\n  pop\n    /* \"#utility.yul\":4052:4058   */\n  dup8\n    /* \"#utility.yul\":4047:4049   */\n  0x40\n    /* \"#utility.yul\":4036:4045   */\n  dup5\n    /* \"#utility.yul\":4032:4050   */\n  add\n    /* \"#utility.yul\":4025:4059   */\n  mstore\n    /* \"#utility.yul\":4095:4101   */\n  dup7\n    /* \"#utility.yul\":4090:4092   */\n  0x60\n    /* \"#utility.yul\":4079:4088   */\n  dup5\n    /* \"#utility.yul\":4075:4093   */\n  add\n    /* \"#utility.yul\":4068:4102   */\n  mstore\n    /* \"#utility.yul\":4139:4145   */\n  dup6\n    /* \"#utility.yul\":4133:4136   */\n  0x80\n    /* \"#utility.yul\":4122:4131   */\n  dup5\n    /* \"#utility.yul\":4118:4137   */\n  add\n    /* \"#utility.yul\":4111:4146   */\n  mstore\n    /* \"#utility.yul\":4183:4189   */\n  dup5\n    /* \"#utility.yul\":4177:4180   */\n  0xa0\n    /* \"#utility.yul\":4166:4175   */\n  dup5\n    /* \"#utility.yul\":4162:4181   */\n  add\n    /* \"#utility.yul\":4155:4190   */\n  mstore\n    /* \"#utility.yul\":4239:4248   */\n  dup3\n    /* \"#utility.yul\":4231:4237   */\n  dup2\n    /* \"#utility.yul\":4227:4249   */\n  sub\n    /* \"#utility.yul\":4221:4224   */\n  0xc0\n    /* \"#utility.yul\":4210:4219   */\n  dup5\n    /* \"#utility.yul\":4206:4225   */\n  add\n    /* \"#utility.yul\":4199:4250   */\n  mstore\n    /* \"#utility.yul\":4267:4299   */\n  tag_139\n    /* \"#utility.yul\":4292:4298   */\n  dup2\n    /* \"#utility.yul\":4284:4290   */\n  dup6\n    /* \"#utility.yul\":4267:4299   */\n  tag_130\n  jump\t// in\ntag_139:\n    /* \"#utility.yul\":4259:4299   */\n  swap11\n    /* \"#utility.yul\":3802:4305   */\n  swap10\n  pop\n  pop\n  pop\n  pop\n  pop\n  pop\n  pop\n  pop\n  pop\n  pop\n  jump\t// out\n    /* \"#utility.yul\":6280:6408   */\ntag_69:\n    /* \"#utility.yul\":6320:6323   */\n  0x00\n    /* \"#utility.yul\":6351:6352   */\n  dup3\n    /* \"#utility.yul\":6347:6353   */\n  not\n    /* \"#utility.yul\":6344:6345   */\n  dup3\n    /* \"#utility.yul\":6341:6354   */\n  gt\n    /* \"#utility.yul\":6338:6340   */\n  iszero\n  tag_147\n  jumpi\n    /* \"#utility.yul\":6357:6375   */\n  tag_147\n  tag_148\n  jump\t// in\ntag_147:\n  pop\n    /* \"#utility.yul\":6393:6402   */\n  add\n  swap1\n    /* \"#utility.yul\":6328:6408   */\n  jump\t// out\n    /* \"#utility.yul\":6413:6671   */\ntag_116:\n    /* \"#utility.yul\":6485:6486   */\n  0x00\n    /* \"#utility.yul\":6495:6608   */\ntag_150:\n    /* \"#utility.yul\":6509:6515   */\n  dup4\n    /* \"#utility.yul\":6506:6507   */\n  dup2\n    /* \"#utility.yul\":6503:6516   */\n  lt\n    /* \"#utility.yul\":6495:6608   */\n  iszero\n  tag_152\n  jumpi\n    /* \"#utility.yul\":6585:6596   */\n  dup2\n  dup2\n  add\n    /* \"#utility.yul\":6579:6597   */\n  mload\n    /* \"#utility.yul\":6566:6577   */\n  dup4\n  dup3\n  add\n    /* \"#utility.yul\":6559:6598   */\n  mstore\n    /* \"#utility.yul\":6531:6533   */\n  0x20\n    /* \"#utility.yul\":6524:6534   */\n  add\n    /* \"#utility.yul\":6495:6608   */\n  jump(tag_150)\ntag_152:\n    /* \"#utility.yul\":6626:6632   */\n  dup4\n    /* \"#utility.yul\":6623:6624   */\n  dup2\n    /* \"#utility.yul\":6620:6633   */\n  gt\n    /* \"#utility.yul\":6617:6619   */\n  iszero\n  tag_153\n  jumpi\n    /* \"#utility.yul\":6661:6662   */\n  0x00\n    /* \"#utility.yul\":6652:6658   */\n  dup5\n    /* \"#utility.yul\":6647:6650   */\n  dup5\n    /* \"#utility.yul\":6643:6659   */\n  add\n    /* \"#utility.yul\":6636:6663   */\n  mstore\n    /* \"#utility.yul\":6617:6619   */\ntag_153:\n  pop\n    /* \"#utility.yul\":6466:6671   */\n  pop\n  pop\n  pop\n  jump\t// out\n    /* \"#utility.yul\":6676:7056   */\ntag_95:\n    /* \"#utility.yul\":6755:6756   */\n  0x01\n    /* \"#utility.yul\":6751:6763   */\n  dup2\n  dup2\n  shr\n  swap1\n    /* \"#utility.yul\":6798:6810   */\n  dup3\n  and\n  dup1\n    /* \"#utility.yul\":6819:6821   */\n  tag_155\n  jumpi\n    /* \"#utility.yul\":6873:6877   */\n  0x7f\n    /* \"#utility.yul\":6865:6871   */\n  dup3\n    /* \"#utility.yul\":6861:6878   */\n  and\n    /* \"#utility.yul\":6851:6878   */\n  swap2\n  pop\n    /* \"#utility.yul\":6819:6821   */\ntag_155:\n    /* \"#utility.yul\":6926:6928   */\n  0x20\n    /* \"#utility.yul\":6918:6924   */\n  dup3\n    /* \"#utility.yul\":6915:6929   */\n  lt\n    /* \"#utility.yul\":6895:6913   */\n  dup2\n    /* \"#utility.yul\":6892:6930   */\n  eq\n    /* \"#utility.yul\":6889:6891   */\n  iszero\n  tag_156\n  jumpi\n    /* \"#utility.yul\":6972:6982   */\n  0x4e487b71\n    /* \"#utility.yul\":6967:6970   */\n  0xe0\n    /* \"#utility.yul\":6963:6983   */\n  shl\n    /* \"#utility.yul\":6960:6961   */\n  0x00\n    /* \"#utility.yul\":6953:6984   */\n  mstore\n    /* \"#utility.yul\":7007:7011   */\n  0x22\n    /* \"#utility.yul\":7004:7005   */\n  0x04\n    /* \"#utility.yul\":6997:7012   */\n  mstore\n    /* \"#utility.yul\":7035:7039   */\n  0x24\n    /* \"#utility.yul\":7032:7033   */\n  0x00\n    /* \"#utility.yul\":7025:7040   */\n  revert\n    /* \"#utility.yul\":6889:6891   */\ntag_156:\n  pop\n    /* \"#utility.yul\":6731:7056   */\n  swap2\n  swap1\n  pop\n  jump\t// out\n    /* \"#utility.yul\":7061:7196   */\ntag_47:\n    /* \"#utility.yul\":7100:7103   */\n  0x00\n  not(0x00)\n    /* \"#utility.yul\":7121:7138   */\n  dup3\n  eq\n    /* \"#utility.yul\":7118:7120   */\n  iszero\n  tag_159\n  jumpi\n    /* \"#utility.yul\":7141:7159   */\n  tag_159\n  tag_148\n  jump\t// in\ntag_159:\n  pop\n    /* \"#utility.yul\":7188:7189   */\n  0x01\n    /* \"#utility.yul\":7177:7190   */\n  add\n  swap1\n    /* \"#utility.yul\":7108:7196   */\n  jump\t// out\n    /* \"#utility.yul\":7201:7328   */\ntag_148:\n    /* \"#utility.yul\":7262:7272   */\n  0x4e487b71\n    /* \"#utility.yul\":7257:7260   */\n  0xe0\n    /* \"#utility.yul\":7253:7273   */\n  shl\n    /* \"#utility.yul\":7250:7251   */\n  0x00\n    /* \"#utility.yul\":7243:7274   */\n  mstore\n    /* \"#utility.yul\":7293:7297   */\n  0x11\n    /* \"#utility.yul\":7290:7291   */\n  0x04\n    /* \"#utility.yul\":7283:7298   */\n  mstore\n    /* \"#utility.yul\":7317:7321   */\n  0x24\n    /* \"#utility.yul\":7314:7315   */\n  0x00\n    /* \"#utility.yul\":7307:7322   */\n  revert\n    /* \"#utility.yul\":7333:7460   */\ntag_111:\n    /* \"#utility.yul\":7394:7404   */\n  0x4e487b71\n    /* \"#utility.yul\":7389:7392   */\n  0xe0\n    /* \"#utility.yul\":7385:7405   */\n  shl\n    /* \"#utility.yul\":7382:7383   */\n  0x00\n    /* \"#utility.yul\":7375:7406   */\n  mstore\n    /* \"#utility.yul\":7425:7429   */\n  0x41\n    /* \"#utility.yul\":7422:7423   */\n  0x04\n    /* \"#utility.yul\":7415:7430   */\n  mstore\n    /* \"#utility.yul\":7449:7453   */\n  0x24\n    /* \"#utility.yul\":7446:7447   */\n  0x00\n    /* \"#utility.yul\":7439:7454   */\n  revert\n    /* \"#utility.yul\":7365:7460   */\ntag_105:\n    /* \"Contract\":703:20093  contract RichCoin is ERC721Holder, ERC165, IERC721Metadata, Ownable, IRichCoin{\r... */\n  dataSize(sub_0)\n  dup1\n  dataOffset(sub_0)\n  0x00\n  codecopy\n  0x00\n  return\nstop\ndata_161bc498ca71a282f0083506b6a0f45d7fff1984aafe7ae73f8ebf614f6aa872 4552433732313a207472616e7366657220746f206e6f6e204552433732315265\n\nsub_0: assembly {\n        /* \"Contract\":703:20093  contract RichCoin is ERC721Holder, ERC165, IERC721Metadata, Ownable, IRichCoin{\r... */\n      mstore(0x40, 0x80)\n      callvalue\n      dup1\n      iszero\n      tag_1\n      jumpi\n      0x00\n      dup1\n      revert\n    tag_1:\n      pop\n      jumpi(tag_2, lt(calldatasize, 0x04))\n      shr(0xe0, calldataload(0x00))\n      dup1\n      0x715018a6\n      gt\n      tag_39\n      jumpi\n      dup1\n      0xa4fd6f56\n      gt\n      tag_40\n      jumpi\n      dup1\n      0xe6796aaa\n      gt\n      tag_41\n      jumpi\n      dup1\n      0xe6796aaa\n      eq\n      tag_34\n      jumpi\n      dup1\n      0xe985e9c5\n      eq\n      tag_35\n      jumpi\n      dup1\n      0xf2fde38b\n      eq\n      tag_36\n      jumpi\n      dup1\n      0xfe67a54b\n      eq\n      tag_37\n      jumpi\n      dup1\n      0xff2e2888\n      eq\n      tag_38\n      jumpi\n      0x00\n      dup1\n      revert\n    tag_41:\n      dup1\n      0xa4fd6f56\n      eq\n      tag_30\n      jumpi\n      dup1\n      0xb88d4fde\n      eq\n      tag_31\n      jumpi\n      dup1\n      0xc65015cb\n      eq\n      tag_32\n      jumpi\n      dup1\n      0xc87b56dd\n      eq\n      tag_33\n      jumpi\n      0x00\n      dup1\n      revert\n    tag_40:\n      dup1\n      0x8620612b\n      gt\n      tag_42\n      jumpi\n      dup1\n      0x8620612b\n      eq\n      tag_25\n      jumpi\n      dup1\n      0x8da5cb5b\n      eq\n      tag_26\n      jumpi\n      dup1\n      0x95d89b41\n      eq\n      tag_27\n      jumpi\n      dup1\n      0x9a5dd735\n      eq\n      tag_28\n      jumpi\n      dup1\n      0xa22cb465\n      eq\n      tag_29\n      jumpi\n      0x00\n      dup1\n      revert\n    tag_42:\n      dup1\n      0x715018a6\n      eq\n      tag_21\n      jumpi\n      dup1\n      0x82bf863d\n      eq\n      tag_22\n      jumpi\n      dup1\n      0x8404dac7\n      eq\n      tag_23\n      jumpi\n      dup1\n      0x854cf3cf\n      eq\n      tag_24\n      jumpi\n      0x00\n      dup1\n      revert\n    tag_39:\n      dup1\n      0x23b872dd\n      gt\n      tag_43\n      jumpi\n      dup1\n      0x42842e0e\n      gt\n      tag_44\n      jumpi\n      dup1\n      0x42842e0e\n      eq\n      tag_16\n      jumpi\n      dup1\n      0x4d5623fb\n      eq\n      tag_17\n      jumpi\n      dup1\n      0x633cd29d\n      eq\n      tag_18\n      jumpi\n      dup1\n      0x6352211e\n      eq\n      tag_19\n      jumpi\n      dup1\n      0x70a08231\n      eq\n      tag_20\n      jumpi\n      0x00\n      dup1\n      revert\n    tag_44:\n      dup1\n      0x23b872dd\n      eq\n      tag_12\n      jumpi\n      dup1\n      0x2820345a\n      eq\n      tag_13\n      jumpi\n      dup1\n      0x313ce567\n      eq\n      tag_14\n      jumpi\n      dup1\n      0x3790d53d\n      eq\n      tag_15\n      jumpi\n      0x00\n      dup1\n      revert\n    tag_43:\n      dup1\n      0x095ea7b3\n      gt\n      tag_45\n      jumpi\n      dup1\n      0x095ea7b3\n      eq\n      tag_7\n      jumpi\n      dup1\n      0x0c4e1760\n      eq\n      tag_8\n      jumpi\n      dup1\n      0x150b7a02\n      eq\n      tag_9\n      jumpi\n      dup1\n      0x1d126fcb\n      eq\n      tag_10\n      jumpi\n      dup1\n      0x1ec5ee26\n      eq\n      tag_11\n      jumpi\n      0x00\n      dup1\n      revert\n    tag_45:\n      dup1\n      0x010a38f5\n      eq\n      tag_3\n      jumpi\n      dup1\n      0x01ffc9a7\n      eq\n      tag_4\n      jumpi\n      dup1\n      0x06fdde03\n      eq\n      tag_5\n      jumpi\n      dup1\n      0x081812fc\n      eq\n      tag_6\n      jumpi\n    tag_2:\n      0x00\n      dup1\n      revert\n        /* \"Contract\":17856:17951  function getTokenId() external view override returns(uint256){\r... */\n    tag_3:\n        /* \"Contract\":17935:17943  _tokenId */\n      sload(0x09)\n        /* \"Contract\":17856:17951  function getTokenId() external view override returns(uint256){\r... */\n    tag_46:\n      mload(0x40)\n        /* \"#utility.yul\":15448:15473   */\n      swap1\n      dup2\n      mstore\n        /* \"#utility.yul\":15436:15438   */\n      0x20\n        /* \"#utility.yul\":15421:15439   */\n      add\n        /* \"Contract\":17856:17951  function getTokenId() external view override returns(uint256){\r... */\n    tag_48:\n      mload(0x40)\n      dup1\n      swap2\n      sub\n      swap1\n      return\n        /* \"Contract\":2819:3182  function supportsInterface(bytes4 interfaceId) public view override(ERC165, IERC165 ) returns (bool) {\r... */\n    tag_4:\n      tag_50\n      tag_51\n      calldatasize\n      0x04\n      tag_52\n      jump\t// in\n    tag_51:\n      tag_53\n      jump\t// in\n    tag_50:\n      mload(0x40)\n        /* \"#utility.yul\":6906:6920   */\n      swap1\n      iszero\n        /* \"#utility.yul\":6899:6921   */\n      iszero\n        /* \"#utility.yul\":6881:6922   */\n      dup2\n      mstore\n        /* \"#utility.yul\":6869:6871   */\n      0x20\n        /* \"#utility.yul\":6854:6872   */\n      add\n        /* \"Contract\":2819:3182  function supportsInterface(bytes4 interfaceId) public view override(ERC165, IERC165 ) returns (bool) {\r... */\n      tag_48\n        /* \"#utility.yul\":6836:6928   */\n      jump\n        /* \"Contract\":3887:3979  function name() public view override returns (string memory) {\r... */\n    tag_5:\n      tag_56\n      tag_57\n      jump\t// in\n    tag_56:\n      mload(0x40)\n      tag_48\n      swap2\n      swap1\n      tag_59\n      jump\t// in\n        /* \"Contract\":5017:5230  function getApproved(uint256 tokenId) public view override returns (address) {\r... */\n    tag_6:\n      tag_60\n      tag_61\n      calldatasize\n      0x04\n      tag_62\n      jump\t// in\n    tag_61:\n      tag_63\n      jump\t// in\n    tag_60:\n      mload(0x40)\n      sub(shl(0xa0, 0x01), 0x01)\n        /* \"#utility.yul\":6204:6236   */\n      swap1\n      swap2\n      and\n        /* \"#utility.yul\":6186:6237   */\n      dup2\n      mstore\n        /* \"#utility.yul\":6174:6176   */\n      0x20\n        /* \"#utility.yul\":6159:6177   */\n      add\n        /* \"Contract\":5017:5230  function getApproved(uint256 tokenId) public view override returns (address) {\r... */\n      tag_48\n        /* \"#utility.yul\":6141:6243   */\n      jump\n        /* \"Contract\":4545:4951  function approve(address to, uint256 tokenId) public override ended(){\r... */\n    tag_7:\n      tag_66\n      tag_67\n      calldatasize\n      0x04\n      tag_68\n      jump\t// in\n    tag_67:\n      tag_69\n      jump\t// in\n    tag_66:\n      stop\n        /* \"Contract\":18730:18882  function getPlaceByOwner(address _address) external view wasOwner(_address) returns(uint256){\r... */\n    tag_8:\n      tag_46\n      tag_71\n      calldatasize\n      0x04\n      tag_72\n      jump\t// in\n    tag_71:\n      tag_73\n      jump\t// in\n        /* \"openzeppelin/contracts/token/ERC721/utils/ERC721Holder.sol\":517:717   */\n    tag_9:\n      tag_75\n      tag_76\n      calldatasize\n      0x04\n      tag_77\n      jump\t// in\n    tag_76:\n      tag_78\n      jump\t// in\n    tag_75:\n      mload(0x40)\n      not(sub(shl(0xe0, 0x01), 0x01))\n        /* \"#utility.yul\":7095:7128   */\n      swap1\n      swap2\n      and\n        /* \"#utility.yul\":7077:7129   */\n      dup2\n      mstore\n        /* \"#utility.yul\":7065:7067   */\n      0x20\n        /* \"#utility.yul\":7050:7068   */\n      add\n        /* \"openzeppelin/contracts/token/ERC721/utils/ERC721Holder.sol\":517:717   */\n      tag_48\n        /* \"#utility.yul\":7032:7135   */\n      jump\n        /* \"Contract\":19672:19787  function addressWasOwner(address _address) external view returns(bool){\r... */\n    tag_10:\n      tag_50\n      tag_82\n      calldatasize\n      0x04\n      tag_72\n      jump\t// in\n    tag_82:\n      sub(shl(0xa0, 0x01), 0x01)\n        /* \"Contract\":19760:19779  _wasOwner[_address] */\n      and\n        /* \"Contract\":19737:19741  bool */\n      0x00\n        /* \"Contract\":19760:19779  _wasOwner[_address] */\n      swap1\n      dup2\n      mstore\n        /* \"Contract\":19760:19769  _wasOwner */\n      0x0b\n        /* \"Contract\":19760:19779  _wasOwner[_address] */\n      0x20\n      mstore\n      0x40\n      swap1\n      keccak256\n      sload\n      0xff\n      and\n      swap1\n        /* \"Contract\":19672:19787  function addressWasOwner(address _address) external view returns(bool){\r... */\n      jump\n        /* \"Contract\":17381:17566  function addNewOwner(address _newOwner, string memory message) external override{\r... */\n    tag_11:\n      tag_66\n      tag_86\n      calldatasize\n      0x04\n      tag_87\n      jump\t// in\n    tag_86:\n      tag_88\n      jump\t// in\n        /* \"Contract\":15486:15683  function transferFrom( \r... */\n    tag_12:\n      tag_66\n      tag_90\n      calldatasize\n      0x04\n      tag_91\n      jump\t// in\n    tag_90:\n      tag_92\n      jump\t// in\n        /* \"Contract\":19519:19664  function getPaidByOwner(address _address) external view wasOwner(_address) returns(uint256){\r... */\n    tag_13:\n      tag_46\n      tag_94\n      calldatasize\n      0x04\n      tag_72\n      jump\t// in\n    tag_94:\n      tag_95\n      jump\t// in\n        /* \"Contract\":3190:3263  function decimals() public pure returns(uint8){\r... */\n    tag_14:\n      mload(0x40)\n        /* \"Contract\":3230:3235  uint8 */\n      0x00\n        /* \"#utility.yul\":15626:15662   */\n      dup2\n      mstore\n        /* \"#utility.yul\":15614:15616   */\n      0x20\n        /* \"#utility.yul\":15599:15617   */\n      add\n        /* \"Contract\":3190:3263  function decimals() public pure returns(uint8){\r... */\n      tag_48\n        /* \"#utility.yul\":15581:15668   */\n      jump\n        /* \"Contract\":18548:18722  function getMessageByPlace(uint256 _placeN) external view validPlace(_placeN) returns(string memory){\r... */\n    tag_15:\n      tag_56\n      tag_102\n      calldatasize\n      0x04\n      tag_62\n      jump\t// in\n    tag_102:\n      tag_103\n      jump\t// in\n        /* \"Contract\":15691:15867  function safeTransferFrom(\r... */\n    tag_16:\n      tag_66\n      tag_106\n      calldatasize\n      0x04\n      tag_91\n      jump\t// in\n    tag_106:\n      tag_107\n      jump\t// in\n        /* \"Contract\":19202:19362  function getMessageByOrder(uint256 number) external view validPlace(number) returns(string memory){\r... */\n    tag_17:\n      tag_56\n      tag_109\n      calldatasize\n      0x04\n      tag_62\n      jump\t// in\n    tag_109:\n      tag_110\n      jump\t// in\n        /* \"Contract\":19050:19194  function getOwnerByOrder(uint256 number) external view override validPlace(number) returns(address){\r... */\n    tag_18:\n      tag_60\n      tag_113\n      calldatasize\n      0x04\n      tag_62\n      jump\t// in\n    tag_113:\n      tag_114\n      jump\t// in\n        /* \"Contract\":3589:3820  function ownerOf(uint256 tokenId) public view override returns (address) {\r... */\n    tag_19:\n      tag_60\n      tag_117\n      calldatasize\n      0x04\n      tag_62\n      jump\t// in\n    tag_117:\n      tag_118\n      jump\t// in\n        /* \"Contract\":3327:3527  function balanceOf(address owner) public view override returns (uint256) {\r... */\n    tag_20:\n      tag_46\n      tag_121\n      calldatasize\n      0x04\n      tag_72\n      jump\t// in\n    tag_121:\n      tag_122\n      jump\t// in\n        /* \"openzeppelin/contracts/access/Ownable.sol\":1605:1697   */\n    tag_21:\n      tag_66\n      tag_125\n      jump\t// in\n        /* \"Contract\":18391:18540  function getOwnerByPlace(uint256 _placeN) external view validPlace(_placeN) returns(address){\r... */\n    tag_22:\n      tag_60\n      tag_127\n      calldatasize\n      0x04\n      tag_62\n      jump\t// in\n    tag_127:\n      tag_128\n      jump\t// in\n        /* \"Contract\":18188:18276  function getOwnerSize() external view returns(uint256){\r... */\n    tag_23:\n        /* \"Contract\":18260:18268  _counter */\n      sload(0x10)\n        /* \"Contract\":18188:18276  function getOwnerSize() external view returns(uint256){\r... */\n      jump(tag_46)\n        /* \"Contract\":17262:17373  function getDexAddress() external view returns(address){ //besser lsen?\r... */\n    tag_24:\n        /* \"Contract\":17360:17364  _dex */\n      and(sub(shl(0xa0, 0x01), 0x01), sload(0x0a))\n        /* \"Contract\":17262:17373  function getDexAddress() external view returns(address){ //besser lsen?\r... */\n      jump(tag_60)\n        /* \"Contract\":16942:17052  function getEarned(address _address) external view returns(uint256){\r... */\n    tag_25:\n      tag_46\n      tag_137\n      calldatasize\n      0x04\n      tag_72\n      jump\t// in\n    tag_137:\n      sub(shl(0xa0, 0x01), 0x01)\n        /* \"Contract\":17027:17044  _earned[_address] */\n      and\n        /* \"Contract\":17001:17008  uint256 */\n      0x00\n        /* \"Contract\":17027:17044  _earned[_address] */\n      swap1\n      dup2\n      mstore\n        /* \"Contract\":17027:17034  _earned */\n      0x0f\n        /* \"Contract\":17027:17044  _earned[_address] */\n      0x20\n      mstore\n      0x40\n      swap1\n      keccak256\n      sload\n      swap1\n        /* \"Contract\":16942:17052  function getEarned(address _address) external view returns(uint256){\r... */\n      jump\n        /* \"openzeppelin/contracts/access/Ownable.sol\":973:1058   */\n    tag_26:\n        /* \"openzeppelin/contracts/access/Ownable.sol\":1019:1026   */\n      0x00\n        /* \"openzeppelin/contracts/access/Ownable.sol\":1045:1051   */\n      sload\n      sub(shl(0xa0, 0x01), 0x01)\n      and\n        /* \"openzeppelin/contracts/access/Ownable.sol\":973:1058   */\n      jump(tag_60)\n        /* \"Contract\":4048:4144  function symbol() public view override returns (string memory) {\r... */\n    tag_27:\n      tag_56\n      tag_144\n      jump\t// in\n        /* \"Contract\":18284:18383  function getRichest() external view returns(address){\r... */\n    tag_28:\n        /* \"Contract\":18366:18374  _counter */\n      sload(0x10)\n        /* \"Contract\":18328:18335  address */\n      0x00\n        /* \"Contract\":18354:18375  _ownerOrder[_counter] */\n      swap1\n      dup2\n      mstore\n        /* \"Contract\":18354:18365  _ownerOrder */\n      0x0c\n        /* \"Contract\":18354:18375  _ownerOrder[_counter] */\n      0x20\n      mstore\n      0x40\n      swap1\n      keccak256\n      sload\n      sub(shl(0xa0, 0x01), 0x01)\n      and\n        /* \"Contract\":18284:18383  function getRichest() external view returns(address){\r... */\n      jump(tag_60)\n        /* \"Contract\":5302:5595  function setApprovalForAll(address operator, bool approved) public override ended() {\r... */\n    tag_29:\n      tag_66\n      tag_150\n      calldatasize\n      0x04\n      tag_151\n      jump\t// in\n    tag_150:\n      tag_152\n      jump\t// in\n        /* \"Contract\":18094:18173  function isEnded() external view returns (bool){\r... */\n    tag_30:\n        /* \"Contract\":18159:18165  _ended */\n      sload(0x0a)\n      shl(0xa0, 0x01)\n      swap1\n      div\n      0xff\n      and\n        /* \"Contract\":18094:18173  function isEnded() external view returns (bool){\r... */\n      jump(tag_50)\n        /* \"Contract\":15879:16121  function safeTransferFrom(\r... */\n    tag_31:\n      tag_66\n      tag_157\n      calldatasize\n      0x04\n      tag_77\n      jump\t// in\n    tag_157:\n      tag_158\n      jump\t// in\n        /* \"Contract\":18891:19042  function getMessageByOwner(address _address) external view wasOwner(_address) returns(string memory){\r... */\n    tag_32:\n      tag_56\n      tag_160\n      calldatasize\n      0x04\n      tag_72\n      jump\t// in\n    tag_160:\n      tag_161\n      jump\t// in\n        /* \"Contract\":1009:1702  function tokenURI(uint256 tokenId) override public view returns (string memory) {\r... */\n    tag_33:\n      tag_56\n      tag_164\n      calldatasize\n      0x04\n      tag_62\n      jump\t// in\n    tag_164:\n      tag_165\n      jump\t// in\n        /* \"Contract\":17060:17254  function addEarning(address _address, uint256 _amount) external override{\r... */\n    tag_34:\n      tag_66\n      tag_168\n      calldatasize\n      0x04\n      tag_68\n      jump\t// in\n    tag_168:\n      tag_169\n      jump\t// in\n        /* \"Contract\":5666:5822  function isApprovedForAll(address owner, address operator) public view override returns (bool) {\r... */\n    tag_35:\n      tag_50\n      tag_171\n      calldatasize\n      0x04\n      tag_172\n      jump\t// in\n    tag_171:\n      tag_173\n      jump\t// in\n        /* \"openzeppelin/contracts/access/Ownable.sol\":1846:2035   */\n    tag_36:\n      tag_66\n      tag_176\n      calldatasize\n      0x04\n      tag_72\n      jump\t// in\n    tag_176:\n      tag_177\n      jump\t// in\n        /* \"Contract\":17959:18086  function endAuction() external override{\r... */\n    tag_37:\n      tag_66\n      tag_179\n      jump\t// in\n        /* \"Contract\":19370:19511  function getOrderByOwner(address _address) external view wasOwner(_address) returns(uint256){\r... */\n    tag_38:\n      tag_46\n      tag_181\n      calldatasize\n      0x04\n      tag_72\n      jump\t// in\n    tag_181:\n      tag_182\n      jump\t// in\n        /* \"Contract\":2819:3182  function supportsInterface(bytes4 interfaceId) public view override(ERC165, IERC165 ) returns (bool) {\r... */\n    tag_53:\n        /* \"Contract\":2914:2918  bool */\n      0x00\n      not(sub(shl(0xe0, 0x01), 0x01))\n        /* \"Contract\":2951:2991  interfaceId == type(IERC721).interfaceId */\n      dup3\n      and\n      shl(0xe0, 0x80ac58cd)\n      eq\n      dup1\n        /* \"Contract\":2951:3056  interfaceId == type(IERC721).interfaceId ||\r... */\n      tag_187\n      jumpi\n      pop\n      not(sub(shl(0xe0, 0x01), 0x01))\n        /* \"Contract\":3008:3056  interfaceId == type(IERC721Metadata).interfaceId */\n      dup3\n      and\n      shl(0xe0, 0x5b5e139f)\n      eq\n        /* \"Contract\":2951:3056  interfaceId == type(IERC721).interfaceId ||\r... */\n    tag_187:\n        /* \"Contract\":2951:3109  interfaceId == type(IERC721).interfaceId ||\r... */\n      dup1\n      tag_189\n      jumpi\n      pop\n      shl(0xe0, 0x01ffc9a7)\n      not(sub(shl(0xe0, 0x01), 0x01))\n        /* \"openzeppelin/contracts/utils/introspection/ERC165.sol\":871:911   */\n      dup4\n      and\n      eq\n        /* \"Contract\":3073:3109  super.supportsInterface(interfaceId) */\n    tag_189:\n        /* \"Contract\":2951:3174  interfaceId == type(IERC721).interfaceId ||\r... */\n      dup1\n      tag_191\n      jumpi\n      pop\n      not(sub(shl(0xe0, 0x01), 0x01))\n        /* \"Contract\":3126:3174  interfaceId == type(IERC721Receiver).interfaceId */\n      dup3\n      and\n      shl(0xe1, 0x0a85bd01)\n      eq\n        /* \"Contract\":2951:3174  interfaceId == type(IERC721).interfaceId ||\r... */\n    tag_191:\n        /* \"Contract\":2931:3174  return\r... */\n      swap3\n        /* \"Contract\":2819:3182  function supportsInterface(bytes4 interfaceId) public view override(ERC165, IERC165 ) returns (bool) {\r... */\n      swap2\n      pop\n      pop\n      jump\t// out\n        /* \"Contract\":3887:3979  function name() public view override returns (string memory) {\r... */\n    tag_57:\n        /* \"Contract\":3933:3946  string memory */\n      0x60\n        /* \"Contract\":3966:3971  _name */\n      0x03\n        /* \"Contract\":3959:3971  return _name */\n      dup1\n      sload\n      tag_193\n      swap1\n      tag_194\n      jump\t// in\n    tag_193:\n      dup1\n      0x1f\n      add\n      0x20\n      dup1\n      swap2\n      div\n      mul\n      0x20\n      add\n      mload(0x40)\n      swap1\n      dup2\n      add\n      0x40\n      mstore\n      dup1\n      swap3\n      swap2\n      swap1\n      dup2\n      dup2\n      mstore\n      0x20\n      add\n      dup3\n      dup1\n      sload\n      tag_195\n      swap1\n      tag_194\n      jump\t// in\n    tag_195:\n      dup1\n      iszero\n      tag_196\n      jumpi\n      dup1\n      0x1f\n      lt\n      tag_197\n      jumpi\n      0x0100\n      dup1\n      dup4\n      sload\n      div\n      mul\n      dup4\n      mstore\n      swap2\n      0x20\n      add\n      swap2\n      jump(tag_196)\n    tag_197:\n      dup3\n      add\n      swap2\n      swap1\n      0x00\n      mstore\n      keccak256(0x00, 0x20)\n      swap1\n    tag_198:\n      dup2\n      sload\n      dup2\n      mstore\n      swap1\n      0x01\n      add\n      swap1\n      0x20\n      add\n      dup1\n      dup4\n      gt\n      tag_198\n      jumpi\n      dup3\n      swap1\n      sub\n      0x1f\n      and\n      dup3\n      add\n      swap2\n    tag_196:\n      pop\n      pop\n      pop\n      pop\n      pop\n      swap1\n      pop\n        /* \"Contract\":3887:3979  function name() public view override returns (string memory) {\r... */\n      swap1\n      jump\t// out\n        /* \"Contract\":5017:5230  function getApproved(uint256 tokenId) public view override returns (address) {\r... */\n    tag_63:\n        /* \"Contract\":5085:5092  address */\n      0x00\n        /* \"Contract\":7769:7785  _owners[tokenId] */\n      dup2\n      dup2\n      mstore\n        /* \"Contract\":7769:7776  _owners */\n      0x05\n        /* \"Contract\":7769:7785  _owners[tokenId] */\n      0x20\n      mstore\n      0x40\n      dup2\n      keccak256\n      sload\n      sub(shl(0xa0, 0x01), 0x01)\n      and\n        /* \"Contract\":5105:5178  require(_exists(tokenId), \"ERC721: approved query for nonexistent token\") */\n      tag_202\n      jumpi\n      mload(0x40)\n      shl(0xe5, 0x461bcd)\n      dup2\n      mstore\n        /* \"#utility.yul\":13500:13502   */\n      0x20\n        /* \"Contract\":5105:5178  require(_exists(tokenId), \"ERC721: approved query for nonexistent token\") */\n      0x04\n      dup3\n      add\n        /* \"#utility.yul\":13482:13503   */\n      mstore\n        /* \"#utility.yul\":13539:13541   */\n      0x2c\n        /* \"#utility.yul\":13519:13537   */\n      0x24\n      dup3\n      add\n        /* \"#utility.yul\":13512:13542   */\n      mstore\n        /* \"#utility.yul\":13578:13612   */\n      0x4552433732313a20617070726f76656420717565727920666f72206e6f6e6578\n        /* \"#utility.yul\":13558:13576   */\n      0x44\n      dup3\n      add\n        /* \"#utility.yul\":13551:13613   */\n      mstore\n      shl(0xa1, 0x34b9ba32b73a103a37b5b2b7)\n        /* \"#utility.yul\":13629:13647   */\n      0x64\n      dup3\n      add\n        /* \"#utility.yul\":13622:13664   */\n      mstore\n        /* \"#utility.yul\":13681:13700   */\n      0x84\n      add\n        /* \"Contract\":5105:5178  require(_exists(tokenId), \"ERC721: approved query for nonexistent token\") */\n    tag_203:\n      mload(0x40)\n      dup1\n      swap2\n      sub\n      swap1\n      revert\n    tag_202:\n      pop\n        /* \"Contract\":5198:5222  _tokenApprovals[tokenId] */\n      0x00\n      swap1\n      dup2\n      mstore\n        /* \"Contract\":5198:5213  _tokenApprovals */\n      0x07\n        /* \"Contract\":5198:5222  _tokenApprovals[tokenId] */\n      0x20\n      mstore\n      0x40\n      swap1\n      keccak256\n      sload\n      sub(shl(0xa0, 0x01), 0x01)\n      and\n      swap1\n        /* \"Contract\":5017:5230  function getApproved(uint256 tokenId) public view override returns (address) {\r... */\n      jump\t// out\n        /* \"Contract\":4545:4951  function approve(address to, uint256 tokenId) public override ended(){\r... */\n    tag_69:\n        /* \"Contract\":15007:15013  _ended */\n      sload(0x0a)\n      shl(0xa0, 0x01)\n      swap1\n      div\n      0xff\n      and\n        /* \"Contract\":14999:15071  require(_ended, \"Can't perform this action while auction has not ended\") */\n      tag_206\n      jumpi\n      mload(0x40)\n      shl(0xe5, 0x461bcd)\n      dup2\n      mstore\n      0x04\n      add\n      tag_203\n      swap1\n      tag_208\n      jump\t// in\n    tag_206:\n        /* \"Contract\":4641:4662  this.ownerOf(tokenId) */\n      mload(0x40)\n      shl(0xe1, 0x31a9108f)\n      dup2\n      mstore\n      0x04\n      dup2\n      add\n        /* \"#utility.yul\":15448:15473   */\n      dup3\n      swap1\n      mstore\n        /* \"Contract\":4625:4638  address owner */\n      0x00\n      swap1\n        /* \"Contract\":4641:4645  this */\n      address\n      swap1\n        /* \"Contract\":4641:4653  this.ownerOf */\n      0x6352211e\n      swap1\n        /* \"#utility.yul\":15421:15439   */\n      0x24\n      add\n        /* \"Contract\":4641:4662  this.ownerOf(tokenId) */\n      0x20\n      mload(0x40)\n      dup1\n      dup4\n      sub\n      dup2\n      dup7\n      dup1\n      extcodesize\n      iszero\n      dup1\n      iszero\n      tag_211\n      jumpi\n      0x00\n      dup1\n      revert\n    tag_211:\n      pop\n      gas\n      staticcall\n      iszero\n      dup1\n      iszero\n      tag_213\n      jumpi\n      returndatasize\n      0x00\n      dup1\n      returndatacopy\n      revert(0x00, returndatasize)\n    tag_213:\n      pop\n      pop\n      pop\n      pop\n      mload(0x40)\n      returndatasize\n      not(0x1f)\n      0x1f\n      dup3\n      add\n      and\n      dup3\n      add\n      dup1\n      0x40\n      mstore\n      pop\n      dup2\n      add\n      swap1\n      tag_214\n      swap2\n      swap1\n      tag_215\n      jump\t// in\n    tag_214:\n        /* \"Contract\":4625:4662  address owner = this.ownerOf(tokenId) */\n      swap1\n      pop\n        /* \"Contract\":4687:4692  owner */\n      dup1\n      sub(shl(0xa0, 0x01), 0x01)\n        /* \"Contract\":4681:4692  to != owner */\n      and\n        /* \"Contract\":4681:4683  to */\n      dup4\n      sub(shl(0xa0, 0x01), 0x01)\n        /* \"Contract\":4681:4692  to != owner */\n      and\n      eq\n      iszero\n        /* \"Contract\":4673:4730  require(to != owner, \"ERC721: approval to current owner\") */\n      tag_216\n      jumpi\n      mload(0x40)\n      shl(0xe5, 0x461bcd)\n      dup2\n      mstore\n        /* \"#utility.yul\":14684:14686   */\n      0x20\n        /* \"Contract\":4673:4730  require(to != owner, \"ERC721: approval to current owner\") */\n      0x04\n      dup3\n      add\n        /* \"#utility.yul\":14666:14687   */\n      mstore\n        /* \"#utility.yul\":14723:14725   */\n      0x21\n        /* \"#utility.yul\":14703:14721   */\n      0x24\n      dup3\n      add\n        /* \"#utility.yul\":14696:14726   */\n      mstore\n        /* \"#utility.yul\":14762:14796   */\n      0x4552433732313a20617070726f76616c20746f2063757272656e74206f776e65\n        /* \"#utility.yul\":14742:14760   */\n      0x44\n      dup3\n      add\n        /* \"#utility.yul\":14735:14797   */\n      mstore\n      shl(0xf9, 0x39)\n        /* \"#utility.yul\":14813:14831   */\n      0x64\n      dup3\n      add\n        /* \"#utility.yul\":14806:14837   */\n      mstore\n        /* \"#utility.yul\":14854:14873   */\n      0x84\n      add\n        /* \"Contract\":4673:4730  require(to != owner, \"ERC721: approval to current owner\") */\n      tag_203\n        /* \"#utility.yul\":14656:14879   */\n      jump\n        /* \"Contract\":4673:4730  require(to != owner, \"ERC721: approval to current owner\") */\n    tag_216:\n        /* \"Contract\":4765:4775  msg.sender */\n      caller\n      sub(shl(0xa0, 0x01), 0x01)\n        /* \"Contract\":4765:4784  msg.sender == owner */\n      dup3\n      and\n      eq\n      dup1\n        /* \"Contract\":4765:4825  msg.sender == owner || isApprovedForAll(owner, _msgSender()) */\n      tag_220\n      jumpi\n      pop\n        /* \"Contract\":4788:4825  isApprovedForAll(owner, _msgSender()) */\n      tag_220\n        /* \"Contract\":4805:4810  owner */\n      dup2\n        /* \"openzeppelin/contracts/utils/Context.sol\":666:676   */\n      caller\n        /* \"Contract\":5666:5822  function isApprovedForAll(address owner, address operator) public view override returns (bool) {\r... */\n      tag_173\n      jump\t// in\n        /* \"Contract\":4788:4825  isApprovedForAll(owner, _msgSender()) */\n    tag_220:\n        /* \"Contract\":4743:4909  require(\r... */\n      tag_223\n      jumpi\n      mload(0x40)\n      shl(0xe5, 0x461bcd)\n      dup2\n      mstore\n        /* \"#utility.yul\":11836:11838   */\n      0x20\n        /* \"Contract\":4743:4909  require(\r... */\n      0x04\n      dup3\n      add\n        /* \"#utility.yul\":11818:11839   */\n      mstore\n        /* \"#utility.yul\":11875:11877   */\n      0x38\n        /* \"#utility.yul\":11855:11873   */\n      0x24\n      dup3\n      add\n        /* \"#utility.yul\":11848:11878   */\n      mstore\n        /* \"#utility.yul\":11914:11948   */\n      0x4552433732313a20617070726f76652063616c6c6572206973206e6f74206f77\n        /* \"#utility.yul\":11894:11912   */\n      0x44\n      dup3\n      add\n        /* \"#utility.yul\":11887:11949   */\n      mstore\n        /* \"#utility.yul\":11985:12011   */\n      0x6e6572206e6f7220617070726f76656420666f7220616c6c0000000000000000\n        /* \"#utility.yul\":11965:11983   */\n      0x64\n      dup3\n      add\n        /* \"#utility.yul\":11958:12012   */\n      mstore\n        /* \"#utility.yul\":12029:12048   */\n      0x84\n      add\n        /* \"Contract\":4743:4909  require(\r... */\n      tag_203\n        /* \"#utility.yul\":11808:12054   */\n      jump\n        /* \"Contract\":4743:4909  require(\r... */\n    tag_223:\n        /* \"Contract\":4922:4943  _approve(to, tokenId) */\n      tag_226\n        /* \"Contract\":4931:4933  to */\n      dup4\n        /* \"Contract\":4935:4942  tokenId */\n      dup4\n        /* \"Contract\":4922:4930  _approve */\n      tag_227\n        /* \"Contract\":4922:4943  _approve(to, tokenId) */\n      jump\t// in\n    tag_226:\n        /* \"Contract\":4614:4951  {\r... */\n      pop\n        /* \"Contract\":4545:4951  function approve(address to, uint256 tokenId) public override ended(){\r... */\n      pop\n      pop\n      jump\t// out\n        /* \"Contract\":18730:18882  function getPlaceByOwner(address _address) external view wasOwner(_address) returns(uint256){\r... */\n    tag_73:\n      sub(shl(0xa0, 0x01), 0x01)\n        /* \"Contract\":15263:15282  _wasOwner[_address] */\n      dup2\n      and\n        /* \"Contract\":18814:18821  uint256 */\n      0x00\n        /* \"Contract\":15263:15282  _wasOwner[_address] */\n      swap1\n      dup2\n      mstore\n        /* \"Contract\":15263:15272  _wasOwner */\n      0x0b\n        /* \"Contract\":15263:15282  _wasOwner[_address] */\n      0x20\n      mstore\n      0x40\n      dup2\n      keccak256\n      sload\n        /* \"Contract\":18796:18804  _address */\n      dup3\n      swap1\n        /* \"Contract\":15263:15282  _wasOwner[_address] */\n      0xff\n      and\n        /* \"Contract\":15255:15314  require(_wasOwner[_address], \"Given address was no owner!\") */\n      tag_229\n      jumpi\n      mload(0x40)\n      shl(0xe5, 0x461bcd)\n      dup2\n      mstore\n      0x04\n      add\n      tag_203\n      swap1\n      tag_231\n      jump\t// in\n    tag_229:\n      sub(shl(0xa0, 0x01), 0x01)\n        /* \"Contract\":18851:18874  _orderToOwner[_address] */\n      dup4\n      and\n      0x00\n      swap1\n      dup2\n      mstore\n        /* \"Contract\":18851:18864  _orderToOwner */\n      0x0d\n        /* \"Contract\":18851:18874  _orderToOwner[_address] */\n      0x20\n      mstore\n      0x40\n      swap1\n      keccak256\n      sload\n        /* \"Contract\":18840:18848  _counter */\n      sload(0x10)\n        /* \"Contract\":18840:18850  _counter+1 */\n      tag_233\n      swap1\n        /* \"Contract\":18849:18850  1 */\n      0x01\n        /* \"Contract\":18840:18850  _counter+1 */\n      tag_234\n      jump\t// in\n    tag_233:\n        /* \"Contract\":18840:18874  _counter+1-_orderToOwner[_address] */\n      tag_235\n      swap2\n      swap1\n      tag_236\n      jump\t// in\n    tag_235:\n        /* \"Contract\":18833:18874  return _counter+1-_orderToOwner[_address] */\n      swap2\n      pop\n        /* \"Contract\":15325:15326  _ */\n    tag_232:\n        /* \"Contract\":18730:18882  function getPlaceByOwner(address _address) external view wasOwner(_address) returns(uint256){\r... */\n      pop\n      swap2\n      swap1\n      pop\n      jump\t// out\n        /* \"openzeppelin/contracts/token/ERC721/utils/ERC721Holder.sol\":517:717   */\n    tag_78:\n      shl(0xe1, 0x0a85bd01)\n    tag_237:\n      swap5\n      swap4\n      pop\n      pop\n      pop\n      pop\n      jump\t// out\n        /* \"Contract\":17381:17566  function addNewOwner(address _newOwner, string memory message) external override{\r... */\n    tag_88:\n        /* \"Contract\":15187:15191  _dex */\n      and(sub(shl(0xa0, 0x01), 0x01), sload(0x0a))\n        /* \"Contract\":15165:15175  msg.sender */\n      caller\n        /* \"Contract\":15165:15192  msg.sender == address(_dex) */\n      eq\n        /* \"Contract\":17472:17517  require(byDex(), \"Can only be called by DEX\") */\n      tag_242\n      jumpi\n      mload(0x40)\n      shl(0xe5, 0x461bcd)\n      dup2\n      mstore\n      0x04\n      add\n      tag_203\n      swap1\n      tag_244\n      jump\t// in\n    tag_242:\n        /* \"Contract\":17528:17556  addOwner(_newOwner, message) */\n      tag_245\n        /* \"Contract\":17537:17546  _newOwner */\n      dup3\n        /* \"Contract\":17548:17555  message */\n      dup3\n        /* \"Contract\":17528:17536  addOwner */\n      tag_246\n        /* \"Contract\":17528:17556  addOwner(_newOwner, message) */\n      jump\t// in\n    tag_245:\n        /* \"Contract\":17381:17566  function addNewOwner(address _newOwner, string memory message) external override{\r... */\n      pop\n      pop\n      jump\t// out\n        /* \"Contract\":15486:15683  function transferFrom( \r... */\n    tag_92:\n        /* \"Contract\":14626:14632  _ended */\n      sload(0x0a)\n        /* \"Contract\":15619:15621  to */\n      dup3\n      swap1\n        /* \"Contract\":15623:15630  tokenId */\n      dup3\n      swap1\n      shl(0xa0, 0x01)\n        /* \"Contract\":14626:14632  _ended */\n      swap1\n      div\n      0xff\n      and\n        /* \"Contract\":14622:14945  if(!_ended){\r... */\n      tag_248\n      jumpi\n        /* \"Contract\":15187:15191  _dex */\n      and(sub(shl(0xa0, 0x01), 0x01), sload(0x0a))\n        /* \"Contract\":15165:15175  msg.sender */\n      caller\n        /* \"Contract\":15165:15192  msg.sender == address(_dex) */\n      eq\n        /* \"Contract\":14648:14724  require(byDex(), \"Trasnferer has to be the DEX while auction has not ended\") */\n      tag_250\n      jumpi\n      mload(0x40)\n      shl(0xe5, 0x461bcd)\n      dup2\n      mstore\n      0x04\n      add\n      tag_203\n      swap1\n      tag_252\n      jump\t// in\n    tag_250:\n      sub(shl(0xa0, 0x01), 0x01)\n        /* \"Contract\":14748:14761  _wasOwner[to] */\n      dup3\n      and\n      0x00\n      swap1\n      dup2\n      mstore\n        /* \"Contract\":14748:14757  _wasOwner */\n      0x0b\n        /* \"Contract\":14748:14761  _wasOwner[to] */\n      0x20\n      mstore\n      0x40\n      swap1\n      keccak256\n      sload\n      0xff\n      and\n        /* \"Contract\":14747:14761  !_wasOwner[to] */\n      iszero\n        /* \"Contract\":14739:14798  require(!_wasOwner[to], \"Caller has already been an owner\") */\n      tag_253\n      jumpi\n      mload(0x40)\n      shl(0xe5, 0x461bcd)\n      dup2\n      mstore\n        /* \"#utility.yul\":11062:11064   */\n      0x20\n        /* \"Contract\":14739:14798  require(!_wasOwner[to], \"Caller has already been an owner\") */\n      0x04\n      dup3\n      add\n        /* \"#utility.yul\":11044:11065   */\n      dup2\n      swap1\n      mstore\n        /* \"#utility.yul\":11081:11099   */\n      0x24\n      dup3\n      add\n        /* \"#utility.yul\":11074:11104   */\n      mstore\n        /* \"#utility.yul\":11140:11174   */\n      0x43616c6c65722068617320616c7265616479206265656e20616e206f776e6572\n        /* \"#utility.yul\":11120:11138   */\n      0x44\n      dup3\n      add\n        /* \"#utility.yul\":11113:11175   */\n      mstore\n        /* \"#utility.yul\":11192:11210   */\n      0x64\n      add\n        /* \"Contract\":14739:14798  require(!_wasOwner[to], \"Caller has already been an owner\") */\n      tag_203\n        /* \"#utility.yul\":11034:11216   */\n      jump\n        /* \"Contract\":14739:14798  require(!_wasOwner[to], \"Caller has already been an owner\") */\n    tag_253:\n        /* \"Contract\":14622:14945  if(!_ended){\r... */\n      jump(tag_259)\n    tag_248:\n        /* \"Contract\":14840:14879  _isApprovedOrOwner(msg.sender, tokenId) */\n      tag_257\n        /* \"Contract\":14859:14869  msg.sender */\n      caller\n        /* \"Contract\":14871:14878  tokenId */\n      dup3\n        /* \"Contract\":14840:14858  _isApprovedOrOwner */\n      tag_258\n        /* \"Contract\":14840:14879  _isApprovedOrOwner(msg.sender, tokenId) */\n      jump\t// in\n    tag_257:\n        /* \"Contract\":14832:14933  require(_isApprovedOrOwner(msg.sender, tokenId), \"ERC721: transfer caller is not owner nor approved\") */\n      tag_259\n      jumpi\n      mload(0x40)\n      shl(0xe5, 0x461bcd)\n      dup2\n      mstore\n      0x04\n      add\n      tag_203\n      swap1\n      tag_261\n      jump\t// in\n    tag_259:\n        /* \"Contract\":15647:15675  _transfer(from, to, tokenId) */\n      tag_263\n        /* \"Contract\":15657:15661  from */\n      dup6\n        /* \"Contract\":15663:15665  to */\n      dup6\n        /* \"Contract\":15667:15674  tokenId */\n      dup6\n        /* \"Contract\":15647:15656  _transfer */\n      tag_264\n        /* \"Contract\":15647:15675  _transfer(from, to, tokenId) */\n      jump\t// in\n    tag_263:\n        /* \"Contract\":15486:15683  function transferFrom( \r... */\n      pop\n      pop\n      pop\n      pop\n      pop\n      jump\t// out\n        /* \"Contract\":19519:19664  function getPaidByOwner(address _address) external view wasOwner(_address) returns(uint256){\r... */\n    tag_95:\n      sub(shl(0xa0, 0x01), 0x01)\n        /* \"Contract\":15263:15282  _wasOwner[_address] */\n      dup2\n      and\n        /* \"Contract\":19602:19609  uint256 */\n      0x00\n        /* \"Contract\":15263:15282  _wasOwner[_address] */\n      swap1\n      dup2\n      mstore\n        /* \"Contract\":15263:15272  _wasOwner */\n      0x0b\n        /* \"Contract\":15263:15282  _wasOwner[_address] */\n      0x20\n      mstore\n      0x40\n      dup2\n      keccak256\n      sload\n        /* \"Contract\":19584:19592  _address */\n      dup3\n      swap1\n        /* \"Contract\":15263:15282  _wasOwner[_address] */\n      0xff\n      and\n        /* \"Contract\":15255:15314  require(_wasOwner[_address], \"Given address was no owner!\") */\n      tag_266\n      jumpi\n      mload(0x40)\n      shl(0xe5, 0x461bcd)\n      dup2\n      mstore\n      0x04\n      add\n      tag_203\n      swap1\n      tag_231\n      jump\t// in\n    tag_266:\n      sub(shl(0xa0, 0x01), 0x01)\n        /* \"Contract\":19631:19654  _orderToOwner[_address] */\n      dup4\n      and\n      0x00\n      swap1\n      dup2\n      mstore\n        /* \"Contract\":19631:19644  _orderToOwner */\n      0x0d\n        /* \"Contract\":19631:19654  _orderToOwner[_address] */\n      0x20\n      mstore\n      0x40\n      swap1\n      keccak256\n      sload\n        /* \"Contract\":19628:19654  2**_orderToOwner[_address] */\n      tag_235\n      swap1\n        /* \"Contract\":19628:19629  2 */\n      0x02\n        /* \"Contract\":19628:19654  2**_orderToOwner[_address] */\n      tag_270\n      jump\t// in\n        /* \"Contract\":18548:18722  function getMessageByPlace(uint256 _placeN) external view validPlace(_placeN) returns(string memory){\r... */\n    tag_103:\n        /* \"Contract\":18634:18647  string memory */\n      0x60\n        /* \"Contract\":18617:18624  _placeN */\n      dup2\n        /* \"Contract\":15405:15406  0 */\n      0x00\n        /* \"Contract\":15397:15404  _number */\n      dup2\n        /* \"Contract\":15397:15406  _number>0 */\n      gt\n        /* \"Contract\":15397:15428  _number>0 && _number <=_counter */\n      dup1\n      iszero\n      tag_273\n      jumpi\n      pop\n        /* \"Contract\":15420:15428  _counter */\n      sload(0x10)\n        /* \"Contract\":15410:15417  _number */\n      dup2\n        /* \"Contract\":15410:15428  _number <=_counter */\n      gt\n      iszero\n        /* \"Contract\":15397:15428  _number>0 && _number <=_counter */\n    tag_273:\n        /* \"Contract\":15389:15458  require(_number>0 && _number <=_counter, \"Given place is not valid!\") */\n      tag_274\n      jumpi\n      mload(0x40)\n      shl(0xe5, 0x461bcd)\n      dup2\n      mstore\n      0x04\n      add\n      tag_203\n      swap1\n      tag_276\n      jump\t// in\n    tag_274:\n        /* \"Contract\":18666:18681  _ownerToMessage */\n      0x0e\n        /* \"Contract\":18666:18714  _ownerToMessage[_ownerOrder[_counter+1-_placeN]] */\n      0x00\n        /* \"Contract\":18682:18693  _ownerOrder */\n      0x0c\n        /* \"Contract\":18682:18713  _ownerOrder[_counter+1-_placeN] */\n      0x00\n        /* \"Contract\":18705:18712  _placeN */\n      dup7\n        /* \"Contract\":18694:18702  _counter */\n      sload(0x10)\n        /* \"Contract\":18703:18704  1 */\n      0x01\n        /* \"Contract\":18694:18704  _counter+1 */\n      tag_278\n      swap2\n      swap1\n      tag_234\n      jump\t// in\n    tag_278:\n        /* \"Contract\":18694:18712  _counter+1-_placeN */\n      tag_279\n      swap2\n      swap1\n      tag_236\n      jump\t// in\n    tag_279:\n        /* \"Contract\":18682:18713  _ownerOrder[_counter+1-_placeN] */\n      dup2\n      mstore\n      0x20\n      dup1\n      dup3\n      add\n      swap3\n      swap1\n      swap3\n      mstore\n      0x40\n      swap1\n      dup2\n      add\n      0x00\n      swap1\n      dup2\n      keccak256\n      sload\n      sub(shl(0xa0, 0x01), 0x01)\n      and\n        /* \"Contract\":18666:18714  _ownerToMessage[_ownerOrder[_counter+1-_placeN]] */\n      dup5\n      mstore\n      swap2\n      dup4\n      add\n      swap4\n      swap1\n      swap4\n      mstore\n      swap2\n      add\n      swap1\n      keccak256\n        /* \"Contract\":18659:18714  return _ownerToMessage[_ownerOrder[_counter+1-_placeN]] */\n      dup1\n      sload\n      tag_280\n      swap1\n      tag_194\n      jump\t// in\n    tag_280:\n      dup1\n      0x1f\n      add\n      0x20\n      dup1\n      swap2\n      div\n      mul\n      0x20\n      add\n      mload(0x40)\n      swap1\n      dup2\n      add\n      0x40\n      mstore\n      dup1\n      swap3\n      swap2\n      swap1\n      dup2\n      dup2\n      mstore\n      0x20\n      add\n      dup3\n      dup1\n      sload\n      tag_281\n      swap1\n      tag_194\n      jump\t// in\n    tag_281:\n      dup1\n      iszero\n      tag_282\n      jumpi\n      dup1\n      0x1f\n      lt\n      tag_283\n      jumpi\n      0x0100\n      dup1\n      dup4\n      sload\n      div\n      mul\n      dup4\n      mstore\n      swap2\n      0x20\n      add\n      swap2\n      jump(tag_282)\n    tag_283:\n      dup3\n      add\n      swap2\n      swap1\n      0x00\n      mstore\n      keccak256(0x00, 0x20)\n      swap1\n    tag_284:\n      dup2\n      sload\n      dup2\n      mstore\n      swap1\n      0x01\n      add\n      swap1\n      0x20\n      add\n      dup1\n      dup4\n      gt\n      tag_284\n      jumpi\n      dup3\n      swap1\n      sub\n      0x1f\n      and\n      dup3\n      add\n      swap2\n    tag_282:\n      pop\n      pop\n      pop\n      pop\n      pop\n      swap2\n      pop\n        /* \"Contract\":18548:18722  function getMessageByPlace(uint256 _placeN) external view validPlace(_placeN) returns(string memory){\r... */\n      pop\n      swap2\n      swap1\n      pop\n      jump\t// out\n        /* \"Contract\":15691:15867  function safeTransferFrom(\r... */\n    tag_107:\n        /* \"Contract\":15820:15859  safeTransferFrom(from, to, tokenId, \"\") */\n      tag_226\n        /* \"Contract\":15837:15841  from */\n      dup4\n        /* \"Contract\":15843:15845  to */\n      dup4\n        /* \"Contract\":15847:15854  tokenId */\n      dup4\n        /* \"Contract\":15820:15859  safeTransferFrom(from, to, tokenId, \"\") */\n      mload(0x40)\n      dup1\n      0x20\n      add\n      0x40\n      mstore\n      dup1\n      0x00\n      dup2\n      mstore\n      pop\n        /* \"Contract\":15820:15836  safeTransferFrom */\n      tag_158\n        /* \"Contract\":15820:15859  safeTransferFrom(from, to, tokenId, \"\") */\n      jump\t// in\n        /* \"Contract\":19202:19362  function getMessageByOrder(uint256 number) external view validPlace(number) returns(string memory){\r... */\n    tag_110:\n        /* \"Contract\":19286:19299  string memory */\n      0x60\n        /* \"Contract\":19270:19276  number */\n      dup2\n        /* \"Contract\":15405:15406  0 */\n      0x00\n        /* \"Contract\":15397:15404  _number */\n      dup2\n        /* \"Contract\":15397:15406  _number>0 */\n      gt\n        /* \"Contract\":15397:15428  _number>0 && _number <=_counter */\n      dup1\n      iszero\n      tag_288\n      jumpi\n      pop\n        /* \"Contract\":15420:15428  _counter */\n      sload(0x10)\n        /* \"Contract\":15410:15417  _number */\n      dup2\n        /* \"Contract\":15410:15428  _number <=_counter */\n      gt\n      iszero\n        /* \"Contract\":15397:15428  _number>0 && _number <=_counter */\n    tag_288:\n        /* \"Contract\":15389:15458  require(_number>0 && _number <=_counter, \"Given place is not valid!\") */\n      tag_289\n      jumpi\n      mload(0x40)\n      shl(0xe5, 0x461bcd)\n      dup2\n      mstore\n      0x04\n      add\n      tag_203\n      swap1\n      tag_276\n      jump\t// in\n    tag_289:\n        /* \"Contract\":19318:19354  _ownerToMessage[_ownerOrder[number]] */\n      0x00\n        /* \"Contract\":19334:19353  _ownerOrder[number] */\n      dup4\n      dup2\n      mstore\n        /* \"Contract\":19334:19345  _ownerOrder */\n      0x0c\n        /* \"Contract\":19334:19353  _ownerOrder[number] */\n      0x20\n      swap1\n      dup2\n      mstore\n      0x40\n      dup1\n      dup4\n      keccak256\n      sload\n      sub(shl(0xa0, 0x01), 0x01)\n      and\n        /* \"Contract\":19318:19354  _ownerToMessage[_ownerOrder[number]] */\n      dup4\n      mstore\n        /* \"Contract\":19318:19333  _ownerToMessage */\n      0x0e\n        /* \"Contract\":19318:19354  _ownerToMessage[_ownerOrder[number]] */\n      swap1\n      swap2\n      mstore\n      swap1\n      keccak256\n        /* \"Contract\":19311:19354  return _ownerToMessage[_ownerOrder[number]] */\n      dup1\n      sload\n      tag_280\n      swap1\n      tag_194\n      jump\t// in\n        /* \"Contract\":19050:19194  function getOwnerByOrder(uint256 number) external view override validPlace(number) returns(address){\r... */\n    tag_114:\n        /* \"Contract\":19141:19148  address */\n      0x00\n        /* \"Contract\":19125:19131  number */\n      dup2\n        /* \"Contract\":15405:15406  0 */\n      0x00\n        /* \"Contract\":15397:15404  _number */\n      dup2\n        /* \"Contract\":15397:15406  _number>0 */\n      gt\n        /* \"Contract\":15397:15428  _number>0 && _number <=_counter */\n      dup1\n      iszero\n      tag_298\n      jumpi\n      pop\n        /* \"Contract\":15420:15428  _counter */\n      sload(0x10)\n        /* \"Contract\":15410:15417  _number */\n      dup2\n        /* \"Contract\":15410:15428  _number <=_counter */\n      gt\n      iszero\n        /* \"Contract\":15397:15428  _number>0 && _number <=_counter */\n    tag_298:\n        /* \"Contract\":15389:15458  require(_number>0 && _number <=_counter, \"Given place is not valid!\") */\n      tag_299\n      jumpi\n      mload(0x40)\n      shl(0xe5, 0x461bcd)\n      dup2\n      mstore\n      0x04\n      add\n      tag_203\n      swap1\n      tag_276\n      jump\t// in\n    tag_299:\n      pop\n      pop\n        /* \"Contract\":19167:19186  _ownerOrder[number] */\n      0x00\n      swap1\n      dup2\n      mstore\n        /* \"Contract\":19167:19178  _ownerOrder */\n      0x0c\n        /* \"Contract\":19167:19186  _ownerOrder[number] */\n      0x20\n      mstore\n      0x40\n      swap1\n      keccak256\n      sload\n      sub(shl(0xa0, 0x01), 0x01)\n      and\n      swap1\n        /* \"Contract\":19050:19194  function getOwnerByOrder(uint256 number) external view override validPlace(number) returns(address){\r... */\n      jump\t// out\n        /* \"Contract\":3589:3820  function ownerOf(uint256 tokenId) public view override returns (address) {\r... */\n    tag_118:\n        /* \"Contract\":3653:3660  address */\n      0x00\n        /* \"Contract\":3689:3705  _owners[tokenId] */\n      dup2\n      dup2\n      mstore\n        /* \"Contract\":3689:3696  _owners */\n      0x05\n        /* \"Contract\":3689:3705  _owners[tokenId] */\n      0x20\n      mstore\n      0x40\n      dup2\n      keccak256\n      sload\n      sub(shl(0xa0, 0x01), 0x01)\n      and\n        /* \"Contract\":3724:3743  owner != address(0) */\n      dup1\n        /* \"Contract\":3716:3789  require(owner != address(0), \"ERC721: owner query for nonexistent token\") */\n      tag_191\n      jumpi\n      mload(0x40)\n      shl(0xe5, 0x461bcd)\n      dup2\n      mstore\n        /* \"#utility.yul\":12672:12674   */\n      0x20\n        /* \"Contract\":3716:3789  require(owner != address(0), \"ERC721: owner query for nonexistent token\") */\n      0x04\n      dup3\n      add\n        /* \"#utility.yul\":12654:12675   */\n      mstore\n        /* \"#utility.yul\":12711:12713   */\n      0x29\n        /* \"#utility.yul\":12691:12709   */\n      0x24\n      dup3\n      add\n        /* \"#utility.yul\":12684:12714   */\n      mstore\n        /* \"#utility.yul\":12750:12784   */\n      0x4552433732313a206f776e657220717565727920666f72206e6f6e6578697374\n        /* \"#utility.yul\":12730:12748   */\n      0x44\n      dup3\n      add\n        /* \"#utility.yul\":12723:12785   */\n      mstore\n      shl(0xb9, 0x32b73a103a37b5b2b7)\n        /* \"#utility.yul\":12801:12819   */\n      0x64\n      dup3\n      add\n        /* \"#utility.yul\":12794:12833   */\n      mstore\n        /* \"#utility.yul\":12850:12869   */\n      0x84\n      add\n        /* \"Contract\":3716:3789  require(owner != address(0), \"ERC721: owner query for nonexistent token\") */\n      tag_203\n        /* \"#utility.yul\":12644:12875   */\n      jump\n        /* \"Contract\":3327:3527  function balanceOf(address owner) public view override returns (uint256) {\r... */\n    tag_122:\n        /* \"Contract\":3391:3398  uint256 */\n      0x00\n      sub(shl(0xa0, 0x01), 0x01)\n        /* \"Contract\":3419:3438  owner != address(0) */\n      dup3\n      and\n        /* \"Contract\":3411:3485  require(owner != address(0), \"ERC721: balance query for the zero address\") */\n      tag_307\n      jumpi\n      mload(0x40)\n      shl(0xe5, 0x461bcd)\n      dup2\n      mstore\n        /* \"#utility.yul\":12261:12263   */\n      0x20\n        /* \"Contract\":3411:3485  require(owner != address(0), \"ERC721: balance query for the zero address\") */\n      0x04\n      dup3\n      add\n        /* \"#utility.yul\":12243:12264   */\n      mstore\n        /* \"#utility.yul\":12300:12302   */\n      0x2a\n        /* \"#utility.yul\":12280:12298   */\n      0x24\n      dup3\n      add\n        /* \"#utility.yul\":12273:12303   */\n      mstore\n        /* \"#utility.yul\":12339:12373   */\n      0x4552433732313a2062616c616e636520717565727920666f7220746865207a65\n        /* \"#utility.yul\":12319:12337   */\n      0x44\n      dup3\n      add\n        /* \"#utility.yul\":12312:12374   */\n      mstore\n      shl(0xb0, 0x726f2061646472657373)\n        /* \"#utility.yul\":12390:12408   */\n      0x64\n      dup3\n      add\n        /* \"#utility.yul\":12383:12423   */\n      mstore\n        /* \"#utility.yul\":12440:12459   */\n      0x84\n      add\n        /* \"Contract\":3411:3485  require(owner != address(0), \"ERC721: balance query for the zero address\") */\n      tag_203\n        /* \"#utility.yul\":12233:12465   */\n      jump\n        /* \"Contract\":3411:3485  require(owner != address(0), \"ERC721: balance query for the zero address\") */\n    tag_307:\n      pop\n      sub(shl(0xa0, 0x01), 0x01)\n        /* \"Contract\":3503:3519  _balances[owner] */\n      and\n      0x00\n      swap1\n      dup2\n      mstore\n        /* \"Contract\":3503:3512  _balances */\n      0x06\n        /* \"Contract\":3503:3519  _balances[owner] */\n      0x20\n      mstore\n      0x40\n      swap1\n      keccak256\n      sload\n      swap1\n        /* \"Contract\":3327:3527  function balanceOf(address owner) public view override returns (uint256) {\r... */\n      jump\t// out\n        /* \"openzeppelin/contracts/access/Ownable.sol\":1605:1697   */\n    tag_125:\n        /* \"openzeppelin/contracts/access/Ownable.sol\":1019:1026   */\n      0x00\n        /* \"openzeppelin/contracts/access/Ownable.sol\":1045:1051   */\n      sload\n      sub(shl(0xa0, 0x01), 0x01)\n      and\n        /* \"openzeppelin/contracts/utils/Context.sol\":666:676   */\n      caller\n        /* \"openzeppelin/contracts/access/Ownable.sol\":1185:1208   */\n      eq\n        /* \"openzeppelin/contracts/access/Ownable.sol\":1177:1245   */\n      tag_313\n      jumpi\n      mload(0x40)\n      shl(0xe5, 0x461bcd)\n      dup2\n      mstore\n        /* \"#utility.yul\":13913:13915   */\n      0x20\n        /* \"openzeppelin/contracts/access/Ownable.sol\":1177:1245   */\n      0x04\n      dup3\n      add\n        /* \"#utility.yul\":13895:13916   */\n      dup2\n      swap1\n      mstore\n        /* \"#utility.yul\":13932:13950   */\n      0x24\n      dup3\n      add\n        /* \"#utility.yul\":13925:13955   */\n      mstore\n        /* \"#utility.yul\":13991:14025   */\n      0x4f776e61626c653a2063616c6c6572206973206e6f7420746865206f776e6572\n        /* \"#utility.yul\":13971:13989   */\n      0x44\n      dup3\n      add\n        /* \"#utility.yul\":13964:14026   */\n      mstore\n        /* \"#utility.yul\":14043:14061   */\n      0x64\n      add\n        /* \"openzeppelin/contracts/access/Ownable.sol\":1177:1245   */\n      tag_203\n        /* \"#utility.yul\":13885:14067   */\n      jump\n        /* \"openzeppelin/contracts/access/Ownable.sol\":1177:1245   */\n    tag_313:\n        /* \"openzeppelin/contracts/access/Ownable.sol\":1669:1690   */\n      tag_317\n        /* \"openzeppelin/contracts/access/Ownable.sol\":1687:1688   */\n      0x00\n        /* \"openzeppelin/contracts/access/Ownable.sol\":1669:1678   */\n      tag_318\n        /* \"openzeppelin/contracts/access/Ownable.sol\":1669:1690   */\n      jump\t// in\n    tag_317:\n        /* \"openzeppelin/contracts/access/Ownable.sol\":1605:1697   */\n      jump\t// out\n        /* \"Contract\":18391:18540  function getOwnerByPlace(uint256 _placeN) external view validPlace(_placeN) returns(address){\r... */\n    tag_128:\n        /* \"Contract\":18475:18482  address */\n      0x00\n        /* \"Contract\":18458:18465  _placeN */\n      dup2\n        /* \"Contract\":15405:15406  0 */\n      0x00\n        /* \"Contract\":15397:15404  _number */\n      dup2\n        /* \"Contract\":15397:15406  _number>0 */\n      gt\n        /* \"Contract\":15397:15428  _number>0 && _number <=_counter */\n      dup1\n      iszero\n      tag_320\n      jumpi\n      pop\n        /* \"Contract\":15420:15428  _counter */\n      sload(0x10)\n        /* \"Contract\":15410:15417  _number */\n      dup2\n        /* \"Contract\":15410:15428  _number <=_counter */\n      gt\n      iszero\n        /* \"Contract\":15397:15428  _number>0 && _number <=_counter */\n    tag_320:\n        /* \"Contract\":15389:15458  require(_number>0 && _number <=_counter, \"Given place is not valid!\") */\n      tag_321\n      jumpi\n      mload(0x40)\n      shl(0xe5, 0x461bcd)\n      dup2\n      mstore\n      0x04\n      add\n      tag_203\n      swap1\n      tag_276\n      jump\t// in\n    tag_321:\n        /* \"Contract\":18501:18512  _ownerOrder */\n      0x0c\n        /* \"Contract\":18501:18532  _ownerOrder[_counter+1-_placeN] */\n      0x00\n        /* \"Contract\":18524:18531  _placeN */\n      dup5\n        /* \"Contract\":18513:18521  _counter */\n      sload(0x10)\n        /* \"Contract\":18522:18523  1 */\n      0x01\n        /* \"Contract\":18513:18523  _counter+1 */\n      tag_324\n      swap2\n      swap1\n      tag_234\n      jump\t// in\n    tag_324:\n        /* \"Contract\":18513:18531  _counter+1-_placeN */\n      tag_325\n      swap2\n      swap1\n      tag_236\n      jump\t// in\n    tag_325:\n        /* \"Contract\":18501:18532  _ownerOrder[_counter+1-_placeN] */\n      dup2\n      mstore\n      0x20\n      dup2\n      add\n      swap2\n      swap1\n      swap2\n      mstore\n      0x40\n      add\n      0x00\n      keccak256\n      sload\n      sub(shl(0xa0, 0x01), 0x01)\n      and\n      swap4\n        /* \"Contract\":18391:18540  function getOwnerByPlace(uint256 _placeN) external view validPlace(_placeN) returns(address){\r... */\n      swap3\n      pop\n      pop\n      pop\n      jump\t// out\n        /* \"Contract\":4048:4144  function symbol() public view override returns (string memory) {\r... */\n    tag_144:\n        /* \"Contract\":4096:4109  string memory */\n      0x60\n        /* \"Contract\":4129:4136  _symbol */\n      0x04\n        /* \"Contract\":4122:4136  return _symbol */\n      dup1\n      sload\n      tag_193\n      swap1\n      tag_194\n      jump\t// in\n        /* \"Contract\":5302:5595  function setApprovalForAll(address operator, bool approved) public override ended() {\r... */\n    tag_152:\n        /* \"Contract\":15007:15013  _ended */\n      sload(0x0a)\n      shl(0xa0, 0x01)\n      swap1\n      div\n      0xff\n      and\n        /* \"Contract\":14999:15071  require(_ended, \"Can't perform this action while auction has not ended\") */\n      tag_338\n      jumpi\n      mload(0x40)\n      shl(0xe5, 0x461bcd)\n      dup2\n      mstore\n      0x04\n      add\n      tag_203\n      swap1\n      tag_208\n      jump\t// in\n    tag_338:\n      sub(shl(0xa0, 0x01), 0x01)\n        /* \"Contract\":5405:5429  operator != _msgSender() */\n      dup3\n      and\n        /* \"openzeppelin/contracts/utils/Context.sol\":666:676   */\n      caller\n        /* \"Contract\":5405:5429  operator != _msgSender() */\n      eq\n      iszero\n        /* \"Contract\":5397:5459  require(operator != _msgSender(), \"ERC721: approve to caller\") */\n      tag_342\n      jumpi\n      mload(0x40)\n      shl(0xe5, 0x461bcd)\n      dup2\n      mstore\n        /* \"#utility.yul\":10354:10356   */\n      0x20\n        /* \"Contract\":5397:5459  require(operator != _msgSender(), \"ERC721: approve to caller\") */\n      0x04\n      dup3\n      add\n        /* \"#utility.yul\":10336:10357   */\n      mstore\n        /* \"#utility.yul\":10393:10395   */\n      0x19\n        /* \"#utility.yul\":10373:10391   */\n      0x24\n      dup3\n      add\n        /* \"#utility.yul\":10366:10396   */\n      mstore\n        /* \"#utility.yul\":10432:10459   */\n      0x4552433732313a20617070726f766520746f2063616c6c657200000000000000\n        /* \"#utility.yul\":10412:10430   */\n      0x44\n      dup3\n      add\n        /* \"#utility.yul\":10405:10460   */\n      mstore\n        /* \"#utility.yul\":10477:10495   */\n      0x64\n      add\n        /* \"Contract\":5397:5459  require(operator != _msgSender(), \"ERC721: approve to caller\") */\n      tag_203\n        /* \"#utility.yul\":10326:10501   */\n      jump\n        /* \"Contract\":5397:5459  require(operator != _msgSender(), \"ERC721: approve to caller\") */\n    tag_342:\n        /* \"openzeppelin/contracts/utils/Context.sol\":666:676   */\n      caller\n        /* \"Contract\":5470:5502  _operatorApprovals[_msgSender()] */\n      0x00\n      dup2\n      dup2\n      mstore\n        /* \"Contract\":5470:5488  _operatorApprovals */\n      0x08\n        /* \"Contract\":5470:5502  _operatorApprovals[_msgSender()] */\n      0x20\n      swap1\n      dup2\n      mstore\n      0x40\n      dup1\n      dup4\n      keccak256\n      sub(shl(0xa0, 0x01), 0x01)\n        /* \"Contract\":5470:5512  _operatorApprovals[_msgSender()][operator] */\n      dup8\n      and\n      dup1\n      dup6\n      mstore\n      swap1\n      dup4\n      mstore\n      swap3\n      dup2\n      swap1\n      keccak256\n        /* \"Contract\":5470:5523  _operatorApprovals[_msgSender()][operator] = approved */\n      dup1\n      sload\n      not(0xff)\n      and\n      dup7\n      iszero\n      iszero\n      swap1\n      dup2\n      or\n      swap1\n      swap2\n      sstore\n        /* \"Contract\":5539:5587  ApprovalForAll(_msgSender(), operator, approved) */\n      swap1\n      mload\n        /* \"#utility.yul\":6881:6922   */\n      swap1\n      dup2\n      mstore\n        /* \"Contract\":5470:5512  _operatorApprovals[_msgSender()][operator] */\n      swap2\n      swap3\n        /* \"openzeppelin/contracts/utils/Context.sol\":666:676   */\n      swap2\n        /* \"Contract\":5539:5587  ApprovalForAll(_msgSender(), operator, approved) */\n      0x17307eab39ab6107e8899845ad3d59bd9653f200f220920489ca2b5937696c31\n      swap2\n        /* \"#utility.yul\":6854:6872   */\n      add\n        /* \"Contract\":5539:5587  ApprovalForAll(_msgSender(), operator, approved) */\n      mload(0x40)\n      dup1\n      swap2\n      sub\n      swap1\n      log3\n        /* \"Contract\":5302:5595  function setApprovalForAll(address operator, bool approved) public override ended() {\r... */\n      pop\n      pop\n      jump\t// out\n        /* \"Contract\":15879:16121  function safeTransferFrom(\r... */\n    tag_158:\n        /* \"Contract\":14626:14632  _ended */\n      sload(0x0a)\n        /* \"Contract\":16046:16048  to */\n      dup4\n      swap1\n        /* \"Contract\":16050:16057  tokenId */\n      dup4\n      swap1\n      shl(0xa0, 0x01)\n        /* \"Contract\":14626:14632  _ended */\n      swap1\n      div\n      0xff\n      and\n        /* \"Contract\":14622:14945  if(!_ended){\r... */\n      tag_350\n      jumpi\n        /* \"Contract\":15187:15191  _dex */\n      and(sub(shl(0xa0, 0x01), 0x01), sload(0x0a))\n        /* \"Contract\":15165:15175  msg.sender */\n      caller\n        /* \"Contract\":15165:15192  msg.sender == address(_dex) */\n      eq\n        /* \"Contract\":14648:14724  require(byDex(), \"Trasnferer has to be the DEX while auction has not ended\") */\n      tag_352\n      jumpi\n      mload(0x40)\n      shl(0xe5, 0x461bcd)\n      dup2\n      mstore\n      0x04\n      add\n      tag_203\n      swap1\n      tag_252\n      jump\t// in\n    tag_352:\n      sub(shl(0xa0, 0x01), 0x01)\n        /* \"Contract\":14748:14761  _wasOwner[to] */\n      dup3\n      and\n      0x00\n      swap1\n      dup2\n      mstore\n        /* \"Contract\":14748:14757  _wasOwner */\n      0x0b\n        /* \"Contract\":14748:14761  _wasOwner[to] */\n      0x20\n      mstore\n      0x40\n      swap1\n      keccak256\n      sload\n      0xff\n      and\n        /* \"Contract\":14747:14761  !_wasOwner[to] */\n      iszero\n        /* \"Contract\":14739:14798  require(!_wasOwner[to], \"Caller has already been an owner\") */\n      tag_354\n      jumpi\n      mload(0x40)\n      shl(0xe5, 0x461bcd)\n      dup2\n      mstore\n        /* \"#utility.yul\":11062:11064   */\n      0x20\n        /* \"Contract\":14739:14798  require(!_wasOwner[to], \"Caller has already been an owner\") */\n      0x04\n      dup3\n      add\n        /* \"#utility.yul\":11044:11065   */\n      dup2\n      swap1\n      mstore\n        /* \"#utility.yul\":11081:11099   */\n      0x24\n      dup3\n      add\n        /* \"#utility.yul\":11074:11104   */\n      mstore\n        /* \"#utility.yul\":11140:11174   */\n      0x43616c6c65722068617320616c7265616479206265656e20616e206f776e6572\n        /* \"#utility.yul\":11120:11138   */\n      0x44\n      dup3\n      add\n        /* \"#utility.yul\":11113:11175   */\n      mstore\n        /* \"#utility.yul\":11192:11210   */\n      0x64\n      add\n        /* \"Contract\":14739:14798  require(!_wasOwner[to], \"Caller has already been an owner\") */\n      tag_203\n        /* \"#utility.yul\":11034:11216   */\n      jump\n        /* \"Contract\":14739:14798  require(!_wasOwner[to], \"Caller has already been an owner\") */\n    tag_354:\n        /* \"Contract\":14622:14945  if(!_ended){\r... */\n      jump(tag_358)\n    tag_350:\n        /* \"Contract\":14840:14879  _isApprovedOrOwner(msg.sender, tokenId) */\n      tag_357\n        /* \"Contract\":14859:14869  msg.sender */\n      caller\n        /* \"Contract\":14871:14878  tokenId */\n      dup3\n        /* \"Contract\":14840:14858  _isApprovedOrOwner */\n      tag_258\n        /* \"Contract\":14840:14879  _isApprovedOrOwner(msg.sender, tokenId) */\n      jump\t// in\n    tag_357:\n        /* \"Contract\":14832:14933  require(_isApprovedOrOwner(msg.sender, tokenId), \"ERC721: transfer caller is not owner nor approved\") */\n      tag_358\n      jumpi\n      mload(0x40)\n      shl(0xe5, 0x461bcd)\n      dup2\n      mstore\n      0x04\n      add\n      tag_203\n      swap1\n      tag_261\n      jump\t// in\n    tag_358:\n        /* \"Contract\":16074:16113  _safeTransfer(from, to, tokenId, _data) */\n      tag_361\n        /* \"Contract\":16088:16092  from */\n      dup7\n        /* \"Contract\":16094:16096  to */\n      dup7\n        /* \"Contract\":16098:16105  tokenId */\n      dup7\n        /* \"Contract\":16107:16112  _data */\n      dup7\n        /* \"Contract\":16074:16087  _safeTransfer */\n      tag_362\n        /* \"Contract\":16074:16113  _safeTransfer(from, to, tokenId, _data) */\n      jump\t// in\n    tag_361:\n        /* \"Contract\":15879:16121  function safeTransferFrom(\r... */\n      pop\n      pop\n      pop\n      pop\n      pop\n      pop\n      jump\t// out\n        /* \"Contract\":18891:19042  function getMessageByOwner(address _address) external view wasOwner(_address) returns(string memory){\r... */\n    tag_161:\n      sub(shl(0xa0, 0x01), 0x01)\n        /* \"Contract\":15263:15282  _wasOwner[_address] */\n      dup2\n      and\n      0x00\n      swap1\n      dup2\n      mstore\n        /* \"Contract\":15263:15272  _wasOwner */\n      0x0b\n        /* \"Contract\":15263:15282  _wasOwner[_address] */\n      0x20\n      mstore\n      0x40\n      swap1\n      keccak256\n      sload\n        /* \"Contract\":18977:18990  string memory */\n      0x60\n      swap1\n        /* \"Contract\":18959:18967  _address */\n      dup3\n      swap1\n        /* \"Contract\":15263:15282  _wasOwner[_address] */\n      0xff\n      and\n        /* \"Contract\":15255:15314  require(_wasOwner[_address], \"Given address was no owner!\") */\n      tag_364\n      jumpi\n      mload(0x40)\n      shl(0xe5, 0x461bcd)\n      dup2\n      mstore\n      0x04\n      add\n      tag_203\n      swap1\n      tag_231\n      jump\t// in\n    tag_364:\n      sub(shl(0xa0, 0x01), 0x01)\n        /* \"Contract\":19009:19034  _ownerToMessage[_address] */\n      dup4\n      and\n      0x00\n      swap1\n      dup2\n      mstore\n        /* \"Contract\":19009:19024  _ownerToMessage */\n      0x0e\n        /* \"Contract\":19009:19034  _ownerToMessage[_address] */\n      0x20\n      mstore\n      0x40\n      swap1\n      keccak256\n        /* \"Contract\":19002:19034  return _ownerToMessage[_address] */\n      dup1\n      sload\n      tag_280\n      swap1\n      tag_194\n      jump\t// in\n        /* \"Contract\":1009:1702  function tokenURI(uint256 tokenId) override public view returns (string memory) {\r... */\n    tag_165:\n        /* \"Contract\":7745:7749  bool */\n      0x00\n        /* \"Contract\":7769:7785  _owners[tokenId] */\n      dup2\n      dup2\n      mstore\n        /* \"Contract\":7769:7776  _owners */\n      0x05\n        /* \"Contract\":7769:7785  _owners[tokenId] */\n      0x20\n      mstore\n      0x40\n      swap1\n      keccak256\n      sload\n        /* \"Contract\":1074:1087  string memory */\n      0x60\n      swap1\n      sub(shl(0xa0, 0x01), 0x01)\n        /* \"Contract\":7769:7785  _owners[tokenId] */\n      and\n        /* \"Contract\":1100:1178  require(_exists(tokenId), \"ERC721URIStorage: URI query for nonexistent token\") */\n      tag_374\n      jumpi\n      mload(0x40)\n      shl(0xe5, 0x461bcd)\n      dup2\n      mstore\n        /* \"#utility.yul\":13082:13084   */\n      0x20\n        /* \"Contract\":1100:1178  require(_exists(tokenId), \"ERC721URIStorage: URI query for nonexistent token\") */\n      0x04\n      dup3\n      add\n        /* \"#utility.yul\":13064:13085   */\n      mstore\n        /* \"#utility.yul\":13121:13123   */\n      0x31\n        /* \"#utility.yul\":13101:13119   */\n      0x24\n      dup3\n      add\n        /* \"#utility.yul\":13094:13124   */\n      mstore\n        /* \"#utility.yul\":13160:13194   */\n      0x45524337323155524953746f726167653a2055524920717565727920666f7220\n        /* \"#utility.yul\":13140:13158   */\n      0x44\n      dup3\n      add\n        /* \"#utility.yul\":13133:13195   */\n      mstore\n      shl(0x79, 0x3737b732bc34b9ba32b73a103a37b5b2b7)\n        /* \"#utility.yul\":13211:13229   */\n      0x64\n      dup3\n      add\n        /* \"#utility.yul\":13204:13251   */\n      mstore\n        /* \"#utility.yul\":13268:13287   */\n      0x84\n      add\n        /* \"Contract\":1100:1178  require(_exists(tokenId), \"ERC721URIStorage: URI query for nonexistent token\") */\n      tag_203\n        /* \"#utility.yul\":13054:13293   */\n      jump\n        /* \"Contract\":1100:1178  require(_exists(tokenId), \"ERC721URIStorage: URI query for nonexistent token\") */\n    tag_374:\n        /* \"Contract\":1191:1214  string memory _tokenURI */\n      0x00\n        /* \"Contract\":1217:1236  _tokenURIs[tokenId] */\n      dup3\n      dup2\n      mstore\n        /* \"Contract\":1217:1227  _tokenURIs */\n      0x01\n        /* \"Contract\":1217:1236  _tokenURIs[tokenId] */\n      0x20\n      mstore\n      0x40\n      dup2\n      keccak256\n        /* \"Contract\":1191:1236  string memory _tokenURI = _tokenURIs[tokenId] */\n      dup1\n      sload\n      tag_377\n      swap1\n      tag_194\n      jump\t// in\n    tag_377:\n      dup1\n      0x1f\n      add\n      0x20\n      dup1\n      swap2\n      div\n      mul\n      0x20\n      add\n      mload(0x40)\n      swap1\n      dup2\n      add\n      0x40\n      mstore\n      dup1\n      swap3\n      swap2\n      swap1\n      dup2\n      dup2\n      mstore\n      0x20\n      add\n      dup3\n      dup1\n      sload\n      tag_378\n      swap1\n      tag_194\n      jump\t// in\n    tag_378:\n      dup1\n      iszero\n      tag_379\n      jumpi\n      dup1\n      0x1f\n      lt\n      tag_380\n      jumpi\n      0x0100\n      dup1\n      dup4\n      sload\n      div\n      mul\n      dup4\n      mstore\n      swap2\n      0x20\n      add\n      swap2\n      jump(tag_379)\n    tag_380:\n      dup3\n      add\n      swap2\n      swap1\n      0x00\n      mstore\n      keccak256(0x00, 0x20)\n      swap1\n    tag_381:\n      dup2\n      sload\n      dup2\n      mstore\n      swap1\n      0x01\n      add\n      swap1\n      0x20\n      add\n      dup1\n      dup4\n      gt\n      tag_381\n      jumpi\n      dup3\n      swap1\n      sub\n      0x1f\n      and\n      dup3\n      add\n      swap2\n    tag_379:\n      pop\n      pop\n      pop\n      pop\n      pop\n      swap1\n      pop\n        /* \"Contract\":1247:1265  string memory base */\n      0x00\n        /* \"Contract\":1268:1278  _baseURI() */\n      tag_382\n        /* \"Contract\":1268:1276  _baseURI */\n      tag_383\n        /* \"Contract\":1268:1278  _baseURI() */\n      jump\t// in\n    tag_382:\n        /* \"Contract\":1247:1278  string memory base = _baseURI() */\n      swap1\n      pop\n        /* \"Contract\":1360:1364  base */\n      dup1\n        /* \"Contract\":1354:1372  bytes(base).length */\n      mload\n        /* \"Contract\":1376:1377  0 */\n      0x00\n        /* \"Contract\":1354:1377  bytes(base).length == 0 */\n      eq\n        /* \"Contract\":1350:1458  if (bytes(base).length == 0) {\r... */\n      iszero\n      tag_384\n      jumpi\n        /* \"Contract\":1435:1444  _tokenURI */\n      dup2\n        /* \"Contract\":1408:1445  abi.encodePacked(\"ipfs://\",_tokenURI) */\n      add(0x20, mload(0x40))\n      tag_385\n      swap2\n      swap1\n      tag_386\n      jump\t// in\n    tag_385:\n      mload(0x40)\n      0x20\n      dup2\n      dup4\n      sub\n      sub\n      dup2\n      mstore\n      swap1\n      0x40\n      mstore\n        /* \"Contract\":1394:1446  return string(abi.encodePacked(\"ipfs://\",_tokenURI)) */\n      swap3\n      pop\n      pop\n      pop\n        /* \"Contract\":1009:1702  function tokenURI(uint256 tokenId) override public view returns (string memory) {\r... */\n      swap2\n      swap1\n      pop\n      jump\t// out\n        /* \"Contract\":1350:1458  if (bytes(base).length == 0) {\r... */\n    tag_384:\n        /* \"Contract\":1562:1585  bytes(_tokenURI).length */\n      dup2\n      mload\n        /* \"Contract\":1562:1589  bytes(_tokenURI).length > 0 */\n      iszero\n        /* \"Contract\":1558:1673  if (bytes(_tokenURI).length > 0) {\r... */\n      tag_387\n      jumpi\n        /* \"Contract\":1637:1641  base */\n      dup1\n        /* \"Contract\":1643:1650  tokenId */\n      dup5\n        /* \"Contract\":1620:1660  abi.encodePacked(base, tokenId, \".json\") */\n      add(0x20, mload(0x40))\n      tag_385\n      swap3\n      swap2\n      swap1\n      tag_389\n      jump\t// in\n        /* \"Contract\":1558:1673  if (bytes(_tokenURI).length > 0) {\r... */\n    tag_387:\n      pop\n      pop\n        /* \"Contract\":1685:1694  return \"\" */\n      0x40\n      dup1\n      mload\n      0x20\n      dup2\n      add\n      swap1\n      swap2\n      mstore\n      0x00\n      dup2\n      mstore\n      swap3\n        /* \"Contract\":1009:1702  function tokenURI(uint256 tokenId) override public view returns (string memory) {\r... */\n      swap2\n      pop\n      pop\n      jump\t// out\n        /* \"Contract\":17060:17254  function addEarning(address _address, uint256 _amount) external override{\r... */\n    tag_169:\n        /* \"Contract\":15187:15191  _dex */\n      and(sub(shl(0xa0, 0x01), 0x01), sload(0x0a))\n        /* \"Contract\":15165:15175  msg.sender */\n      caller\n        /* \"Contract\":15165:15192  msg.sender == address(_dex) */\n      eq\n        /* \"Contract\":17143:17188  require(byDex(), \"Can only be called by DEX\") */\n      tag_392\n      jumpi\n      mload(0x40)\n      shl(0xe5, 0x461bcd)\n      dup2\n      mstore\n      0x04\n      add\n      tag_203\n      swap1\n      tag_244\n      jump\t// in\n    tag_392:\n      sub(shl(0xa0, 0x01), 0x01)\n        /* \"Contract\":17219:17236  _earned[_address] */\n      dup3\n      and\n      0x00\n      swap1\n      dup2\n      mstore\n        /* \"Contract\":17219:17226  _earned */\n      0x0f\n        /* \"Contract\":17219:17236  _earned[_address] */\n      0x20\n      mstore\n      0x40\n      swap1\n      keccak256\n      sload\n        /* \"Contract\":17219:17246  _earned[_address] + _amount */\n      tag_394\n      swap1\n        /* \"Contract\":17239:17246  _amount */\n      dup3\n      swap1\n        /* \"Contract\":17219:17246  _earned[_address] + _amount */\n      tag_234\n      jump\t// in\n    tag_394:\n      sub(shl(0xa0, 0x01), 0x01)\n        /* \"Contract\":17199:17216  _earned[_address] */\n      swap1\n      swap3\n      and\n      0x00\n      swap1\n      dup2\n      mstore\n        /* \"Contract\":17199:17206  _earned */\n      0x0f\n        /* \"Contract\":17199:17216  _earned[_address] */\n      0x20\n      mstore\n      0x40\n      swap1\n      keccak256\n        /* \"Contract\":17199:17246  _earned[_address] = _earned[_address] + _amount */\n      swap2\n      swap1\n      swap2\n      sstore\n      pop\n        /* \"Contract\":17060:17254  function addEarning(address _address, uint256 _amount) external override{\r... */\n      jump\t// out\n        /* \"Contract\":5666:5822  function isApprovedForAll(address owner, address operator) public view override returns (bool) {\r... */\n    tag_173:\n      sub(shl(0xa0, 0x01), 0x01)\n        /* \"Contract\":5779:5804  _operatorApprovals[owner] */\n      swap2\n      dup3\n      and\n        /* \"Contract\":5755:5759  bool */\n      0x00\n        /* \"Contract\":5779:5804  _operatorApprovals[owner] */\n      swap1\n      dup2\n      mstore\n        /* \"Contract\":5779:5797  _operatorApprovals */\n      0x08\n        /* \"Contract\":5779:5804  _operatorApprovals[owner] */\n      0x20\n      swap1\n      dup2\n      mstore\n      0x40\n      dup1\n      dup4\n      keccak256\n        /* \"Contract\":5779:5814  _operatorApprovals[owner][operator] */\n      swap4\n      swap1\n      swap5\n      and\n      dup3\n      mstore\n      swap2\n      swap1\n      swap2\n      mstore\n      keccak256\n      sload\n      0xff\n      and\n      swap1\n        /* \"Contract\":5666:5822  function isApprovedForAll(address owner, address operator) public view override returns (bool) {\r... */\n      jump\t// out\n        /* \"openzeppelin/contracts/access/Ownable.sol\":1846:2035   */\n    tag_177:\n        /* \"openzeppelin/contracts/access/Ownable.sol\":1019:1026   */\n      0x00\n        /* \"openzeppelin/contracts/access/Ownable.sol\":1045:1051   */\n      sload\n      sub(shl(0xa0, 0x01), 0x01)\n      and\n        /* \"openzeppelin/contracts/utils/Context.sol\":666:676   */\n      caller\n        /* \"openzeppelin/contracts/access/Ownable.sol\":1185:1208   */\n      eq\n        /* \"openzeppelin/contracts/access/Ownable.sol\":1177:1245   */\n      tag_399\n      jumpi\n      mload(0x40)\n      shl(0xe5, 0x461bcd)\n      dup2\n      mstore\n        /* \"#utility.yul\":13913:13915   */\n      0x20\n        /* \"openzeppelin/contracts/access/Ownable.sol\":1177:1245   */\n      0x04\n      dup3\n      add\n        /* \"#utility.yul\":13895:13916   */\n      dup2\n      swap1\n      mstore\n        /* \"#utility.yul\":13932:13950   */\n      0x24\n      dup3\n      add\n        /* \"#utility.yul\":13925:13955   */\n      mstore\n        /* \"#utility.yul\":13991:14025   */\n      0x4f776e61626c653a2063616c6c6572206973206e6f7420746865206f776e6572\n        /* \"#utility.yul\":13971:13989   */\n      0x44\n      dup3\n      add\n        /* \"#utility.yul\":13964:14026   */\n      mstore\n        /* \"#utility.yul\":14043:14061   */\n      0x64\n      add\n        /* \"openzeppelin/contracts/access/Ownable.sol\":1177:1245   */\n      tag_203\n        /* \"#utility.yul\":13885:14067   */\n      jump\n        /* \"openzeppelin/contracts/access/Ownable.sol\":1177:1245   */\n    tag_399:\n      sub(shl(0xa0, 0x01), 0x01)\n        /* \"openzeppelin/contracts/access/Ownable.sol\":1934:1956   */\n      dup2\n      and\n        /* \"openzeppelin/contracts/access/Ownable.sol\":1926:1999   */\n      tag_402\n      jumpi\n      mload(0x40)\n      shl(0xe5, 0x461bcd)\n      dup2\n      mstore\n        /* \"#utility.yul\":8341:8343   */\n      0x20\n        /* \"openzeppelin/contracts/access/Ownable.sol\":1926:1999   */\n      0x04\n      dup3\n      add\n        /* \"#utility.yul\":8323:8344   */\n      mstore\n        /* \"#utility.yul\":8380:8382   */\n      0x26\n        /* \"#utility.yul\":8360:8378   */\n      0x24\n      dup3\n      add\n        /* \"#utility.yul\":8353:8383   */\n      mstore\n        /* \"#utility.yul\":8419:8453   */\n      0x4f776e61626c653a206e6577206f776e657220697320746865207a65726f2061\n        /* \"#utility.yul\":8399:8417   */\n      0x44\n      dup3\n      add\n        /* \"#utility.yul\":8392:8454   */\n      mstore\n      shl(0xd0, 0x646472657373)\n        /* \"#utility.yul\":8470:8488   */\n      0x64\n      dup3\n      add\n        /* \"#utility.yul\":8463:8499   */\n      mstore\n        /* \"#utility.yul\":8516:8535   */\n      0x84\n      add\n        /* \"openzeppelin/contracts/access/Ownable.sol\":1926:1999   */\n      tag_203\n        /* \"#utility.yul\":8313:8541   */\n      jump\n        /* \"openzeppelin/contracts/access/Ownable.sol\":1926:1999   */\n    tag_402:\n        /* \"openzeppelin/contracts/access/Ownable.sol\":2009:2028   */\n      tag_405\n        /* \"openzeppelin/contracts/access/Ownable.sol\":2019:2027   */\n      dup2\n        /* \"openzeppelin/contracts/access/Ownable.sol\":2009:2018   */\n      tag_318\n        /* \"openzeppelin/contracts/access/Ownable.sol\":2009:2028   */\n      jump\t// in\n    tag_405:\n        /* \"openzeppelin/contracts/access/Ownable.sol\":1846:2035   */\n      pop\n      jump\t// out\n        /* \"Contract\":17959:18086  function endAuction() external override{\r... */\n    tag_179:\n        /* \"Contract\":15187:15191  _dex */\n      and(sub(shl(0xa0, 0x01), 0x01), sload(0x0a))\n        /* \"Contract\":15165:15175  msg.sender */\n      caller\n        /* \"Contract\":15165:15192  msg.sender == address(_dex) */\n      eq\n        /* \"Contract\":18009:18054  require(byDex(), \"Can only be called by DEX\") */\n      tag_408\n      jumpi\n      mload(0x40)\n      shl(0xe5, 0x461bcd)\n      dup2\n      mstore\n      0x04\n      add\n      tag_203\n      swap1\n      tag_244\n      jump\t// in\n    tag_408:\n        /* \"Contract\":18065:18071  _ended */\n      0x0a\n        /* \"Contract\":18065:18078  _ended = true */\n      dup1\n      sload\n      not(shl(0xa0, 0xff))\n      and\n      shl(0xa0, 0x01)\n      or\n      swap1\n      sstore\n        /* \"Contract\":17959:18086  function endAuction() external override{\r... */\n      jump\t// out\n        /* \"Contract\":19370:19511  function getOrderByOwner(address _address) external view wasOwner(_address) returns(uint256){\r... */\n    tag_182:\n      sub(shl(0xa0, 0x01), 0x01)\n        /* \"Contract\":15263:15282  _wasOwner[_address] */\n      dup2\n      and\n        /* \"Contract\":19454:19461  uint256 */\n      0x00\n        /* \"Contract\":15263:15282  _wasOwner[_address] */\n      swap1\n      dup2\n      mstore\n        /* \"Contract\":15263:15272  _wasOwner */\n      0x0b\n        /* \"Contract\":15263:15282  _wasOwner[_address] */\n      0x20\n      mstore\n      0x40\n      dup2\n      keccak256\n      sload\n        /* \"Contract\":19436:19444  _address */\n      dup3\n      swap1\n        /* \"Contract\":15263:15282  _wasOwner[_address] */\n      0xff\n      and\n        /* \"Contract\":15255:15314  require(_wasOwner[_address], \"Given address was no owner!\") */\n      tag_411\n      jumpi\n      mload(0x40)\n      shl(0xe5, 0x461bcd)\n      dup2\n      mstore\n      0x04\n      add\n      tag_203\n      swap1\n      tag_231\n      jump\t// in\n    tag_411:\n      pop\n      pop\n      sub(shl(0xa0, 0x01), 0x01)\n        /* \"Contract\":19480:19503  _orderToOwner[_address] */\n      and\n      0x00\n      swap1\n      dup2\n      mstore\n        /* \"Contract\":19480:19493  _orderToOwner */\n      0x0d\n        /* \"Contract\":19480:19503  _orderToOwner[_address] */\n      0x20\n      mstore\n      0x40\n      swap1\n      keccak256\n      sload\n      swap1\n        /* \"Contract\":19370:19511  function getOrderByOwner(address _address) external view wasOwner(_address) returns(uint256){\r... */\n      jump\t// out\n        /* \"openzeppelin/contracts/utils/Address.sol\":718:1095   */\n    tag_184:\n        /* \"openzeppelin/contracts/utils/Address.sol\":1034:1054   */\n      extcodesize\n        /* \"openzeppelin/contracts/utils/Address.sol\":1080:1088   */\n      iszero\n      iszero\n      swap1\n        /* \"openzeppelin/contracts/utils/Address.sol\":718:1095   */\n      jump\t// out\n        /* \"Contract\":11719:11883  function _approve(address to, uint256 tokenId) internal {\r... */\n    tag_227:\n        /* \"Contract\":11786:11810  _tokenApprovals[tokenId] */\n      0x00\n      dup2\n      dup2\n      mstore\n        /* \"Contract\":11786:11801  _tokenApprovals */\n      0x07\n        /* \"Contract\":11786:11810  _tokenApprovals[tokenId] */\n      0x20\n      mstore\n      0x40\n      swap1\n      dup2\n      swap1\n      keccak256\n        /* \"Contract\":11786:11815  _tokenApprovals[tokenId] = to */\n      dup1\n      sload\n      not(sub(shl(0xa0, 0x01), 0x01))\n      and\n      sub(shl(0xa0, 0x01), 0x01)\n      dup6\n      and\n      swap1\n      dup2\n      or\n      swap1\n      swap2\n      sstore\n        /* \"Contract\":11840:11861  this.ownerOf(tokenId) */\n      swap1\n      mload\n      shl(0xe1, 0x31a9108f)\n      dup2\n      mstore\n      0x04\n      dup2\n      add\n        /* \"#utility.yul\":15448:15473   */\n      dup4\n      swap1\n      mstore\n        /* \"Contract\":11786:11810  _tokenApprovals[tokenId] */\n      dup3\n      swap2\n        /* \"Contract\":11786:11815  _tokenApprovals[tokenId] = to */\n      swap1\n        /* \"Contract\":11840:11844  this */\n      address\n      swap1\n        /* \"Contract\":11840:11852  this.ownerOf */\n      0x6352211e\n      swap1\n        /* \"#utility.yul\":15421:15439   */\n      0x24\n      add\n        /* \"Contract\":11840:11861  this.ownerOf(tokenId) */\n      0x20\n      mload(0x40)\n      dup1\n      dup4\n      sub\n      dup2\n      dup7\n      dup1\n      extcodesize\n      iszero\n      dup1\n      iszero\n      tag_420\n      jumpi\n      0x00\n      dup1\n      revert\n    tag_420:\n      pop\n      gas\n      staticcall\n      iszero\n      dup1\n      iszero\n      tag_422\n      jumpi\n      returndatasize\n      0x00\n      dup1\n      returndatacopy\n      revert(0x00, returndatasize)\n    tag_422:\n      pop\n      pop\n      pop\n      pop\n      mload(0x40)\n      returndatasize\n      not(0x1f)\n      0x1f\n      dup3\n      add\n      and\n      dup3\n      add\n      dup1\n      0x40\n      mstore\n      pop\n      dup2\n      add\n      swap1\n      tag_423\n      swap2\n      swap1\n      tag_215\n      jump\t// in\n    tag_423:\n      sub(shl(0xa0, 0x01), 0x01)\n        /* \"Contract\":11831:11875  Approval(this.ownerOf(tokenId), to, tokenId) */\n      and\n      0x8c5be1e5ebec7d5bd14f71427d1e84f3dd0314c0f7b2291e5b200ac8c7c3b925\n      mload(0x40)\n      mload(0x40)\n      dup1\n      swap2\n      sub\n      swap1\n      log4\n        /* \"Contract\":11719:11883  function _approve(address to, uint256 tokenId) internal {\r... */\n      pop\n      pop\n      jump\t// out\n        /* \"Contract\":17574:17848  function addOwner(address _newOwner, string memory message) internal{\r... */\n    tag_246:\n      sub(shl(0xa0, 0x01), 0x01)\n        /* \"Contract\":17653:17673  _wasOwner[_newOwner] */\n      dup3\n      and\n      0x00\n      swap1\n      dup2\n      mstore\n        /* \"Contract\":17653:17662  _wasOwner */\n      0x0b\n        /* \"Contract\":17653:17673  _wasOwner[_newOwner] */\n      0x20\n      mstore\n      0x40\n      dup2\n      keccak256\n        /* \"Contract\":17653:17680  _wasOwner[_newOwner] = true */\n      dup1\n      sload\n      not(0xff)\n      and\n        /* \"Contract\":17676:17680  true */\n      0x01\n        /* \"Contract\":17653:17680  _wasOwner[_newOwner] = true */\n      or\n      swap1\n      sstore\n        /* \"Contract\":17691:17699  _counter */\n      0x10\n        /* \"Contract\":17691:17701  _counter++ */\n      dup1\n      sload\n      swap2\n      tag_426\n      dup4\n      tag_427\n      jump\t// in\n    tag_426:\n      swap1\n      swap2\n      sstore\n      pop\n      pop\n        /* \"Contract\":17724:17732  _counter */\n      0x10\n      dup1\n      sload\n        /* \"Contract\":17712:17733  _ownerOrder[_counter] */\n      0x00\n      swap1\n      dup2\n      mstore\n        /* \"Contract\":17712:17723  _ownerOrder */\n      0x0c\n        /* \"Contract\":17712:17733  _ownerOrder[_counter] */\n      0x20\n      swap1\n      dup2\n      mstore\n      0x40\n      dup1\n      dup4\n      keccak256\n        /* \"Contract\":17712:17745  _ownerOrder[_counter] = _newOwner */\n      dup1\n      sload\n      not(sub(shl(0xa0, 0x01), 0x01))\n      and\n      sub(shl(0xa0, 0x01), 0x01)\n      dup9\n      and\n      swap1\n      dup2\n      or\n      swap1\n      swap2\n      sstore\n        /* \"Contract\":17783:17791  _counter */\n      swap4\n      sload\n        /* \"Contract\":17756:17780  _orderToOwner[_newOwner] */\n      swap4\n      dup4\n      mstore\n        /* \"Contract\":17756:17769  _orderToOwner */\n      0x0d\n        /* \"Contract\":17756:17780  _orderToOwner[_newOwner] */\n      dup3\n      mstore\n      dup1\n      dup4\n      keccak256\n        /* \"Contract\":17756:17791  _orderToOwner[_newOwner] = _counter */\n      swap4\n      swap1\n      swap4\n      sstore\n        /* \"Contract\":17802:17817  _ownerToMessage */\n      0x0e\n        /* \"Contract\":17802:17828  _ownerToMessage[_newOwner] */\n      dup2\n      mstore\n      swap2\n      swap1\n      keccak256\n        /* \"Contract\":17802:17838  _ownerToMessage[_newOwner] = message */\n      dup3\n      mload\n      tag_226\n      swap3\n      dup5\n      add\n      swap1\n      tag_429\n      jump\t// in\n        /* \"Contract\":7974:8312  function _isApprovedOrOwner(address spender, uint256 tokenId) internal view returns (bool) {\r... */\n    tag_258:\n        /* \"Contract\":8059:8063  bool */\n      0x00\n        /* \"Contract\":7769:7785  _owners[tokenId] */\n      dup2\n      dup2\n      mstore\n        /* \"Contract\":7769:7776  _owners */\n      0x05\n        /* \"Contract\":7769:7785  _owners[tokenId] */\n      0x20\n      mstore\n      0x40\n      dup2\n      keccak256\n      sload\n      sub(shl(0xa0, 0x01), 0x01)\n      and\n        /* \"Contract\":8076:8149  require(_exists(tokenId), \"ERC721: operator query for nonexistent token\") */\n      tag_432\n      jumpi\n      mload(0x40)\n      shl(0xe5, 0x461bcd)\n      dup2\n      mstore\n        /* \"#utility.yul\":11423:11425   */\n      0x20\n        /* \"Contract\":8076:8149  require(_exists(tokenId), \"ERC721: operator query for nonexistent token\") */\n      0x04\n      dup3\n      add\n        /* \"#utility.yul\":11405:11426   */\n      mstore\n        /* \"#utility.yul\":11462:11464   */\n      0x2c\n        /* \"#utility.yul\":11442:11460   */\n      0x24\n      dup3\n      add\n        /* \"#utility.yul\":11435:11465   */\n      mstore\n        /* \"#utility.yul\":11501:11535   */\n      0x4552433732313a206f70657261746f7220717565727920666f72206e6f6e6578\n        /* \"#utility.yul\":11481:11499   */\n      0x44\n      dup3\n      add\n        /* \"#utility.yul\":11474:11536   */\n      mstore\n      shl(0xa1, 0x34b9ba32b73a103a37b5b2b7)\n        /* \"#utility.yul\":11552:11570   */\n      0x64\n      dup3\n      add\n        /* \"#utility.yul\":11545:11587   */\n      mstore\n        /* \"#utility.yul\":11604:11623   */\n      0x84\n      add\n        /* \"Contract\":8076:8149  require(_exists(tokenId), \"ERC721: operator query for nonexistent token\") */\n      tag_203\n        /* \"#utility.yul\":11395:11629   */\n      jump\n        /* \"Contract\":8076:8149  require(_exists(tokenId), \"ERC721: operator query for nonexistent token\") */\n    tag_432:\n        /* \"Contract\":8176:8197  this.ownerOf(tokenId) */\n      mload(0x40)\n      shl(0xe1, 0x31a9108f)\n      dup2\n      mstore\n      0x04\n      dup2\n      add\n        /* \"#utility.yul\":15448:15473   */\n      dup4\n      swap1\n      mstore\n        /* \"Contract\":8160:8173  address owner */\n      0x00\n      swap1\n        /* \"Contract\":8176:8180  this */\n      address\n      swap1\n        /* \"Contract\":8176:8188  this.ownerOf */\n      0x6352211e\n      swap1\n        /* \"#utility.yul\":15421:15439   */\n      0x24\n      add\n        /* \"Contract\":8176:8197  this.ownerOf(tokenId) */\n      0x20\n      mload(0x40)\n      dup1\n      dup4\n      sub\n      dup2\n      dup7\n      dup1\n      extcodesize\n      iszero\n      dup1\n      iszero\n      tag_436\n      jumpi\n      0x00\n      dup1\n      revert\n    tag_436:\n      pop\n      gas\n      staticcall\n      iszero\n      dup1\n      iszero\n      tag_438\n      jumpi\n      returndatasize\n      0x00\n      dup1\n      returndatacopy\n      revert(0x00, returndatasize)\n    tag_438:\n      pop\n      pop\n      pop\n      pop\n      mload(0x40)\n      returndatasize\n      not(0x1f)\n      0x1f\n      dup3\n      add\n      and\n      dup3\n      add\n      dup1\n      0x40\n      mstore\n      pop\n      dup2\n      add\n      swap1\n      tag_439\n      swap2\n      swap1\n      tag_215\n      jump\t// in\n    tag_439:\n        /* \"Contract\":8160:8197  address owner = this.ownerOf(tokenId) */\n      swap1\n      pop\n        /* \"Contract\":8227:8232  owner */\n      dup1\n      sub(shl(0xa0, 0x01), 0x01)\n        /* \"Contract\":8216:8232  spender == owner */\n      and\n        /* \"Contract\":8216:8223  spender */\n      dup5\n      sub(shl(0xa0, 0x01), 0x01)\n        /* \"Contract\":8216:8232  spender == owner */\n      and\n      eq\n        /* \"Contract\":8216:8267  spender == owner || getApproved(tokenId) == spender */\n      dup1\n      tag_440\n      jumpi\n      pop\n        /* \"Contract\":8260:8267  spender */\n      dup4\n      sub(shl(0xa0, 0x01), 0x01)\n        /* \"Contract\":8236:8267  getApproved(tokenId) == spender */\n      and\n        /* \"Contract\":8236:8256  getApproved(tokenId) */\n      tag_441\n        /* \"Contract\":8248:8255  tokenId */\n      dup5\n        /* \"Contract\":8236:8247  getApproved */\n      tag_63\n        /* \"Contract\":8236:8256  getApproved(tokenId) */\n      jump\t// in\n    tag_441:\n      sub(shl(0xa0, 0x01), 0x01)\n        /* \"Contract\":8236:8267  getApproved(tokenId) == spender */\n      and\n      eq\n        /* \"Contract\":8216:8267  spender == owner || getApproved(tokenId) == spender */\n    tag_440:\n        /* \"Contract\":8216:8303  spender == owner || getApproved(tokenId) == spender || isApprovedForAll(owner, spender) */\n      dup1\n      tag_237\n      jumpi\n      pop\n        /* \"Contract\":8271:8303  isApprovedForAll(owner, spender) */\n      tag_237\n        /* \"Contract\":8288:8293  owner */\n      dup2\n        /* \"Contract\":8295:8302  spender */\n      dup6\n        /* \"Contract\":8271:8287  isApprovedForAll */\n      tag_173\n        /* \"Contract\":8271:8303  isApprovedForAll(owner, spender) */\n      jump\t// in\n        /* \"Contract\":11033:11601  function _transfer(\r... */\n    tag_264:\n        /* \"Contract\":11157:11178  this.ownerOf(tokenId) */\n      mload(0x40)\n      shl(0xe1, 0x31a9108f)\n      dup2\n      mstore\n      0x04\n      dup2\n      add\n        /* \"#utility.yul\":15448:15473   */\n      dup3\n      swap1\n      mstore\n      sub(shl(0xa0, 0x01), 0x01)\n        /* \"Contract\":11157:11186  this.ownerOf(tokenId) == from */\n      dup5\n      and\n      swap1\n        /* \"Contract\":11157:11161  this */\n      address\n      swap1\n        /* \"Contract\":11157:11169  this.ownerOf */\n      0x6352211e\n      swap1\n        /* \"#utility.yul\":15421:15439   */\n      0x24\n      add\n        /* \"Contract\":11157:11178  this.ownerOf(tokenId) */\n      0x20\n      mload(0x40)\n      dup1\n      dup4\n      sub\n      dup2\n      dup7\n      dup1\n      extcodesize\n      iszero\n      dup1\n      iszero\n      tag_446\n      jumpi\n      0x00\n      dup1\n      revert\n    tag_446:\n      pop\n      gas\n      staticcall\n      iszero\n      dup1\n      iszero\n      tag_448\n      jumpi\n      returndatasize\n      0x00\n      dup1\n      returndatacopy\n      revert(0x00, returndatasize)\n    tag_448:\n      pop\n      pop\n      pop\n      pop\n      mload(0x40)\n      returndatasize\n      not(0x1f)\n      0x1f\n      dup3\n      add\n      and\n      dup3\n      add\n      dup1\n      0x40\n      mstore\n      pop\n      dup2\n      add\n      swap1\n      tag_449\n      swap2\n      swap1\n      tag_215\n      jump\t// in\n    tag_449:\n      sub(shl(0xa0, 0x01), 0x01)\n        /* \"Contract\":11157:11186  this.ownerOf(tokenId) == from */\n      and\n      eq\n        /* \"Contract\":11149:11232  require(this.ownerOf(tokenId) == from, \"ERC721: transfer of token that is not own\") */\n      tag_450\n      jumpi\n      mload(0x40)\n      shl(0xe5, 0x461bcd)\n      dup2\n      mstore\n        /* \"#utility.yul\":14274:14276   */\n      0x20\n        /* \"Contract\":11149:11232  require(this.ownerOf(tokenId) == from, \"ERC721: transfer of token that is not own\") */\n      0x04\n      dup3\n      add\n        /* \"#utility.yul\":14256:14277   */\n      mstore\n        /* \"#utility.yul\":14313:14315   */\n      0x29\n        /* \"#utility.yul\":14293:14311   */\n      0x24\n      dup3\n      add\n        /* \"#utility.yul\":14286:14316   */\n      mstore\n        /* \"#utility.yul\":14352:14386   */\n      0x4552433732313a207472616e73666572206f6620746f6b656e20746861742069\n        /* \"#utility.yul\":14332:14350   */\n      0x44\n      dup3\n      add\n        /* \"#utility.yul\":14325:14387   */\n      mstore\n      shl(0xb9, 0x39903737ba1037bbb7)\n        /* \"#utility.yul\":14403:14421   */\n      0x64\n      dup3\n      add\n        /* \"#utility.yul\":14396:14435   */\n      mstore\n        /* \"#utility.yul\":14452:14471   */\n      0x84\n      add\n        /* \"Contract\":11149:11232  require(this.ownerOf(tokenId) == from, \"ERC721: transfer of token that is not own\") */\n      tag_203\n        /* \"#utility.yul\":14246:14477   */\n      jump\n        /* \"Contract\":11149:11232  require(this.ownerOf(tokenId) == from, \"ERC721: transfer of token that is not own\") */\n    tag_450:\n      sub(shl(0xa0, 0x01), 0x01)\n        /* \"Contract\":11251:11267  to != address(0) */\n      dup3\n      and\n        /* \"Contract\":11243:11308  require(to != address(0), \"ERC721: transfer to the zero address\") */\n      tag_453\n      jumpi\n      mload(0x40)\n      shl(0xe5, 0x461bcd)\n      dup2\n      mstore\n        /* \"#utility.yul\":9949:9951   */\n      0x20\n        /* \"Contract\":11243:11308  require(to != address(0), \"ERC721: transfer to the zero address\") */\n      0x04\n      dup3\n      add\n        /* \"#utility.yul\":9931:9952   */\n      mstore\n        /* \"#utility.yul\":9988:9990   */\n      0x24\n        /* \"#utility.yul\":9968:9986   */\n      dup1\n      dup3\n      add\n        /* \"#utility.yul\":9961:9991   */\n      mstore\n        /* \"#utility.yul\":10027:10061   */\n      0x4552433732313a207472616e7366657220746f20746865207a65726f20616464\n        /* \"#utility.yul\":10007:10025   */\n      0x44\n      dup3\n      add\n        /* \"#utility.yul\":10000:10062   */\n      mstore\n      shl(0xe0, 0x72657373)\n        /* \"#utility.yul\":10078:10096   */\n      0x64\n      dup3\n      add\n        /* \"#utility.yul\":10071:10105   */\n      mstore\n        /* \"#utility.yul\":10122:10141   */\n      0x84\n      add\n        /* \"Contract\":11243:11308  require(to != address(0), \"ERC721: transfer to the zero address\") */\n      tag_203\n        /* \"#utility.yul\":9921:10147   */\n      jump\n        /* \"Contract\":11243:11308  require(to != address(0), \"ERC721: transfer to the zero address\") */\n    tag_453:\n        /* \"Contract\":11425:11454  _approve(address(0), tokenId) */\n      tag_458\n        /* \"Contract\":11442:11443  0 */\n      0x00\n        /* \"Contract\":11446:11453  tokenId */\n      dup3\n        /* \"Contract\":11425:11433  _approve */\n      tag_227\n        /* \"Contract\":11425:11454  _approve(address(0), tokenId) */\n      jump\t// in\n    tag_458:\n      sub(shl(0xa0, 0x01), 0x01)\n        /* \"Contract\":11467:11482  _balances[from] */\n      dup4\n      and\n      0x00\n      swap1\n      dup2\n      mstore\n        /* \"Contract\":11467:11476  _balances */\n      0x06\n        /* \"Contract\":11467:11482  _balances[from] */\n      0x20\n      mstore\n      0x40\n      dup2\n      keccak256\n        /* \"Contract\":11467:11487  _balances[from] -= 1 */\n      dup1\n      sload\n        /* \"Contract\":11486:11487  1 */\n      0x01\n      swap3\n        /* \"Contract\":11467:11482  _balances[from] */\n      swap1\n        /* \"Contract\":11467:11487  _balances[from] -= 1 */\n      tag_459\n      swap1\n        /* \"Contract\":11486:11487  1 */\n      dup5\n      swap1\n        /* \"Contract\":11467:11487  _balances[from] -= 1 */\n      tag_236\n      jump\t// in\n    tag_459:\n      swap1\n      swap2\n      sstore\n      pop\n      pop\n      sub(shl(0xa0, 0x01), 0x01)\n        /* \"Contract\":11498:11511  _balances[to] */\n      dup3\n      and\n      0x00\n      swap1\n      dup2\n      mstore\n        /* \"Contract\":11498:11507  _balances */\n      0x06\n        /* \"Contract\":11498:11511  _balances[to] */\n      0x20\n      mstore\n      0x40\n      dup2\n      keccak256\n        /* \"Contract\":11498:11516  _balances[to] += 1 */\n      dup1\n      sload\n        /* \"Contract\":11515:11516  1 */\n      0x01\n      swap3\n        /* \"Contract\":11498:11511  _balances[to] */\n      swap1\n        /* \"Contract\":11498:11516  _balances[to] += 1 */\n      tag_460\n      swap1\n        /* \"Contract\":11515:11516  1 */\n      dup5\n      swap1\n        /* \"Contract\":11498:11516  _balances[to] += 1 */\n      tag_234\n      jump\t// in\n    tag_460:\n      swap1\n      swap2\n      sstore\n      pop\n      pop\n        /* \"Contract\":11527:11543  _owners[tokenId] */\n      0x00\n      dup2\n      dup2\n      mstore\n        /* \"Contract\":11527:11534  _owners */\n      0x05\n        /* \"Contract\":11527:11543  _owners[tokenId] */\n      0x20\n      mstore\n      0x40\n      dup1\n      dup3\n      keccak256\n        /* \"Contract\":11527:11548  _owners[tokenId] = to */\n      dup1\n      sload\n      not(sub(shl(0xa0, 0x01), 0x01))\n      and\n      sub(shl(0xa0, 0x01), 0x01)\n      dup7\n      dup2\n      and\n      swap2\n      dup3\n      or\n      swap1\n      swap3\n      sstore\n        /* \"Contract\":11566:11593  Transfer(from, to, tokenId) */\n      swap2\n      mload\n        /* \"Contract\":11527:11543  _owners[tokenId] */\n      dup5\n      swap4\n        /* \"Contract\":11566:11593  Transfer(from, to, tokenId) */\n      swap2\n      dup8\n      and\n      swap2\n      0xddf252ad1be2c89b69c2b068fc378daa952ba7f163c4a11628f55a4df523b3ef\n      swap2\n      log4\n        /* \"Contract\":11033:11601  function _transfer(\r... */\n      pop\n      pop\n      pop\n      jump\t// out\n        /* \"openzeppelin/contracts/access/Ownable.sol\":2041:2210   */\n    tag_318:\n        /* \"openzeppelin/contracts/access/Ownable.sol\":2096:2112   */\n      0x00\n        /* \"openzeppelin/contracts/access/Ownable.sol\":2115:2121   */\n      dup1\n      sload\n      sub(shl(0xa0, 0x01), 0x01)\n        /* \"openzeppelin/contracts/access/Ownable.sol\":2131:2148   */\n      dup4\n      dup2\n      and\n      not(sub(shl(0xa0, 0x01), 0x01))\n      dup4\n      and\n      dup2\n      or\n      dup5\n      sstore\n        /* \"openzeppelin/contracts/access/Ownable.sol\":2163:2203   */\n      mload(0x40)\n        /* \"openzeppelin/contracts/access/Ownable.sol\":2115:2121   */\n      swap2\n      swap1\n      swap3\n      and\n      swap3\n      dup4\n      swap2\n        /* \"openzeppelin/contracts/access/Ownable.sol\":2163:2203   */\n      0x8be0079c531659141344cd1fd0a4f28419497f9722a3daafe3b4186f6b6457e0\n      swap2\n        /* \"openzeppelin/contracts/access/Ownable.sol\":2096:2112   */\n      swap1\n        /* \"openzeppelin/contracts/access/Ownable.sol\":2163:2203   */\n      log3\n        /* \"openzeppelin/contracts/access/Ownable.sol\":2086:2210   */\n      pop\n        /* \"openzeppelin/contracts/access/Ownable.sol\":2041:2210   */\n      pop\n      jump\t// out\n        /* \"Contract\":7068:7375  function _safeTransfer(\r... */\n    tag_362:\n        /* \"Contract\":7217:7245  _transfer(from, to, tokenId) */\n      tag_463\n        /* \"Contract\":7227:7231  from */\n      dup5\n        /* \"Contract\":7233:7235  to */\n      dup5\n        /* \"Contract\":7237:7244  tokenId */\n      dup5\n        /* \"Contract\":7217:7226  _transfer */\n      tag_264\n        /* \"Contract\":7217:7245  _transfer(from, to, tokenId) */\n      jump\t// in\n    tag_463:\n        /* \"Contract\":7264:7312  _checkOnERC721Received(from, to, tokenId, _data) */\n      tag_464\n        /* \"Contract\":7287:7291  from */\n      dup5\n        /* \"Contract\":7293:7295  to */\n      dup5\n        /* \"Contract\":7297:7304  tokenId */\n      dup5\n        /* \"Contract\":7306:7311  _data */\n      dup5\n        /* \"Contract\":7264:7286  _checkOnERC721Received */\n      tag_465\n        /* \"Contract\":7264:7312  _checkOnERC721Received(from, to, tokenId, _data) */\n      jump\t// in\n    tag_464:\n        /* \"Contract\":7256:7367  require(_checkOnERC721Received(from, to, tokenId, _data), \"ERC721: transfer to non ERC721Receiver implementer\") */\n      tag_466\n      jumpi\n      mload(0x40)\n      shl(0xe5, 0x461bcd)\n      dup2\n      mstore\n      0x04\n      add\n      tag_203\n      swap1\n      tag_468\n      jump\t// in\n    tag_466:\n        /* \"Contract\":7068:7375  function _safeTransfer(\r... */\n      pop\n      pop\n      pop\n      pop\n      jump\t// out\n        /* \"Contract\":4392:4483  function _baseURI() internal view returns (string memory) {\r... */\n    tag_383:\n        /* \"Contract\":4435:4448  string memory */\n      0x60\n        /* \"Contract\":4468:4475  baseURI */\n      0x02\n        /* \"Contract\":4461:4475  return baseURI */\n      dup1\n      sload\n      tag_193\n      swap1\n      tag_194\n      jump\t// in\n        /* \"Contract\":12448:13247  function _checkOnERC721Received(\r... */\n    tag_465:\n        /* \"Contract\":12603:12607  bool */\n      0x00\n      sub(shl(0xa0, 0x01), 0x01)\n        /* \"Contract\":12624:12637  to.isContract */\n      dup5\n      and\n        /* \"openzeppelin/contracts/utils/Address.sol\":1034:1054   */\n      extcodesize\n        /* \"openzeppelin/contracts/utils/Address.sol\":1080:1088   */\n      iszero\n        /* \"Contract\":12620:13240  if (to.isContract()) {\r... */\n      tag_478\n      jumpi\n        /* \"Contract\":12660:12732  IERC721Receiver(to).onERC721Received(_msgSender(), from, tokenId, _data) */\n      mload(0x40)\n      shl(0xe1, 0x0a85bd01)\n      dup2\n      mstore\n      sub(shl(0xa0, 0x01), 0x01)\n        /* \"Contract\":12660:12696  IERC721Receiver(to).onERC721Received */\n      dup6\n      and\n      swap1\n      0x150b7a02\n      swap1\n        /* \"Contract\":12660:12732  IERC721Receiver(to).onERC721Received(_msgSender(), from, tokenId, _data) */\n      tag_480\n      swap1\n        /* \"openzeppelin/contracts/utils/Context.sol\":666:676   */\n      caller\n      swap1\n        /* \"Contract\":12711:12715  from */\n      dup10\n      swap1\n        /* \"Contract\":12717:12724  tokenId */\n      dup9\n      swap1\n        /* \"Contract\":12726:12731  _data */\n      dup9\n      swap1\n        /* \"Contract\":12660:12732  IERC721Receiver(to).onERC721Received(_msgSender(), from, tokenId, _data) */\n      0x04\n      add\n      tag_481\n      jump\t// in\n    tag_480:\n      0x20\n      mload(0x40)\n      dup1\n      dup4\n      sub\n      dup2\n      0x00\n      dup8\n      dup1\n      extcodesize\n      iszero\n      dup1\n      iszero\n      tag_482\n      jumpi\n      0x00\n      dup1\n      revert\n    tag_482:\n      pop\n      gas\n      call\n      swap3\n      pop\n      pop\n      pop\n      dup1\n      iszero\n      tag_483\n      jumpi\n      pop\n      0x40\n      dup1\n      mload\n      0x1f\n      returndatasize\n      swap1\n      dup2\n      add\n      not(0x1f)\n      and\n      dup3\n      add\n      swap1\n      swap3\n      mstore\n      tag_484\n      swap2\n      dup2\n      add\n      swap1\n      tag_485\n      jump\t// in\n    tag_484:\n      0x01\n    tag_483:\n        /* \"Contract\":12656:13185  try IERC721Receiver(to).onERC721Received(_msgSender(), from, tokenId, _data) returns (bytes4 retval) {\r... */\n      tag_486\n      jumpi\n      returndatasize\n      dup1\n      dup1\n      iszero\n      tag_491\n      jumpi\n      mload(0x40)\n      swap2\n      pop\n      and(add(returndatasize, 0x3f), not(0x1f))\n      dup3\n      add\n      0x40\n      mstore\n      returndatasize\n      dup3\n      mstore\n      returndatasize\n      0x00\n      0x20\n      dup5\n      add\n      returndatacopy\n      jump(tag_490)\n    tag_491:\n      0x60\n      swap2\n      pop\n    tag_490:\n      pop\n        /* \"Contract\":12902:12915  reason.length */\n      dup1\n      mload\n        /* \"Contract\":12898:13170  if (reason.length == 0) {\r... */\n      tag_492\n      jumpi\n        /* \"Contract\":12945:13005  revert(\"ERC721: transfer to non ERC721Receiver implementer\") */\n      mload(0x40)\n      shl(0xe5, 0x461bcd)\n      dup2\n      mstore\n      0x04\n      add\n      tag_203\n      swap1\n      tag_468\n      jump\t// in\n        /* \"Contract\":12898:13170  if (reason.length == 0) {\r... */\n    tag_492:\n        /* \"Contract\":13120:13126  reason */\n      dup1\n        /* \"Contract\":13114:13127  mload(reason) */\n      mload\n        /* \"Contract\":13105:13111  reason */\n      dup2\n        /* \"Contract\":13101:13103  32 */\n      0x20\n        /* \"Contract\":13097:13112  add(32, reason) */\n      add\n        /* \"Contract\":13090:13128  revert(add(32, reason), mload(reason)) */\n      revert\n        /* \"Contract\":12656:13185  try IERC721Receiver(to).onERC721Received(_msgSender(), from, tokenId, _data) returns (bytes4 retval) {\r... */\n    tag_486:\n      not(sub(shl(0xe0, 0x01), 0x01))\n        /* \"Contract\":12783:12834  retval == IERC721Receiver.onERC721Received.selector */\n      and\n      shl(0xe1, 0x0a85bd01)\n      eq\n      swap1\n      pop\n        /* \"Contract\":12776:12834  return retval == IERC721Receiver.onERC721Received.selector */\n      jump(tag_237)\n        /* \"Contract\":12620:13240  if (to.isContract()) {\r... */\n    tag_478:\n      pop\n        /* \"Contract\":13224:13228  true */\n      0x01\n        /* \"Contract\":13217:13228  return true */\n      jump(tag_237)\n    tag_429:\n      dup3\n      dup1\n      sload\n      tag_497\n      swap1\n      tag_194\n      jump\t// in\n    tag_497:\n      swap1\n      0x00\n      mstore\n      keccak256(0x00, 0x20)\n      swap1\n      0x1f\n      add\n      0x20\n      swap1\n      div\n      dup2\n      add\n      swap3\n      dup3\n      tag_499\n      jumpi\n      0x00\n      dup6\n      sstore\n      jump(tag_502)\n    tag_499:\n      dup3\n      0x1f\n      lt\n      tag_500\n      jumpi\n      dup1\n      mload\n      not(0xff)\n      and\n      dup4\n      dup1\n      add\n      or\n      dup6\n      sstore\n      jump(tag_502)\n    tag_500:\n      dup3\n      dup1\n      add\n      0x01\n      add\n      dup6\n      sstore\n      dup3\n      iszero\n      tag_502\n      jumpi\n      swap2\n      dup3\n      add\n    tag_501:\n      dup3\n      dup2\n      gt\n      iszero\n      tag_502\n      jumpi\n      dup3\n      mload\n      dup3\n      sstore\n      swap2\n      0x20\n      add\n      swap2\n      swap1\n      0x01\n      add\n      swap1\n      jump(tag_501)\n    tag_502:\n      pop\n      tag_503\n      swap3\n      swap2\n      pop\n      tag_504\n      jump\t// in\n    tag_503:\n      pop\n      swap1\n      jump\t// out\n    tag_504:\n    tag_505:\n      dup1\n      dup3\n      gt\n      iszero\n      tag_503\n      jumpi\n      0x00\n      dup2\n      sstore\n      0x01\n      add\n      jump(tag_505)\n        /* \"#utility.yul\":14:645   */\n    tag_508:\n        /* \"#utility.yul\":78:83   */\n      0x00\n        /* \"#utility.yul\":108:126   */\n      0xffffffffffffffff\n        /* \"#utility.yul\":149:151   */\n      dup1\n        /* \"#utility.yul\":141:147   */\n      dup5\n        /* \"#utility.yul\":138:152   */\n      gt\n        /* \"#utility.yul\":135:137   */\n      iszero\n      tag_511\n      jumpi\n        /* \"#utility.yul\":155:173   */\n      tag_511\n      tag_512\n      jump\t// in\n    tag_511:\n        /* \"#utility.yul\":230:232   */\n      0x40\n        /* \"#utility.yul\":224:233   */\n      mload\n        /* \"#utility.yul\":198:200   */\n      0x1f\n        /* \"#utility.yul\":284:299   */\n      dup6\n      add\n      not(0x1f)\n        /* \"#utility.yul\":280:304   */\n      swap1\n      dup2\n      and\n        /* \"#utility.yul\":306:308   */\n      0x3f\n        /* \"#utility.yul\":276:309   */\n      add\n        /* \"#utility.yul\":272:314   */\n      and\n        /* \"#utility.yul\":260:315   */\n      dup2\n      add\n      swap1\n        /* \"#utility.yul\":330:348   */\n      dup3\n      dup3\n      gt\n        /* \"#utility.yul\":350:372   */\n      dup2\n      dup4\n      lt\n        /* \"#utility.yul\":327:373   */\n      or\n        /* \"#utility.yul\":324:326   */\n      iszero\n      tag_514\n      jumpi\n        /* \"#utility.yul\":376:394   */\n      tag_514\n      tag_512\n      jump\t// in\n    tag_514:\n        /* \"#utility.yul\":416:426   */\n      dup2\n        /* \"#utility.yul\":412:414   */\n      0x40\n        /* \"#utility.yul\":405:427   */\n      mstore\n        /* \"#utility.yul\":445:451   */\n      dup1\n        /* \"#utility.yul\":436:451   */\n      swap4\n      pop\n        /* \"#utility.yul\":475:481   */\n      dup6\n        /* \"#utility.yul\":467:473   */\n      dup2\n        /* \"#utility.yul\":460:482   */\n      mstore\n        /* \"#utility.yul\":515:518   */\n      dup7\n        /* \"#utility.yul\":506:512   */\n      dup7\n        /* \"#utility.yul\":501:504   */\n      dup7\n        /* \"#utility.yul\":497:513   */\n      add\n        /* \"#utility.yul\":494:519   */\n      gt\n        /* \"#utility.yul\":491:493   */\n      iszero\n      tag_515\n      jumpi\n        /* \"#utility.yul\":532:533   */\n      0x00\n        /* \"#utility.yul\":529:530   */\n      dup1\n        /* \"#utility.yul\":522:534   */\n      revert\n        /* \"#utility.yul\":491:493   */\n    tag_515:\n        /* \"#utility.yul\":582:588   */\n      dup6\n        /* \"#utility.yul\":577:580   */\n      dup6\n        /* \"#utility.yul\":570:574   */\n      0x20\n        /* \"#utility.yul\":562:568   */\n      dup4\n        /* \"#utility.yul\":558:575   */\n      add\n        /* \"#utility.yul\":545:589   */\n      calldatacopy\n        /* \"#utility.yul\":637:638   */\n      0x00\n        /* \"#utility.yul\":630:634   */\n      0x20\n        /* \"#utility.yul\":621:627   */\n      dup8\n        /* \"#utility.yul\":613:619   */\n      dup4\n        /* \"#utility.yul\":609:628   */\n      add\n        /* \"#utility.yul\":605:635   */\n      add\n        /* \"#utility.yul\":598:639   */\n      mstore\n      pop\n      pop\n      pop\n        /* \"#utility.yul\":88:645   */\n      swap4\n      swap3\n      pop\n      pop\n      pop\n      jump\t// out\n        /* \"#utility.yul\":650:897   */\n    tag_72:\n        /* \"#utility.yul\":709:715   */\n      0x00\n        /* \"#utility.yul\":762:764   */\n      0x20\n        /* \"#utility.yul\":750:759   */\n      dup3\n        /* \"#utility.yul\":741:748   */\n      dup5\n        /* \"#utility.yul\":737:760   */\n      sub\n        /* \"#utility.yul\":733:765   */\n      slt\n        /* \"#utility.yul\":730:732   */\n      iszero\n      tag_517\n      jumpi\n        /* \"#utility.yul\":778:779   */\n      0x00\n        /* \"#utility.yul\":775:776   */\n      dup1\n        /* \"#utility.yul\":768:780   */\n      revert\n        /* \"#utility.yul\":730:732   */\n    tag_517:\n        /* \"#utility.yul\":817:826   */\n      dup2\n        /* \"#utility.yul\":804:827   */\n      calldataload\n        /* \"#utility.yul\":836:867   */\n      tag_518\n        /* \"#utility.yul\":861:866   */\n      dup2\n        /* \"#utility.yul\":836:867   */\n      tag_519\n      jump\t// in\n    tag_518:\n        /* \"#utility.yul\":886:891   */\n      swap4\n        /* \"#utility.yul\":720:897   */\n      swap3\n      pop\n      pop\n      pop\n      jump\t// out\n        /* \"#utility.yul\":902:1153   */\n    tag_215:\n        /* \"#utility.yul\":972:978   */\n      0x00\n        /* \"#utility.yul\":1025:1027   */\n      0x20\n        /* \"#utility.yul\":1013:1022   */\n      dup3\n        /* \"#utility.yul\":1004:1011   */\n      dup5\n        /* \"#utility.yul\":1000:1023   */\n      sub\n        /* \"#utility.yul\":996:1028   */\n      slt\n        /* \"#utility.yul\":993:995   */\n      iszero\n      tag_521\n      jumpi\n        /* \"#utility.yul\":1041:1042   */\n      0x00\n        /* \"#utility.yul\":1038:1039   */\n      dup1\n        /* \"#utility.yul\":1031:1043   */\n      revert\n        /* \"#utility.yul\":993:995   */\n    tag_521:\n        /* \"#utility.yul\":1073:1082   */\n      dup2\n        /* \"#utility.yul\":1067:1083   */\n      mload\n        /* \"#utility.yul\":1092:1123   */\n      tag_518\n        /* \"#utility.yul\":1117:1122   */\n      dup2\n        /* \"#utility.yul\":1092:1123   */\n      tag_519\n      jump\t// in\n        /* \"#utility.yul\":1158:1546   */\n    tag_172:\n        /* \"#utility.yul\":1226:1232   */\n      0x00\n        /* \"#utility.yul\":1234:1240   */\n      dup1\n        /* \"#utility.yul\":1287:1289   */\n      0x40\n        /* \"#utility.yul\":1275:1284   */\n      dup4\n        /* \"#utility.yul\":1266:1273   */\n      dup6\n        /* \"#utility.yul\":1262:1285   */\n      sub\n        /* \"#utility.yul\":1258:1290   */\n      slt\n        /* \"#utility.yul\":1255:1257   */\n      iszero\n      tag_524\n      jumpi\n        /* \"#utility.yul\":1303:1304   */\n      0x00\n        /* \"#utility.yul\":1300:1301   */\n      dup1\n        /* \"#utility.yul\":1293:1305   */\n      revert\n        /* \"#utility.yul\":1255:1257   */\n    tag_524:\n        /* \"#utility.yul\":1342:1351   */\n      dup3\n        /* \"#utility.yul\":1329:1352   */\n      calldataload\n        /* \"#utility.yul\":1361:1392   */\n      tag_525\n        /* \"#utility.yul\":1386:1391   */\n      dup2\n        /* \"#utility.yul\":1361:1392   */\n      tag_519\n      jump\t// in\n    tag_525:\n        /* \"#utility.yul\":1411:1416   */\n      swap2\n      pop\n        /* \"#utility.yul\":1468:1470   */\n      0x20\n        /* \"#utility.yul\":1453:1471   */\n      dup4\n      add\n        /* \"#utility.yul\":1440:1472   */\n      calldataload\n        /* \"#utility.yul\":1481:1514   */\n      tag_526\n        /* \"#utility.yul\":1440:1472   */\n      dup2\n        /* \"#utility.yul\":1481:1514   */\n      tag_519\n      jump\t// in\n    tag_526:\n        /* \"#utility.yul\":1533:1540   */\n      dup1\n        /* \"#utility.yul\":1523:1540   */\n      swap2\n      pop\n      pop\n        /* \"#utility.yul\":1245:1546   */\n      swap3\n      pop\n      swap3\n      swap1\n      pop\n      jump\t// out\n        /* \"#utility.yul\":1551:2007   */\n    tag_91:\n        /* \"#utility.yul\":1628:1634   */\n      0x00\n        /* \"#utility.yul\":1636:1642   */\n      dup1\n        /* \"#utility.yul\":1644:1650   */\n      0x00\n        /* \"#utility.yul\":1697:1699   */\n      0x60\n        /* \"#utility.yul\":1685:1694   */\n      dup5\n        /* \"#utility.yul\":1676:1683   */\n      dup7\n        /* \"#utility.yul\":1672:1695   */\n      sub\n        /* \"#utility.yul\":1668:1700   */\n      slt\n        /* \"#utility.yul\":1665:1667   */\n      iszero\n      tag_528\n      jumpi\n        /* \"#utility.yul\":1713:1714   */\n      0x00\n        /* \"#utility.yul\":1710:1711   */\n      dup1\n        /* \"#utility.yul\":1703:1715   */\n      revert\n        /* \"#utility.yul\":1665:1667   */\n    tag_528:\n        /* \"#utility.yul\":1752:1761   */\n      dup4\n        /* \"#utility.yul\":1739:1762   */\n      calldataload\n        /* \"#utility.yul\":1771:1802   */\n      tag_529\n        /* \"#utility.yul\":1796:1801   */\n      dup2\n        /* \"#utility.yul\":1771:1802   */\n      tag_519\n      jump\t// in\n    tag_529:\n        /* \"#utility.yul\":1821:1826   */\n      swap3\n      pop\n        /* \"#utility.yul\":1878:1880   */\n      0x20\n        /* \"#utility.yul\":1863:1881   */\n      dup5\n      add\n        /* \"#utility.yul\":1850:1882   */\n      calldataload\n        /* \"#utility.yul\":1891:1924   */\n      tag_530\n        /* \"#utility.yul\":1850:1882   */\n      dup2\n        /* \"#utility.yul\":1891:1924   */\n      tag_519\n      jump\t// in\n    tag_530:\n        /* \"#utility.yul\":1655:2007   */\n      swap3\n      swap6\n        /* \"#utility.yul\":1943:1950   */\n      swap3\n      swap5\n      pop\n      pop\n      pop\n        /* \"#utility.yul\":1997:1999   */\n      0x40\n        /* \"#utility.yul\":1982:2000   */\n      swap2\n      swap1\n      swap2\n      add\n        /* \"#utility.yul\":1969:2001   */\n      calldataload\n      swap1\n        /* \"#utility.yul\":1655:2007   */\n      jump\t// out\n        /* \"#utility.yul\":2012:2806   */\n    tag_77:\n        /* \"#utility.yul\":2107:2113   */\n      0x00\n        /* \"#utility.yul\":2115:2121   */\n      dup1\n        /* \"#utility.yul\":2123:2129   */\n      0x00\n        /* \"#utility.yul\":2131:2137   */\n      dup1\n        /* \"#utility.yul\":2184:2187   */\n      0x80\n        /* \"#utility.yul\":2172:2181   */\n      dup6\n        /* \"#utility.yul\":2163:2170   */\n      dup8\n        /* \"#utility.yul\":2159:2182   */\n      sub\n        /* \"#utility.yul\":2155:2188   */\n      slt\n        /* \"#utility.yul\":2152:2154   */\n      iszero\n      tag_532\n      jumpi\n        /* \"#utility.yul\":2201:2202   */\n      0x00\n        /* \"#utility.yul\":2198:2199   */\n      dup1\n        /* \"#utility.yul\":2191:2203   */\n      revert\n        /* \"#utility.yul\":2152:2154   */\n    tag_532:\n        /* \"#utility.yul\":2240:2249   */\n      dup5\n        /* \"#utility.yul\":2227:2250   */\n      calldataload\n        /* \"#utility.yul\":2259:2290   */\n      tag_533\n        /* \"#utility.yul\":2284:2289   */\n      dup2\n        /* \"#utility.yul\":2259:2290   */\n      tag_519\n      jump\t// in\n    tag_533:\n        /* \"#utility.yul\":2309:2314   */\n      swap4\n      pop\n        /* \"#utility.yul\":2366:2368   */\n      0x20\n        /* \"#utility.yul\":2351:2369   */\n      dup6\n      add\n        /* \"#utility.yul\":2338:2370   */\n      calldataload\n        /* \"#utility.yul\":2379:2412   */\n      tag_534\n        /* \"#utility.yul\":2338:2370   */\n      dup2\n        /* \"#utility.yul\":2379:2412   */\n      tag_519\n      jump\t// in\n    tag_534:\n        /* \"#utility.yul\":2431:2438   */\n      swap3\n      pop\n        /* \"#utility.yul\":2485:2487   */\n      0x40\n        /* \"#utility.yul\":2470:2488   */\n      dup6\n      add\n        /* \"#utility.yul\":2457:2489   */\n      calldataload\n      swap2\n      pop\n        /* \"#utility.yul\":2540:2542   */\n      0x60\n        /* \"#utility.yul\":2525:2543   */\n      dup6\n      add\n        /* \"#utility.yul\":2512:2544   */\n      calldataload\n        /* \"#utility.yul\":2567:2585   */\n      0xffffffffffffffff\n        /* \"#utility.yul\":2556:2586   */\n      dup2\n      gt\n        /* \"#utility.yul\":2553:2555   */\n      iszero\n      tag_535\n      jumpi\n        /* \"#utility.yul\":2599:2600   */\n      0x00\n        /* \"#utility.yul\":2596:2597   */\n      dup1\n        /* \"#utility.yul\":2589:2601   */\n      revert\n        /* \"#utility.yul\":2553:2555   */\n    tag_535:\n        /* \"#utility.yul\":2622:2644   */\n      dup6\n      add\n        /* \"#utility.yul\":2675:2679   */\n      0x1f\n        /* \"#utility.yul\":2667:2680   */\n      dup2\n      add\n        /* \"#utility.yul\":2663:2690   */\n      dup8\n      sgt\n        /* \"#utility.yul\":2653:2655   */\n      tag_536\n      jumpi\n        /* \"#utility.yul\":2704:2705   */\n      0x00\n        /* \"#utility.yul\":2701:2702   */\n      dup1\n        /* \"#utility.yul\":2694:2706   */\n      revert\n        /* \"#utility.yul\":2653:2655   */\n    tag_536:\n        /* \"#utility.yul\":2727:2800   */\n      tag_537\n        /* \"#utility.yul\":2792:2799   */\n      dup8\n        /* \"#utility.yul\":2787:2789   */\n      dup3\n        /* \"#utility.yul\":2774:2790   */\n      calldataload\n        /* \"#utility.yul\":2769:2771   */\n      0x20\n        /* \"#utility.yul\":2765:2767   */\n      dup5\n        /* \"#utility.yul\":2761:2772   */\n      add\n        /* \"#utility.yul\":2727:2800   */\n      tag_508\n      jump\t// in\n    tag_537:\n        /* \"#utility.yul\":2717:2800   */\n      swap2\n      pop\n      pop\n        /* \"#utility.yul\":2142:2806   */\n      swap3\n      swap6\n      swap2\n      swap5\n      pop\n      swap3\n      pop\n      jump\t// out\n        /* \"#utility.yul\":2811:3227   */\n    tag_151:\n        /* \"#utility.yul\":2876:2882   */\n      0x00\n        /* \"#utility.yul\":2884:2890   */\n      dup1\n        /* \"#utility.yul\":2937:2939   */\n      0x40\n        /* \"#utility.yul\":2925:2934   */\n      dup4\n        /* \"#utility.yul\":2916:2923   */\n      dup6\n        /* \"#utility.yul\":2912:2935   */\n      sub\n        /* \"#utility.yul\":2908:2940   */\n      slt\n        /* \"#utility.yul\":2905:2907   */\n      iszero\n      tag_539\n      jumpi\n        /* \"#utility.yul\":2953:2954   */\n      0x00\n        /* \"#utility.yul\":2950:2951   */\n      dup1\n        /* \"#utility.yul\":2943:2955   */\n      revert\n        /* \"#utility.yul\":2905:2907   */\n    tag_539:\n        /* \"#utility.yul\":2992:3001   */\n      dup3\n        /* \"#utility.yul\":2979:3002   */\n      calldataload\n        /* \"#utility.yul\":3011:3042   */\n      tag_540\n        /* \"#utility.yul\":3036:3041   */\n      dup2\n        /* \"#utility.yul\":3011:3042   */\n      tag_519\n      jump\t// in\n    tag_540:\n        /* \"#utility.yul\":3061:3066   */\n      swap2\n      pop\n        /* \"#utility.yul\":3118:3120   */\n      0x20\n        /* \"#utility.yul\":3103:3121   */\n      dup4\n      add\n        /* \"#utility.yul\":3090:3122   */\n      calldataload\n        /* \"#utility.yul\":3160:3175   */\n      dup1\n      iszero\n        /* \"#utility.yul\":3153:3176   */\n      iszero\n        /* \"#utility.yul\":3141:3177   */\n      dup2\n      eq\n        /* \"#utility.yul\":3131:3133   */\n      tag_526\n      jumpi\n        /* \"#utility.yul\":3191:3192   */\n      0x00\n        /* \"#utility.yul\":3188:3189   */\n      dup1\n        /* \"#utility.yul\":3181:3193   */\n      revert\n        /* \"#utility.yul\":3232:3817   */\n    tag_87:\n        /* \"#utility.yul\":3310:3316   */\n      0x00\n        /* \"#utility.yul\":3318:3324   */\n      dup1\n        /* \"#utility.yul\":3371:3373   */\n      0x40\n        /* \"#utility.yul\":3359:3368   */\n      dup4\n        /* \"#utility.yul\":3350:3357   */\n      dup6\n        /* \"#utility.yul\":3346:3369   */\n      sub\n        /* \"#utility.yul\":3342:3374   */\n      slt\n        /* \"#utility.yul\":3339:3341   */\n      iszero\n      tag_543\n      jumpi\n        /* \"#utility.yul\":3387:3388   */\n      0x00\n        /* \"#utility.yul\":3384:3385   */\n      dup1\n        /* \"#utility.yul\":3377:3389   */\n      revert\n        /* \"#utility.yul\":3339:3341   */\n    tag_543:\n        /* \"#utility.yul\":3426:3435   */\n      dup3\n        /* \"#utility.yul\":3413:3436   */\n      calldataload\n        /* \"#utility.yul\":3445:3476   */\n      tag_544\n        /* \"#utility.yul\":3470:3475   */\n      dup2\n        /* \"#utility.yul\":3445:3476   */\n      tag_519\n      jump\t// in\n    tag_544:\n        /* \"#utility.yul\":3495:3500   */\n      swap2\n      pop\n        /* \"#utility.yul\":3551:3553   */\n      0x20\n        /* \"#utility.yul\":3536:3554   */\n      dup4\n      add\n        /* \"#utility.yul\":3523:3555   */\n      calldataload\n        /* \"#utility.yul\":3578:3596   */\n      0xffffffffffffffff\n        /* \"#utility.yul\":3567:3597   */\n      dup2\n      gt\n        /* \"#utility.yul\":3564:3566   */\n      iszero\n      tag_545\n      jumpi\n        /* \"#utility.yul\":3610:3611   */\n      0x00\n        /* \"#utility.yul\":3607:3608   */\n      dup1\n        /* \"#utility.yul\":3600:3612   */\n      revert\n        /* \"#utility.yul\":3564:3566   */\n    tag_545:\n        /* \"#utility.yul\":3633:3655   */\n      dup4\n      add\n        /* \"#utility.yul\":3686:3690   */\n      0x1f\n        /* \"#utility.yul\":3678:3691   */\n      dup2\n      add\n        /* \"#utility.yul\":3674:3701   */\n      dup6\n      sgt\n        /* \"#utility.yul\":3664:3666   */\n      tag_546\n      jumpi\n        /* \"#utility.yul\":3715:3716   */\n      0x00\n        /* \"#utility.yul\":3712:3713   */\n      dup1\n        /* \"#utility.yul\":3705:3717   */\n      revert\n        /* \"#utility.yul\":3664:3666   */\n    tag_546:\n        /* \"#utility.yul\":3738:3811   */\n      tag_547\n        /* \"#utility.yul\":3803:3810   */\n      dup6\n        /* \"#utility.yul\":3798:3800   */\n      dup3\n        /* \"#utility.yul\":3785:3801   */\n      calldataload\n        /* \"#utility.yul\":3780:3782   */\n      0x20\n        /* \"#utility.yul\":3776:3778   */\n      dup5\n        /* \"#utility.yul\":3772:3783   */\n      add\n        /* \"#utility.yul\":3738:3811   */\n      tag_508\n      jump\t// in\n    tag_547:\n        /* \"#utility.yul\":3728:3811   */\n      swap2\n      pop\n      pop\n        /* \"#utility.yul\":3329:3817   */\n      swap3\n      pop\n      swap3\n      swap1\n      pop\n      jump\t// out\n        /* \"#utility.yul\":3822:4137   */\n    tag_68:\n        /* \"#utility.yul\":3890:3896   */\n      0x00\n        /* \"#utility.yul\":3898:3904   */\n      dup1\n        /* \"#utility.yul\":3951:3953   */\n      0x40\n        /* \"#utility.yul\":3939:3948   */\n      dup4\n        /* \"#utility.yul\":3930:3937   */\n      dup6\n        /* \"#utility.yul\":3926:3949   */\n      sub\n        /* \"#utility.yul\":3922:3954   */\n      slt\n        /* \"#utility.yul\":3919:3921   */\n      iszero\n      tag_549\n      jumpi\n        /* \"#utility.yul\":3967:3968   */\n      0x00\n        /* \"#utility.yul\":3964:3965   */\n      dup1\n        /* \"#utility.yul\":3957:3969   */\n      revert\n        /* \"#utility.yul\":3919:3921   */\n    tag_549:\n        /* \"#utility.yul\":4006:4015   */\n      dup3\n        /* \"#utility.yul\":3993:4016   */\n      calldataload\n        /* \"#utility.yul\":4025:4056   */\n      tag_550\n        /* \"#utility.yul\":4050:4055   */\n      dup2\n        /* \"#utility.yul\":4025:4056   */\n      tag_519\n      jump\t// in\n    tag_550:\n        /* \"#utility.yul\":4075:4080   */\n      swap5\n        /* \"#utility.yul\":4127:4129   */\n      0x20\n        /* \"#utility.yul\":4112:4130   */\n      swap4\n      swap1\n      swap4\n      add\n        /* \"#utility.yul\":4099:4131   */\n      calldataload\n      swap4\n      pop\n      pop\n      pop\n        /* \"#utility.yul\":3909:4137   */\n      jump\t// out\n        /* \"#utility.yul\":4142:4387   */\n    tag_52:\n        /* \"#utility.yul\":4200:4206   */\n      0x00\n        /* \"#utility.yul\":4253:4255   */\n      0x20\n        /* \"#utility.yul\":4241:4250   */\n      dup3\n        /* \"#utility.yul\":4232:4239   */\n      dup5\n        /* \"#utility.yul\":4228:4251   */\n      sub\n        /* \"#utility.yul\":4224:4256   */\n      slt\n        /* \"#utility.yul\":4221:4223   */\n      iszero\n      tag_552\n      jumpi\n        /* \"#utility.yul\":4269:4270   */\n      0x00\n        /* \"#utility.yul\":4266:4267   */\n      dup1\n        /* \"#utility.yul\":4259:4271   */\n      revert\n        /* \"#utility.yul\":4221:4223   */\n    tag_552:\n        /* \"#utility.yul\":4308:4317   */\n      dup2\n        /* \"#utility.yul\":4295:4318   */\n      calldataload\n        /* \"#utility.yul\":4327:4357   */\n      tag_518\n        /* \"#utility.yul\":4351:4356   */\n      dup2\n        /* \"#utility.yul\":4327:4357   */\n      tag_554\n      jump\t// in\n        /* \"#utility.yul\":4392:4641   */\n    tag_485:\n        /* \"#utility.yul\":4461:4467   */\n      0x00\n        /* \"#utility.yul\":4514:4516   */\n      0x20\n        /* \"#utility.yul\":4502:4511   */\n      dup3\n        /* \"#utility.yul\":4493:4500   */\n      dup5\n        /* \"#utility.yul\":4489:4512   */\n      sub\n        /* \"#utility.yul\":4485:4517   */\n      slt\n        /* \"#utility.yul\":4482:4484   */\n      iszero\n      tag_556\n      jumpi\n        /* \"#utility.yul\":4530:4531   */\n      0x00\n        /* \"#utility.yul\":4527:4528   */\n      dup1\n        /* \"#utility.yul\":4520:4532   */\n      revert\n        /* \"#utility.yul\":4482:4484   */\n    tag_556:\n        /* \"#utility.yul\":4562:4571   */\n      dup2\n        /* \"#utility.yul\":4556:4572   */\n      mload\n        /* \"#utility.yul\":4581:4611   */\n      tag_518\n        /* \"#utility.yul\":4605:4610   */\n      dup2\n        /* \"#utility.yul\":4581:4611   */\n      tag_554\n      jump\t// in\n        /* \"#utility.yul\":4646:4826   */\n    tag_62:\n        /* \"#utility.yul\":4705:4711   */\n      0x00\n        /* \"#utility.yul\":4758:4760   */\n      0x20\n        /* \"#utility.yul\":4746:4755   */\n      dup3\n        /* \"#utility.yul\":4737:4744   */\n      dup5\n        /* \"#utility.yul\":4733:4756   */\n      sub\n        /* \"#utility.yul\":4729:4761   */\n      slt\n        /* \"#utility.yul\":4726:4728   */\n      iszero\n      tag_559\n      jumpi\n        /* \"#utility.yul\":4774:4775   */\n      0x00\n        /* \"#utility.yul\":4771:4772   */\n      dup1\n        /* \"#utility.yul\":4764:4776   */\n      revert\n        /* \"#utility.yul\":4726:4728   */\n    tag_559:\n      pop\n        /* \"#utility.yul\":4797:4820   */\n      calldataload\n      swap2\n        /* \"#utility.yul\":4716:4826   */\n      swap1\n      pop\n      jump\t// out\n        /* \"#utility.yul\":4831:5088   */\n    tag_560:\n        /* \"#utility.yul\":4872:4875   */\n      0x00\n        /* \"#utility.yul\":4910:4915   */\n      dup2\n        /* \"#utility.yul\":4904:4916   */\n      mload\n        /* \"#utility.yul\":4937:4943   */\n      dup1\n        /* \"#utility.yul\":4932:4935   */\n      dup5\n        /* \"#utility.yul\":4925:4944   */\n      mstore\n        /* \"#utility.yul\":4953:5016   */\n      tag_562\n        /* \"#utility.yul\":5009:5015   */\n      dup2\n        /* \"#utility.yul\":5002:5006   */\n      0x20\n        /* \"#utility.yul\":4997:5000   */\n      dup7\n        /* \"#utility.yul\":4993:5007   */\n      add\n        /* \"#utility.yul\":4986:4990   */\n      0x20\n        /* \"#utility.yul\":4979:4984   */\n      dup7\n        /* \"#utility.yul\":4975:4991   */\n      add\n        /* \"#utility.yul\":4953:5016   */\n      tag_563\n      jump\t// in\n    tag_562:\n        /* \"#utility.yul\":5070:5072   */\n      0x1f\n        /* \"#utility.yul\":5049:5064   */\n      add\n      not(0x1f)\n        /* \"#utility.yul\":5045:5074   */\n      and\n        /* \"#utility.yul\":5036:5075   */\n      swap3\n      swap1\n      swap3\n      add\n        /* \"#utility.yul\":5077:5081   */\n      0x20\n        /* \"#utility.yul\":5032:5082   */\n      add\n      swap3\n        /* \"#utility.yul\":4880:5088   */\n      swap2\n      pop\n      pop\n      jump\t// out\n        /* \"#utility.yul\":5093:5606   */\n    tag_389:\n        /* \"#utility.yul\":5353:5356   */\n      0x00\n        /* \"#utility.yul\":5391:5397   */\n      dup4\n        /* \"#utility.yul\":5385:5398   */\n      mload\n        /* \"#utility.yul\":5407:5460   */\n      tag_565\n        /* \"#utility.yul\":5453:5459   */\n      dup2\n        /* \"#utility.yul\":5448:5451   */\n      dup5\n        /* \"#utility.yul\":5441:5445   */\n      0x20\n        /* \"#utility.yul\":5433:5439   */\n      dup9\n        /* \"#utility.yul\":5429:5446   */\n      add\n        /* \"#utility.yul\":5407:5460   */\n      tag_563\n      jump\t// in\n    tag_565:\n        /* \"#utility.yul\":5482:5498   */\n      swap2\n      swap1\n      swap2\n      add\n        /* \"#utility.yul\":5507:5528   */\n      swap2\n      dup3\n      mstore\n      pop\n      shl(0xd9, 0x173539b7b7)\n        /* \"#utility.yul\":5555:5559   */\n      0x20\n        /* \"#utility.yul\":5544:5560   */\n      dup3\n      add\n        /* \"#utility.yul\":5537:5570   */\n      mstore\n        /* \"#utility.yul\":5597:5599   */\n      0x25\n        /* \"#utility.yul\":5586:5600   */\n      add\n      swap2\n        /* \"#utility.yul\":5361:5606   */\n      swap1\n      pop\n      jump\t// out\n        /* \"#utility.yul\":5611:6035   */\n    tag_386:\n      shl(0xc8, 0x697066733a2f2f)\n        /* \"#utility.yul\":5868:5871   */\n      dup2\n        /* \"#utility.yul\":5861:5883   */\n      mstore\n        /* \"#utility.yul\":5843:5846   */\n      0x00\n        /* \"#utility.yul\":5912:5918   */\n      dup3\n        /* \"#utility.yul\":5906:5919   */\n      mload\n        /* \"#utility.yul\":5928:5989   */\n      tag_567\n        /* \"#utility.yul\":5982:5988   */\n      dup2\n        /* \"#utility.yul\":5978:5979   */\n      0x07\n        /* \"#utility.yul\":5973:5976   */\n      dup6\n        /* \"#utility.yul\":5969:5980   */\n      add\n        /* \"#utility.yul\":5962:5966   */\n      0x20\n        /* \"#utility.yul\":5954:5960   */\n      dup8\n        /* \"#utility.yul\":5950:5967   */\n      add\n        /* \"#utility.yul\":5928:5989   */\n      tag_563\n      jump\t// in\n    tag_567:\n        /* \"#utility.yul\":6009:6025   */\n      swap2\n      swap1\n      swap2\n      add\n        /* \"#utility.yul\":6027:6028   */\n      0x07\n        /* \"#utility.yul\":6005:6029   */\n      add\n      swap3\n        /* \"#utility.yul\":5851:6035   */\n      swap2\n      pop\n      pop\n      jump\t// out\n        /* \"#utility.yul\":6248:6736   */\n    tag_481:\n      sub(shl(0xa0, 0x01), 0x01)\n        /* \"#utility.yul\":6517:6532   */\n      dup6\n      dup2\n      and\n        /* \"#utility.yul\":6499:6533   */\n      dup3\n      mstore\n        /* \"#utility.yul\":6569:6584   */\n      dup5\n      and\n        /* \"#utility.yul\":6564:6566   */\n      0x20\n        /* \"#utility.yul\":6549:6567   */\n      dup3\n      add\n        /* \"#utility.yul\":6542:6585   */\n      mstore\n        /* \"#utility.yul\":6616:6618   */\n      0x40\n        /* \"#utility.yul\":6601:6619   */\n      dup2\n      add\n        /* \"#utility.yul\":6594:6628   */\n      dup4\n      swap1\n      mstore\n        /* \"#utility.yul\":6664:6667   */\n      0x80\n        /* \"#utility.yul\":6659:6661   */\n      0x60\n        /* \"#utility.yul\":6644:6662   */\n      dup3\n      add\n        /* \"#utility.yul\":6637:6668   */\n      dup2\n      swap1\n      mstore\n        /* \"#utility.yul\":6442:6446   */\n      0x00\n      swap1\n        /* \"#utility.yul\":6685:6730   */\n      tag_570\n      swap1\n        /* \"#utility.yul\":6710:6729   */\n      dup4\n      add\n        /* \"#utility.yul\":6702:6708   */\n      dup5\n        /* \"#utility.yul\":6685:6730   */\n      tag_560\n      jump\t// in\n    tag_570:\n        /* \"#utility.yul\":6677:6730   */\n      swap7\n        /* \"#utility.yul\":6451:6736   */\n      swap6\n      pop\n      pop\n      pop\n      pop\n      pop\n      pop\n      jump\t// out\n        /* \"#utility.yul\":7140:7359   */\n    tag_59:\n        /* \"#utility.yul\":7289:7291   */\n      0x20\n        /* \"#utility.yul\":7278:7287   */\n      dup2\n        /* \"#utility.yul\":7271:7292   */\n      mstore\n        /* \"#utility.yul\":7252:7256   */\n      0x00\n        /* \"#utility.yul\":7309:7353   */\n      tag_518\n        /* \"#utility.yul\":7349:7351   */\n      0x20\n        /* \"#utility.yul\":7338:7347   */\n      dup4\n        /* \"#utility.yul\":7334:7352   */\n      add\n        /* \"#utility.yul\":7326:7332   */\n      dup5\n        /* \"#utility.yul\":7309:7353   */\n      tag_560\n      jump\t// in\n        /* \"#utility.yul\":7364:7715   */\n    tag_231:\n        /* \"#utility.yul\":7566:7568   */\n      0x20\n        /* \"#utility.yul\":7548:7569   */\n      dup1\n      dup3\n      mstore\n        /* \"#utility.yul\":7605:7607   */\n      0x1b\n        /* \"#utility.yul\":7585:7603   */\n      swap1\n      dup3\n      add\n        /* \"#utility.yul\":7578:7608   */\n      mstore\n        /* \"#utility.yul\":7644:7673   */\n      0x476976656e206164647265737320776173206e6f206f776e6572210000000000\n        /* \"#utility.yul\":7639:7641   */\n      0x40\n        /* \"#utility.yul\":7624:7642   */\n      dup3\n      add\n        /* \"#utility.yul\":7617:7674   */\n      mstore\n        /* \"#utility.yul\":7706:7708   */\n      0x60\n        /* \"#utility.yul\":7691:7709   */\n      add\n      swap1\n        /* \"#utility.yul\":7538:7715   */\n      jump\t// out\n        /* \"#utility.yul\":7720:8134   */\n    tag_468:\n        /* \"#utility.yul\":7922:7924   */\n      0x20\n        /* \"#utility.yul\":7904:7925   */\n      dup1\n      dup3\n      mstore\n        /* \"#utility.yul\":7961:7963   */\n      0x32\n        /* \"#utility.yul\":7941:7959   */\n      swap1\n      dup3\n      add\n        /* \"#utility.yul\":7934:7964   */\n      mstore\n        /* \"#utility.yul\":8000:8034   */\n      0x4552433732313a207472616e7366657220746f206e6f6e204552433732315265\n        /* \"#utility.yul\":7995:7997   */\n      0x40\n        /* \"#utility.yul\":7980:7998   */\n      dup3\n      add\n        /* \"#utility.yul\":7973:8035   */\n      mstore\n      shl(0x71, 0x31b2b4bb32b91034b6b83632b6b2b73a32b9)\n        /* \"#utility.yul\":8066:8068   */\n      0x60\n        /* \"#utility.yul\":8051:8069   */\n      dup3\n      add\n        /* \"#utility.yul\":8044:8092   */\n      mstore\n        /* \"#utility.yul\":8124:8127   */\n      0x80\n        /* \"#utility.yul\":8109:8128   */\n      add\n      swap1\n        /* \"#utility.yul\":7894:8134   */\n      jump\t// out\n        /* \"#utility.yul\":8546:8963   */\n    tag_208:\n        /* \"#utility.yul\":8748:8750   */\n      0x20\n        /* \"#utility.yul\":8730:8751   */\n      dup1\n      dup3\n      mstore\n        /* \"#utility.yul\":8787:8789   */\n      0x35\n        /* \"#utility.yul\":8767:8785   */\n      swap1\n      dup3\n      add\n        /* \"#utility.yul\":8760:8790   */\n      mstore\n        /* \"#utility.yul\":8826:8860   */\n      0x43616e277420706572666f726d207468697320616374696f6e207768696c6520\n        /* \"#utility.yul\":8821:8823   */\n      0x40\n        /* \"#utility.yul\":8806:8824   */\n      dup3\n      add\n        /* \"#utility.yul\":8799:8861   */\n      mstore\n      shl(0x5a, 0x185d58dd1a5bdb881a185cc81b9bdd08195b991959)\n        /* \"#utility.yul\":8892:8894   */\n      0x60\n        /* \"#utility.yul\":8877:8895   */\n      dup3\n      add\n        /* \"#utility.yul\":8870:8921   */\n      mstore\n        /* \"#utility.yul\":8953:8956   */\n      0x80\n        /* \"#utility.yul\":8938:8957   */\n      add\n      swap1\n        /* \"#utility.yul\":8720:8963   */\n      jump\t// out\n        /* \"#utility.yul\":8968:9317   */\n    tag_276:\n        /* \"#utility.yul\":9170:9172   */\n      0x20\n        /* \"#utility.yul\":9152:9173   */\n      dup1\n      dup3\n      mstore\n        /* \"#utility.yul\":9209:9211   */\n      0x19\n        /* \"#utility.yul\":9189:9207   */\n      swap1\n      dup3\n      add\n        /* \"#utility.yul\":9182:9212   */\n      mstore\n        /* \"#utility.yul\":9248:9275   */\n      0x476976656e20706c616365206973206e6f742076616c69642100000000000000\n        /* \"#utility.yul\":9243:9245   */\n      0x40\n        /* \"#utility.yul\":9228:9246   */\n      dup3\n      add\n        /* \"#utility.yul\":9221:9276   */\n      mstore\n        /* \"#utility.yul\":9308:9310   */\n      0x60\n        /* \"#utility.yul\":9293:9311   */\n      add\n      swap1\n        /* \"#utility.yul\":9142:9317   */\n      jump\t// out\n        /* \"#utility.yul\":9322:9742   */\n    tag_252:\n        /* \"#utility.yul\":9524:9526   */\n      0x20\n        /* \"#utility.yul\":9506:9527   */\n      dup1\n      dup3\n      mstore\n        /* \"#utility.yul\":9563:9565   */\n      0x38\n        /* \"#utility.yul\":9543:9561   */\n      swap1\n      dup3\n      add\n        /* \"#utility.yul\":9536:9566   */\n      mstore\n        /* \"#utility.yul\":9602:9636   */\n      0x547261736e66657265722068617320746f206265207468652044455820776869\n        /* \"#utility.yul\":9597:9599   */\n      0x40\n        /* \"#utility.yul\":9582:9600   */\n      dup3\n      add\n        /* \"#utility.yul\":9575:9637   */\n      mstore\n        /* \"#utility.yul\":9673:9699   */\n      0x6c652061756374696f6e20686173206e6f7420656e6465640000000000000000\n        /* \"#utility.yul\":9668:9670   */\n      0x60\n        /* \"#utility.yul\":9653:9671   */\n      dup3\n      add\n        /* \"#utility.yul\":9646:9700   */\n      mstore\n        /* \"#utility.yul\":9732:9735   */\n      0x80\n        /* \"#utility.yul\":9717:9736   */\n      add\n      swap1\n        /* \"#utility.yul\":9496:9742   */\n      jump\t// out\n        /* \"#utility.yul\":10506:10855   */\n    tag_244:\n        /* \"#utility.yul\":10708:10710   */\n      0x20\n        /* \"#utility.yul\":10690:10711   */\n      dup1\n      dup3\n      mstore\n        /* \"#utility.yul\":10747:10749   */\n      0x19\n        /* \"#utility.yul\":10727:10745   */\n      swap1\n      dup3\n      add\n        /* \"#utility.yul\":10720:10750   */\n      mstore\n        /* \"#utility.yul\":10786:10813   */\n      0x43616e206f6e6c792062652063616c6c65642062792044455800000000000000\n        /* \"#utility.yul\":10781:10783   */\n      0x40\n        /* \"#utility.yul\":10766:10784   */\n      dup3\n      add\n        /* \"#utility.yul\":10759:10814   */\n      mstore\n        /* \"#utility.yul\":10846:10848   */\n      0x60\n        /* \"#utility.yul\":10831:10849   */\n      add\n      swap1\n        /* \"#utility.yul\":10680:10855   */\n      jump\t// out\n        /* \"#utility.yul\":14884:15297   */\n    tag_261:\n        /* \"#utility.yul\":15086:15088   */\n      0x20\n        /* \"#utility.yul\":15068:15089   */\n      dup1\n      dup3\n      mstore\n        /* \"#utility.yul\":15125:15127   */\n      0x31\n        /* \"#utility.yul\":15105:15123   */\n      swap1\n      dup3\n      add\n        /* \"#utility.yul\":15098:15128   */\n      mstore\n        /* \"#utility.yul\":15164:15198   */\n      0x4552433732313a207472616e736665722063616c6c6572206973206e6f74206f\n        /* \"#utility.yul\":15159:15161   */\n      0x40\n        /* \"#utility.yul\":15144:15162   */\n      dup3\n      add\n        /* \"#utility.yul\":15137:15199   */\n      mstore\n      shl(0x7a, 0x1ddb995c881b9bdc88185c1c1c9bdd9959)\n        /* \"#utility.yul\":15230:15232   */\n      0x60\n        /* \"#utility.yul\":15215:15233   */\n      dup3\n      add\n        /* \"#utility.yul\":15208:15255   */\n      mstore\n        /* \"#utility.yul\":15287:15290   */\n      0x80\n        /* \"#utility.yul\":15272:15291   */\n      add\n      swap1\n        /* \"#utility.yul\":15058:15297   */\n      jump\t// out\n        /* \"#utility.yul\":15673:15801   */\n    tag_234:\n        /* \"#utility.yul\":15713:15716   */\n      0x00\n        /* \"#utility.yul\":15744:15745   */\n      dup3\n        /* \"#utility.yul\":15740:15746   */\n      not\n        /* \"#utility.yul\":15737:15738   */\n      dup3\n        /* \"#utility.yul\":15734:15747   */\n      gt\n        /* \"#utility.yul\":15731:15733   */\n      iszero\n      tag_599\n      jumpi\n        /* \"#utility.yul\":15750:15768   */\n      tag_599\n      tag_600\n      jump\t// in\n    tag_599:\n      pop\n        /* \"#utility.yul\":15786:15795   */\n      add\n      swap1\n        /* \"#utility.yul\":15721:15801   */\n      jump\t// out\n        /* \"#utility.yul\":15806:16228   */\n    tag_601:\n        /* \"#utility.yul\":15895:15896   */\n      0x01\n        /* \"#utility.yul\":15938:15943   */\n      dup2\n        /* \"#utility.yul\":15895:15896   */\n      dup2\n        /* \"#utility.yul\":15952:16222   */\n    tag_603:\n        /* \"#utility.yul\":15973:15980   */\n      dup1\n        /* \"#utility.yul\":15963:15971   */\n      dup6\n        /* \"#utility.yul\":15960:15981   */\n      gt\n        /* \"#utility.yul\":15952:16222   */\n      iszero\n      tag_605\n      jumpi\n        /* \"#utility.yul\":16032:16036   */\n      dup2\n        /* \"#utility.yul\":16028:16029   */\n      0x00\n        /* \"#utility.yul\":16024:16030   */\n      not\n        /* \"#utility.yul\":16020:16037   */\n      div\n        /* \"#utility.yul\":16014:16018   */\n      dup3\n        /* \"#utility.yul\":16011:16038   */\n      gt\n        /* \"#utility.yul\":16008:16010   */\n      iszero\n      tag_607\n      jumpi\n        /* \"#utility.yul\":16041:16059   */\n      tag_607\n      tag_600\n      jump\t// in\n    tag_607:\n        /* \"#utility.yul\":16091:16098   */\n      dup1\n        /* \"#utility.yul\":16081:16089   */\n      dup6\n        /* \"#utility.yul\":16077:16099   */\n      and\n        /* \"#utility.yul\":16074:16076   */\n      iszero\n      tag_608\n      jumpi\n        /* \"#utility.yul\":16111:16127   */\n      swap2\n      dup2\n      mul\n      swap2\n        /* \"#utility.yul\":16074:16076   */\n    tag_608:\n        /* \"#utility.yul\":16190:16212   */\n      swap4\n      dup5\n      shr\n      swap4\n        /* \"#utility.yul\":16150:16165   */\n      swap1\n      dup1\n      mul\n      swap1\n        /* \"#utility.yul\":15952:16222   */\n      jump(tag_603)\n    tag_605:\n        /* \"#utility.yul\":15956:15959   */\n      pop\n        /* \"#utility.yul\":15870:16228   */\n      swap3\n      pop\n      swap3\n      swap1\n      pop\n      jump\t// out\n        /* \"#utility.yul\":16233:16364   */\n    tag_270:\n        /* \"#utility.yul\":16293:16298   */\n      0x00\n        /* \"#utility.yul\":16322:16358   */\n      tag_518\n        /* \"#utility.yul\":16349:16357   */\n      dup4\n        /* \"#utility.yul\":16343:16347   */\n      dup4\n        /* \"#utility.yul\":16418:16423   */\n      0x00\n        /* \"#utility.yul\":16448:16456   */\n      dup3\n        /* \"#utility.yul\":16438:16440   */\n      tag_613\n      jumpi\n      pop\n        /* \"#utility.yul\":16489:16490   */\n      0x01\n        /* \"#utility.yul\":16503:16508   */\n      jump(tag_191)\n        /* \"#utility.yul\":16438:16440   */\n    tag_613:\n        /* \"#utility.yul\":16537:16541   */\n      dup2\n        /* \"#utility.yul\":16527:16529   */\n      tag_614\n      jumpi\n      pop\n        /* \"#utility.yul\":16574:16575   */\n      0x00\n        /* \"#utility.yul\":16588:16593   */\n      jump(tag_191)\n        /* \"#utility.yul\":16527:16529   */\n    tag_614:\n        /* \"#utility.yul\":16619:16623   */\n      dup2\n        /* \"#utility.yul\":16637:16638   */\n      0x01\n        /* \"#utility.yul\":16632:16691   */\n      dup2\n      eq\n      tag_616\n      jumpi\n        /* \"#utility.yul\":16705:16706   */\n      0x02\n        /* \"#utility.yul\":16700:16830   */\n      dup2\n      eq\n      tag_617\n      jumpi\n        /* \"#utility.yul\":16612:16830   */\n      jump(tag_615)\n        /* \"#utility.yul\":16632:16691   */\n    tag_616:\n        /* \"#utility.yul\":16662:16663   */\n      0x01\n        /* \"#utility.yul\":16653:16663   */\n      swap2\n      pop\n        /* \"#utility.yul\":16676:16681   */\n      pop\n      jump(tag_191)\n        /* \"#utility.yul\":16700:16830   */\n    tag_617:\n        /* \"#utility.yul\":16737:16740   */\n      0xff\n        /* \"#utility.yul\":16727:16735   */\n      dup5\n        /* \"#utility.yul\":16724:16741   */\n      gt\n        /* \"#utility.yul\":16721:16723   */\n      iszero\n      tag_619\n      jumpi\n        /* \"#utility.yul\":16744:16762   */\n      tag_619\n      tag_600\n      jump\t// in\n    tag_619:\n      pop\n      pop\n        /* \"#utility.yul\":16800:16801   */\n      0x01\n        /* \"#utility.yul\":16786:16802   */\n      dup3\n      shl\n        /* \"#utility.yul\":16815:16820   */\n      jump(tag_191)\n        /* \"#utility.yul\":16612:16830   */\n    tag_615:\n      pop\n        /* \"#utility.yul\":16914:16916   */\n      0x20\n        /* \"#utility.yul\":16904:16912   */\n      dup4\n        /* \"#utility.yul\":16901:16917   */\n      lt\n        /* \"#utility.yul\":16895:16898   */\n      0x0133\n        /* \"#utility.yul\":16889:16893   */\n      dup4\n        /* \"#utility.yul\":16886:16899   */\n      lt\n        /* \"#utility.yul\":16882:16918   */\n      and\n        /* \"#utility.yul\":16876:16878   */\n      0x4e\n        /* \"#utility.yul\":16866:16874   */\n      dup5\n        /* \"#utility.yul\":16863:16879   */\n      lt\n        /* \"#utility.yul\":16858:16860   */\n      0x0b\n        /* \"#utility.yul\":16852:16856   */\n      dup5\n        /* \"#utility.yul\":16849:16861   */\n      lt\n        /* \"#utility.yul\":16845:16880   */\n      and\n        /* \"#utility.yul\":16842:16919   */\n      or\n        /* \"#utility.yul\":16839:16841   */\n      iszero\n      tag_620\n      jumpi\n      pop\n        /* \"#utility.yul\":16951:16970   */\n      dup2\n      dup2\n      exp\n        /* \"#utility.yul\":16983:16988   */\n      jump(tag_191)\n        /* \"#utility.yul\":16839:16841   */\n    tag_620:\n        /* \"#utility.yul\":17030:17064   */\n      tag_621\n        /* \"#utility.yul\":17055:17063   */\n      dup4\n        /* \"#utility.yul\":17049:17053   */\n      dup4\n        /* \"#utility.yul\":17030:17064   */\n      tag_601\n      jump\t// in\n    tag_621:\n        /* \"#utility.yul\":17100:17106   */\n      dup1\n        /* \"#utility.yul\":17096:17097   */\n      0x00\n        /* \"#utility.yul\":17092:17098   */\n      not\n        /* \"#utility.yul\":17088:17107   */\n      div\n        /* \"#utility.yul\":17079:17086   */\n      dup3\n        /* \"#utility.yul\":17076:17108   */\n      gt\n        /* \"#utility.yul\":17073:17075   */\n      iszero\n      tag_623\n      jumpi\n        /* \"#utility.yul\":17111:17129   */\n      tag_623\n      tag_600\n      jump\t// in\n    tag_623:\n        /* \"#utility.yul\":17149:17169   */\n      mul\n      swap4\n        /* \"#utility.yul\":16428:17175   */\n      swap3\n      pop\n      pop\n      pop\n      jump\t// out\n        /* \"#utility.yul\":17180:17305   */\n    tag_236:\n        /* \"#utility.yul\":17220:17224   */\n      0x00\n        /* \"#utility.yul\":17248:17249   */\n      dup3\n        /* \"#utility.yul\":17245:17246   */\n      dup3\n        /* \"#utility.yul\":17242:17250   */\n      lt\n        /* \"#utility.yul\":17239:17241   */\n      iszero\n      tag_626\n      jumpi\n        /* \"#utility.yul\":17253:17271   */\n      tag_626\n      tag_600\n      jump\t// in\n    tag_626:\n      pop\n        /* \"#utility.yul\":17290:17299   */\n      sub\n      swap1\n        /* \"#utility.yul\":17229:17305   */\n      jump\t// out\n        /* \"#utility.yul\":17310:17568   */\n    tag_563:\n        /* \"#utility.yul\":17382:17383   */\n      0x00\n        /* \"#utility.yul\":17392:17505   */\n    tag_628:\n        /* \"#utility.yul\":17406:17412   */\n      dup4\n        /* \"#utility.yul\":17403:17404   */\n      dup2\n        /* \"#utility.yul\":17400:17413   */\n      lt\n        /* \"#utility.yul\":17392:17505   */\n      iszero\n      tag_630\n      jumpi\n        /* \"#utility.yul\":17482:17493   */\n      dup2\n      dup2\n      add\n        /* \"#utility.yul\":17476:17494   */\n      mload\n        /* \"#utility.yul\":17463:17474   */\n      dup4\n      dup3\n      add\n        /* \"#utility.yul\":17456:17495   */\n      mstore\n        /* \"#utility.yul\":17428:17430   */\n      0x20\n        /* \"#utility.yul\":17421:17431   */\n      add\n        /* \"#utility.yul\":17392:17505   */\n      jump(tag_628)\n    tag_630:\n        /* \"#utility.yul\":17523:17529   */\n      dup4\n        /* \"#utility.yul\":17520:17521   */\n      dup2\n        /* \"#utility.yul\":17517:17530   */\n      gt\n        /* \"#utility.yul\":17514:17516   */\n      iszero\n      tag_466\n      jumpi\n      pop\n      pop\n        /* \"#utility.yul\":17558:17559   */\n      0x00\n        /* \"#utility.yul\":17540:17556   */\n      swap2\n      add\n        /* \"#utility.yul\":17533:17560   */\n      mstore\n        /* \"#utility.yul\":17363:17568   */\n      jump\t// out\n        /* \"#utility.yul\":17573:17953   */\n    tag_194:\n        /* \"#utility.yul\":17652:17653   */\n      0x01\n        /* \"#utility.yul\":17648:17660   */\n      dup2\n      dup2\n      shr\n      swap1\n        /* \"#utility.yul\":17695:17707   */\n      dup3\n      and\n      dup1\n        /* \"#utility.yul\":17716:17718   */\n      tag_633\n      jumpi\n        /* \"#utility.yul\":17770:17774   */\n      0x7f\n        /* \"#utility.yul\":17762:17768   */\n      dup3\n        /* \"#utility.yul\":17758:17775   */\n      and\n        /* \"#utility.yul\":17748:17775   */\n      swap2\n      pop\n        /* \"#utility.yul\":17716:17718   */\n    tag_633:\n        /* \"#utility.yul\":17823:17825   */\n      0x20\n        /* \"#utility.yul\":17815:17821   */\n      dup3\n        /* \"#utility.yul\":17812:17826   */\n      lt\n        /* \"#utility.yul\":17792:17810   */\n      dup2\n        /* \"#utility.yul\":17789:17827   */\n      eq\n        /* \"#utility.yul\":17786:17788   */\n      iszero\n      tag_232\n      jumpi\n        /* \"#utility.yul\":17869:17879   */\n      0x4e487b71\n        /* \"#utility.yul\":17864:17867   */\n      0xe0\n        /* \"#utility.yul\":17860:17880   */\n      shl\n        /* \"#utility.yul\":17857:17858   */\n      0x00\n        /* \"#utility.yul\":17850:17881   */\n      mstore\n        /* \"#utility.yul\":17904:17908   */\n      0x22\n        /* \"#utility.yul\":17901:17902   */\n      0x04\n        /* \"#utility.yul\":17894:17909   */\n      mstore\n        /* \"#utility.yul\":17932:17936   */\n      0x24\n        /* \"#utility.yul\":17929:17930   */\n      0x00\n        /* \"#utility.yul\":17922:17937   */\n      revert\n        /* \"#utility.yul\":17958:18093   */\n    tag_427:\n        /* \"#utility.yul\":17997:18000   */\n      0x00\n      not(0x00)\n        /* \"#utility.yul\":18018:18035   */\n      dup3\n      eq\n        /* \"#utility.yul\":18015:18017   */\n      iszero\n      tag_637\n      jumpi\n        /* \"#utility.yul\":18038:18056   */\n      tag_637\n      tag_600\n      jump\t// in\n    tag_637:\n      pop\n        /* \"#utility.yul\":18085:18086   */\n      0x01\n        /* \"#utility.yul\":18074:18087   */\n      add\n      swap1\n        /* \"#utility.yul\":18005:18093   */\n      jump\t// out\n        /* \"#utility.yul\":18098:18225   */\n    tag_600:\n        /* \"#utility.yul\":18159:18169   */\n      0x4e487b71\n        /* \"#utility.yul\":18154:18157   */\n      0xe0\n        /* \"#utility.yul\":18150:18170   */\n      shl\n        /* \"#utility.yul\":18147:18148   */\n      0x00\n        /* \"#utility.yul\":18140:18171   */\n      mstore\n        /* \"#utility.yul\":18190:18194   */\n      0x11\n        /* \"#utility.yul\":18187:18188   */\n      0x04\n        /* \"#utility.yul\":18180:18195   */\n      mstore\n        /* \"#utility.yul\":18214:18218   */\n      0x24\n        /* \"#utility.yul\":18211:18212   */\n      0x00\n        /* \"#utility.yul\":18204:18219   */\n      revert\n        /* \"#utility.yul\":18230:18357   */\n    tag_512:\n        /* \"#utility.yul\":18291:18301   */\n      0x4e487b71\n        /* \"#utility.yul\":18286:18289   */\n      0xe0\n        /* \"#utility.yul\":18282:18302   */\n      shl\n        /* \"#utility.yul\":18279:18280   */\n      0x00\n        /* \"#utility.yul\":18272:18303   */\n      mstore\n        /* \"#utility.yul\":18322:18326   */\n      0x41\n        /* \"#utility.yul\":18319:18320   */\n      0x04\n        /* \"#utility.yul\":18312:18327   */\n      mstore\n        /* \"#utility.yul\":18346:18350   */\n      0x24\n        /* \"#utility.yul\":18343:18344   */\n      0x00\n        /* \"#utility.yul\":18336:18351   */\n      revert\n        /* \"#utility.yul\":18362:18493   */\n    tag_519:\n      sub(shl(0xa0, 0x01), 0x01)\n        /* \"#utility.yul\":18437:18468   */\n      dup2\n      and\n        /* \"#utility.yul\":18427:18469   */\n      dup2\n      eq\n        /* \"#utility.yul\":18417:18419   */\n      tag_405\n      jumpi\n        /* \"#utility.yul\":18483:18484   */\n      0x00\n        /* \"#utility.yul\":18480:18481   */\n      dup1\n        /* \"#utility.yul\":18473:18485   */\n      revert\n        /* \"#utility.yul\":18498:18629   */\n    tag_554:\n      not(sub(shl(0xe0, 0x01), 0x01))\n        /* \"#utility.yul\":18572:18604   */\n      dup2\n      and\n        /* \"#utility.yul\":18562:18605   */\n      dup2\n      eq\n        /* \"#utility.yul\":18552:18554   */\n      tag_405\n      jumpi\n        /* \"#utility.yul\":18619:18620   */\n      0x00\n        /* \"#utility.yul\":18616:18617   */\n      dup1\n        /* \"#utility.yul\":18609:18621   */\n      revert\n\n    auxdata: 0xa26469706673582212206b1fab7270655d1a1fd9cd565df6cbadadbefa90caae0ae91c0d573f2d31049564736f6c63430008060033\n}\n\nsub_1: assembly {\n        /* \"Dex.sol\":336:7608   */\n      mstore(0x40, 0x80)\n        /* \"Dex.sol\":584:620   */\n      0x07\n      dup1\n      sload\n      not(0xff)\n      and\n      swap1\n      sstore\n        /* \"Dex.sol\":787:788   */\n      0x02\n        /* \"Dex.sol\":758:788   */\n      0x0a\n      sstore\n      0x01\n        /* \"Dex.sol\":795:823   */\n      0x0b\n      sstore\n        /* \"Dex.sol\":1146:2191   */\n      callvalue\n      dup1\n      iszero\n      tag_1\n      jumpi\n      0x00\n      dup1\n      revert\n    tag_1:\n      pop\n      mload(0x40)\n      sub(codesize, bytecodeSize)\n      dup1\n      bytecodeSize\n      dup4\n      codecopy\n      dup2\n      add\n      0x40\n      dup2\n      swap1\n      mstore\n      tag_2\n      swap2\n      tag_3\n      jump\t// in\n    tag_2:\n        /* \"openzeppelin/contracts/security/ReentrancyGuard.sol\":1637:1638   */\n      0x01\n        /* \"openzeppelin/contracts/security/ReentrancyGuard.sol\":1742:1749   */\n      0x00\n        /* \"openzeppelin/contracts/security/ReentrancyGuard.sol\":1742:1764   */\n      sstore\n        /* \"Dex.sol\":1291:1294   */\n      0x64\n        /* \"Dex.sol\":1283:1294   */\n      dup2\n      gt\n        /* \"Dex.sol\":1275:1314   */\n      tag_8\n      jumpi\n      mload(0x40)\n      shl(0xe5, 0x461bcd)\n      dup2\n      mstore\n        /* \"#utility.yul\":1108:1110   */\n      0x20\n        /* \"Dex.sol\":1275:1314   */\n      0x04\n      dup3\n      add\n        /* \"#utility.yul\":1090:1111   */\n      mstore\n        /* \"#utility.yul\":1147:1149   */\n      0x0f\n        /* \"#utility.yul\":1127:1145   */\n      0x24\n      dup3\n      add\n        /* \"#utility.yul\":1120:1150   */\n      mstore\n      shl(0x88, 0x4261736520697320746f6f206c6f77)\n        /* \"#utility.yul\":1166:1184   */\n      0x44\n      dup3\n      add\n        /* \"#utility.yul\":1159:1204   */\n      mstore\n        /* \"#utility.yul\":1221:1239   */\n      0x64\n      add\n        /* \"Dex.sol\":1275:1314   */\n    tag_9:\n      mload(0x40)\n      dup1\n      swap2\n      sub\n      swap1\n      revert\n    tag_8:\n        /* \"Dex.sol\":1358:1368   */\n      dup2\n        /* \"Dex.sol\":1352:1355   */\n      0x64\n        /* \"Dex.sol\":1334:1350   */\n      tag_11\n        /* \"Dex.sol\":1345:1350   */\n      dup4\n        /* \"Dex.sol\":1358:1368   */\n      dup4\n        /* \"Dex.sol\":1334:1350   */\n      tag_12\n      jump\t// in\n    tag_11:\n        /* \"Dex.sol\":1333:1355   */\n      tag_13\n      swap2\n      swap1\n      tag_14\n      jump\t// in\n    tag_13:\n        /* \"Dex.sol\":1333:1368   */\n      gt\n        /* \"Dex.sol\":1325:1395   */\n      tag_15\n      jumpi\n      mload(0x40)\n      shl(0xe5, 0x461bcd)\n      dup2\n      mstore\n        /* \"#utility.yul\":757:759   */\n      0x20\n        /* \"Dex.sol\":1325:1395   */\n      0x04\n      dup3\n      add\n        /* \"#utility.yul\":739:760   */\n      mstore\n        /* \"#utility.yul\":796:798   */\n      0x16\n        /* \"#utility.yul\":776:794   */\n      0x24\n      dup3\n      add\n        /* \"#utility.yul\":769:799   */\n      mstore\n      shl(0x50, 0x496e76616c696420707269636520696e637265617365)\n        /* \"#utility.yul\":815:833   */\n      0x44\n      dup3\n      add\n        /* \"#utility.yul\":808:860   */\n      mstore\n        /* \"#utility.yul\":877:895   */\n      0x64\n      add\n        /* \"Dex.sol\":1325:1395   */\n      tag_9\n        /* \"#utility.yul\":729:901   */\n      jump\n        /* \"Dex.sol\":1325:1395   */\n    tag_15:\n        /* \"Dex.sol\":1671:1686   */\n      timestamp\n        /* \"Dex.sol\":1660:1668   */\n      0x06\n        /* \"Dex.sol\":1660:1686   */\n      sstore\n        /* \"Dex.sol\":1697:1710   */\n      0x05\n        /* \"Dex.sol\":1697:1725   */\n      dup5\n      swap1\n      sstore\n        /* \"Dex.sol\":1736:1751   */\n      0x08\n        /* \"Dex.sol\":1736:1768   */\n      dup4\n      swap1\n      sstore\n        /* \"Dex.sol\":1779:1790   */\n      0x09\n        /* \"Dex.sol\":1779:1803   */\n      dup3\n      swap1\n      sstore\n        /* \"Dex.sol\":1814:1820   */\n      0x03\n        /* \"Dex.sol\":1814:1828   */\n      dup2\n      swap1\n      sstore\n        /* \"Dex.sol\":1839:1849   */\n      0x0d\n        /* \"Dex.sol\":1839:1862   */\n      dup3\n      swap1\n      sstore\n        /* \"Dex.sol\":1909:1912   */\n      0x64\n        /* \"Dex.sol\":1890:1907   */\n      tag_18\n        /* \"Dex.sol\":1823:1828   */\n      dup3\n        /* \"Dex.sol\":1793:1803   */\n      dup5\n        /* \"Dex.sol\":1890:1907   */\n      tag_12\n      jump\t// in\n    tag_18:\n        /* \"Dex.sol\":1889:1912   */\n      tag_19\n      swap2\n      swap1\n      tag_14\n      jump\t// in\n    tag_19:\n        /* \"Dex.sol\":1873:1885   */\n      0x0c\n        /* \"Dex.sol\":1873:1913   */\n      sstore\n        /* \"Dex.sol\":1924:1928   */\n      0x02\n        /* \"Dex.sol\":1924:1957   */\n      dup1\n      sload\n      sub(shl(0xa0, 0x01), 0x01)\n      dup8\n      and\n      not(sub(shl(0xa0, 0x01), 0x01))\n      swap2\n      dup3\n      and\n      or\n      swap1\n      swap2\n      sstore\n      0x01\n        /* \"Dex.sol\":1968:2033   */\n      dup1\n      sload\n      swap1\n      swap2\n      and\n        /* \"Dex.sol\":1990:2032   */\n      0xd7be0a8a457630e94f01f67bbc5300b0a53c9381\n        /* \"Dex.sol\":1968:2033   */\n      or\n      swap1\n      sstore\n        /* \"Dex.sol\":2081:2096   */\n      sload(0x08)\n        /* \"Dex.sol\":2065:2078   */\n      sload(0x05)\n        /* \"Dex.sol\":2053:2097   */\n      tag_20\n      swap2\n        /* \"Dex.sol\":2065:2096   */\n      tag_21\n      swap2\n      tag_22\n      jump\t// in\n    tag_21:\n        /* \"Dex.sol\":2053:2064   */\n      tag_23\n        /* \"Dex.sol\":2053:2097   */\n      jump\t// in\n    tag_20:\n        /* \"Dex.sol\":2133:2149   */\n      sload(0x0b)\n        /* \"Dex.sol\":2151:2162   */\n      sload(0x09)\n        /* \"Dex.sol\":2113:2183   */\n      mload(0x40)\n        /* \"Dex.sol\":2122:2131   */\n      origin\n      swap3\n        /* \"Dex.sol\":2113:2183   */\n      0x6ceed9d5957b9e77f5d93d6312a4c8e5f63ef6f75cb9812f486b76336982b75d\n      swap3\n      tag_24\n      swap3\n        /* \"#utility.yul\":1672:1697   */\n      swap2\n      dup3\n      mstore\n        /* \"#utility.yul\":1728:1730   */\n      0x20\n        /* \"#utility.yul\":1713:1731   */\n      dup3\n      add\n        /* \"#utility.yul\":1706:1740   */\n      mstore\n        /* \"#utility.yul\":1776:1778   */\n      0x60\n        /* \"#utility.yul\":1771:1773   */\n      0x40\n        /* \"#utility.yul\":1756:1774   */\n      dup3\n      add\n        /* \"#utility.yul\":1749:1779   */\n      dup2\n      swap1\n      mstore\n        /* \"#utility.yul\":1815:1817   */\n      0x10\n        /* \"#utility.yul\":1795:1813   */\n      swap1\n      dup3\n      add\n        /* \"#utility.yul\":1788:1818   */\n      mstore\n      shl(0x81, 0x2493b690333ab1b5b4b733903837b7b9)\n        /* \"#utility.yul\":1849:1852   */\n      0x80\n        /* \"#utility.yul\":1834:1853   */\n      dup3\n      add\n        /* \"#utility.yul\":1827:1874   */\n      mstore\n        /* \"#utility.yul\":1906:1909   */\n      0xa0\n        /* \"#utility.yul\":1891:1910   */\n      add\n      swap1\n        /* \"#utility.yul\":1662:1916   */\n      jump\n        /* \"Dex.sol\":2113:2183   */\n    tag_24:\n      mload(0x40)\n      dup1\n      swap2\n      sub\n      swap1\n      log2\n        /* \"Dex.sol\":1146:2191   */\n      pop\n      pop\n      pop\n      pop\n      pop\n        /* \"Dex.sol\":336:7608   */\n      jump(tag_30)\n        /* \"Dex.sol\":2199:2332   */\n    tag_23:\n        /* \"Dex.sol\":2262:2271   */\n      0x04\n        /* \"Dex.sol\":2262:2286   */\n      dup2\n      swap1\n      sstore\n        /* \"Dex.sol\":2302:2324   */\n      mload(0x40)\n        /* \"#utility.yul\":1396:1421   */\n      dup2\n      dup2\n      mstore\n        /* \"Dex.sol\":2302:2324   */\n      0x41f916eb2a7065889bf3a2125806adaa5ca5a1c9be36f179340901abbf666d23\n      swap1\n        /* \"#utility.yul\":1384:1386   */\n      0x20\n        /* \"#utility.yul\":1369:1387   */\n      add\n        /* \"Dex.sol\":2302:2324   */\n      mload(0x40)\n      dup1\n      swap2\n      sub\n      swap1\n      log1\n        /* \"Dex.sol\":2199:2332   */\n      pop\n      jump\t// out\n        /* \"#utility.yul\":14:550   */\n    tag_3:\n        /* \"#utility.yul\":120:126   */\n      0x00\n        /* \"#utility.yul\":128:134   */\n      dup1\n        /* \"#utility.yul\":136:142   */\n      0x00\n        /* \"#utility.yul\":144:150   */\n      dup1\n        /* \"#utility.yul\":152:158   */\n      0x00\n        /* \"#utility.yul\":205:208   */\n      0xa0\n        /* \"#utility.yul\":193:202   */\n      dup7\n        /* \"#utility.yul\":184:191   */\n      dup9\n        /* \"#utility.yul\":180:203   */\n      sub\n        /* \"#utility.yul\":176:209   */\n      slt\n        /* \"#utility.yul\":173:175   */\n      iszero\n      tag_32\n      jumpi\n        /* \"#utility.yul\":222:223   */\n      0x00\n        /* \"#utility.yul\":219:220   */\n      dup1\n        /* \"#utility.yul\":212:224   */\n      revert\n        /* \"#utility.yul\":173:175   */\n    tag_32:\n        /* \"#utility.yul\":248:264   */\n      dup6\n      mload\n      sub(shl(0xa0, 0x01), 0x01)\n        /* \"#utility.yul\":293:324   */\n      dup2\n      and\n        /* \"#utility.yul\":283:325   */\n      dup2\n      eq\n        /* \"#utility.yul\":273:275   */\n      tag_33\n      jumpi\n        /* \"#utility.yul\":339:340   */\n      0x00\n        /* \"#utility.yul\":336:337   */\n      dup1\n        /* \"#utility.yul\":329:341   */\n      revert\n        /* \"#utility.yul\":273:275   */\n    tag_33:\n        /* \"#utility.yul\":407:409   */\n      0x20\n        /* \"#utility.yul\":392:410   */\n      dup8\n      add\n        /* \"#utility.yul\":386:411   */\n      mload\n        /* \"#utility.yul\":451:453   */\n      0x40\n        /* \"#utility.yul\":436:454   */\n      dup9\n      add\n        /* \"#utility.yul\":430:455   */\n      mload\n        /* \"#utility.yul\":495:497   */\n      0x60\n        /* \"#utility.yul\":480:498   */\n      dup10\n      add\n        /* \"#utility.yul\":474:499   */\n      mload\n        /* \"#utility.yul\":539:542   */\n      0x80\n        /* \"#utility.yul\":524:543   */\n      swap1\n      swap10\n      add\n        /* \"#utility.yul\":518:544   */\n      mload\n        /* \"#utility.yul\":362:367   */\n      swap3\n      swap11\n        /* \"#utility.yul\":386:411   */\n      swap2\n      swap10\n      pop\n        /* \"#utility.yul\":430:455   */\n      swap8\n        /* \"#utility.yul\":474:499   */\n      swap7\n      pop\n        /* \"#utility.yul\":518:544   */\n      swap1\n      swap5\n      pop\n        /* \"#utility.yul\":163:550   */\n      swap3\n      pop\n      pop\n      pop\n      jump\t// out\n        /* \"#utility.yul\":1921:2049   */\n    tag_22:\n        /* \"#utility.yul\":1961:1964   */\n      0x00\n        /* \"#utility.yul\":1992:1993   */\n      dup3\n        /* \"#utility.yul\":1988:1994   */\n      not\n        /* \"#utility.yul\":1985:1986   */\n      dup3\n        /* \"#utility.yul\":1982:1995   */\n      gt\n        /* \"#utility.yul\":1979:1981   */\n      iszero\n      tag_40\n      jumpi\n        /* \"#utility.yul\":1998:2016   */\n      tag_40\n      tag_41\n      jump\t// in\n    tag_40:\n      pop\n        /* \"#utility.yul\":2034:2043   */\n      add\n      swap1\n        /* \"#utility.yul\":1969:2049   */\n      jump\t// out\n        /* \"#utility.yul\":2054:2271   */\n    tag_14:\n        /* \"#utility.yul\":2094:2095   */\n      0x00\n        /* \"#utility.yul\":2120:2121   */\n      dup3\n        /* \"#utility.yul\":2110:2112   */\n      tag_43\n      jumpi\n        /* \"#utility.yul\":2164:2174   */\n      0x4e487b71\n        /* \"#utility.yul\":2159:2162   */\n      0xe0\n        /* \"#utility.yul\":2155:2175   */\n      shl\n        /* \"#utility.yul\":2152:2153   */\n      0x00\n        /* \"#utility.yul\":2145:2176   */\n      mstore\n        /* \"#utility.yul\":2199:2203   */\n      0x12\n        /* \"#utility.yul\":2196:2197   */\n      0x04\n        /* \"#utility.yul\":2189:2204   */\n      mstore\n        /* \"#utility.yul\":2227:2231   */\n      0x24\n        /* \"#utility.yul\":2224:2225   */\n      0x00\n        /* \"#utility.yul\":2217:2232   */\n      revert\n        /* \"#utility.yul\":2110:2112   */\n    tag_43:\n      pop\n        /* \"#utility.yul\":2256:2265   */\n      div\n      swap1\n        /* \"#utility.yul\":2100:2271   */\n      jump\t// out\n        /* \"#utility.yul\":2276:2444   */\n    tag_12:\n        /* \"#utility.yul\":2316:2323   */\n      0x00\n        /* \"#utility.yul\":2382:2383   */\n      dup2\n        /* \"#utility.yul\":2378:2379   */\n      0x00\n        /* \"#utility.yul\":2374:2380   */\n      not\n        /* \"#utility.yul\":2370:2384   */\n      div\n        /* \"#utility.yul\":2367:2368   */\n      dup4\n        /* \"#utility.yul\":2364:2385   */\n      gt\n        /* \"#utility.yul\":2359:2360   */\n      dup3\n        /* \"#utility.yul\":2352:2361   */\n      iszero\n        /* \"#utility.yul\":2345:2362   */\n      iszero\n        /* \"#utility.yul\":2341:2386   */\n      and\n        /* \"#utility.yul\":2338:2340   */\n      iszero\n      tag_46\n      jumpi\n        /* \"#utility.yul\":2389:2407   */\n      tag_46\n      tag_41\n      jump\t// in\n    tag_46:\n      pop\n        /* \"#utility.yul\":2429:2438   */\n      mul\n      swap1\n        /* \"#utility.yul\":2328:2444   */\n      jump\t// out\n        /* \"#utility.yul\":2449:2576   */\n    tag_41:\n        /* \"#utility.yul\":2510:2520   */\n      0x4e487b71\n        /* \"#utility.yul\":2505:2508   */\n      0xe0\n        /* \"#utility.yul\":2501:2521   */\n      shl\n        /* \"#utility.yul\":2498:2499   */\n      0x00\n        /* \"#utility.yul\":2491:2522   */\n      mstore\n        /* \"#utility.yul\":2541:2545   */\n      0x11\n        /* \"#utility.yul\":2538:2539   */\n      0x04\n        /* \"#utility.yul\":2531:2546   */\n      mstore\n        /* \"#utility.yul\":2565:2569   */\n      0x24\n        /* \"#utility.yul\":2562:2563   */\n      0x00\n        /* \"#utility.yul\":2555:2570   */\n      revert\n        /* \"#utility.yul\":2481:2576   */\n    tag_30:\n        /* \"Dex.sol\":336:7608   */\n      dataSize(sub_0)\n      dup1\n      dataOffset(sub_0)\n      0x00\n      codecopy\n      0x00\n      return\n    stop\n\n    sub_0: assembly {\n            /* \"Dex.sol\":336:7608   */\n          mstore(0x40, 0x80)\n          jumpi(tag_1, lt(calldatasize, 0x04))\n          shr(0xe0, calldataload(0x00))\n          dup1\n          0x7f8aced7\n          gt\n          tag_14\n          jumpi\n          dup1\n          0x7f8aced7\n          eq\n          tag_8\n          jumpi\n          dup1\n          0x8ecf0d0b\n          eq\n          tag_9\n          jumpi\n          dup1\n          0xbaffa903\n          eq\n          tag_10\n          jumpi\n          dup1\n          0xc5570261\n          eq\n          tag_11\n          jumpi\n          dup1\n          0xcaee4dd3\n          eq\n          tag_12\n          jumpi\n          dup1\n          0xe4d90c62\n          eq\n          tag_13\n          jumpi\n          stop\n        tag_14:\n          dup1\n          0x150b7a02\n          eq\n          tag_3\n          jumpi\n          dup1\n          0x2a2d64ff\n          eq\n          tag_4\n          jumpi\n          dup1\n          0x544736e6\n          eq\n          tag_5\n          jumpi\n          dup1\n          0x644e9797\n          eq\n          tag_6\n          jumpi\n          dup1\n          0x7d58e3cf\n          eq\n          tag_7\n          jumpi\n          stop\n        tag_1:\n          jumpi(tag_2, calldatasize)\n          stop\n        tag_2:\n          stop\n            /* \"openzeppelin/contracts/token/ERC721/utils/ERC721Holder.sol\":517:717   */\n        tag_3:\n          callvalue\n          dup1\n          iszero\n          tag_19\n          jumpi\n          0x00\n          dup1\n          revert\n        tag_19:\n          pop\n          tag_20\n          tag_21\n          calldatasize\n          0x04\n          tag_22\n          jump\t// in\n        tag_21:\n          pop\n          shl(0xe1, 0x0a85bd01)\n          swap4\n          swap3\n          pop\n          pop\n          pop\n          jump\n        tag_20:\n          mload(0x40)\n          not(sub(shl(0xe0, 0x01), 0x01))\n            /* \"#utility.yul\":4723:4756   */\n          swap2\n          swap1\n          swap2\n          and\n            /* \"#utility.yul\":4705:4757   */\n          dup2\n          mstore\n            /* \"#utility.yul\":4693:4695   */\n          0x20\n            /* \"#utility.yul\":4678:4696   */\n          add\n            /* \"openzeppelin/contracts/token/ERC721/utils/ERC721Holder.sol\":517:717   */\n        tag_24:\n          mload(0x40)\n          dup1\n          swap2\n          sub\n          swap1\n          return\n            /* \"Dex.sol\":7112:7209   */\n        tag_4:\n          callvalue\n          dup1\n          iszero\n          tag_26\n          jumpi\n          0x00\n          dup1\n          revert\n        tag_26:\n          pop\n            /* \"Dex.sol\":7192:7201   */\n          sload(0x04)\n            /* \"Dex.sol\":7112:7209   */\n        tag_27:\n          mload(0x40)\n            /* \"#utility.yul\":4922:4947   */\n          swap1\n          dup2\n          mstore\n            /* \"#utility.yul\":4910:4912   */\n          0x20\n            /* \"#utility.yul\":4895:4913   */\n          add\n            /* \"Dex.sol\":7112:7209   */\n          tag_24\n            /* \"#utility.yul\":4877:4953   */\n          jump\n            /* \"Dex.sol\":6803:6892   */\n        tag_5:\n          callvalue\n          dup1\n          iszero\n          tag_31\n          jumpi\n          0x00\n          dup1\n          revert\n        tag_31:\n          pop\n            /* \"Dex.sol\":6869:6884   */\n          and(0xff, sload(0x07))\n            /* \"Dex.sol\":6803:6892   */\n          mload(0x40)\n            /* \"#utility.yul\":4534:4548   */\n          swap1\n          iszero\n            /* \"#utility.yul\":4527:4549   */\n          iszero\n            /* \"#utility.yul\":4509:4550   */\n          dup2\n          mstore\n            /* \"#utility.yul\":4497:4499   */\n          0x20\n            /* \"#utility.yul\":4482:4500   */\n          add\n            /* \"Dex.sol\":6803:6892   */\n          tag_24\n            /* \"#utility.yul\":4464:4556   */\n          jump\n            /* \"Dex.sol\":6900:6996   */\n        tag_6:\n          callvalue\n          dup1\n          iszero\n          tag_36\n          jumpi\n          0x00\n          dup1\n          revert\n        tag_36:\n          pop\n            /* \"Dex.sol\":6975:6988   */\n          sload(0x05)\n            /* \"Dex.sol\":6900:6996   */\n          jump(tag_27)\n            /* \"Dex.sol\":6707:6795   */\n        tag_7:\n          callvalue\n          dup1\n          iszero\n          tag_40\n          jumpi\n          0x00\n          dup1\n          revert\n        tag_40:\n          pop\n            /* \"Dex.sol\":6775:6787   */\n          sload(0x0c)\n            /* \"Dex.sol\":6707:6795   */\n          jump(tag_27)\n            /* \"Dex.sol\":7317:7399   */\n        tag_8:\n          callvalue\n          dup1\n          iszero\n          tag_44\n          jumpi\n          0x00\n          dup1\n          revert\n        tag_44:\n          pop\n            /* \"Dex.sol\":7385:7391   */\n          sload(0x03)\n            /* \"Dex.sol\":7317:7399   */\n          jump(tag_27)\n            /* \"Dex.sol\":7508:7603   */\n        tag_9:\n          callvalue\n          dup1\n          iszero\n          tag_48\n          jumpi\n          0x00\n          dup1\n          revert\n        tag_48:\n          pop\n            /* \"Dex.sol\":7587:7595   */\n          sload(0x06)\n            /* \"Dex.sol\":7508:7603   */\n          jump(tag_27)\n            /* \"Dex.sol\":7217:7309   */\n        tag_10:\n          callvalue\n          dup1\n          iszero\n          tag_52\n          jumpi\n          0x00\n          dup1\n          revert\n        tag_52:\n          pop\n            /* \"Dex.sol\":7290:7301   */\n          sload(0x09)\n            /* \"Dex.sol\":7217:7309   */\n          jump(tag_27)\n            /* \"Dex.sol\":7004:7104   */\n        tag_11:\n          callvalue\n          dup1\n          iszero\n          tag_56\n          jumpi\n          0x00\n          dup1\n          revert\n        tag_56:\n          pop\n            /* \"Dex.sol\":7081:7096   */\n          sload(0x08)\n            /* \"Dex.sol\":7004:7104   */\n          jump(tag_27)\n            /* \"Dex.sol\":7407:7500   */\n        tag_12:\n          callvalue\n          dup1\n          iszero\n          tag_60\n          jumpi\n          0x00\n          dup1\n          revert\n        tag_60:\n          pop\n            /* \"Dex.sol\":7487:7491   */\n          sload(0x02)\n            /* \"Dex.sol\":7407:7500   */\n          mload(0x40)\n          sub(shl(0xa0, 0x01), 0x01)\n            /* \"Dex.sol\":7487:7491   */\n          swap1\n          swap2\n          and\n            /* \"#utility.yul\":3326:3377   */\n          dup2\n          mstore\n            /* \"#utility.yul\":3314:3316   */\n          0x20\n            /* \"#utility.yul\":3299:3317   */\n          add\n            /* \"Dex.sol\":7407:7500   */\n          tag_24\n            /* \"#utility.yul\":3281:3383   */\n          jump\n            /* \"Dex.sol\":6120:6699   */\n        tag_13:\n          callvalue\n          dup1\n          iszero\n          tag_65\n          jumpi\n          0x00\n          dup1\n          revert\n        tag_65:\n          pop\n          tag_2\n          tag_67\n          calldatasize\n          0x04\n          tag_68\n          jump\t// in\n        tag_67:\n            /* \"openzeppelin/contracts/security/ReentrancyGuard.sol\":1680:1681   */\n          0x02\n            /* \"openzeppelin/contracts/security/ReentrancyGuard.sol\":2259:2266   */\n          sload(0x00)\n            /* \"openzeppelin/contracts/security/ReentrancyGuard.sol\":2259:2278   */\n          eq\n          iszero\n            /* \"openzeppelin/contracts/security/ReentrancyGuard.sol\":2251:2314   */\n          tag_81\n          jumpi\n          mload(0x40)\n          shl(0xe5, 0x461bcd)\n          dup2\n          mstore\n            /* \"#utility.yul\":5881:5883   */\n          0x20\n            /* \"openzeppelin/contracts/security/ReentrancyGuard.sol\":2251:2314   */\n          0x04\n          dup3\n          add\n            /* \"#utility.yul\":5863:5884   */\n          mstore\n            /* \"#utility.yul\":5920:5922   */\n          0x1f\n            /* \"#utility.yul\":5900:5918   */\n          0x24\n          dup3\n          add\n            /* \"#utility.yul\":5893:5923   */\n          mstore\n            /* \"#utility.yul\":5959:5992   */\n          0x5265656e7472616e637947756172643a207265656e7472616e742063616c6c00\n            /* \"#utility.yul\":5939:5957   */\n          0x44\n          dup3\n          add\n            /* \"#utility.yul\":5932:5993   */\n          mstore\n            /* \"#utility.yul\":6010:6028   */\n          0x64\n          add\n            /* \"openzeppelin/contracts/security/ReentrancyGuard.sol\":2251:2314   */\n        tag_82:\n          mload(0x40)\n          dup1\n          swap2\n          sub\n          swap1\n          revert\n        tag_81:\n            /* \"openzeppelin/contracts/security/ReentrancyGuard.sol\":1680:1681   */\n          0x02\n            /* \"openzeppelin/contracts/security/ReentrancyGuard.sol\":2389:2396   */\n          0x00\n            /* \"openzeppelin/contracts/security/ReentrancyGuard.sol\":2389:2407   */\n          sstore\n            /* \"Dex.sol\":6219:6234   */\n          and(0xff, sload(0x07))\n            /* \"Dex.sol\":6215:6375   */\n          tag_85\n          jumpi\n            /* \"Dex.sol\":6277:6290   */\n          sload(0x05)\n            /* \"Dex.sol\":6258:6273   */\n          timestamp\n            /* \"Dex.sol\":6258:6290   */\n          lt\n          iszero\n            /* \"Dex.sol\":6250:6326   */\n          tag_86\n          jumpi\n          mload(0x40)\n          shl(0xe5, 0x461bcd)\n          dup2\n          mstore\n            /* \"#utility.yul\":5521:5523   */\n          0x20\n            /* \"Dex.sol\":6250:6326   */\n          0x04\n          dup3\n          add\n            /* \"#utility.yul\":5503:5524   */\n          mstore\n            /* \"#utility.yul\":5560:5562   */\n          0x1f\n            /* \"#utility.yul\":5540:5558   */\n          0x24\n          dup3\n          add\n            /* \"#utility.yul\":5533:5563   */\n          mstore\n            /* \"#utility.yul\":5599:5632   */\n          0x5468652061756374696f6e206861736e27742073746172746564207965742100\n            /* \"#utility.yul\":5579:5597   */\n          0x44\n          dup3\n          add\n            /* \"#utility.yul\":5572:5633   */\n          mstore\n            /* \"#utility.yul\":5650:5668   */\n          0x64\n          add\n            /* \"Dex.sol\":6250:6326   */\n          tag_82\n            /* \"#utility.yul\":5493:5674   */\n          jump\n            /* \"Dex.sol\":6250:6326   */\n        tag_86:\n            /* \"Dex.sol\":6341:6356   */\n          0x07\n            /* \"Dex.sol\":6341:6363   */\n          dup1\n          sload\n          not(0xff)\n          and\n            /* \"Dex.sol\":6359:6363   */\n          0x01\n            /* \"Dex.sol\":6341:6363   */\n          or\n          swap1\n          sstore\n            /* \"Dex.sol\":6215:6375   */\n        tag_85:\n            /* \"Dex.sol\":6407:6416   */\n          sload(0x04)\n            /* \"Dex.sol\":6388:6403   */\n          timestamp\n            /* \"Dex.sol\":6388:6416   */\n          lt\n            /* \"Dex.sol\":6385:6692   */\n          tag_89\n          jumpi\n            /* \"Dex.sol\":6481:6485   */\n          sload(0x02)\n            /* \"Dex.sol\":6481:6498   */\n          0x40\n          dup1\n          mload\n          shl(0xe0, 0xfe67a54b)\n          dup2\n          mstore\n          swap1\n          mload\n          sub(shl(0xa0, 0x01), 0x01)\n            /* \"Dex.sol\":6481:6485   */\n          swap1\n          swap3\n          and\n          swap2\n            /* \"Dex.sol\":6481:6496   */\n          0xfe67a54b\n          swap2\n            /* \"Dex.sol\":6481:6498   */\n          0x04\n          dup1\n          dup3\n          add\n          swap3\n            /* \"Dex.sol\":6481:6485   */\n          0x00\n          swap3\n            /* \"Dex.sol\":6481:6498   */\n          swap1\n          swap2\n          swap1\n          dup3\n          swap1\n          sub\n          add\n          dup2\n            /* \"Dex.sol\":6481:6485   */\n          dup4\n          dup8\n            /* \"Dex.sol\":6481:6498   */\n          dup1\n          extcodesize\n          iszero\n          dup1\n          iszero\n          tag_90\n          jumpi\n          0x00\n          dup1\n          revert\n        tag_90:\n          pop\n          gas\n          call\n          iszero\n          dup1\n          iszero\n          tag_92\n          jumpi\n          returndatasize\n          0x00\n          dup1\n          returndatacopy\n          revert(0x00, returndatasize)\n        tag_92:\n          pop\n          pop\n            /* \"Dex.sol\":6518:6536   */\n          mload(0x40)\n            /* \"Dex.sol\":6531:6535   */\n          0x01\n            /* \"#utility.yul\":4509:4550   */\n          dup2\n          mstore\n            /* \"Dex.sol\":6518:6536   */\n          0x65621228cd4667982e3b2306bdbedb01c7f7d2ebd15463abb9d9a1d6ff4d4cd8\n          swap3\n          pop\n            /* \"#utility.yul\":4497:4499   */\n          0x20\n            /* \"#utility.yul\":4482:4500   */\n          add\n          swap1\n          pop\n            /* \"Dex.sol\":6518:6536   */\n          mload(0x40)\n          dup1\n          swap2\n          sub\n          swap1\n          log1\n            /* \"Dex.sol\":6572:6576   */\n          sload(0x02)\n            /* \"Dex.sol\":6572:6595   */\n          mload(0x40)\n          shl(0xe0, 0x633cd29d)\n          dup2\n          mstore\n            /* \"Dex.sol\":6572:6576   */\n          0x01\n            /* \"Dex.sol\":6572:6595   */\n          0x04\n          dup3\n          add\n            /* \"#utility.yul\":4922:4947   */\n          mstore\n          0x01\n          dup1\n          0xa0\n          shl\n          sub\n            /* \"Dex.sol\":6572:6576   */\n          swap1\n          swap2\n          and\n          swap1\n            /* \"Dex.sol\":6572:6592   */\n          0x633cd29d\n          swap1\n            /* \"#utility.yul\":4895:4913   */\n          0x24\n          add\n            /* \"Dex.sol\":6572:6595   */\n          0x20\n          mload(0x40)\n          dup1\n          dup4\n          sub\n          dup2\n          dup7\n          dup1\n          extcodesize\n          iszero\n          dup1\n          iszero\n          tag_96\n          jumpi\n          0x00\n          dup1\n          revert\n        tag_96:\n          pop\n          gas\n          staticcall\n          iszero\n          dup1\n          iszero\n          tag_98\n          jumpi\n          returndatasize\n          0x00\n          dup1\n          returndatacopy\n          revert(0x00, returndatasize)\n        tag_98:\n          pop\n          pop\n          pop\n          pop\n          mload(0x40)\n          returndatasize\n          not(0x1f)\n          0x1f\n          dup3\n          add\n          and\n          dup3\n          add\n          dup1\n          0x40\n          mstore\n          pop\n          dup2\n          add\n          swap1\n          tag_99\n          swap2\n          swap1\n          tag_100\n          jump\t// in\n        tag_99:\n          sub(shl(0xa0, 0x01), 0x01)\n            /* \"Dex.sol\":6551:6597   */\n          and\n          selfdestruct\n            /* \"Dex.sol\":6385:6692   */\n        tag_89:\n            /* \"Dex.sol\":6653:6680   */\n          tag_102\n            /* \"Dex.sol\":6662:6670   */\n          dup3\n            /* \"Dex.sol\":6672:6679   */\n          dup3\n            /* \"Dex.sol\":6653:6661   */\n          tag_103\n            /* \"Dex.sol\":6653:6680   */\n          jump\t// in\n        tag_102:\n          pop\n          pop\n            /* \"openzeppelin/contracts/security/ReentrancyGuard.sol\":1637:1638   */\n          0x01\n            /* \"openzeppelin/contracts/security/ReentrancyGuard.sol\":2562:2569   */\n          0x00\n            /* \"openzeppelin/contracts/security/ReentrancyGuard.sol\":2562:2584   */\n          sstore\n            /* \"Dex.sol\":6120:6699   */\n          jump\t// out\n            /* \"Dex.sol\":4390:6112   */\n        tag_103:\n            /* \"Dex.sol\":4532:4544   */\n          sload(0x0c)\n            /* \"Dex.sol\":4521:4528   */\n          dup2\n            /* \"Dex.sol\":4521:4544   */\n          lt\n          iszero\n            /* \"Dex.sol\":4513:4582   */\n          tag_105\n          jumpi\n          mload(0x40)\n          shl(0xe5, 0x461bcd)\n          dup2\n          mstore\n            /* \"#utility.yul\":5160:5162   */\n          0x20\n            /* \"Dex.sol\":4513:4582   */\n          0x04\n          dup3\n          add\n            /* \"#utility.yul\":5142:5163   */\n          dup2\n          swap1\n          mstore\n            /* \"#utility.yul\":5179:5197   */\n          0x24\n          dup3\n          add\n            /* \"#utility.yul\":5172:5202   */\n          mstore\n            /* \"#utility.yul\":5238:5272   */\n          0x596f75206861766520746f207061792074686520726967687420707269636521\n            /* \"#utility.yul\":5218:5236   */\n          0x44\n          dup3\n          add\n            /* \"#utility.yul\":5211:5273   */\n          mstore\n            /* \"#utility.yul\":5290:5308   */\n          0x64\n          add\n            /* \"Dex.sol\":4513:4582   */\n          tag_82\n            /* \"#utility.yul\":5132:5314   */\n          jump\n            /* \"Dex.sol\":4513:4582   */\n        tag_105:\n            /* \"Dex.sol\":4597:4605   */\n          sload(0x01)\n            /* \"Dex.sol\":4625:4637   */\n          sload(0x0c)\n            /* \"Dex.sol\":4597:4650   */\n          mload(0x40)\n          shl(0xe2, 0x1ec49ce9)\n          dup2\n          mstore\n          0x04\n          dup2\n          add\n            /* \"#utility.yul\":6395:6420   */\n          swap2\n          swap1\n          swap2\n          mstore\n            /* \"Dex.sol\":4639:4649   */\n          caller\n            /* \"#utility.yul\":6436:6454   */\n          0x24\n          dup3\n          add\n            /* \"#utility.yul\":6429:6489   */\n          mstore\n          0x01\n          dup1\n          0xa0\n          shl\n          sub\n            /* \"Dex.sol\":4597:4605   */\n          swap1\n          swap2\n          and\n          swap1\n            /* \"Dex.sol\":4597:4624   */\n          0x7b1273a4\n          swap1\n            /* \"#utility.yul\":6368:6386   */\n          0x44\n          add\n            /* \"Dex.sol\":4597:4650   */\n          0x00\n          mload(0x40)\n          dup1\n          dup4\n          sub\n          dup2\n          0x00\n          dup8\n          dup1\n          extcodesize\n          iszero\n          dup1\n          iszero\n          tag_110\n          jumpi\n          0x00\n          dup1\n          revert\n        tag_110:\n          pop\n          gas\n          call\n          iszero\n          dup1\n          iszero\n          tag_112\n          jumpi\n          returndatasize\n          0x00\n          dup1\n          returndatacopy\n          revert(0x00, returndatasize)\n        tag_112:\n          pop\n          pop\n          pop\n          pop\n            /* \"Dex.sol\":5033:5048   */\n          0x00\n            /* \"Dex.sol\":5081:5091   */\n          sload(0x0d)\n            /* \"Dex.sol\":5078:5079   */\n          0x02\n            /* \"Dex.sol\":5066:5076   */\n          sload(0x0d)\n            /* \"Dex.sol\":5053:5065   */\n          sload(0x0c)\n            /* \"Dex.sol\":5053:5076   */\n          tag_113\n          swap2\n          swap1\n          tag_114\n          jump\t// in\n        tag_113:\n            /* \"Dex.sol\":5052:5079   */\n          tag_115\n          swap2\n          swap1\n          tag_116\n          jump\t// in\n        tag_115:\n            /* \"Dex.sol\":5051:5091   */\n          tag_117\n          swap2\n          swap1\n          tag_118\n          jump\t// in\n        tag_117:\n            /* \"Dex.sol\":5033:5091   */\n          swap1\n          pop\n            /* \"Dex.sol\":5106:5118   */\n          0x00\n            /* \"Dex.sol\":5134:5141   */\n          dup2\n            /* \"Dex.sol\":5121:5133   */\n          sload(0x0c)\n            /* \"Dex.sol\":5121:5141   */\n          tag_119\n          swap2\n          swap1\n          tag_114\n          jump\t// in\n        tag_119:\n            /* \"Dex.sol\":5106:5141   */\n          swap1\n          pop\n            /* \"Dex.sol\":5156:5200   */\n          tag_120\n            /* \"Dex.sol\":5196:5199   */\n          0x64\n            /* \"Dex.sol\":5184:5194   */\n          sload(0x0a)\n            /* \"Dex.sol\":5180:5183   */\n          0x64\n            /* \"Dex.sol\":5180:5194   */\n          tag_121\n          swap2\n          swap1\n          tag_114\n          jump\t// in\n        tag_121:\n            /* \"Dex.sol\":5171:5195   */\n          tag_122\n          swap1\n            /* \"Dex.sol\":5171:5178   */\n          dup6\n            /* \"Dex.sol\":5171:5195   */\n          tag_123\n          jump\t// in\n        tag_122:\n            /* \"Dex.sol\":5171:5199   */\n          tag_124\n          swap2\n          swap1\n          tag_116\n          jump\t// in\n        tag_124:\n            /* \"Dex.sol\":5156:5170   */\n          tag_125\n            /* \"Dex.sol\":5156:5200   */\n          jump\t// in\n        tag_120:\n            /* \"Dex.sol\":5215:5252   */\n          tag_126\n            /* \"Dex.sol\":5248:5251   */\n          0x64\n            /* \"Dex.sol\":5236:5246   */\n          sload(0x0a)\n            /* \"Dex.sol\":5232:5235   */\n          0x64\n            /* \"Dex.sol\":5232:5246   */\n          tag_127\n          swap2\n          swap1\n          tag_114\n          jump\t// in\n        tag_127:\n            /* \"Dex.sol\":5226:5247   */\n          tag_128\n          swap1\n            /* \"Dex.sol\":5226:5230   */\n          dup5\n            /* \"Dex.sol\":5226:5247   */\n          tag_123\n          jump\t// in\n        tag_128:\n            /* \"Dex.sol\":5226:5251   */\n          tag_129\n          swap2\n          swap1\n          tag_116\n          jump\t// in\n        tag_129:\n            /* \"Dex.sol\":5215:5225   */\n          tag_130\n            /* \"Dex.sol\":5215:5252   */\n          jump\t// in\n        tag_126:\n            /* \"Dex.sol\":5287:5308   */\n          selfbalance\n            /* \"Dex.sol\":5323:5350   */\n          tag_131\n            /* \"Dex.sol\":5287:5308   */\n          dup2\n            /* \"Dex.sol\":5323:5339   */\n          tag_132\n            /* \"Dex.sol\":5323:5350   */\n          jump\t// in\n        tag_131:\n            /* \"Dex.sol\":5773:5777   */\n          sload(0x02)\n            /* \"Dex.sol\":5808:5825   */\n          0x40\n          dup1\n          mload\n          shl(0xe0, 0x010a38f5)\n          dup2\n          mstore\n          swap1\n          mload\n          sub(shl(0xa0, 0x01), 0x01)\n            /* \"Dex.sol\":5773:5777   */\n          swap1\n          swap3\n          and\n          swap2\n            /* \"Dex.sol\":5773:5794   */\n          0x42842e0e\n          swap2\n            /* \"Dex.sol\":5773:5777   */\n          dup4\n          swap2\n            /* \"Dex.sol\":5795:5807   */\n          0x6352211e\n          swap2\n            /* \"Dex.sol\":5773:5777   */\n          dup4\n          swap2\n          0x010a38f5\n          swap2\n            /* \"Dex.sol\":5808:5825   */\n          0x04\n          dup1\n          dup3\n          add\n          swap3\n          0x20\n          swap3\n          swap1\n          swap2\n          swap1\n          dup3\n          swap1\n          sub\n          add\n          dup2\n            /* \"Dex.sol\":5773:5777   */\n          dup7\n            /* \"Dex.sol\":5808:5825   */\n          dup1\n          extcodesize\n          iszero\n          dup1\n          iszero\n          tag_133\n          jumpi\n          0x00\n          dup1\n          revert\n        tag_133:\n          pop\n          gas\n          staticcall\n          iszero\n          dup1\n          iszero\n          tag_135\n          jumpi\n          returndatasize\n          0x00\n          dup1\n          returndatacopy\n          revert(0x00, returndatasize)\n        tag_135:\n          pop\n          pop\n          pop\n          pop\n          mload(0x40)\n          returndatasize\n          not(0x1f)\n          0x1f\n          dup3\n          add\n          and\n          dup3\n          add\n          dup1\n          0x40\n          mstore\n          pop\n          dup2\n          add\n          swap1\n          tag_136\n          swap2\n          swap1\n          tag_137\n          jump\t// in\n        tag_136:\n            /* \"Dex.sol\":5795:5826   */\n          mload(0x40)\n          dup3\n          0xffffffff\n          and\n          0xe0\n          shl\n          dup2\n          mstore\n          0x04\n          add\n          tag_138\n          swap2\n            /* \"#utility.yul\":4922:4947   */\n          dup2\n          mstore\n            /* \"#utility.yul\":4910:4912   */\n          0x20\n            /* \"#utility.yul\":4895:4913   */\n          add\n          swap1\n            /* \"#utility.yul\":4877:4953   */\n          jump\n            /* \"Dex.sol\":5795:5826   */\n        tag_138:\n          0x20\n          mload(0x40)\n          dup1\n          dup4\n          sub\n          dup2\n          dup7\n          dup1\n          extcodesize\n          iszero\n          dup1\n          iszero\n          tag_139\n          jumpi\n          0x00\n          dup1\n          revert\n        tag_139:\n          pop\n          gas\n          staticcall\n          iszero\n          dup1\n          iszero\n          tag_141\n          jumpi\n          returndatasize\n          0x00\n          dup1\n          returndatacopy\n          revert(0x00, returndatasize)\n        tag_141:\n          pop\n          pop\n          pop\n          pop\n          mload(0x40)\n          returndatasize\n          not(0x1f)\n          0x1f\n          dup3\n          add\n          and\n          dup3\n          add\n          dup1\n          0x40\n          mstore\n          pop\n          dup2\n          add\n          swap1\n          tag_142\n          swap2\n          swap1\n          tag_100\n          jump\t// in\n        tag_142:\n            /* \"Dex.sol\":5839:5843   */\n          sload(0x02)\n            /* \"Dex.sol\":5839:5856   */\n          0x40\n          dup1\n          mload\n          shl(0xe0, 0x010a38f5)\n          dup2\n          mstore\n          swap1\n          mload\n            /* \"Dex.sol\":5827:5837   */\n          caller\n          swap3\n          sub(shl(0xa0, 0x01), 0x01)\n            /* \"Dex.sol\":5839:5843   */\n          and\n          swap2\n          0x010a38f5\n          swap2\n            /* \"Dex.sol\":5839:5856   */\n          0x04\n          dup1\n          dup4\n          add\n          swap3\n          0x20\n          swap3\n          swap2\n          swap1\n          dup3\n          swap1\n          sub\n          add\n          dup2\n            /* \"Dex.sol\":5839:5843   */\n          dup7\n            /* \"Dex.sol\":5839:5856   */\n          dup1\n          extcodesize\n          iszero\n          dup1\n          iszero\n          tag_143\n          jumpi\n          0x00\n          dup1\n          revert\n        tag_143:\n          pop\n          gas\n          staticcall\n          iszero\n          dup1\n          iszero\n          tag_145\n          jumpi\n          returndatasize\n          0x00\n          dup1\n          returndatacopy\n          revert(0x00, returndatasize)\n        tag_145:\n          pop\n          pop\n          pop\n          pop\n          mload(0x40)\n          returndatasize\n          not(0x1f)\n          0x1f\n          dup3\n          add\n          and\n          dup3\n          add\n          dup1\n          0x40\n          mstore\n          pop\n          dup2\n          add\n          swap1\n          tag_146\n          swap2\n          swap1\n          tag_137\n          jump\t// in\n        tag_146:\n            /* \"Dex.sol\":5773:5857   */\n          0x40\n          dup1\n          mload\n          0xe0\n          dup7\n          swap1\n          shl\n          not(sub(shl(0xe0, 0x01), 0x01))\n          and\n          dup2\n          mstore\n          sub(shl(0xa0, 0x01), 0x01)\n            /* \"#utility.yul\":3646:3661   */\n          swap5\n          dup6\n          and\n            /* \"Dex.sol\":5773:5857   */\n          0x04\n          dup3\n          add\n            /* \"#utility.yul\":3628:3662   */\n          mstore\n            /* \"#utility.yul\":3698:3713   */\n          swap3\n          swap1\n          swap4\n          and\n            /* \"#utility.yul\":3678:3696   */\n          0x24\n          dup4\n          add\n            /* \"#utility.yul\":3671:3714   */\n          mstore\n            /* \"#utility.yul\":3730:3748   */\n          0x44\n          dup3\n          add\n            /* \"#utility.yul\":3723:3757   */\n          mstore\n            /* \"Dex.sol\":5773:5857   */\n          swap1\n          mload\n            /* \"#utility.yul\":3563:3581   */\n          0x64\n          dup1\n          dup4\n          add\n          swap3\n          0x00\n          swap3\n            /* \"Dex.sol\":5773:5857   */\n          swap2\n          swap1\n          dup3\n          swap1\n          sub\n          add\n          dup2\n          dup4\n          dup8\n          dup1\n          extcodesize\n          iszero\n          dup1\n          iszero\n          tag_149\n          jumpi\n          0x00\n          dup1\n          revert\n        tag_149:\n          pop\n          gas\n          call\n          iszero\n          dup1\n          iszero\n          tag_151\n          jumpi\n          returndatasize\n          0x00\n          dup1\n          returndatacopy\n          revert(0x00, returndatasize)\n        tag_151:\n          pop\n          pop\n          pop\n          pop\n            /* \"Dex.sol\":5872:5905   */\n          tag_152\n            /* \"Dex.sol\":5884:5894   */\n          caller\n            /* \"Dex.sol\":5896:5904   */\n          dup7\n            /* \"Dex.sol\":5872:5883   */\n          tag_153\n            /* \"Dex.sol\":5872:5905   */\n          jump\t// in\n        tag_152:\n            /* \"Dex.sol\":5920:5966   */\n          tag_154\n            /* \"Dex.sol\":5950:5965   */\n          sload(0x08)\n            /* \"Dex.sol\":5932:5947   */\n          timestamp\n            /* \"Dex.sol\":5932:5965   */\n          tag_155\n          swap2\n          swap1\n          tag_118\n          jump\t// in\n        tag_155:\n            /* \"Dex.sol\":5920:5931   */\n          tag_156\n            /* \"Dex.sol\":5920:5966   */\n          jump\t// in\n        tag_154:\n            /* \"Dex.sol\":5994:6006   */\n          sload(0x0c)\n            /* \"Dex.sol\":5981:5991   */\n          0x0d\n            /* \"Dex.sol\":5981:6006   */\n          dup2\n          swap1\n          sstore\n            /* \"Dex.sol\":6049:6055   */\n          sload(0x03)\n            /* \"Dex.sol\":6057:6060   */\n          0x64\n          swap2\n            /* \"Dex.sol\":6038:6055   */\n          tag_157\n          swap2\n            /* \"Dex.sol\":6049:6055   */\n          swap1\n            /* \"Dex.sol\":6038:6055   */\n          tag_123\n          jump\t// in\n        tag_157:\n            /* \"Dex.sol\":6037:6060   */\n          tag_158\n          swap2\n          swap1\n          tag_116\n          jump\t// in\n        tag_158:\n            /* \"Dex.sol\":6021:6033   */\n          0x0c\n            /* \"Dex.sol\":6021:6061   */\n          sstore\n          pop\n          pop\n          pop\n          pop\n          pop\n            /* \"Dex.sol\":4390:6112   */\n          jump\t// out\n            /* \"Dex.sol\":2667:2923   */\n        tag_125:\n            /* \"Dex.sol\":2739:2747   */\n          sload(0x01)\n            /* \"Dex.sol\":2757:2761   */\n          sload(0x02)\n            /* \"Dex.sol\":2778:2794   */\n          sload(0x0b)\n            /* \"Dex.sol\":2757:2795   */\n          mload(0x40)\n          shl(0xe0, 0x633cd29d)\n          dup2\n          mstore\n          0x04\n          dup2\n          add\n            /* \"#utility.yul\":4922:4947   */\n          swap2\n          swap1\n          swap2\n          mstore\n            /* \"Dex.sol\":2727:2736   */\n          0x00\n          swap3\n          sub(shl(0xa0, 0x01), 0x01)\n            /* \"Dex.sol\":2739:2747   */\n          swap1\n          dup2\n          and\n          swap3\n            /* \"Dex.sol\":2739:2756   */\n          0xa9059cbb\n          swap3\n            /* \"Dex.sol\":2757:2761   */\n          swap2\n          and\n          swap1\n          0x633cd29d\n          swap1\n            /* \"#utility.yul\":4895:4913   */\n          0x24\n          add\n            /* \"Dex.sol\":2757:2795   */\n          0x20\n          mload(0x40)\n          dup1\n          dup4\n          sub\n          dup2\n          dup7\n          dup1\n          extcodesize\n          iszero\n          dup1\n          iszero\n          tag_161\n          jumpi\n          0x00\n          dup1\n          revert\n        tag_161:\n          pop\n          gas\n          staticcall\n          iszero\n          dup1\n          iszero\n          tag_163\n          jumpi\n          returndatasize\n          0x00\n          dup1\n          returndatacopy\n          revert(0x00, returndatasize)\n        tag_163:\n          pop\n          pop\n          pop\n          pop\n          mload(0x40)\n          returndatasize\n          not(0x1f)\n          0x1f\n          dup3\n          add\n          and\n          dup3\n          add\n          dup1\n          0x40\n          mstore\n          pop\n          dup2\n          add\n          swap1\n          tag_164\n          swap2\n          swap1\n          tag_100\n          jump\t// in\n        tag_164:\n            /* \"Dex.sol\":2739:2805   */\n          0x40\n          dup1\n          mload\n          0xe0\n          dup5\n          swap1\n          shl\n          not(sub(shl(0xe0, 0x01), 0x01))\n          and\n          dup2\n          mstore\n          sub(shl(0xa0, 0x01), 0x01)\n            /* \"#utility.yul\":4282:4314   */\n          swap3\n          swap1\n          swap3\n          and\n            /* \"Dex.sol\":2739:2805   */\n          0x04\n          dup4\n          add\n            /* \"#utility.yul\":4264:4315   */\n          mstore\n            /* \"#utility.yul\":4331:4349   */\n          0x24\n          dup3\n          add\n            /* \"#utility.yul\":4324:4358   */\n          dup7\n          swap1\n          mstore\n            /* \"Dex.sol\":2739:2805   */\n          mload\n            /* \"#utility.yul\":4237:4255   */\n          0x44\n          dup1\n          dup4\n          add\n          swap3\n            /* \"Dex.sol\":2739:2805   */\n          0x20\n          swap3\n          swap2\n          swap1\n          dup3\n          swap1\n          sub\n          add\n          dup2\n          0x00\n          dup8\n          dup1\n          extcodesize\n          iszero\n          dup1\n          iszero\n          tag_167\n          jumpi\n          0x00\n          dup1\n          revert\n        tag_167:\n          pop\n          gas\n          call\n          iszero\n          dup1\n          iszero\n          tag_169\n          jumpi\n          returndatasize\n          0x00\n          dup1\n          returndatacopy\n          revert(0x00, returndatasize)\n        tag_169:\n          pop\n          pop\n          pop\n          pop\n          mload(0x40)\n          returndatasize\n          not(0x1f)\n          0x1f\n          dup3\n          add\n          and\n          dup3\n          add\n          dup1\n          0x40\n          mstore\n          pop\n          dup2\n          add\n          swap1\n          tag_170\n          swap2\n          swap1\n          tag_171\n          jump\t// in\n        tag_170:\n            /* \"Dex.sol\":2727:2805   */\n          swap1\n          pop\n            /* \"Dex.sol\":2819:2823   */\n          dup1\n            /* \"Dex.sol\":2816:2916   */\n          iszero\n          tag_172\n          jumpi\n            /* \"Dex.sol\":2839:2843   */\n          sload(0x02)\n            /* \"Dex.sol\":2876:2892   */\n          sload(0x0b)\n            /* \"Dex.sol\":2855:2893   */\n          mload(0x40)\n          shl(0xe0, 0x633cd29d)\n          dup2\n          mstore\n          0x04\n          dup2\n          add\n            /* \"#utility.yul\":4922:4947   */\n          swap2\n          swap1\n          swap2\n          mstore\n          sub(shl(0xa0, 0x01), 0x01)\n            /* \"Dex.sol\":2839:2843   */\n          swap1\n          swap2\n          and\n          swap1\n            /* \"Dex.sol\":2839:2854   */\n          0xe6796aaa\n          swap1\n            /* \"Dex.sol\":2839:2843   */\n          dup3\n          swap1\n          0x633cd29d\n          swap1\n            /* \"#utility.yul\":4895:4913   */\n          0x24\n          add\n            /* \"Dex.sol\":2855:2893   */\n          0x20\n          mload(0x40)\n          dup1\n          dup4\n          sub\n          dup2\n          dup7\n          dup1\n          extcodesize\n          iszero\n          dup1\n          iszero\n          tag_174\n          jumpi\n          0x00\n          dup1\n          revert\n        tag_174:\n          pop\n          gas\n          staticcall\n          iszero\n          dup1\n          iszero\n          tag_176\n          jumpi\n          returndatasize\n          0x00\n          dup1\n          returndatacopy\n          revert(0x00, returndatasize)\n        tag_176:\n          pop\n          pop\n          pop\n          pop\n          mload(0x40)\n          returndatasize\n          not(0x1f)\n          0x1f\n          dup3\n          add\n          and\n          dup3\n          add\n          dup1\n          0x40\n          mstore\n          pop\n          dup2\n          add\n          swap1\n          tag_177\n          swap2\n          swap1\n          tag_100\n          jump\t// in\n        tag_177:\n            /* \"Dex.sol\":2839:2903   */\n          mload(0x40)\n          0xe0\n          dup4\n          swap1\n          shl\n          not(sub(shl(0xe0, 0x01), 0x01))\n          and\n          dup2\n          mstore\n          sub(shl(0xa0, 0x01), 0x01)\n            /* \"#utility.yul\":4282:4314   */\n          swap2\n          swap1\n          swap2\n          and\n            /* \"Dex.sol\":2839:2903   */\n          0x04\n          dup3\n          add\n            /* \"#utility.yul\":4264:4315   */\n          mstore\n            /* \"#utility.yul\":4331:4349   */\n          0x24\n          dup2\n          add\n            /* \"#utility.yul\":4324:4358   */\n          dup6\n          swap1\n          mstore\n            /* \"#utility.yul\":4237:4255   */\n          0x44\n          add\n            /* \"Dex.sol\":2839:2903   */\n        tag_178:\n          0x00\n          mload(0x40)\n          dup1\n          dup4\n          sub\n          dup2\n          0x00\n          dup8\n          dup1\n          extcodesize\n          iszero\n          dup1\n          iszero\n          tag_179\n          jumpi\n          0x00\n          dup1\n          revert\n        tag_179:\n          pop\n          gas\n          call\n          iszero\n          dup1\n          iszero\n          tag_181\n          jumpi\n          returndatasize\n          0x00\n          dup1\n          returndatacopy\n          revert(0x00, returndatasize)\n        tag_181:\n          pop\n          pop\n          pop\n          pop\n            /* \"Dex.sol\":2816:2916   */\n        tag_172:\n            /* \"Dex.sol\":2716:2923   */\n          pop\n            /* \"Dex.sol\":2667:2923   */\n          pop\n          jump\t// out\n            /* \"Dex.sol\":2935:4078   */\n        tag_130:\n            /* \"Dex.sol\":3006:3007   */\n          0x01\n            /* \"Dex.sol\":2992:4067   */\n        tag_183:\n            /* \"Dex.sol\":3012:3028   */\n          sload(0x0b)\n            /* \"Dex.sol\":3009:3010   */\n          dup2\n            /* \"Dex.sol\":3009:3028   */\n          gt\n            /* \"Dex.sol\":2992:4067   */\n          tag_172\n          jumpi\n            /* \"Dex.sol\":3520:3540   */\n          0x00\n            /* \"Dex.sol\":3550:3556   */\n          tag_186\n            /* \"Dex.sol\":3554:3555   */\n          dup3\n            /* \"Dex.sol\":3550:3551   */\n          0x02\n            /* \"Dex.sol\":3550:3556   */\n          tag_187\n          jump\t// in\n        tag_186:\n            /* \"Dex.sol\":3544:3557   */\n          tag_188\n          swap1\n            /* \"Dex.sol\":3544:3548   */\n          dup5\n            /* \"Dex.sol\":3544:3557   */\n          tag_116\n          jump\t// in\n        tag_188:\n            /* \"Dex.sol\":3520:3558   */\n          swap1\n          pop\n            /* \"Dex.sol\":3585:3601   */\n          sload(0x0b)\n            /* \"Dex.sol\":3580:3581   */\n          dup3\n            /* \"Dex.sol\":3580:3601   */\n          eq\n            /* \"Dex.sol\":3577:3673   */\n          iszero\n          tag_189\n          jumpi\n            /* \"Dex.sol\":3625:3653   */\n          tag_190\n            /* \"Dex.sol\":3641:3653   */\n          dup2\n          dup1\n            /* \"Dex.sol\":3625:3653   */\n          tag_118\n          jump\t// in\n        tag_190:\n          swap1\n          pop\n            /* \"Dex.sol\":3577:3673   */\n        tag_189:\n            /* \"Dex.sol\":3794:3809   */\n          dup1\n          iszero\n            /* \"Dex.sol\":3791:4052   */\n          tag_191\n          jumpi\n            /* \"Dex.sol\":3845:3853   */\n          sload(0x01)\n            /* \"Dex.sol\":3863:3867   */\n          sload(0x02)\n            /* \"Dex.sol\":3863:3886   */\n          mload(0x40)\n          shl(0xe0, 0x633cd29d)\n          dup2\n          mstore\n          0x04\n          dup2\n          add\n            /* \"#utility.yul\":4922:4947   */\n          dup6\n          swap1\n          mstore\n            /* \"Dex.sol\":3833:3842   */\n          0x00\n          swap3\n          0x01\n          dup1\n          0xa0\n          shl\n          sub\n            /* \"Dex.sol\":3845:3853   */\n          swap1\n          dup2\n          and\n          swap3\n            /* \"Dex.sol\":3845:3862   */\n          0xa9059cbb\n          swap3\n            /* \"Dex.sol\":3863:3867   */\n          swap2\n          and\n          swap1\n            /* \"Dex.sol\":3863:3883   */\n          0x633cd29d\n          swap1\n            /* \"#utility.yul\":4895:4913   */\n          0x24\n          add\n            /* \"Dex.sol\":3863:3886   */\n          0x20\n          mload(0x40)\n          dup1\n          dup4\n          sub\n          dup2\n          dup7\n          dup1\n          extcodesize\n          iszero\n          dup1\n          iszero\n          tag_193\n          jumpi\n          0x00\n          dup1\n          revert\n        tag_193:\n          pop\n          gas\n          staticcall\n          iszero\n          dup1\n          iszero\n          tag_195\n          jumpi\n          returndatasize\n          0x00\n          dup1\n          returndatacopy\n          revert(0x00, returndatasize)\n        tag_195:\n          pop\n          pop\n          pop\n          pop\n          mload(0x40)\n          returndatasize\n          not(0x1f)\n          0x1f\n          dup3\n          add\n          and\n          dup3\n          add\n          dup1\n          0x40\n          mstore\n          pop\n          dup2\n          add\n          swap1\n          tag_196\n          swap2\n          swap1\n          tag_100\n          jump\t// in\n        tag_196:\n            /* \"Dex.sol\":3845:3901   */\n          0x40\n          dup1\n          mload\n          0xe0\n          dup5\n          swap1\n          shl\n          not(sub(shl(0xe0, 0x01), 0x01))\n          and\n          dup2\n          mstore\n          sub(shl(0xa0, 0x01), 0x01)\n            /* \"#utility.yul\":4282:4314   */\n          swap3\n          swap1\n          swap3\n          and\n            /* \"Dex.sol\":3845:3901   */\n          0x04\n          dup4\n          add\n            /* \"#utility.yul\":4264:4315   */\n          mstore\n            /* \"#utility.yul\":4331:4349   */\n          0x24\n          dup3\n          add\n            /* \"#utility.yul\":4324:4358   */\n          dup7\n          swap1\n          mstore\n            /* \"Dex.sol\":3845:3901   */\n          mload\n            /* \"#utility.yul\":4237:4255   */\n          0x44\n          dup1\n          dup4\n          add\n          swap3\n            /* \"Dex.sol\":3845:3901   */\n          0x20\n          swap3\n          swap2\n          swap1\n          dup3\n          swap1\n          sub\n          add\n          dup2\n          0x00\n          dup8\n          dup1\n          extcodesize\n          iszero\n          dup1\n          iszero\n          tag_198\n          jumpi\n          0x00\n          dup1\n          revert\n        tag_198:\n          pop\n          gas\n          call\n          iszero\n          dup1\n          iszero\n          tag_200\n          jumpi\n          returndatasize\n          0x00\n          dup1\n          returndatacopy\n          revert(0x00, returndatasize)\n        tag_200:\n          pop\n          pop\n          pop\n          pop\n          mload(0x40)\n          returndatasize\n          not(0x1f)\n          0x1f\n          dup3\n          add\n          and\n          dup3\n          add\n          dup1\n          0x40\n          mstore\n          pop\n          dup2\n          add\n          swap1\n          tag_201\n          swap2\n          swap1\n          tag_171\n          jump\t// in\n        tag_201:\n            /* \"Dex.sol\":3833:3901   */\n          swap1\n          pop\n            /* \"Dex.sol\":3927:3931   */\n          dup1\n            /* \"Dex.sol\":3924:4033   */\n          iszero\n          tag_202\n          jumpi\n            /* \"Dex.sol\":3955:3959   */\n          sload(0x02)\n            /* \"Dex.sol\":3971:3994   */\n          mload(0x40)\n          shl(0xe0, 0x633cd29d)\n          dup2\n          mstore\n          0x04\n          dup2\n          add\n            /* \"#utility.yul\":4922:4947   */\n          dup6\n          swap1\n          mstore\n          0x01\n          dup1\n          0xa0\n          shl\n          sub\n            /* \"Dex.sol\":3955:3959   */\n          swap1\n          swap2\n          and\n          swap1\n            /* \"Dex.sol\":3955:3970   */\n          0xe6796aaa\n          swap1\n            /* \"Dex.sol\":3955:3959   */\n          dup3\n          swap1\n            /* \"Dex.sol\":3971:3991   */\n          0x633cd29d\n          swap1\n            /* \"#utility.yul\":4895:4913   */\n          0x24\n          add\n            /* \"Dex.sol\":3971:3994   */\n          0x20\n          mload(0x40)\n          dup1\n          dup4\n          sub\n          dup2\n          dup7\n          dup1\n          extcodesize\n          iszero\n          dup1\n          iszero\n          tag_204\n          jumpi\n          0x00\n          dup1\n          revert\n        tag_204:\n          pop\n          gas\n          staticcall\n          iszero\n          dup1\n          iszero\n          tag_206\n          jumpi\n          returndatasize\n          0x00\n          dup1\n          returndatacopy\n          revert(0x00, returndatasize)\n        tag_206:\n          pop\n          pop\n          pop\n          pop\n          mload(0x40)\n          returndatasize\n          not(0x1f)\n          0x1f\n          dup3\n          add\n          and\n          dup3\n          add\n          dup1\n          0x40\n          mstore\n          pop\n          dup2\n          add\n          swap1\n          tag_207\n          swap2\n          swap1\n          tag_100\n          jump\t// in\n        tag_207:\n            /* \"Dex.sol\":3955:4009   */\n          0x40\n          dup1\n          mload\n          0xe0\n          dup5\n          swap1\n          shl\n          not(sub(shl(0xe0, 0x01), 0x01))\n          and\n          dup2\n          mstore\n          sub(shl(0xa0, 0x01), 0x01)\n            /* \"#utility.yul\":4282:4314   */\n          swap3\n          swap1\n          swap3\n          and\n            /* \"Dex.sol\":3955:4009   */\n          0x04\n          dup4\n          add\n            /* \"#utility.yul\":4264:4315   */\n          mstore\n            /* \"#utility.yul\":4331:4349   */\n          0x24\n          dup3\n          add\n            /* \"#utility.yul\":4324:4358   */\n          dup7\n          swap1\n          mstore\n            /* \"Dex.sol\":3955:4009   */\n          mload\n            /* \"#utility.yul\":4237:4255   */\n          0x44\n          dup1\n          dup4\n          add\n          swap3\n          0x00\n          swap3\n            /* \"Dex.sol\":3955:4009   */\n          swap2\n          swap1\n          dup3\n          swap1\n          sub\n          add\n          dup2\n          dup4\n          dup8\n          dup1\n          extcodesize\n          iszero\n          dup1\n          iszero\n          tag_209\n          jumpi\n          0x00\n          dup1\n          revert\n        tag_209:\n          pop\n          gas\n          call\n          iszero\n          dup1\n          iszero\n          tag_211\n          jumpi\n          returndatasize\n          0x00\n          dup1\n          returndatacopy\n          revert(0x00, returndatasize)\n        tag_211:\n          pop\n          pop\n          pop\n          pop\n            /* \"Dex.sol\":3924:4033   */\n        tag_202:\n            /* \"Dex.sol\":3810:4052   */\n          pop\n            /* \"Dex.sol\":3791:4052   */\n        tag_191:\n          pop\n            /* \"Dex.sol\":3030:3033   */\n          dup1\n          tag_212\n          dup2\n          tag_213\n          jump\t// in\n        tag_212:\n          swap2\n          pop\n          pop\n            /* \"Dex.sol\":2992:4067   */\n          jump(tag_183)\n            /* \"Dex.sol\":4090:4382   */\n        tag_132:\n            /* \"Dex.sol\":4171:4179   */\n          sload(0x01)\n            /* \"Dex.sol\":4171:4243   */\n          mload(0x40)\n          shl(0xe0, 0xa9059cbb)\n          dup2\n          mstore\n            /* \"Dex.sol\":4189:4231   */\n          0x2d48a3957c7246f5630a2cff2fcbdf737e0177b4\n            /* \"Dex.sol\":4171:4243   */\n          0x04\n          dup3\n          add\n            /* \"#utility.yul\":4264:4315   */\n          mstore\n            /* \"#utility.yul\":4331:4349   */\n          0x24\n          dup2\n          add\n            /* \"#utility.yul\":4324:4358   */\n          dup4\n          swap1\n          mstore\n            /* \"Dex.sol\":4159:4168   */\n          0x00\n          swap2\n          0x01\n          dup1\n          0xa0\n          shl\n          sub\n            /* \"Dex.sol\":4171:4179   */\n          and\n          swap1\n            /* \"Dex.sol\":4171:4188   */\n          0xa9059cbb\n          swap1\n            /* \"#utility.yul\":4237:4255   */\n          0x44\n          add\n            /* \"Dex.sol\":4171:4243   */\n          0x20\n          mload(0x40)\n          dup1\n          dup4\n          sub\n          dup2\n          0x00\n          dup8\n          dup1\n          extcodesize\n          iszero\n          dup1\n          iszero\n          tag_216\n          jumpi\n          0x00\n          dup1\n          revert\n        tag_216:\n          pop\n          gas\n          call\n          iszero\n          dup1\n          iszero\n          tag_218\n          jumpi\n          returndatasize\n          0x00\n          dup1\n          returndatacopy\n          revert(0x00, returndatasize)\n        tag_218:\n          pop\n          pop\n          pop\n          pop\n          mload(0x40)\n          returndatasize\n          not(0x1f)\n          0x1f\n          dup3\n          add\n          and\n          dup3\n          add\n          dup1\n          0x40\n          mstore\n          pop\n          dup2\n          add\n          swap1\n          tag_219\n          swap2\n          swap1\n          tag_171\n          jump\t// in\n        tag_219:\n            /* \"Dex.sol\":4159:4243   */\n          swap1\n          pop\n            /* \"Dex.sol\":4261:4265   */\n          dup1\n            /* \"Dex.sol\":4258:4371   */\n          iszero\n          tag_172\n          jumpi\n            /* \"Dex.sol\":4285:4289   */\n          sload(0x02)\n            /* \"Dex.sol\":4285:4355   */\n          mload(0x40)\n          shl(0xe1, 0x733cb555)\n          dup2\n          mstore\n            /* \"Dex.sol\":4301:4343   */\n          0x2d48a3957c7246f5630a2cff2fcbdf737e0177b4\n            /* \"Dex.sol\":4285:4355   */\n          0x04\n          dup3\n          add\n            /* \"#utility.yul\":4264:4315   */\n          mstore\n            /* \"#utility.yul\":4331:4349   */\n          0x24\n          dup2\n          add\n            /* \"#utility.yul\":4324:4358   */\n          dup5\n          swap1\n          mstore\n          sub(shl(0xa0, 0x01), 0x01)\n            /* \"Dex.sol\":4285:4289   */\n          swap1\n          swap2\n          and\n          swap1\n            /* \"Dex.sol\":4285:4300   */\n          0xe6796aaa\n          swap1\n            /* \"#utility.yul\":4237:4255   */\n          0x44\n          add\n            /* \"Dex.sol\":4285:4355   */\n          tag_178\n            /* \"#utility.yul\":4219:4364   */\n          jump\n            /* \"Dex.sol\":2427:2659   */\n        tag_153:\n            /* \"Dex.sol\":2509:2525   */\n          0x0b\n            /* \"Dex.sol\":2509:2527   */\n          dup1\n          sload\n          swap1\n            /* \"Dex.sol\":2509:2525   */\n          0x00\n            /* \"Dex.sol\":2509:2527   */\n          tag_226\n          dup4\n          tag_213\n          jump\t// in\n        tag_226:\n          swap1\n          swap2\n          sstore\n          pop\n          pop\n            /* \"Dex.sol\":2563:2579   */\n          sload(0x0b)\n            /* \"Dex.sol\":2581:2593   */\n          sload(0x0c)\n            /* \"Dex.sol\":2543:2603   */\n          mload(0x40)\n          sub(shl(0xa0, 0x01), 0x01)\n          dup6\n          and\n          swap3\n          0x6ceed9d5957b9e77f5d93d6312a4c8e5f63ef6f75cb9812f486b76336982b75d\n          swap3\n          tag_227\n          swap3\n            /* \"Dex.sol\":2595:2602   */\n          dup7\n          swap1\n            /* \"Dex.sol\":2543:2603   */\n          tag_228\n          jump\t// in\n        tag_227:\n          mload(0x40)\n          dup1\n          swap2\n          sub\n          swap1\n          log2\n            /* \"Dex.sol\":2614:2618   */\n          sload(0x02)\n            /* \"Dex.sol\":2614:2651   */\n          mload(0x40)\n          shl(0xe1, 0x0f62f713)\n          dup2\n          mstore\n          sub(shl(0xa0, 0x01), 0x01)\n            /* \"Dex.sol\":2614:2618   */\n          swap1\n          swap2\n          and\n          swap1\n            /* \"Dex.sol\":2614:2630   */\n          0x1ec5ee26\n          swap1\n            /* \"Dex.sol\":2614:2651   */\n          tag_178\n          swap1\n            /* \"Dex.sol\":2631:2641   */\n          caller\n          swap1\n            /* \"Dex.sol\":2643:2650   */\n          dup6\n          swap1\n            /* \"Dex.sol\":2614:2651   */\n          0x04\n          add\n          tag_230\n          jump\t// in\n            /* \"Dex.sol\":2199:2332   */\n        tag_156:\n            /* \"Dex.sol\":2262:2271   */\n          0x04\n            /* \"Dex.sol\":2262:2286   */\n          dup2\n          swap1\n          sstore\n            /* \"Dex.sol\":2302:2324   */\n          mload(0x40)\n            /* \"#utility.yul\":4922:4947   */\n          dup2\n          dup2\n          mstore\n            /* \"Dex.sol\":2302:2324   */\n          0x41f916eb2a7065889bf3a2125806adaa5ca5a1c9be36f179340901abbf666d23\n          swap1\n            /* \"#utility.yul\":4910:4912   */\n          0x20\n            /* \"#utility.yul\":4895:4913   */\n          add\n            /* \"Dex.sol\":2302:2324   */\n          mload(0x40)\n          dup1\n          swap2\n          sub\n          swap1\n          log1\n            /* \"Dex.sol\":2199:2332   */\n          pop\n          jump\t// out\n            /* \"#utility.yul\":14:645   */\n        tag_237:\n            /* \"#utility.yul\":78:83   */\n          0x00\n            /* \"#utility.yul\":108:126   */\n          0xffffffffffffffff\n            /* \"#utility.yul\":149:151   */\n          dup1\n            /* \"#utility.yul\":141:147   */\n          dup5\n            /* \"#utility.yul\":138:152   */\n          gt\n            /* \"#utility.yul\":135:137   */\n          iszero\n          tag_240\n          jumpi\n            /* \"#utility.yul\":155:173   */\n          tag_240\n          tag_241\n          jump\t// in\n        tag_240:\n            /* \"#utility.yul\":230:232   */\n          0x40\n            /* \"#utility.yul\":224:233   */\n          mload\n            /* \"#utility.yul\":198:200   */\n          0x1f\n            /* \"#utility.yul\":284:299   */\n          dup6\n          add\n          not(0x1f)\n            /* \"#utility.yul\":280:304   */\n          swap1\n          dup2\n          and\n            /* \"#utility.yul\":306:308   */\n          0x3f\n            /* \"#utility.yul\":276:309   */\n          add\n            /* \"#utility.yul\":272:314   */\n          and\n            /* \"#utility.yul\":260:315   */\n          dup2\n          add\n          swap1\n            /* \"#utility.yul\":330:348   */\n          dup3\n          dup3\n          gt\n            /* \"#utility.yul\":350:372   */\n          dup2\n          dup4\n          lt\n            /* \"#utility.yul\":327:373   */\n          or\n            /* \"#utility.yul\":324:326   */\n          iszero\n          tag_243\n          jumpi\n            /* \"#utility.yul\":376:394   */\n          tag_243\n          tag_241\n          jump\t// in\n        tag_243:\n            /* \"#utility.yul\":416:426   */\n          dup2\n            /* \"#utility.yul\":412:414   */\n          0x40\n            /* \"#utility.yul\":405:427   */\n          mstore\n            /* \"#utility.yul\":445:451   */\n          dup1\n            /* \"#utility.yul\":436:451   */\n          swap4\n          pop\n            /* \"#utility.yul\":475:481   */\n          dup6\n            /* \"#utility.yul\":467:473   */\n          dup2\n            /* \"#utility.yul\":460:482   */\n          mstore\n            /* \"#utility.yul\":515:518   */\n          dup7\n            /* \"#utility.yul\":506:512   */\n          dup7\n            /* \"#utility.yul\":501:504   */\n          dup7\n            /* \"#utility.yul\":497:513   */\n          add\n            /* \"#utility.yul\":494:519   */\n          gt\n            /* \"#utility.yul\":491:493   */\n          iszero\n          tag_244\n          jumpi\n            /* \"#utility.yul\":532:533   */\n          0x00\n            /* \"#utility.yul\":529:530   */\n          dup1\n            /* \"#utility.yul\":522:534   */\n          revert\n            /* \"#utility.yul\":491:493   */\n        tag_244:\n            /* \"#utility.yul\":582:588   */\n          dup6\n            /* \"#utility.yul\":577:580   */\n          dup6\n            /* \"#utility.yul\":570:574   */\n          0x20\n            /* \"#utility.yul\":562:568   */\n          dup4\n            /* \"#utility.yul\":558:575   */\n          add\n            /* \"#utility.yul\":545:589   */\n          calldatacopy\n            /* \"#utility.yul\":637:638   */\n          0x00\n            /* \"#utility.yul\":630:634   */\n          0x20\n            /* \"#utility.yul\":621:627   */\n          dup8\n            /* \"#utility.yul\":613:619   */\n          dup4\n            /* \"#utility.yul\":609:628   */\n          add\n            /* \"#utility.yul\":605:635   */\n          add\n            /* \"#utility.yul\":598:639   */\n          mstore\n          pop\n          pop\n          pop\n            /* \"#utility.yul\":88:645   */\n          swap4\n          swap3\n          pop\n          pop\n          pop\n          jump\t// out\n            /* \"#utility.yul\":650:901   */\n        tag_100:\n            /* \"#utility.yul\":720:726   */\n          0x00\n            /* \"#utility.yul\":773:775   */\n          0x20\n            /* \"#utility.yul\":761:770   */\n          dup3\n            /* \"#utility.yul\":752:759   */\n          dup5\n            /* \"#utility.yul\":748:771   */\n          sub\n            /* \"#utility.yul\":744:776   */\n          slt\n            /* \"#utility.yul\":741:743   */\n          iszero\n          tag_246\n          jumpi\n            /* \"#utility.yul\":789:790   */\n          0x00\n            /* \"#utility.yul\":786:787   */\n          dup1\n            /* \"#utility.yul\":779:791   */\n          revert\n            /* \"#utility.yul\":741:743   */\n        tag_246:\n            /* \"#utility.yul\":821:830   */\n          dup2\n            /* \"#utility.yul\":815:831   */\n          mload\n            /* \"#utility.yul\":840:871   */\n          tag_247\n            /* \"#utility.yul\":865:870   */\n          dup2\n            /* \"#utility.yul\":840:871   */\n          tag_248\n          jump\t// in\n        tag_247:\n            /* \"#utility.yul\":890:895   */\n          swap4\n            /* \"#utility.yul\":731:901   */\n          swap3\n          pop\n          pop\n          pop\n          jump\t// out\n            /* \"#utility.yul\":906:1700   */\n        tag_22:\n            /* \"#utility.yul\":1001:1007   */\n          0x00\n            /* \"#utility.yul\":1009:1015   */\n          dup1\n            /* \"#utility.yul\":1017:1023   */\n          0x00\n            /* \"#utility.yul\":1025:1031   */\n          dup1\n            /* \"#utility.yul\":1078:1081   */\n          0x80\n            /* \"#utility.yul\":1066:1075   */\n          dup6\n            /* \"#utility.yul\":1057:1064   */\n          dup8\n            /* \"#utility.yul\":1053:1076   */\n          sub\n            /* \"#utility.yul\":1049:1082   */\n          slt\n            /* \"#utility.yul\":1046:1048   */\n          iszero\n          tag_250\n          jumpi\n            /* \"#utility.yul\":1095:1096   */\n          0x00\n            /* \"#utility.yul\":1092:1093   */\n          dup1\n            /* \"#utility.yul\":1085:1097   */\n          revert\n            /* \"#utility.yul\":1046:1048   */\n        tag_250:\n            /* \"#utility.yul\":1134:1143   */\n          dup5\n            /* \"#utility.yul\":1121:1144   */\n          calldataload\n            /* \"#utility.yul\":1153:1184   */\n          tag_251\n            /* \"#utility.yul\":1178:1183   */\n          dup2\n            /* \"#utility.yul\":1153:1184   */\n          tag_248\n          jump\t// in\n        tag_251:\n            /* \"#utility.yul\":1203:1208   */\n          swap4\n          pop\n            /* \"#utility.yul\":1260:1262   */\n          0x20\n            /* \"#utility.yul\":1245:1263   */\n          dup6\n          add\n            /* \"#utility.yul\":1232:1264   */\n          calldataload\n            /* \"#utility.yul\":1273:1306   */\n          tag_252\n            /* \"#utility.yul\":1232:1264   */\n          dup2\n            /* \"#utility.yul\":1273:1306   */\n          tag_248\n          jump\t// in\n        tag_252:\n            /* \"#utility.yul\":1325:1332   */\n          swap3\n          pop\n            /* \"#utility.yul\":1379:1381   */\n          0x40\n            /* \"#utility.yul\":1364:1382   */\n          dup6\n          add\n            /* \"#utility.yul\":1351:1383   */\n          calldataload\n          swap2\n          pop\n            /* \"#utility.yul\":1434:1436   */\n          0x60\n            /* \"#utility.yul\":1419:1437   */\n          dup6\n          add\n            /* \"#utility.yul\":1406:1438   */\n          calldataload\n            /* \"#utility.yul\":1461:1479   */\n          0xffffffffffffffff\n            /* \"#utility.yul\":1450:1480   */\n          dup2\n          gt\n            /* \"#utility.yul\":1447:1449   */\n          iszero\n          tag_253\n          jumpi\n            /* \"#utility.yul\":1493:1494   */\n          0x00\n            /* \"#utility.yul\":1490:1491   */\n          dup1\n            /* \"#utility.yul\":1483:1495   */\n          revert\n            /* \"#utility.yul\":1447:1449   */\n        tag_253:\n            /* \"#utility.yul\":1516:1538   */\n          dup6\n          add\n            /* \"#utility.yul\":1569:1573   */\n          0x1f\n            /* \"#utility.yul\":1561:1574   */\n          dup2\n          add\n            /* \"#utility.yul\":1557:1584   */\n          dup8\n          sgt\n            /* \"#utility.yul\":1547:1549   */\n          tag_254\n          jumpi\n            /* \"#utility.yul\":1598:1599   */\n          0x00\n            /* \"#utility.yul\":1595:1596   */\n          dup1\n            /* \"#utility.yul\":1588:1600   */\n          revert\n            /* \"#utility.yul\":1547:1549   */\n        tag_254:\n            /* \"#utility.yul\":1621:1694   */\n          tag_255\n            /* \"#utility.yul\":1686:1693   */\n          dup8\n            /* \"#utility.yul\":1681:1683   */\n          dup3\n            /* \"#utility.yul\":1668:1684   */\n          calldataload\n            /* \"#utility.yul\":1663:1665   */\n          0x20\n            /* \"#utility.yul\":1659:1661   */\n          dup5\n            /* \"#utility.yul\":1655:1666   */\n          add\n            /* \"#utility.yul\":1621:1694   */\n          tag_237\n          jump\t// in\n        tag_255:\n            /* \"#utility.yul\":1611:1694   */\n          swap2\n          pop\n          pop\n            /* \"#utility.yul\":1036:1700   */\n          swap3\n          swap6\n          swap2\n          swap5\n          pop\n          swap3\n          pop\n          jump\t// out\n            /* \"#utility.yul\":1705:1982   */\n        tag_171:\n            /* \"#utility.yul\":1772:1778   */\n          0x00\n            /* \"#utility.yul\":1825:1827   */\n          0x20\n            /* \"#utility.yul\":1813:1822   */\n          dup3\n            /* \"#utility.yul\":1804:1811   */\n          dup5\n            /* \"#utility.yul\":1800:1823   */\n          sub\n            /* \"#utility.yul\":1796:1828   */\n          slt\n            /* \"#utility.yul\":1793:1795   */\n          iszero\n          tag_257\n          jumpi\n            /* \"#utility.yul\":1841:1842   */\n          0x00\n            /* \"#utility.yul\":1838:1839   */\n          dup1\n            /* \"#utility.yul\":1831:1843   */\n          revert\n            /* \"#utility.yul\":1793:1795   */\n        tag_257:\n            /* \"#utility.yul\":1873:1882   */\n          dup2\n            /* \"#utility.yul\":1867:1883   */\n          mload\n            /* \"#utility.yul\":1926:1931   */\n          dup1\n            /* \"#utility.yul\":1919:1932   */\n          iszero\n            /* \"#utility.yul\":1912:1933   */\n          iszero\n            /* \"#utility.yul\":1905:1910   */\n          dup2\n            /* \"#utility.yul\":1902:1934   */\n          eq\n            /* \"#utility.yul\":1892:1894   */\n          tag_247\n          jumpi\n            /* \"#utility.yul\":1948:1949   */\n          0x00\n            /* \"#utility.yul\":1945:1946   */\n          dup1\n            /* \"#utility.yul\":1938:1950   */\n          revert\n            /* \"#utility.yul\":1987:2509   */\n        tag_68:\n            /* \"#utility.yul\":2065:2071   */\n          0x00\n            /* \"#utility.yul\":2073:2079   */\n          dup1\n            /* \"#utility.yul\":2126:2128   */\n          0x40\n            /* \"#utility.yul\":2114:2123   */\n          dup4\n            /* \"#utility.yul\":2105:2112   */\n          dup6\n            /* \"#utility.yul\":2101:2124   */\n          sub\n            /* \"#utility.yul\":2097:2129   */\n          slt\n            /* \"#utility.yul\":2094:2096   */\n          iszero\n          tag_260\n          jumpi\n            /* \"#utility.yul\":2142:2143   */\n          0x00\n            /* \"#utility.yul\":2139:2140   */\n          dup1\n            /* \"#utility.yul\":2132:2144   */\n          revert\n            /* \"#utility.yul\":2094:2096   */\n        tag_260:\n            /* \"#utility.yul\":2182:2191   */\n          dup3\n            /* \"#utility.yul\":2169:2192   */\n          calldataload\n            /* \"#utility.yul\":2215:2233   */\n          0xffffffffffffffff\n            /* \"#utility.yul\":2207:2213   */\n          dup2\n            /* \"#utility.yul\":2204:2234   */\n          gt\n            /* \"#utility.yul\":2201:2203   */\n          iszero\n          tag_261\n          jumpi\n            /* \"#utility.yul\":2247:2248   */\n          0x00\n            /* \"#utility.yul\":2244:2245   */\n          dup1\n            /* \"#utility.yul\":2237:2249   */\n          revert\n            /* \"#utility.yul\":2201:2203   */\n        tag_261:\n            /* \"#utility.yul\":2270:2292   */\n          dup4\n          add\n            /* \"#utility.yul\":2323:2327   */\n          0x1f\n            /* \"#utility.yul\":2315:2328   */\n          dup2\n          add\n            /* \"#utility.yul\":2311:2338   */\n          dup6\n          sgt\n            /* \"#utility.yul\":2301:2303   */\n          tag_262\n          jumpi\n            /* \"#utility.yul\":2352:2353   */\n          0x00\n            /* \"#utility.yul\":2349:2350   */\n          dup1\n            /* \"#utility.yul\":2342:2354   */\n          revert\n            /* \"#utility.yul\":2301:2303   */\n        tag_262:\n            /* \"#utility.yul\":2375:2450   */\n          tag_263\n            /* \"#utility.yul\":2442:2449   */\n          dup6\n            /* \"#utility.yul\":2437:2439   */\n          dup3\n            /* \"#utility.yul\":2424:2440   */\n          calldataload\n            /* \"#utility.yul\":2417:2421   */\n          0x20\n            /* \"#utility.yul\":2413:2415   */\n          dup5\n            /* \"#utility.yul\":2409:2422   */\n          add\n            /* \"#utility.yul\":2375:2450   */\n          tag_237\n          jump\t// in\n        tag_263:\n            /* \"#utility.yul\":2365:2450   */\n          swap6\n            /* \"#utility.yul\":2497:2501   */\n          0x20\n            /* \"#utility.yul\":2482:2502   */\n          swap5\n          swap1\n          swap5\n          add\n            /* \"#utility.yul\":2469:2503   */\n          calldataload\n          swap5\n          pop\n          pop\n          pop\n          pop\n            /* \"#utility.yul\":2084:2509   */\n          jump\t// out\n            /* \"#utility.yul\":2514:2698   */\n        tag_137:\n            /* \"#utility.yul\":2584:2590   */\n          0x00\n            /* \"#utility.yul\":2637:2639   */\n          0x20\n            /* \"#utility.yul\":2625:2634   */\n          dup3\n            /* \"#utility.yul\":2616:2623   */\n          dup5\n            /* \"#utility.yul\":2612:2635   */\n          sub\n            /* \"#utility.yul\":2608:2640   */\n          slt\n            /* \"#utility.yul\":2605:2607   */\n          iszero\n          tag_265\n          jumpi\n            /* \"#utility.yul\":2653:2654   */\n          0x00\n            /* \"#utility.yul\":2650:2651   */\n          dup1\n            /* \"#utility.yul\":2643:2655   */\n          revert\n            /* \"#utility.yul\":2605:2607   */\n        tag_265:\n          pop\n            /* \"#utility.yul\":2676:2692   */\n          mload\n          swap2\n            /* \"#utility.yul\":2595:2698   */\n          swap1\n          pop\n          jump\t// out\n            /* \"#utility.yul\":2703:3175   */\n        tag_266:\n            /* \"#utility.yul\":2745:2748   */\n          0x00\n            /* \"#utility.yul\":2783:2788   */\n          dup2\n            /* \"#utility.yul\":2777:2789   */\n          mload\n            /* \"#utility.yul\":2810:2816   */\n          dup1\n            /* \"#utility.yul\":2805:2808   */\n          dup5\n            /* \"#utility.yul\":2798:2817   */\n          mstore\n            /* \"#utility.yul\":2835:2836   */\n          0x00\n            /* \"#utility.yul\":2845:3007   */\n        tag_268:\n            /* \"#utility.yul\":2859:2865   */\n          dup2\n            /* \"#utility.yul\":2856:2857   */\n          dup2\n            /* \"#utility.yul\":2853:2866   */\n          lt\n            /* \"#utility.yul\":2845:3007   */\n          iszero\n          tag_270\n          jumpi\n            /* \"#utility.yul\":2921:2925   */\n          0x20\n            /* \"#utility.yul\":2977:2990   */\n          dup2\n          dup6\n          add\n            /* \"#utility.yul\":2973:2995   */\n          dup2\n          add\n            /* \"#utility.yul\":2967:2996   */\n          mload\n            /* \"#utility.yul\":2949:2960   */\n          dup7\n          dup4\n          add\n            /* \"#utility.yul\":2945:2965   */\n          dup3\n          add\n            /* \"#utility.yul\":2938:2997   */\n          mstore\n            /* \"#utility.yul\":2874:2886   */\n          add\n            /* \"#utility.yul\":2845:3007   */\n          jump(tag_268)\n        tag_270:\n            /* \"#utility.yul\":3025:3031   */\n          dup2\n            /* \"#utility.yul\":3022:3023   */\n          dup2\n            /* \"#utility.yul\":3019:3032   */\n          gt\n            /* \"#utility.yul\":3016:3018   */\n          iszero\n          tag_271\n          jumpi\n            /* \"#utility.yul\":3091:3092   */\n          0x00\n            /* \"#utility.yul\":3084:3088   */\n          0x20\n            /* \"#utility.yul\":3075:3081   */\n          dup4\n            /* \"#utility.yul\":3070:3073   */\n          dup8\n            /* \"#utility.yul\":3066:3082   */\n          add\n            /* \"#utility.yul\":3062:3089   */\n          add\n            /* \"#utility.yul\":3055:3093   */\n          mstore\n            /* \"#utility.yul\":3016:3018   */\n        tag_271:\n          pop\n            /* \"#utility.yul\":3157:3159   */\n          0x1f\n            /* \"#utility.yul\":3136:3151   */\n          add\n          not(0x1f)\n            /* \"#utility.yul\":3132:3161   */\n          and\n            /* \"#utility.yul\":3123:3162   */\n          swap3\n          swap1\n          swap3\n          add\n            /* \"#utility.yul\":3164:3168   */\n          0x20\n            /* \"#utility.yul\":3119:3169   */\n          add\n          swap3\n            /* \"#utility.yul\":2753:3175   */\n          swap2\n          pop\n          pop\n          jump\t// out\n            /* \"#utility.yul\":3768:4085   */\n        tag_230:\n          sub(shl(0xa0, 0x01), 0x01)\n            /* \"#utility.yul\":3945:3977   */\n          dup4\n          and\n            /* \"#utility.yul\":3927:3978   */\n          dup2\n          mstore\n            /* \"#utility.yul\":4014:4016   */\n          0x40\n            /* \"#utility.yul\":4009:4011   */\n          0x20\n            /* \"#utility.yul\":3994:4012   */\n          dup3\n          add\n            /* \"#utility.yul\":3987:4017   */\n          dup2\n          swap1\n          mstore\n          0x00\n          swap1\n            /* \"#utility.yul\":4034:4079   */\n          tag_275\n          swap1\n            /* \"#utility.yul\":4060:4078   */\n          dup4\n          add\n            /* \"#utility.yul\":4052:4058   */\n          dup5\n            /* \"#utility.yul\":4034:4079   */\n          tag_266\n          jump\t// in\n        tag_275:\n            /* \"#utility.yul\":4026:4079   */\n          swap5\n            /* \"#utility.yul\":3917:4085   */\n          swap4\n          pop\n          pop\n          pop\n          pop\n          jump\t// out\n            /* \"#utility.yul\":6500:6862   */\n        tag_228:\n            /* \"#utility.yul\":6705:6711   */\n          dup4\n            /* \"#utility.yul\":6694:6703   */\n          dup2\n            /* \"#utility.yul\":6687:6712   */\n          mstore\n            /* \"#utility.yul\":6748:6754   */\n          dup3\n            /* \"#utility.yul\":6743:6745   */\n          0x20\n            /* \"#utility.yul\":6732:6741   */\n          dup3\n            /* \"#utility.yul\":6728:6746   */\n          add\n            /* \"#utility.yul\":6721:6755   */\n          mstore\n            /* \"#utility.yul\":6791:6793   */\n          0x60\n            /* \"#utility.yul\":6786:6788   */\n          0x40\n            /* \"#utility.yul\":6775:6784   */\n          dup3\n            /* \"#utility.yul\":6771:6789   */\n          add\n            /* \"#utility.yul\":6764:6794   */\n          mstore\n            /* \"#utility.yul\":6668:6672   */\n          0x00\n            /* \"#utility.yul\":6811:6856   */\n          tag_286\n            /* \"#utility.yul\":6852:6854   */\n          0x60\n            /* \"#utility.yul\":6841:6850   */\n          dup4\n            /* \"#utility.yul\":6837:6855   */\n          add\n            /* \"#utility.yul\":6829:6835   */\n          dup5\n            /* \"#utility.yul\":6811:6856   */\n          tag_266\n          jump\t// in\n        tag_286:\n            /* \"#utility.yul\":6803:6856   */\n          swap6\n            /* \"#utility.yul\":6677:6862   */\n          swap5\n          pop\n          pop\n          pop\n          pop\n          pop\n          jump\t// out\n            /* \"#utility.yul\":6867:6995   */\n        tag_118:\n            /* \"#utility.yul\":6907:6910   */\n          0x00\n            /* \"#utility.yul\":6938:6939   */\n          dup3\n            /* \"#utility.yul\":6934:6940   */\n          not\n            /* \"#utility.yul\":6931:6932   */\n          dup3\n            /* \"#utility.yul\":6928:6941   */\n          gt\n            /* \"#utility.yul\":6925:6927   */\n          iszero\n          tag_289\n          jumpi\n            /* \"#utility.yul\":6944:6962   */\n          tag_289\n          tag_290\n          jump\t// in\n        tag_289:\n          pop\n            /* \"#utility.yul\":6980:6989   */\n          add\n          swap1\n            /* \"#utility.yul\":6915:6995   */\n          jump\t// out\n            /* \"#utility.yul\":7000:7217   */\n        tag_116:\n            /* \"#utility.yul\":7040:7041   */\n          0x00\n            /* \"#utility.yul\":7066:7067   */\n          dup3\n            /* \"#utility.yul\":7056:7058   */\n          tag_292\n          jumpi\n            /* \"#utility.yul\":7110:7120   */\n          0x4e487b71\n            /* \"#utility.yul\":7105:7108   */\n          0xe0\n            /* \"#utility.yul\":7101:7121   */\n          shl\n            /* \"#utility.yul\":7098:7099   */\n          0x00\n            /* \"#utility.yul\":7091:7122   */\n          mstore\n            /* \"#utility.yul\":7145:7149   */\n          0x12\n            /* \"#utility.yul\":7142:7143   */\n          0x04\n            /* \"#utility.yul\":7135:7150   */\n          mstore\n            /* \"#utility.yul\":7173:7177   */\n          0x24\n            /* \"#utility.yul\":7170:7171   */\n          0x00\n            /* \"#utility.yul\":7163:7178   */\n          revert\n            /* \"#utility.yul\":7056:7058   */\n        tag_292:\n          pop\n            /* \"#utility.yul\":7202:7211   */\n          div\n          swap1\n            /* \"#utility.yul\":7046:7217   */\n          jump\t// out\n            /* \"#utility.yul\":7222:7644   */\n        tag_293:\n            /* \"#utility.yul\":7311:7312   */\n          0x01\n            /* \"#utility.yul\":7354:7359   */\n          dup2\n            /* \"#utility.yul\":7311:7312   */\n          dup2\n            /* \"#utility.yul\":7368:7638   */\n        tag_295:\n            /* \"#utility.yul\":7389:7396   */\n          dup1\n            /* \"#utility.yul\":7379:7387   */\n          dup6\n            /* \"#utility.yul\":7376:7397   */\n          gt\n            /* \"#utility.yul\":7368:7638   */\n          iszero\n          tag_297\n          jumpi\n            /* \"#utility.yul\":7448:7452   */\n          dup2\n            /* \"#utility.yul\":7444:7445   */\n          0x00\n            /* \"#utility.yul\":7440:7446   */\n          not\n            /* \"#utility.yul\":7436:7453   */\n          div\n            /* \"#utility.yul\":7430:7434   */\n          dup3\n            /* \"#utility.yul\":7427:7454   */\n          gt\n            /* \"#utility.yul\":7424:7426   */\n          iszero\n          tag_299\n          jumpi\n            /* \"#utility.yul\":7457:7475   */\n          tag_299\n          tag_290\n          jump\t// in\n        tag_299:\n            /* \"#utility.yul\":7507:7514   */\n          dup1\n            /* \"#utility.yul\":7497:7505   */\n          dup6\n            /* \"#utility.yul\":7493:7515   */\n          and\n            /* \"#utility.yul\":7490:7492   */\n          iszero\n          tag_300\n          jumpi\n            /* \"#utility.yul\":7527:7543   */\n          swap2\n          dup2\n          mul\n          swap2\n            /* \"#utility.yul\":7490:7492   */\n        tag_300:\n            /* \"#utility.yul\":7606:7628   */\n          swap4\n          dup5\n          shr\n          swap4\n            /* \"#utility.yul\":7566:7581   */\n          swap1\n          dup1\n          mul\n          swap1\n            /* \"#utility.yul\":7368:7638   */\n          jump(tag_295)\n        tag_297:\n            /* \"#utility.yul\":7372:7375   */\n          pop\n            /* \"#utility.yul\":7286:7644   */\n          swap3\n          pop\n          swap3\n          swap1\n          pop\n          jump\t// out\n            /* \"#utility.yul\":7649:7780   */\n        tag_187:\n            /* \"#utility.yul\":7709:7714   */\n          0x00\n            /* \"#utility.yul\":7738:7774   */\n          tag_247\n            /* \"#utility.yul\":7765:7773   */\n          dup4\n            /* \"#utility.yul\":7759:7763   */\n          dup4\n            /* \"#utility.yul\":7834:7839   */\n          0x00\n            /* \"#utility.yul\":7864:7872   */\n          dup3\n            /* \"#utility.yul\":7854:7856   */\n          tag_305\n          jumpi\n          pop\n            /* \"#utility.yul\":7905:7906   */\n          0x01\n            /* \"#utility.yul\":7919:7924   */\n          jump(tag_304)\n            /* \"#utility.yul\":7854:7856   */\n        tag_305:\n            /* \"#utility.yul\":7953:7957   */\n          dup2\n            /* \"#utility.yul\":7943:7945   */\n          tag_306\n          jumpi\n          pop\n            /* \"#utility.yul\":7990:7991   */\n          0x00\n            /* \"#utility.yul\":8004:8009   */\n          jump(tag_304)\n            /* \"#utility.yul\":7943:7945   */\n        tag_306:\n            /* \"#utility.yul\":8035:8039   */\n          dup2\n            /* \"#utility.yul\":8053:8054   */\n          0x01\n            /* \"#utility.yul\":8048:8107   */\n          dup2\n          eq\n          tag_308\n          jumpi\n            /* \"#utility.yul\":8121:8122   */\n          0x02\n            /* \"#utility.yul\":8116:8246   */\n          dup2\n          eq\n          tag_309\n          jumpi\n            /* \"#utility.yul\":8028:8246   */\n          jump(tag_307)\n            /* \"#utility.yul\":8048:8107   */\n        tag_308:\n            /* \"#utility.yul\":8078:8079   */\n          0x01\n            /* \"#utility.yul\":8069:8079   */\n          swap2\n          pop\n            /* \"#utility.yul\":8092:8097   */\n          pop\n          jump(tag_304)\n            /* \"#utility.yul\":8116:8246   */\n        tag_309:\n            /* \"#utility.yul\":8153:8156   */\n          0xff\n            /* \"#utility.yul\":8143:8151   */\n          dup5\n            /* \"#utility.yul\":8140:8157   */\n          gt\n            /* \"#utility.yul\":8137:8139   */\n          iszero\n          tag_311\n          jumpi\n            /* \"#utility.yul\":8160:8178   */\n          tag_311\n          tag_290\n          jump\t// in\n        tag_311:\n          pop\n          pop\n            /* \"#utility.yul\":8216:8217   */\n          0x01\n            /* \"#utility.yul\":8202:8218   */\n          dup3\n          shl\n            /* \"#utility.yul\":8231:8236   */\n          jump(tag_304)\n            /* \"#utility.yul\":8028:8246   */\n        tag_307:\n          pop\n            /* \"#utility.yul\":8330:8332   */\n          0x20\n            /* \"#utility.yul\":8320:8328   */\n          dup4\n            /* \"#utility.yul\":8317:8333   */\n          lt\n            /* \"#utility.yul\":8311:8314   */\n          0x0133\n            /* \"#utility.yul\":8305:8309   */\n          dup4\n            /* \"#utility.yul\":8302:8315   */\n          lt\n            /* \"#utility.yul\":8298:8334   */\n          and\n            /* \"#utility.yul\":8292:8294   */\n          0x4e\n            /* \"#utility.yul\":8282:8290   */\n          dup5\n            /* \"#utility.yul\":8279:8295   */\n          lt\n            /* \"#utility.yul\":8274:8276   */\n          0x0b\n            /* \"#utility.yul\":8268:8272   */\n          dup5\n            /* \"#utility.yul\":8265:8277   */\n          lt\n            /* \"#utility.yul\":8261:8296   */\n          and\n            /* \"#utility.yul\":8258:8335   */\n          or\n            /* \"#utility.yul\":8255:8257   */\n          iszero\n          tag_312\n          jumpi\n          pop\n            /* \"#utility.yul\":8367:8386   */\n          dup2\n          dup2\n          exp\n            /* \"#utility.yul\":8399:8404   */\n          jump(tag_304)\n            /* \"#utility.yul\":8255:8257   */\n        tag_312:\n            /* \"#utility.yul\":8446:8480   */\n          tag_313\n            /* \"#utility.yul\":8471:8479   */\n          dup4\n            /* \"#utility.yul\":8465:8469   */\n          dup4\n            /* \"#utility.yul\":8446:8480   */\n          tag_293\n          jump\t// in\n        tag_313:\n            /* \"#utility.yul\":8516:8522   */\n          dup1\n            /* \"#utility.yul\":8512:8513   */\n          0x00\n            /* \"#utility.yul\":8508:8514   */\n          not\n            /* \"#utility.yul\":8504:8523   */\n          div\n            /* \"#utility.yul\":8495:8502   */\n          dup3\n            /* \"#utility.yul\":8492:8524   */\n          gt\n            /* \"#utility.yul\":8489:8491   */\n          iszero\n          tag_315\n          jumpi\n            /* \"#utility.yul\":8527:8545   */\n          tag_315\n          tag_290\n          jump\t// in\n        tag_315:\n            /* \"#utility.yul\":8565:8585   */\n          mul\n          swap1\n          pop\n            /* \"#utility.yul\":7844:8591   */\n        tag_304:\n          swap3\n          swap2\n          pop\n          pop\n          jump\t// out\n            /* \"#utility.yul\":8596:8764   */\n        tag_123:\n            /* \"#utility.yul\":8636:8643   */\n          0x00\n            /* \"#utility.yul\":8702:8703   */\n          dup2\n            /* \"#utility.yul\":8698:8699   */\n          0x00\n            /* \"#utility.yul\":8694:8700   */\n          not\n            /* \"#utility.yul\":8690:8704   */\n          div\n            /* \"#utility.yul\":8687:8688   */\n          dup4\n            /* \"#utility.yul\":8684:8705   */\n          gt\n            /* \"#utility.yul\":8679:8680   */\n          dup3\n            /* \"#utility.yul\":8672:8681   */\n          iszero\n            /* \"#utility.yul\":8665:8682   */\n          iszero\n            /* \"#utility.yul\":8661:8706   */\n          and\n            /* \"#utility.yul\":8658:8660   */\n          iszero\n          tag_318\n          jumpi\n            /* \"#utility.yul\":8709:8727   */\n          tag_318\n          tag_290\n          jump\t// in\n        tag_318:\n          pop\n            /* \"#utility.yul\":8749:8758   */\n          mul\n          swap1\n            /* \"#utility.yul\":8648:8764   */\n          jump\t// out\n            /* \"#utility.yul\":8769:8894   */\n        tag_114:\n            /* \"#utility.yul\":8809:8813   */\n          0x00\n            /* \"#utility.yul\":8837:8838   */\n          dup3\n            /* \"#utility.yul\":8834:8835   */\n          dup3\n            /* \"#utility.yul\":8831:8839   */\n          lt\n            /* \"#utility.yul\":8828:8830   */\n          iszero\n          tag_321\n          jumpi\n            /* \"#utility.yul\":8842:8860   */\n          tag_321\n          tag_290\n          jump\t// in\n        tag_321:\n          pop\n            /* \"#utility.yul\":8879:8888   */\n          sub\n          swap1\n            /* \"#utility.yul\":8818:8894   */\n          jump\t// out\n            /* \"#utility.yul\":8899:9034   */\n        tag_213:\n            /* \"#utility.yul\":8938:8941   */\n          0x00\n          not(0x00)\n            /* \"#utility.yul\":8959:8976   */\n          dup3\n          eq\n            /* \"#utility.yul\":8956:8958   */\n          iszero\n          tag_324\n          jumpi\n            /* \"#utility.yul\":8979:8997   */\n          tag_324\n          tag_290\n          jump\t// in\n        tag_324:\n          pop\n            /* \"#utility.yul\":9026:9027   */\n          0x01\n            /* \"#utility.yul\":9015:9028   */\n          add\n          swap1\n            /* \"#utility.yul\":8946:9034   */\n          jump\t// out\n            /* \"#utility.yul\":9039:9166   */\n        tag_290:\n            /* \"#utility.yul\":9100:9110   */\n          0x4e487b71\n            /* \"#utility.yul\":9095:9098   */\n          0xe0\n            /* \"#utility.yul\":9091:9111   */\n          shl\n            /* \"#utility.yul\":9088:9089   */\n          0x00\n            /* \"#utility.yul\":9081:9112   */\n          mstore\n            /* \"#utility.yul\":9131:9135   */\n          0x11\n            /* \"#utility.yul\":9128:9129   */\n          0x04\n            /* \"#utility.yul\":9121:9136   */\n          mstore\n            /* \"#utility.yul\":9155:9159   */\n          0x24\n            /* \"#utility.yul\":9152:9153   */\n          0x00\n            /* \"#utility.yul\":9145:9160   */\n          revert\n            /* \"#utility.yul\":9171:9298   */\n        tag_241:\n            /* \"#utility.yul\":9232:9242   */\n          0x4e487b71\n            /* \"#utility.yul\":9227:9230   */\n          0xe0\n            /* \"#utility.yul\":9223:9243   */\n          shl\n            /* \"#utility.yul\":9220:9221   */\n          0x00\n            /* \"#utility.yul\":9213:9244   */\n          mstore\n            /* \"#utility.yul\":9263:9267   */\n          0x41\n            /* \"#utility.yul\":9260:9261   */\n          0x04\n            /* \"#utility.yul\":9253:9268   */\n          mstore\n            /* \"#utility.yul\":9287:9291   */\n          0x24\n            /* \"#utility.yul\":9284:9285   */\n          0x00\n            /* \"#utility.yul\":9277:9292   */\n          revert\n            /* \"#utility.yul\":9303:9434   */\n        tag_248:\n          sub(shl(0xa0, 0x01), 0x01)\n            /* \"#utility.yul\":9378:9409   */\n          dup2\n          and\n            /* \"#utility.yul\":9368:9410   */\n          dup2\n          eq\n            /* \"#utility.yul\":9358:9360   */\n          tag_328\n          jumpi\n            /* \"#utility.yul\":9424:9425   */\n          0x00\n            /* \"#utility.yul\":9421:9422   */\n          dup1\n            /* \"#utility.yul\":9414:9426   */\n          revert\n            /* \"#utility.yul\":9358:9360   */\n        tag_328:\n            /* \"#utility.yul\":9348:9434   */\n          pop\n          jump\t// out\n\n        auxdata: 0xa264697066735822122092e050c345388fee0410fab6f9c447f04b550ee5d7258d7ac40661a593f2e5bd64736f6c63430008060033\n    }\n}\n","bytecode":{"linkReferences":{},"object":"60a06040819052600060808190526200001b91600291620006cf565b50600a805460ff60a01b191690553480156200003657600080fd5b506040516200425f3803806200425f833981016040819052620000599162000847565b6200006433620001fc565b333214620000d35760405162461bcd60e51b815260206004820152603160248201527f596f752063616e27742063726561746520616e2061756374696f6e2066726f6d60448201527008184814db585c9d0810dbdb9d1c9858dd607a1b60648201526084015b60405180910390fd5b8751620000e89060039060208b0190620006cf565b508651620000fe9060049060208a0190620006cf565b50308686868660405162000112906200075e565b6001600160a01b039095168552602085019390935260408401919091526060830152608082015260a001604051809103906000f08015801562000159573d6000803e3d6000fd5b50600a80546001600160a01b0319166001600160a01b0392909216919091179055600060098190553390620001909082906200024c565b6200019d60008462000272565b620001a9338362000315565b7ec7947f43485688b2f636fcdd616229dc345b08d5b66d9ced2ced30fbde511389898989898989604051620001e597969594939291906200098a565b60405180910390a150505050505050505062000ac4565b600080546001600160a01b038381166001600160a01b0319831681178455604051919092169283917f8be0079c531659141344cd1fd0a4f28419497f9722a3daafe3b4186f6b6457e09190a35050565b6200026e828260405180602001604052806000815250620003a560201b60201c565b5050565b6000828152600560205260409020546001600160a01b0316620002ef5760405162461bcd60e51b815260206004820152602e60248201527f45524337323155524953746f726167653a2055524920736574206f66206e6f6e60448201526d32bc34b9ba32b73a103a37b5b2b760911b6064820152608401620000ca565b600082815260016020908152604090912082516200031092840190620006cf565b505050565b6001600160a01b0382166000908152600b60205260408120805460ff191660011790556010805491620003488362000a7a565b9091555050601080546000908152600c6020908152604080832080546001600160a01b0319166001600160a01b0388169081179091559354938352600d825280832093909355600e815291902082516200031092840190620006cf565b620003b1838362000418565b620003c0600084848462000560565b620003105760405162461bcd60e51b815260206004820152603260248201526000805160206200423f83398151915260448201527131b2b4bb32b91034b6b83632b6b2b73a32b960711b6064820152608401620000ca565b6001600160a01b038216620004705760405162461bcd60e51b815260206004820181905260248201527f4552433732313a206d696e7420746f20746865207a65726f20616464726573736044820152606401620000ca565b6000818152600560205260409020546001600160a01b031615620004d75760405162461bcd60e51b815260206004820152601c60248201527f4552433732313a20746f6b656e20616c7265616479206d696e746564000000006044820152606401620000ca565b6001600160a01b038216600090815260066020526040812080546001929062000502908490620009ef565b909155505060008181526005602052604080822080546001600160a01b0319166001600160a01b03861690811790915590518392907fddf252ad1be2c89b69c2b068fc378daa952ba7f163c4a11628f55a4df523b3ef908290a45050565b600062000581846001600160a01b0316620006c960201b620013d41760201c565b15620006bd57604051630a85bd0160e11b81526001600160a01b0385169063150b7a0290620005bb90339089908890889060040162000955565b602060405180830381600087803b158015620005d657600080fd5b505af192505050801562000609575060408051601f3d908101601f19168201909252620006069181019062000814565b60015b620006a2573d8080156200063a576040519150601f19603f3d011682016040523d82523d6000602084013e6200063f565b606091505b5080516200069a5760405162461bcd60e51b815260206004820152603260248201526000805160206200423f83398151915260448201527131b2b4bb32b91034b6b83632b6b2b73a32b960711b6064820152608401620000ca565b805181602001fd5b6001600160e01b031916630a85bd0160e11b149050620006c1565b5060015b949350505050565b3b151590565b828054620006dd9062000a3d565b90600052602060002090601f0160209004810192826200070157600085556200074c565b82601f106200071c57805160ff19168380011785556200074c565b828001600101855582156200074c579182015b828111156200074c5782518255916020019190600101906200072f565b506200075a9291506200076c565b5090565b6114f88062002d4783390190565b5b808211156200075a57600081556001016200076d565b600082601f8301126200079557600080fd5b81516001600160401b0380821115620007b257620007b262000aae565b604051601f8301601f19908116603f01168101908282118183101715620007dd57620007dd62000aae565b81604052838152866020858801011115620007f757600080fd5b6200080a84602083016020890162000a0a565b9695505050505050565b6000602082840312156200082757600080fd5b81516001600160e01b0319811681146200084057600080fd5b9392505050565b600080600080600080600080610100898b0312156200086557600080fd5b88516001600160401b03808211156200087d57600080fd5b6200088b8c838d0162000783565b995060208b0151915080821115620008a257600080fd5b620008b08c838d0162000783565b985060408b0151975060608b0151965060808b0151955060a08b0151945060c08b0151915080821115620008e357600080fd5b620008f18c838d0162000783565b935060e08b01519150808211156200090857600080fd5b50620009178b828c0162000783565b9150509295985092959890939650565b600081518084526200094181602086016020860162000a0a565b601f01601f19169290920160200192915050565b6001600160a01b03858116825284166020820152604081018390526080606082018190526000906200080a9083018462000927565b60e0815260006200099f60e083018a62000927565b8281036020840152620009b3818a62000927565b90508760408401528660608401528560808401528460a084015282810360c0840152620009e1818562000927565b9a9950505050505050505050565b6000821982111562000a055762000a0562000a98565b500190565b60005b8381101562000a2757818101518382015260200162000a0d565b8381111562000a37576000848401525b50505050565b600181811c9082168062000a5257607f821691505b6020821081141562000a7457634e487b7160e01b600052602260045260246000fd5b50919050565b600060001982141562000a915762000a9162000a98565b5060010190565b634e487b7160e01b600052601160045260246000fd5b634e487b7160e01b600052604160045260246000fd5b6122738062000ad46000396000f3fe608060405234801561001057600080fd5b506004361061021c5760003560e01c8063715018a611610125578063a4fd6f56116100ad578063e6796aaa1161007c578063e6796aaa146104c9578063e985e9c5146104dc578063f2fde38b146104ef578063fe67a54b14610502578063ff2e28881461050a57600080fd5b8063a4fd6f561461047e578063b88d4fde14610490578063c65015cb146104a3578063c87b56dd146104b657600080fd5b80638620612b116100f45780638620612b146104095780638da5cb5b1461043257806395d89b41146104435780639a5dd7351461044b578063a22cb4651461046b57600080fd5b8063715018a6146103d557806382bf863d146103dd5780638404dac7146103f0578063854cf3cf146103f857600080fd5b806323b872dd116101a857806342842e0e1161017757806342842e0e146103765780634d5623fb14610389578063633cd29d1461039c5780636352211e146103af57806370a08231146103c257600080fd5b806323b872dd1461032e5780632820345a14610341578063313ce567146103545780633790d53d1461036357600080fd5b8063095ea7b3116101ef578063095ea7b31461029b5780630c4e1760146102b0578063150b7a02146102c35780631d126fcb146102ef5780631ec5ee261461031b57600080fd5b8063010a38f51461022157806301ffc9a71461023857806306fdde031461025b578063081812fc14610270575b600080fd5b6009545b6040519081526020015b60405180910390f35b61024b610246366004611d28565b61051d565b604051901515815260200161022f565b61026361058a565b60405161022f9190611e43565b61028361027e366004611d62565b61061c565b6040516001600160a01b03909116815260200161022f565b6102ae6102a9366004611cfc565b6106b6565b005b6102256102be366004611b2a565b61085c565b6102d66102d1366004611be5565b6108d0565b6040516001600160e01b0319909116815260200161022f565b61024b6102fd366004611b2a565b6001600160a01b03166000908152600b602052604090205460ff1690565b6102ae610329366004611c98565b6108e1565b6102ae61033c366004611ba4565b610919565b61022561034f366004611b2a565b6109fe565b6040516000815260200161022f565b610263610371366004611d62565b610a5c565b6102ae610384366004611ba4565b610b6c565b610263610397366004611d62565b610b87565b6102836103aa366004611d62565b610be7565b6102836103bd366004611d62565b610c35565b6102256103d0366004611b2a565b610cac565b6102ae610d33565b6102836103eb366004611d62565b610d99565b601054610225565b600a546001600160a01b0316610283565b610225610417366004611b2a565b6001600160a01b03166000908152600f602052604090205490565b6000546001600160a01b0316610283565b610263610e09565b6010546000908152600c60205260409020546001600160a01b0316610283565b6102ae610479366004611c65565b610e18565b600a54600160a01b900460ff1661024b565b6102ae61049e366004611be5565b610f06565b6102636104b1366004611b2a565b610fed565b6102636104c4366004611d62565b61104d565b6102ae6104d7366004611cfc565b6111d7565b61024b6104ea366004611b6b565b611245565b6102ae6104fd366004611b2a565b611273565b6102ae61133e565b610225610518366004611b2a565b61137d565b60006001600160e01b031982166380ac58cd60e01b148061054e57506001600160e01b03198216635b5e139f60e01b145b8061056957506301ffc9a760e01b6001600160e01b03198316145b8061058457506001600160e01b03198216630a85bd0160e11b145b92915050565b60606003805461059990612196565b80601f01602080910402602001604051908101604052809291908181526020018280546105c590612196565b80156106125780601f106105e757610100808354040283529160200191610612565b820191906000526020600020905b8154815290600101906020018083116105f557829003601f168201915b5050505050905090565b6000818152600560205260408120546001600160a01b031661069a5760405162461bcd60e51b815260206004820152602c60248201527f4552433732313a20617070726f76656420717565727920666f72206e6f6e657860448201526b34b9ba32b73a103a37b5b2b760a11b60648201526084015b60405180910390fd5b506000908152600760205260409020546001600160a01b031690565b600a54600160a01b900460ff166106df5760405162461bcd60e51b815260040161069190611edf565b6040516331a9108f60e11b8152600481018290526000903090636352211e9060240160206040518083038186803b15801561071957600080fd5b505afa15801561072d573d6000803e3d6000fd5b505050506040513d601f19601f820116820180604052508101906107519190611b4e565b9050806001600160a01b0316836001600160a01b031614156107bf5760405162461bcd60e51b815260206004820152602160248201527f4552433732313a20617070726f76616c20746f2063757272656e74206f776e656044820152603960f91b6064820152608401610691565b336001600160a01b03821614806107db57506107db8133611245565b61084d5760405162461bcd60e51b815260206004820152603860248201527f4552433732313a20617070726f76652063616c6c6572206973206e6f74206f7760448201527f6e6572206e6f7220617070726f76656420666f7220616c6c00000000000000006064820152608401610691565b61085783836113da565b505050565b6001600160a01b0381166000908152600b6020526040812054829060ff166108965760405162461bcd60e51b815260040161069190611e56565b6001600160a01b0383166000908152600d60205260409020546010546108bd906001612050565b6108c79190612153565b91505b50919050565b630a85bd0160e11b5b949350505050565b600a546001600160a01b0316331461090b5760405162461bcd60e51b815260040161069190611fc8565b61091582826114b0565b5050565b600a5482908290600160a01b900460ff166109c657600a546001600160a01b031633146109585760405162461bcd60e51b815260040161069190611f6b565b6001600160a01b0382166000908152600b602052604090205460ff16156109c15760405162461bcd60e51b815260206004820181905260248201527f43616c6c65722068617320616c7265616479206265656e20616e206f776e65726044820152606401610691565b6109ec565b6109d0338261153c565b6109ec5760405162461bcd60e51b815260040161069190611fff565b6109f7858585611672565b5050505050565b6001600160a01b0381166000908152600b6020526040812054829060ff16610a385760405162461bcd60e51b815260040161069190611e56565b6001600160a01b0383166000908152600d60205260409020546108c79060026120ab565b606081600081118015610a7157506010548111155b610a8d5760405162461bcd60e51b815260040161069190611f34565b600e6000600c6000866010546001610aa59190612050565b610aaf9190612153565b815260208082019290925260409081016000908120546001600160a01b0316845291830193909352910190208054610ae690612196565b80601f0160208091040260200160405190810160405280929190818152602001828054610b1290612196565b8015610b5f5780601f10610b3457610100808354040283529160200191610b5f565b820191906000526020600020905b815481529060010190602001808311610b4257829003601f168201915b5050505050915050919050565b61085783838360405180602001604052806000815250610f06565b606081600081118015610b9c57506010548111155b610bb85760405162461bcd60e51b815260040161069190611f34565b6000838152600c60209081526040808320546001600160a01b03168352600e90915290208054610ae690612196565b600081600081118015610bfc57506010548111155b610c185760405162461bcd60e51b815260040161069190611f34565b50506000908152600c60205260409020546001600160a01b031690565b6000818152600560205260408120546001600160a01b0316806105845760405162461bcd60e51b815260206004820152602960248201527f4552433732313a206f776e657220717565727920666f72206e6f6e657869737460448201526832b73a103a37b5b2b760b91b6064820152608401610691565b60006001600160a01b038216610d175760405162461bcd60e51b815260206004820152602a60248201527f4552433732313a2062616c616e636520717565727920666f7220746865207a65604482015269726f206164647265737360b01b6064820152608401610691565b506001600160a01b031660009081526006602052604090205490565b6000546001600160a01b03163314610d8d5760405162461bcd60e51b815260206004820181905260248201527f4f776e61626c653a2063616c6c6572206973206e6f7420746865206f776e65726044820152606401610691565b610d976000611879565b565b600081600081118015610dae57506010548111155b610dca5760405162461bcd60e51b815260040161069190611f34565b600c6000846010546001610dde9190612050565b610de89190612153565b81526020810191909152604001600020546001600160a01b03169392505050565b60606004805461059990612196565b600a54600160a01b900460ff16610e415760405162461bcd60e51b815260040161069190611edf565b6001600160a01b038216331415610e9a5760405162461bcd60e51b815260206004820152601960248201527f4552433732313a20617070726f766520746f2063616c6c6572000000000000006044820152606401610691565b3360008181526008602090815260408083206001600160a01b03871680855290835292819020805460ff191686151590811790915590519081529192917f17307eab39ab6107e8899845ad3d59bd9653f200f220920489ca2b5937696c31910160405180910390a35050565b600a5483908390600160a01b900460ff16610fb357600a546001600160a01b03163314610f455760405162461bcd60e51b815260040161069190611f6b565b6001600160a01b0382166000908152600b602052604090205460ff1615610fae5760405162461bcd60e51b815260206004820181905260248201527f43616c6c65722068617320616c7265616479206265656e20616e206f776e65726044820152606401610691565b610fd9565b610fbd338261153c565b610fd95760405162461bcd60e51b815260040161069190611fff565b610fe5868686866118c9565b505050505050565b6001600160a01b0381166000908152600b6020526040902054606090829060ff1661102a5760405162461bcd60e51b815260040161069190611e56565b6001600160a01b0383166000908152600e602052604090208054610ae690612196565b6000818152600560205260409020546060906001600160a01b03166110ce5760405162461bcd60e51b815260206004820152603160248201527f45524337323155524953746f726167653a2055524920717565727920666f72206044820152703737b732bc34b9ba32b73a103a37b5b2b760791b6064820152608401610691565b600082815260016020526040812080546110e790612196565b80601f016020809104026020016040519081016040528092919081815260200182805461111390612196565b80156111605780601f1061113557610100808354040283529160200191611160565b820191906000526020600020905b81548152906001019060200180831161114357829003601f168201915b505050505090506000611171611902565b90508051600014156111a6578160405160200161118e9190611dd7565b60405160208183030381529060405292505050919050565b8151156111c057808460405160200161118e929190611da7565b505060408051602081019091526000815292915050565b600a546001600160a01b031633146112015760405162461bcd60e51b815260040161069190611fc8565b6001600160a01b0382166000908152600f6020526040902054611225908290612050565b6001600160a01b039092166000908152600f602052604090209190915550565b6001600160a01b03918216600090815260086020908152604080832093909416825291909152205460ff1690565b6000546001600160a01b031633146112cd5760405162461bcd60e51b815260206004820181905260248201527f4f776e61626c653a2063616c6c6572206973206e6f7420746865206f776e65726044820152606401610691565b6001600160a01b0381166113325760405162461bcd60e51b815260206004820152602660248201527f4f776e61626c653a206e6577206f776e657220697320746865207a65726f206160448201526564647265737360d01b6064820152608401610691565b61133b81611879565b50565b600a546001600160a01b031633146113685760405162461bcd60e51b815260040161069190611fc8565b600a805460ff60a01b1916600160a01b179055565b6001600160a01b0381166000908152600b6020526040812054829060ff166113b75760405162461bcd60e51b815260040161069190611e56565b50506001600160a01b03166000908152600d602052604090205490565b3b151590565b6000818152600760205260409081902080546001600160a01b0319166001600160a01b03851690811790915590516331a9108f60e11b8152600481018390528291903090636352211e9060240160206040518083038186803b15801561143f57600080fd5b505afa158015611453573d6000803e3d6000fd5b505050506040513d601f19601f820116820180604052508101906114779190611b4e565b6001600160a01b03167f8c5be1e5ebec7d5bd14f71427d1e84f3dd0314c0f7b2291e5b200ac8c7c3b92560405160405180910390a45050565b6001600160a01b0382166000908152600b60205260408120805460ff1916600117905560108054916114e1836121cb565b9091555050601080546000908152600c6020908152604080832080546001600160a01b0319166001600160a01b0388169081179091559354938352600d825280832093909355600e8152919020825161085792840190611a1b565b6000818152600560205260408120546001600160a01b03166115b55760405162461bcd60e51b815260206004820152602c60248201527f4552433732313a206f70657261746f7220717565727920666f72206e6f6e657860448201526b34b9ba32b73a103a37b5b2b760a11b6064820152608401610691565b6040516331a9108f60e11b8152600481018390526000903090636352211e9060240160206040518083038186803b1580156115ef57600080fd5b505afa158015611603573d6000803e3d6000fd5b505050506040513d601f19601f820116820180604052508101906116279190611b4e565b9050806001600160a01b0316846001600160a01b031614806116625750836001600160a01b03166116578461061c565b6001600160a01b0316145b806108d957506108d98185611245565b6040516331a9108f60e11b8152600481018290526001600160a01b038416903090636352211e9060240160206040518083038186803b1580156116b457600080fd5b505afa1580156116c8573d6000803e3d6000fd5b505050506040513d601f19601f820116820180604052508101906116ec9190611b4e565b6001600160a01b0316146117545760405162461bcd60e51b815260206004820152602960248201527f4552433732313a207472616e73666572206f6620746f6b656e2074686174206960448201526839903737ba1037bbb760b91b6064820152608401610691565b6001600160a01b0382166117b65760405162461bcd60e51b8152602060048201526024808201527f4552433732313a207472616e7366657220746f20746865207a65726f206164646044820152637265737360e01b6064820152608401610691565b6117c16000826113da565b6001600160a01b03831660009081526006602052604081208054600192906117ea908490612153565b90915550506001600160a01b0382166000908152600660205260408120805460019290611818908490612050565b909155505060008181526005602052604080822080546001600160a01b0319166001600160a01b0386811691821790925591518493918716917fddf252ad1be2c89b69c2b068fc378daa952ba7f163c4a11628f55a4df523b3ef91a4505050565b600080546001600160a01b038381166001600160a01b0319831681178455604051919092169283917f8be0079c531659141344cd1fd0a4f28419497f9722a3daafe3b4186f6b6457e09190a35050565b6118d4848484611672565b6118e084848484611911565b6118fc5760405162461bcd60e51b815260040161069190611e8d565b50505050565b60606002805461059990612196565b60006001600160a01b0384163b15611a1357604051630a85bd0160e11b81526001600160a01b0385169063150b7a0290611955903390899088908890600401611e06565b602060405180830381600087803b15801561196f57600080fd5b505af192505050801561199f575060408051601f3d908101601f1916820190925261199c91810190611d45565b60015b6119f9573d8080156119cd576040519150601f19603f3d011682016040523d82523d6000602084013e6119d2565b606091505b5080516119f15760405162461bcd60e51b815260040161069190611e8d565b805181602001fd5b6001600160e01b031916630a85bd0160e11b1490506108d9565b5060016108d9565b828054611a2790612196565b90600052602060002090601f016020900481019282611a495760008555611a8f565b82601f10611a6257805160ff1916838001178555611a8f565b82800160010185558215611a8f579182015b82811115611a8f578251825591602001919060010190611a74565b50611a9b929150611a9f565b5090565b5b80821115611a9b5760008155600101611aa0565b600067ffffffffffffffff80841115611acf57611acf6121fc565b604051601f8501601f19908116603f01168101908282118183101715611af757611af76121fc565b81604052809350858152868686011115611b1057600080fd5b858560208301376000602087830101525050509392505050565b600060208284031215611b3c57600080fd5b8135611b4781612212565b9392505050565b600060208284031215611b6057600080fd5b8151611b4781612212565b60008060408385031215611b7e57600080fd5b8235611b8981612212565b91506020830135611b9981612212565b809150509250929050565b600080600060608486031215611bb957600080fd5b8335611bc481612212565b92506020840135611bd481612212565b929592945050506040919091013590565b60008060008060808587031215611bfb57600080fd5b8435611c0681612212565b93506020850135611c1681612212565b925060408501359150606085013567ffffffffffffffff811115611c3957600080fd5b8501601f81018713611c4a57600080fd5b611c5987823560208401611ab4565b91505092959194509250565b60008060408385031215611c7857600080fd5b8235611c8381612212565b915060208301358015158114611b9957600080fd5b60008060408385031215611cab57600080fd5b8235611cb681612212565b9150602083013567ffffffffffffffff811115611cd257600080fd5b8301601f81018513611ce357600080fd5b611cf285823560208401611ab4565b9150509250929050565b60008060408385031215611d0f57600080fd5b8235611d1a81612212565b946020939093013593505050565b600060208284031215611d3a57600080fd5b8135611b4781612227565b600060208284031215611d5757600080fd5b8151611b4781612227565b600060208284031215611d7457600080fd5b5035919050565b60008151808452611d9381602086016020860161216a565b601f01601f19169290920160200192915050565b60008351611db981846020880161216a565b919091019182525064173539b7b760d91b6020820152602501919050565b66697066733a2f2f60c81b815260008251611df981600785016020870161216a565b9190910160070192915050565b6001600160a01b0385811682528416602082015260408101839052608060608201819052600090611e3990830184611d7b565b9695505050505050565b602081526000611b476020830184611d7b565b6020808252601b908201527f476976656e206164647265737320776173206e6f206f776e6572210000000000604082015260600190565b60208082526032908201527f4552433732313a207472616e7366657220746f206e6f6e20455243373231526560408201527131b2b4bb32b91034b6b83632b6b2b73a32b960711b606082015260800190565b60208082526035908201527f43616e277420706572666f726d207468697320616374696f6e207768696c6520604082015274185d58dd1a5bdb881a185cc81b9bdd08195b991959605a1b606082015260800190565b60208082526019908201527f476976656e20706c616365206973206e6f742076616c69642100000000000000604082015260600190565b60208082526038908201527f547261736e66657265722068617320746f20626520746865204445582077686960408201527f6c652061756374696f6e20686173206e6f7420656e6465640000000000000000606082015260800190565b60208082526019908201527f43616e206f6e6c792062652063616c6c65642062792044455800000000000000604082015260600190565b60208082526031908201527f4552433732313a207472616e736665722063616c6c6572206973206e6f74206f6040820152701ddb995c881b9bdc88185c1c1c9bdd9959607a1b606082015260800190565b60008219821115612063576120636121e6565b500190565b600181815b808511156120a3578160001904821115612089576120896121e6565b8085161561209657918102915b93841c939080029061206d565b509250929050565b6000611b4783836000826120c157506001610584565b816120ce57506000610584565b81600181146120e457600281146120ee5761210a565b6001915050610584565b60ff8411156120ff576120ff6121e6565b50506001821b610584565b5060208310610133831016604e8410600b841016171561212d575081810a610584565b6121378383612068565b806000190482111561214b5761214b6121e6565b029392505050565b600082821015612165576121656121e6565b500390565b60005b8381101561218557818101518382015260200161216d565b838111156118fc5750506000910152565b600181811c908216806121aa57607f821691505b602082108114156108ca57634e487b7160e01b600052602260045260246000fd5b60006000198214156121df576121df6121e6565b5060010190565b634e487b7160e01b600052601160045260246000fd5b634e487b7160e01b600052604160045260246000fd5b6001600160a01b038116811461133b57600080fd5b6001600160e01b03198116811461133b57600080fdfea26469706673582212206b1fab7270655d1a1fd9cd565df6cbadadbefa90caae0ae91c0d573f2d31049564736f6c6343000806003360806040526007805460ff191690556002600a556001600b553480156200002557600080fd5b50604051620014f8380380620014f8833981016040819052620000489162000248565b600160005560648111620000955760405162461bcd60e51b815260206004820152600f60248201526e4261736520697320746f6f206c6f7760881b60448201526064015b60405180910390fd5b816064620000a48383620002dd565b620000b09190620002ba565b11620000ff5760405162461bcd60e51b815260206004820152601660248201527f496e76616c696420707269636520696e6372656173650000000000000000000060448201526064016200008c565b426006556005849055600883905560098290556003819055600d82905560646200012a8284620002dd565b620001369190620002ba565b600c55600280546001600160a01b0387166001600160a01b0319918216179091556001805490911673d7be0a8a457630e94f01f67bbc5300b0a53c938117905560085460055462000192916200018c916200029f565b6200020d565b600b5460095460405132927f6ceed9d5957b9e77f5d93d6312a4c8e5f63ef6f75cb9812f486b76336982b75d92620001fa9291825260208201526060604082018190526010908201526f2493b690333ab1b5b4b733903837b7b960811b608082015260a00190565b60405180910390a2505050505062000315565b60048190556040518181527f41f916eb2a7065889bf3a2125806adaa5ca5a1c9be36f179340901abbf666d239060200160405180910390a150565b600080600080600060a086880312156200026157600080fd5b85516001600160a01b03811681146200027957600080fd5b602087015160408801516060890151608090990151929a91995097965090945092505050565b60008219821115620002b557620002b5620002ff565b500190565b600082620002d857634e487b7160e01b600052601260045260246000fd5b500490565b6000816000190483118215151615620002fa57620002fa620002ff565b500290565b634e487b7160e01b600052601160045260246000fd5b6111d380620003256000396000f3fe60806040526004361061009a5760003560e01c80637f8aced7116100615780637f8aced7146101585780638ecf0d0b1461016d578063baffa90314610182578063c557026114610197578063caee4dd3146101ac578063e4d90c62146101d457005b8063150b7a02146100a35780632a2d64ff146100ec578063544736e61461010b578063644e97971461012e5780637d58e3cf1461014357005b366100a157005b005b3480156100af57600080fd5b506100ce6100be366004610e2c565b630a85bd0160e11b949350505050565b6040516001600160e01b031990911681526020015b60405180910390f35b3480156100f857600080fd5b506004545b6040519081526020016100e3565b34801561011757600080fd5b5060075460ff1660405190151581526020016100e3565b34801561013a57600080fd5b506005546100fd565b34801561014f57600080fd5b50600c546100fd565b34801561016457600080fd5b506003546100fd565b34801561017957600080fd5b506006546100fd565b34801561018e57600080fd5b506009546100fd565b3480156101a357600080fd5b506008546100fd565b3480156101b857600080fd5b506002546040516001600160a01b0390911681526020016100e3565b3480156101e057600080fd5b506100a16101ef366004610ece565b600260005414156102475760405162461bcd60e51b815260206004820152601f60248201527f5265656e7472616e637947756172643a207265656e7472616e742063616c6c0060448201526064015b60405180910390fd5b600260005560075460ff166102b6576005544210156102a85760405162461bcd60e51b815260206004820152601f60248201527f5468652061756374696f6e206861736e27742073746172746564207965742100604482015260640161023e565b6007805460ff191660011790555b60045442106103e357600260009054906101000a90046001600160a01b03166001600160a01b031663fe67a54b6040518163ffffffff1660e01b8152600401600060405180830381600087803b15801561030f57600080fd5b505af1158015610323573d6000803e3d6000fd5b5050604051600181527f65621228cd4667982e3b2306bdbedb01c7f7d2ebd15463abb9d9a1d6ff4d4cd89250602001905060405180910390a160025460405163633cd29d60e01b8152600160048201526001600160a01b039091169063633cd29d9060240160206040518083038186803b1580156103a057600080fd5b505afa1580156103b4573d6000803e3d6000fd5b505050506040513d601f19601f820116820180604052508101906103d89190610e08565b6001600160a01b0316ff5b6103ed82826103f6565b50506001600055565b600c548110156104485760405162461bcd60e51b815260206004820181905260248201527f596f75206861766520746f207061792074686520726967687420707269636521604482015260640161023e565b600154600c54604051631ec49ce960e21b815260048101919091523360248201526001600160a01b0390911690637b1273a490604401600060405180830381600087803b15801561049857600080fd5b505af11580156104ac573d6000803e3d6000fd5b505050506000600d546002600d54600c546104c79190611127565b6104d19190610ff9565b6104db9190610fe1565b9050600081600c546104ed9190611127565b905061051c6064600a5460646105039190611127565b61050d9085611108565b6105179190610ff9565b61077d565b6105496064600a5460646105309190611127565b61053a9084611108565b6105449190610ff9565b61098c565b4761055381610bdb565b6002546040805163010a38f560e01b815290516001600160a01b03909216916342842e0e918391636352211e91839163010a38f591600480820192602092909190829003018186803b1580156105a857600080fd5b505afa1580156105bc573d6000803e3d6000fd5b505050506040513d601f19601f820116820180604052508101906105e09190610f27565b6040518263ffffffff1660e01b81526004016105fe91815260200190565b60206040518083038186803b15801561061657600080fd5b505afa15801561062a573d6000803e3d6000fd5b505050506040513d601f19601f8201168201806040525081019061064e9190610e08565b6002546040805163010a38f560e01b8152905133926001600160a01b03169163010a38f5916004808301926020929190829003018186803b15801561069257600080fd5b505afa1580156106a6573d6000803e3d6000fd5b505050506040513d601f19601f820116820180604052508101906106ca9190610f27565b6040516001600160e01b031960e086901b1681526001600160a01b0393841660048201529290911660248301526044820152606401600060405180830381600087803b15801561071957600080fd5b505af115801561072d573d6000803e3d6000fd5b5050505061073b3386610cc7565b6107516008544261074c9190610fe1565b610d57565b600c54600d8190556003546064916107699190611108565b6107739190610ff9565b600c555050505050565b600154600254600b5460405163633cd29d60e01b81526000936001600160a01b039081169363a9059cbb9391169163633cd29d916107c19160040190815260200190565b60206040518083038186803b1580156107d957600080fd5b505afa1580156107ed573d6000803e3d6000fd5b505050506040513d601f19601f820116820180604052508101906108119190610e08565b6040516001600160e01b031960e084901b1681526001600160a01b03909116600482015260248101859052604401602060405180830381600087803b15801561085957600080fd5b505af115801561086d573d6000803e3d6000fd5b505050506040513d601f19601f820116820180604052508101906108919190610eac565b9050801561098857600254600b5460405163633cd29d60e01b81526001600160a01b039092169163e6796aaa91839163633cd29d916108d69160040190815260200190565b60206040518083038186803b1580156108ee57600080fd5b505afa158015610902573d6000803e3d6000fd5b505050506040513d601f19601f820116820180604052508101906109269190610e08565b6040516001600160e01b031960e084901b1681526001600160a01b039091166004820152602481018590526044015b600060405180830381600087803b15801561096f57600080fd5b505af1158015610983573d6000803e3d6000fd5b505050505b5050565b60015b600b5481116109885760006109a582600261105e565b6109af9084610ff9565b9050600b548214156109c8576109c58180610fe1565b90505b8015610bc85760015460025460405163633cd29d60e01b8152600481018590526000926001600160a01b039081169263a9059cbb9291169063633cd29d9060240160206040518083038186803b158015610a2157600080fd5b505afa158015610a35573d6000803e3d6000fd5b505050506040513d601f19601f82011682018060405250810190610a599190610e08565b6040516001600160e01b031960e084901b1681526001600160a01b03909116600482015260248101859052604401602060405180830381600087803b158015610aa157600080fd5b505af1158015610ab5573d6000803e3d6000fd5b505050506040513d601f19601f82011682018060405250810190610ad99190610eac565b90508015610bc65760025460405163633cd29d60e01b8152600481018590526001600160a01b039091169063e6796aaa90829063633cd29d9060240160206040518083038186803b158015610b2d57600080fd5b505afa158015610b41573d6000803e3d6000fd5b505050506040513d601f19601f82011682018060405250810190610b659190610e08565b6040516001600160e01b031960e084901b1681526001600160a01b03909116600482015260248101859052604401600060405180830381600087803b158015610bad57600080fd5b505af1158015610bc1573d6000803e3d6000fd5b505050505b505b5080610bd38161113e565b91505061098f565b60015460405163a9059cbb60e01b8152732d48a3957c7246f5630a2cff2fcbdf737e0177b46004820152602481018390526000916001600160a01b03169063a9059cbb90604401602060405180830381600087803b158015610c3c57600080fd5b505af1158015610c50573d6000803e3d6000fd5b505050506040513d601f19601f82011682018060405250810190610c749190610eac565b905080156109885760025460405163733cb55560e11b8152732d48a3957c7246f5630a2cff2fcbdf737e0177b46004820152602481018490526001600160a01b039091169063e6796aaa90604401610955565b600b8054906000610cd78361113e565b9190505550816001600160a01b03167f6ceed9d5957b9e77f5d93d6312a4c8e5f63ef6f75cb9812f486b76336982b75d600b54600c5484604051610d1d93929190610fb9565b60405180910390a2600254604051630f62f71360e11b81526001600160a01b0390911690631ec5ee26906109559033908590600401610f8d565b60048190556040518181527f41f916eb2a7065889bf3a2125806adaa5ca5a1c9be36f179340901abbf666d239060200160405180910390a150565b600067ffffffffffffffff80841115610dad57610dad61116f565b604051601f8501601f19908116603f01168101908282118183101715610dd557610dd561116f565b81604052809350858152868686011115610dee57600080fd5b858560208301376000602087830101525050509392505050565b600060208284031215610e1a57600080fd5b8151610e2581611185565b9392505050565b60008060008060808587031215610e4257600080fd5b8435610e4d81611185565b93506020850135610e5d81611185565b925060408501359150606085013567ffffffffffffffff811115610e8057600080fd5b8501601f81018713610e9157600080fd5b610ea087823560208401610d92565b91505092959194509250565b600060208284031215610ebe57600080fd5b81518015158114610e2557600080fd5b60008060408385031215610ee157600080fd5b823567ffffffffffffffff811115610ef857600080fd5b8301601f81018513610f0957600080fd5b610f1885823560208401610d92565b95602094909401359450505050565b600060208284031215610f3957600080fd5b5051919050565b6000815180845260005b81811015610f6657602081850181015186830182015201610f4a565b81811115610f78576000602083870101525b50601f01601f19169290920160200192915050565b6001600160a01b0383168152604060208201819052600090610fb190830184610f40565b949350505050565b838152826020820152606060408201526000610fd86060830184610f40565b95945050505050565b60008219821115610ff457610ff4611159565b500190565b60008261101657634e487b7160e01b600052601260045260246000fd5b500490565b600181815b8085111561105657816000190482111561103c5761103c611159565b8085161561104957918102915b93841c9390800290611020565b509250929050565b6000610e25838360008261107457506001611102565b8161108157506000611102565b816001811461109757600281146110a1576110bd565b6001915050611102565b60ff8411156110b2576110b2611159565b50506001821b611102565b5060208310610133831016604e8410600b84101617156110e0575081810a611102565b6110ea838361101b565b80600019048211156110fe576110fe611159565b0290505b92915050565b600081600019048311821515161561112257611122611159565b500290565b60008282101561113957611139611159565b500390565b600060001982141561115257611152611159565b5060010190565b634e487b7160e01b600052601160045260246000fd5b634e487b7160e01b600052604160045260246000fd5b6001600160a01b038116811461119a57600080fd5b5056fea264697066735822122092e050c345388fee0410fab6f9c447f04b550ee5d7258d7ac40661a593f2e5bd64736f6c634300080600334552433732313a207472616e7366657220746f206e6f6e204552433732315265","opcodes":"PUSH1 0xA0 PUSH1 0x40 DUP2 SWAP1 MSTORE PUSH1 0x0 PUSH1 0x80 DUP2 SWAP1 MSTORE PUSH3 0x1B SWAP2 PUSH1 0x2 SWAP2 PUSH3 0x6CF JUMP JUMPDEST POP PUSH1 0xA DUP1 SLOAD PUSH1 0xFF PUSH1 0xA0 SHL NOT AND SWAP1 SSTORE CALLVALUE DUP1 ISZERO PUSH3 0x36 JUMPI PUSH1 0x0 DUP1 REVERT JUMPDEST POP PUSH1 0x40 MLOAD PUSH3 0x425F CODESIZE SUB DUP1 PUSH3 0x425F DUP4 CODECOPY DUP2 ADD PUSH1 0x40 DUP2 SWAP1 MSTORE PUSH3 0x59 SWAP2 PUSH3 0x847 JUMP JUMPDEST PUSH3 0x64 CALLER PUSH3 0x1FC JUMP JUMPDEST CALLER ORIGIN EQ PUSH3 0xD3 JUMPI PUSH1 0x40 MLOAD PUSH3 0x461BCD PUSH1 0xE5 SHL DUP2 MSTORE PUSH1 0x20 PUSH1 0x4 DUP3 ADD MSTORE PUSH1 0x31 PUSH1 0x24 DUP3 ADD MSTORE PUSH32 0x596F752063616E27742063726561746520616E2061756374696F6E2066726F6D PUSH1 0x44 DUP3 ADD MSTORE PUSH17 0x8184814DB585C9D0810DBDB9D1C9858DD PUSH1 0x7A SHL PUSH1 0x64 DUP3 ADD MSTORE PUSH1 0x84 ADD JUMPDEST PUSH1 0x40 MLOAD DUP1 SWAP2 SUB SWAP1 REVERT JUMPDEST DUP8 MLOAD PUSH3 0xE8 SWAP1 PUSH1 0x3 SWAP1 PUSH1 0x20 DUP12 ADD SWAP1 PUSH3 0x6CF JUMP JUMPDEST POP DUP7 MLOAD PUSH3 0xFE SWAP1 PUSH1 0x4 SWAP1 PUSH1 0x20 DUP11 ADD SWAP1 PUSH3 0x6CF JUMP JUMPDEST POP ADDRESS DUP7 DUP7 DUP7 DUP7 PUSH1 0x40 MLOAD PUSH3 0x112 SWAP1 PUSH3 0x75E JUMP JUMPDEST PUSH1 0x1 PUSH1 0x1 PUSH1 0xA0 SHL SUB SWAP1 SWAP6 AND DUP6 MSTORE PUSH1 0x20 DUP6 ADD SWAP4 SWAP1 SWAP4 MSTORE PUSH1 0x40 DUP5 ADD SWAP2 SWAP1 SWAP2 MSTORE PUSH1 0x60 DUP4 ADD MSTORE PUSH1 0x80 DUP3 ADD MSTORE PUSH1 0xA0 ADD PUSH1 0x40 MLOAD DUP1 SWAP2 SUB SWAP1 PUSH1 0x0 CREATE DUP1 ISZERO DUP1 ISZERO PUSH3 0x159 JUMPI RETURNDATASIZE PUSH1 0x0 DUP1 RETURNDATACOPY RETURNDATASIZE PUSH1 0x0 REVERT JUMPDEST POP PUSH1 0xA DUP1 SLOAD PUSH1 0x1 PUSH1 0x1 PUSH1 0xA0 SHL SUB NOT AND PUSH1 0x1 PUSH1 0x1 PUSH1 0xA0 SHL SUB SWAP3 SWAP1 SWAP3 AND SWAP2 SWAP1 SWAP2 OR SWAP1 SSTORE PUSH1 0x0 PUSH1 0x9 DUP2 SWAP1 SSTORE CALLER SWAP1 PUSH3 0x190 SWAP1 DUP3 SWAP1 PUSH3 0x24C JUMP JUMPDEST PUSH3 0x19D PUSH1 0x0 DUP5 PUSH3 0x272 JUMP JUMPDEST PUSH3 0x1A9 CALLER DUP4 PUSH3 0x315 JUMP JUMPDEST PUSH31 0xC7947F43485688B2F636FCDD616229DC345B08D5B66D9CED2CED30FBDE5113 DUP10 DUP10 DUP10 DUP10 DUP10 DUP10 DUP10 PUSH1 0x40 MLOAD PUSH3 0x1E5 SWAP8 SWAP7 SWAP6 SWAP5 SWAP4 SWAP3 SWAP2 SWAP1 PUSH3 0x98A JUMP JUMPDEST PUSH1 0x40 MLOAD DUP1 SWAP2 SUB SWAP1 LOG1 POP POP POP POP POP POP POP POP POP PUSH3 0xAC4 JUMP JUMPDEST PUSH1 0x0 DUP1 SLOAD PUSH1 0x1 PUSH1 0x1 PUSH1 0xA0 SHL SUB DUP4 DUP2 AND PUSH1 0x1 PUSH1 0x1 PUSH1 0xA0 SHL SUB NOT DUP4 AND DUP2 OR DUP5 SSTORE PUSH1 0x40 MLOAD SWAP2 SWAP1 SWAP3 AND SWAP3 DUP4 SWAP2 PUSH32 0x8BE0079C531659141344CD1FD0A4F28419497F9722A3DAAFE3B4186F6B6457E0 SWAP2 SWAP1 LOG3 POP POP JUMP JUMPDEST PUSH3 0x26E DUP3 DUP3 PUSH1 0x40 MLOAD DUP1 PUSH1 0x20 ADD PUSH1 0x40 MSTORE DUP1 PUSH1 0x0 DUP2 MSTORE POP PUSH3 0x3A5 PUSH1 0x20 SHL PUSH1 0x20 SHR JUMP JUMPDEST POP POP JUMP JUMPDEST PUSH1 0x0 DUP3 DUP2 MSTORE PUSH1 0x5 PUSH1 0x20 MSTORE PUSH1 0x40 SWAP1 KECCAK256 SLOAD PUSH1 0x1 PUSH1 0x1 PUSH1 0xA0 SHL SUB AND PUSH3 0x2EF JUMPI PUSH1 0x40 MLOAD PUSH3 0x461BCD PUSH1 0xE5 SHL DUP2 MSTORE PUSH1 0x20 PUSH1 0x4 DUP3 ADD MSTORE PUSH1 0x2E PUSH1 0x24 DUP3 ADD MSTORE PUSH32 0x45524337323155524953746F726167653A2055524920736574206F66206E6F6E PUSH1 0x44 DUP3 ADD MSTORE PUSH14 0x32BC34B9BA32B73A103A37B5B2B7 PUSH1 0x91 SHL PUSH1 0x64 DUP3 ADD MSTORE PUSH1 0x84 ADD PUSH3 0xCA JUMP JUMPDEST PUSH1 0x0 DUP3 DUP2 MSTORE PUSH1 0x1 PUSH1 0x20 SWAP1 DUP2 MSTORE PUSH1 0x40 SWAP1 SWAP2 KECCAK256 DUP3 MLOAD PUSH3 0x310 SWAP3 DUP5 ADD SWAP1 PUSH3 0x6CF JUMP JUMPDEST POP POP POP JUMP JUMPDEST PUSH1 0x1 PUSH1 0x1 PUSH1 0xA0 SHL SUB DUP3 AND PUSH1 0x0 SWAP1 DUP2 MSTORE PUSH1 0xB PUSH1 0x20 MSTORE PUSH1 0x40 DUP2 KECCAK256 DUP1 SLOAD PUSH1 0xFF NOT AND PUSH1 0x1 OR SWAP1 SSTORE PUSH1 0x10 DUP1 SLOAD SWAP2 PUSH3 0x348 DUP4 PUSH3 0xA7A JUMP JUMPDEST SWAP1 SWAP2 SSTORE POP POP PUSH1 0x10 DUP1 SLOAD PUSH1 0x0 SWAP1 DUP2 MSTORE PUSH1 0xC PUSH1 0x20 SWAP1 DUP2 MSTORE PUSH1 0x40 DUP1 DUP4 KECCAK256 DUP1 SLOAD PUSH1 0x1 PUSH1 0x1 PUSH1 0xA0 SHL SUB NOT AND PUSH1 0x1 PUSH1 0x1 PUSH1 0xA0 SHL SUB DUP9 AND SWAP1 DUP2 OR SWAP1 SWAP2 SSTORE SWAP4 SLOAD SWAP4 DUP4 MSTORE PUSH1 0xD DUP3 MSTORE DUP1 DUP4 KECCAK256 SWAP4 SWAP1 SWAP4 SSTORE PUSH1 0xE DUP2 MSTORE SWAP2 SWAP1 KECCAK256 DUP3 MLOAD PUSH3 0x310 SWAP3 DUP5 ADD SWAP1 PUSH3 0x6CF JUMP JUMPDEST PUSH3 0x3B1 DUP4 DUP4 PUSH3 0x418 JUMP JUMPDEST PUSH3 0x3C0 PUSH1 0x0 DUP5 DUP5 DUP5 PUSH3 0x560 JUMP JUMPDEST PUSH3 0x310 JUMPI PUSH1 0x40 MLOAD PUSH3 0x461BCD PUSH1 0xE5 SHL DUP2 MSTORE PUSH1 0x20 PUSH1 0x4 DUP3 ADD MSTORE PUSH1 0x32 PUSH1 0x24 DUP3 ADD MSTORE PUSH1 0x0 DUP1 MLOAD PUSH1 0x20 PUSH3 0x423F DUP4 CODECOPY DUP2 MLOAD SWAP2 MSTORE PUSH1 0x44 DUP3 ADD MSTORE PUSH18 0x31B2B4BB32B91034B6B83632B6B2B73A32B9 PUSH1 0x71 SHL PUSH1 0x64 DUP3 ADD MSTORE PUSH1 0x84 ADD PUSH3 0xCA JUMP JUMPDEST PUSH1 0x1 PUSH1 0x1 PUSH1 0xA0 SHL SUB DUP3 AND PUSH3 0x470 JUMPI PUSH1 0x40 MLOAD PUSH3 0x461BCD PUSH1 0xE5 SHL DUP2 MSTORE PUSH1 0x20 PUSH1 0x4 DUP3 ADD DUP2 SWAP1 MSTORE PUSH1 0x24 DUP3 ADD MSTORE PUSH32 0x4552433732313A206D696E7420746F20746865207A65726F2061646472657373 PUSH1 0x44 DUP3 ADD MSTORE PUSH1 0x64 ADD PUSH3 0xCA JUMP JUMPDEST PUSH1 0x0 DUP2 DUP2 MSTORE PUSH1 0x5 PUSH1 0x20 MSTORE PUSH1 0x40 SWAP1 KECCAK256 SLOAD PUSH1 0x1 PUSH1 0x1 PUSH1 0xA0 SHL SUB AND ISZERO PUSH3 0x4D7 JUMPI PUSH1 0x40 MLOAD PUSH3 0x461BCD PUSH1 0xE5 SHL DUP2 MSTORE PUSH1 0x20 PUSH1 0x4 DUP3 ADD MSTORE PUSH1 0x1C PUSH1 0x24 DUP3 ADD MSTORE PUSH32 0x4552433732313A20746F6B656E20616C7265616479206D696E74656400000000 PUSH1 0x44 DUP3 ADD MSTORE PUSH1 0x64 ADD PUSH3 0xCA JUMP JUMPDEST PUSH1 0x1 PUSH1 0x1 PUSH1 0xA0 SHL SUB DUP3 AND PUSH1 0x0 SWAP1 DUP2 MSTORE PUSH1 0x6 PUSH1 0x20 MSTORE PUSH1 0x40 DUP2 KECCAK256 DUP1 SLOAD PUSH1 0x1 SWAP3 SWAP1 PUSH3 0x502 SWAP1 DUP5 SWAP1 PUSH3 0x9EF JUMP JUMPDEST SWAP1 SWAP2 SSTORE POP POP PUSH1 0x0 DUP2 DUP2 MSTORE PUSH1 0x5 PUSH1 0x20 MSTORE PUSH1 0x40 DUP1 DUP3 KECCAK256 DUP1 SLOAD PUSH1 0x1 PUSH1 0x1 PUSH1 0xA0 SHL SUB NOT AND PUSH1 0x1 PUSH1 0x1 PUSH1 0xA0 SHL SUB DUP7 AND SWAP1 DUP2 OR SWAP1 SWAP2 SSTORE SWAP1 MLOAD DUP4 SWAP3 SWAP1 PUSH32 0xDDF252AD1BE2C89B69C2B068FC378DAA952BA7F163C4A11628F55A4DF523B3EF SWAP1 DUP3 SWAP1 LOG4 POP POP JUMP JUMPDEST PUSH1 0x0 PUSH3 0x581 DUP5 PUSH1 0x1 PUSH1 0x1 PUSH1 0xA0 SHL SUB AND PUSH3 0x6C9 PUSH1 0x20 SHL PUSH3 0x13D4 OR PUSH1 0x20 SHR JUMP JUMPDEST ISZERO PUSH3 0x6BD JUMPI PUSH1 0x40 MLOAD PUSH4 0xA85BD01 PUSH1 0xE1 SHL DUP2 MSTORE PUSH1 0x1 PUSH1 0x1 PUSH1 0xA0 SHL SUB DUP6 AND SWAP1 PUSH4 0x150B7A02 SWAP1 PUSH3 0x5BB SWAP1 CALLER SWAP1 DUP10 SWAP1 DUP9 SWAP1 DUP9 SWAP1 PUSH1 0x4 ADD PUSH3 0x955 JUMP JUMPDEST PUSH1 0x20 PUSH1 0x40 MLOAD DUP1 DUP4 SUB DUP2 PUSH1 0x0 DUP8 DUP1 EXTCODESIZE ISZERO DUP1 ISZERO PUSH3 0x5D6 JUMPI PUSH1 0x0 DUP1 REVERT JUMPDEST POP GAS CALL SWAP3 POP POP POP DUP1 ISZERO PUSH3 0x609 JUMPI POP PUSH1 0x40 DUP1 MLOAD PUSH1 0x1F RETURNDATASIZE SWAP1 DUP2 ADD PUSH1 0x1F NOT AND DUP3 ADD SWAP1 SWAP3 MSTORE PUSH3 0x606 SWAP2 DUP2 ADD SWAP1 PUSH3 0x814 JUMP JUMPDEST PUSH1 0x1 JUMPDEST PUSH3 0x6A2 JUMPI RETURNDATASIZE DUP1 DUP1 ISZERO PUSH3 0x63A JUMPI PUSH1 0x40 MLOAD SWAP2 POP PUSH1 0x1F NOT PUSH1 0x3F RETURNDATASIZE ADD AND DUP3 ADD PUSH1 0x40 MSTORE RETURNDATASIZE DUP3 MSTORE RETURNDATASIZE PUSH1 0x0 PUSH1 0x20 DUP5 ADD RETURNDATACOPY PUSH3 0x63F JUMP JUMPDEST PUSH1 0x60 SWAP2 POP JUMPDEST POP DUP1 MLOAD PUSH3 0x69A JUMPI PUSH1 0x40 MLOAD PUSH3 0x461BCD PUSH1 0xE5 SHL DUP2 MSTORE PUSH1 0x20 PUSH1 0x4 DUP3 ADD MSTORE PUSH1 0x32 PUSH1 0x24 DUP3 ADD MSTORE PUSH1 0x0 DUP1 MLOAD PUSH1 0x20 PUSH3 0x423F DUP4 CODECOPY DUP2 MLOAD SWAP2 MSTORE PUSH1 0x44 DUP3 ADD MSTORE PUSH18 0x31B2B4BB32B91034B6B83632B6B2B73A32B9 PUSH1 0x71 SHL PUSH1 0x64 DUP3 ADD MSTORE PUSH1 0x84 ADD PUSH3 0xCA JUMP JUMPDEST DUP1 MLOAD DUP2 PUSH1 0x20 ADD REVERT JUMPDEST PUSH1 0x1 PUSH1 0x1 PUSH1 0xE0 SHL SUB NOT AND PUSH4 0xA85BD01 PUSH1 0xE1 SHL EQ SWAP1 POP PUSH3 0x6C1 JUMP JUMPDEST POP PUSH1 0x1 JUMPDEST SWAP5 SWAP4 POP POP POP POP JUMP JUMPDEST EXTCODESIZE ISZERO ISZERO SWAP1 JUMP JUMPDEST DUP3 DUP1 SLOAD PUSH3 0x6DD SWAP1 PUSH3 0xA3D JUMP JUMPDEST SWAP1 PUSH1 0x0 MSTORE PUSH1 0x20 PUSH1 0x0 KECCAK256 SWAP1 PUSH1 0x1F ADD PUSH1 0x20 SWAP1 DIV DUP2 ADD SWAP3 DUP3 PUSH3 0x701 JUMPI PUSH1 0x0 DUP6 SSTORE PUSH3 0x74C JUMP JUMPDEST DUP3 PUSH1 0x1F LT PUSH3 0x71C JUMPI DUP1 MLOAD PUSH1 0xFF NOT AND DUP4 DUP1 ADD OR DUP6 SSTORE PUSH3 0x74C JUMP JUMPDEST DUP3 DUP1 ADD PUSH1 0x1 ADD DUP6 SSTORE DUP3 ISZERO PUSH3 0x74C JUMPI SWAP2 DUP3 ADD JUMPDEST DUP3 DUP2 GT ISZERO PUSH3 0x74C JUMPI DUP3 MLOAD DUP3 SSTORE SWAP2 PUSH1 0x20 ADD SWAP2 SWAP1 PUSH1 0x1 ADD SWAP1 PUSH3 0x72F JUMP JUMPDEST POP PUSH3 0x75A SWAP3 SWAP2 POP PUSH3 0x76C JUMP JUMPDEST POP SWAP1 JUMP JUMPDEST PUSH2 0x14F8 DUP1 PUSH3 0x2D47 DUP4 CODECOPY ADD SWAP1 JUMP JUMPDEST JUMPDEST DUP1 DUP3 GT ISZERO PUSH3 0x75A JUMPI PUSH1 0x0 DUP2 SSTORE PUSH1 0x1 ADD PUSH3 0x76D JUMP JUMPDEST PUSH1 0x0 DUP3 PUSH1 0x1F DUP4 ADD SLT PUSH3 0x795 JUMPI PUSH1 0x0 DUP1 REVERT JUMPDEST DUP2 MLOAD PUSH1 0x1 PUSH1 0x1 PUSH1 0x40 SHL SUB DUP1 DUP3 GT ISZERO PUSH3 0x7B2 JUMPI PUSH3 0x7B2 PUSH3 0xAAE JUMP JUMPDEST PUSH1 0x40 MLOAD PUSH1 0x1F DUP4 ADD PUSH1 0x1F NOT SWAP1 DUP2 AND PUSH1 0x3F ADD AND DUP2 ADD SWAP1 DUP3 DUP3 GT DUP2 DUP4 LT OR ISZERO PUSH3 0x7DD JUMPI PUSH3 0x7DD PUSH3 0xAAE JUMP JUMPDEST DUP2 PUSH1 0x40 MSTORE DUP4 DUP2 MSTORE DUP7 PUSH1 0x20 DUP6 DUP9 ADD ADD GT ISZERO PUSH3 0x7F7 JUMPI PUSH1 0x0 DUP1 REVERT JUMPDEST PUSH3 0x80A DUP5 PUSH1 0x20 DUP4 ADD PUSH1 0x20 DUP10 ADD PUSH3 0xA0A JUMP JUMPDEST SWAP7 SWAP6 POP POP POP POP POP POP JUMP JUMPDEST PUSH1 0x0 PUSH1 0x20 DUP3 DUP5 SUB SLT ISZERO PUSH3 0x827 JUMPI PUSH1 0x0 DUP1 REVERT JUMPDEST DUP2 MLOAD PUSH1 0x1 PUSH1 0x1 PUSH1 0xE0 SHL SUB NOT DUP2 AND DUP2 EQ PUSH3 0x840 JUMPI PUSH1 0x0 DUP1 REVERT JUMPDEST SWAP4 SWAP3 POP POP POP JUMP JUMPDEST PUSH1 0x0 DUP1 PUSH1 0x0 DUP1 PUSH1 0x0 DUP1 PUSH1 0x0 DUP1 PUSH2 0x100 DUP10 DUP12 SUB SLT ISZERO PUSH3 0x865 JUMPI PUSH1 0x0 DUP1 REVERT JUMPDEST DUP9 MLOAD PUSH1 0x1 PUSH1 0x1 PUSH1 0x40 SHL SUB DUP1 DUP3 GT ISZERO PUSH3 0x87D JUMPI PUSH1 0x0 DUP1 REVERT JUMPDEST PUSH3 0x88B DUP13 DUP4 DUP14 ADD PUSH3 0x783 JUMP JUMPDEST SWAP10 POP PUSH1 0x20 DUP12 ADD MLOAD SWAP2 POP DUP1 DUP3 GT ISZERO PUSH3 0x8A2 JUMPI PUSH1 0x0 DUP1 REVERT JUMPDEST PUSH3 0x8B0 DUP13 DUP4 DUP14 ADD PUSH3 0x783 JUMP JUMPDEST SWAP9 POP PUSH1 0x40 DUP12 ADD MLOAD SWAP8 POP PUSH1 0x60 DUP12 ADD MLOAD SWAP7 POP PUSH1 0x80 DUP12 ADD MLOAD SWAP6 POP PUSH1 0xA0 DUP12 ADD MLOAD SWAP5 POP PUSH1 0xC0 DUP12 ADD MLOAD SWAP2 POP DUP1 DUP3 GT ISZERO PUSH3 0x8E3 JUMPI PUSH1 0x0 DUP1 REVERT JUMPDEST PUSH3 0x8F1 DUP13 DUP4 DUP14 ADD PUSH3 0x783 JUMP JUMPDEST SWAP4 POP PUSH1 0xE0 DUP12 ADD MLOAD SWAP2 POP DUP1 DUP3 GT ISZERO PUSH3 0x908 JUMPI PUSH1 0x0 DUP1 REVERT JUMPDEST POP PUSH3 0x917 DUP12 DUP3 DUP13 ADD PUSH3 0x783 JUMP JUMPDEST SWAP2 POP POP SWAP3 SWAP6 SWAP9 POP SWAP3 SWAP6 SWAP9 SWAP1 SWAP4 SWAP7 POP JUMP JUMPDEST PUSH1 0x0 DUP2 MLOAD DUP1 DUP5 MSTORE PUSH3 0x941 DUP2 PUSH1 0x20 DUP7 ADD PUSH1 0x20 DUP7 ADD PUSH3 0xA0A JUMP JUMPDEST PUSH1 0x1F ADD PUSH1 0x1F NOT AND SWAP3 SWAP1 SWAP3 ADD PUSH1 0x20 ADD SWAP3 SWAP2 POP POP JUMP JUMPDEST PUSH1 0x1 PUSH1 0x1 PUSH1 0xA0 SHL SUB DUP6 DUP2 AND DUP3 MSTORE DUP5 AND PUSH1 0x20 DUP3 ADD MSTORE PUSH1 0x40 DUP2 ADD DUP4 SWAP1 MSTORE PUSH1 0x80 PUSH1 0x60 DUP3 ADD DUP2 SWAP1 MSTORE PUSH1 0x0 SWAP1 PUSH3 0x80A SWAP1 DUP4 ADD DUP5 PUSH3 0x927 JUMP JUMPDEST PUSH1 0xE0 DUP2 MSTORE PUSH1 0x0 PUSH3 0x99F PUSH1 0xE0 DUP4 ADD DUP11 PUSH3 0x927 JUMP JUMPDEST DUP3 DUP2 SUB PUSH1 0x20 DUP5 ADD MSTORE PUSH3 0x9B3 DUP2 DUP11 PUSH3 0x927 JUMP JUMPDEST SWAP1 POP DUP8 PUSH1 0x40 DUP5 ADD MSTORE DUP7 PUSH1 0x60 DUP5 ADD MSTORE DUP6 PUSH1 0x80 DUP5 ADD MSTORE DUP5 PUSH1 0xA0 DUP5 ADD MSTORE DUP3 DUP2 SUB PUSH1 0xC0 DUP5 ADD MSTORE PUSH3 0x9E1 DUP2 DUP6 PUSH3 0x927 JUMP JUMPDEST SWAP11 SWAP10 POP POP POP POP POP POP POP POP POP POP JUMP JUMPDEST PUSH1 0x0 DUP3 NOT DUP3 GT ISZERO PUSH3 0xA05 JUMPI PUSH3 0xA05 PUSH3 0xA98 JUMP JUMPDEST POP ADD SWAP1 JUMP JUMPDEST PUSH1 0x0 JUMPDEST DUP4 DUP2 LT ISZERO PUSH3 0xA27 JUMPI DUP2 DUP2 ADD MLOAD DUP4 DUP3 ADD MSTORE PUSH1 0x20 ADD PUSH3 0xA0D JUMP JUMPDEST DUP4 DUP2 GT ISZERO PUSH3 0xA37 JUMPI PUSH1 0x0 DUP5 DUP5 ADD MSTORE JUMPDEST POP POP POP POP JUMP JUMPDEST PUSH1 0x1 DUP2 DUP2 SHR SWAP1 DUP3 AND DUP1 PUSH3 0xA52 JUMPI PUSH1 0x7F DUP3 AND SWAP2 POP JUMPDEST PUSH1 0x20 DUP3 LT DUP2 EQ ISZERO PUSH3 0xA74 JUMPI PUSH4 0x4E487B71 PUSH1 0xE0 SHL PUSH1 0x0 MSTORE PUSH1 0x22 PUSH1 0x4 MSTORE PUSH1 0x24 PUSH1 0x0 REVERT JUMPDEST POP SWAP2 SWAP1 POP JUMP JUMPDEST PUSH1 0x0 PUSH1 0x0 NOT DUP3 EQ ISZERO PUSH3 0xA91 JUMPI PUSH3 0xA91 PUSH3 0xA98 JUMP JUMPDEST POP PUSH1 0x1 ADD SWAP1 JUMP JUMPDEST PUSH4 0x4E487B71 PUSH1 0xE0 SHL PUSH1 0x0 MSTORE PUSH1 0x11 PUSH1 0x4 MSTORE PUSH1 0x24 PUSH1 0x0 REVERT JUMPDEST PUSH4 0x4E487B71 PUSH1 0xE0 SHL PUSH1 0x0 MSTORE PUSH1 0x41 PUSH1 0x4 MSTORE PUSH1 0x24 PUSH1 0x0 REVERT JUMPDEST PUSH2 0x2273 DUP1 PUSH3 0xAD4 PUSH1 0x0 CODECOPY PUSH1 0x0 RETURN INVALID PUSH1 0x80 PUSH1 0x40 MSTORE CALLVALUE DUP1 ISZERO PUSH2 0x10 JUMPI PUSH1 0x0 DUP1 REVERT JUMPDEST POP PUSH1 0x4 CALLDATASIZE LT PUSH2 0x21C JUMPI PUSH1 0x0 CALLDATALOAD PUSH1 0xE0 SHR DUP1 PUSH4 0x715018A6 GT PUSH2 0x125 JUMPI DUP1 PUSH4 0xA4FD6F56 GT PUSH2 0xAD JUMPI DUP1 PUSH4 0xE6796AAA GT PUSH2 0x7C JUMPI DUP1 PUSH4 0xE6796AAA EQ PUSH2 0x4C9 JUMPI DUP1 PUSH4 0xE985E9C5 EQ PUSH2 0x4DC JUMPI DUP1 PUSH4 0xF2FDE38B EQ PUSH2 0x4EF JUMPI DUP1 PUSH4 0xFE67A54B EQ PUSH2 0x502 JUMPI DUP1 PUSH4 0xFF2E2888 EQ PUSH2 0x50A JUMPI PUSH1 0x0 DUP1 REVERT JUMPDEST DUP1 PUSH4 0xA4FD6F56 EQ PUSH2 0x47E JUMPI DUP1 PUSH4 0xB88D4FDE EQ PUSH2 0x490 JUMPI DUP1 PUSH4 0xC65015CB EQ PUSH2 0x4A3 JUMPI DUP1 PUSH4 0xC87B56DD EQ PUSH2 0x4B6 JUMPI PUSH1 0x0 DUP1 REVERT JUMPDEST DUP1 PUSH4 0x8620612B GT PUSH2 0xF4 JUMPI DUP1 PUSH4 0x8620612B EQ PUSH2 0x409 JUMPI DUP1 PUSH4 0x8DA5CB5B EQ PUSH2 0x432 JUMPI DUP1 PUSH4 0x95D89B41 EQ PUSH2 0x443 JUMPI DUP1 PUSH4 0x9A5DD735 EQ PUSH2 0x44B JUMPI DUP1 PUSH4 0xA22CB465 EQ PUSH2 0x46B JUMPI PUSH1 0x0 DUP1 REVERT JUMPDEST DUP1 PUSH4 0x715018A6 EQ PUSH2 0x3D5 JUMPI DUP1 PUSH4 0x82BF863D EQ PUSH2 0x3DD JUMPI DUP1 PUSH4 0x8404DAC7 EQ PUSH2 0x3F0 JUMPI DUP1 PUSH4 0x854CF3CF EQ PUSH2 0x3F8 JUMPI PUSH1 0x0 DUP1 REVERT JUMPDEST DUP1 PUSH4 0x23B872DD GT PUSH2 0x1A8 JUMPI DUP1 PUSH4 0x42842E0E GT PUSH2 0x177 JUMPI DUP1 PUSH4 0x42842E0E EQ PUSH2 0x376 JUMPI DUP1 PUSH4 0x4D5623FB EQ PUSH2 0x389 JUMPI DUP1 PUSH4 0x633CD29D EQ PUSH2 0x39C JUMPI DUP1 PUSH4 0x6352211E EQ PUSH2 0x3AF JUMPI DUP1 PUSH4 0x70A08231 EQ PUSH2 0x3C2 JUMPI PUSH1 0x0 DUP1 REVERT JUMPDEST DUP1 PUSH4 0x23B872DD EQ PUSH2 0x32E JUMPI DUP1 PUSH4 0x2820345A EQ PUSH2 0x341 JUMPI DUP1 PUSH4 0x313CE567 EQ PUSH2 0x354 JUMPI DUP1 PUSH4 0x3790D53D EQ PUSH2 0x363 JUMPI PUSH1 0x0 DUP1 REVERT JUMPDEST DUP1 PUSH4 0x95EA7B3 GT PUSH2 0x1EF JUMPI DUP1 PUSH4 0x95EA7B3 EQ PUSH2 0x29B JUMPI DUP1 PUSH4 0xC4E1760 EQ PUSH2 0x2B0 JUMPI DUP1 PUSH4 0x150B7A02 EQ PUSH2 0x2C3 JUMPI DUP1 PUSH4 0x1D126FCB EQ PUSH2 0x2EF JUMPI DUP1 PUSH4 0x1EC5EE26 EQ PUSH2 0x31B JUMPI PUSH1 0x0 DUP1 REVERT JUMPDEST DUP1 PUSH4 0x10A38F5 EQ PUSH2 0x221 JUMPI DUP1 PUSH4 0x1FFC9A7 EQ PUSH2 0x238 JUMPI DUP1 PUSH4 0x6FDDE03 EQ PUSH2 0x25B JUMPI DUP1 PUSH4 0x81812FC EQ PUSH2 0x270 JUMPI JUMPDEST PUSH1 0x0 DUP1 REVERT JUMPDEST PUSH1 0x9 SLOAD JUMPDEST PUSH1 0x40 MLOAD SWAP1 DUP2 MSTORE PUSH1 0x20 ADD JUMPDEST PUSH1 0x40 MLOAD DUP1 SWAP2 SUB SWAP1 RETURN JUMPDEST PUSH2 0x24B PUSH2 0x246 CALLDATASIZE PUSH1 0x4 PUSH2 0x1D28 JUMP JUMPDEST PUSH2 0x51D JUMP JUMPDEST PUSH1 0x40 MLOAD SWAP1 ISZERO ISZERO DUP2 MSTORE PUSH1 0x20 ADD PUSH2 0x22F JUMP JUMPDEST PUSH2 0x263 PUSH2 0x58A JUMP JUMPDEST PUSH1 0x40 MLOAD PUSH2 0x22F SWAP2 SWAP1 PUSH2 0x1E43 JUMP JUMPDEST PUSH2 0x283 PUSH2 0x27E CALLDATASIZE PUSH1 0x4 PUSH2 0x1D62 JUMP JUMPDEST PUSH2 0x61C JUMP JUMPDEST PUSH1 0x40 MLOAD PUSH1 0x1 PUSH1 0x1 PUSH1 0xA0 SHL SUB SWAP1 SWAP2 AND DUP2 MSTORE PUSH1 0x20 ADD PUSH2 0x22F JUMP JUMPDEST PUSH2 0x2AE PUSH2 0x2A9 CALLDATASIZE PUSH1 0x4 PUSH2 0x1CFC JUMP JUMPDEST PUSH2 0x6B6 JUMP JUMPDEST STOP JUMPDEST PUSH2 0x225 PUSH2 0x2BE CALLDATASIZE PUSH1 0x4 PUSH2 0x1B2A JUMP JUMPDEST PUSH2 0x85C JUMP JUMPDEST PUSH2 0x2D6 PUSH2 0x2D1 CALLDATASIZE PUSH1 0x4 PUSH2 0x1BE5 JUMP JUMPDEST PUSH2 0x8D0 JUMP JUMPDEST PUSH1 0x40 MLOAD PUSH1 0x1 PUSH1 0x1 PUSH1 0xE0 SHL SUB NOT SWAP1 SWAP2 AND DUP2 MSTORE PUSH1 0x20 ADD PUSH2 0x22F JUMP JUMPDEST PUSH2 0x24B PUSH2 0x2FD CALLDATASIZE PUSH1 0x4 PUSH2 0x1B2A JUMP JUMPDEST PUSH1 0x1 PUSH1 0x1 PUSH1 0xA0 SHL SUB AND PUSH1 0x0 SWAP1 DUP2 MSTORE PUSH1 0xB PUSH1 0x20 MSTORE PUSH1 0x40 SWAP1 KECCAK256 SLOAD PUSH1 0xFF AND SWAP1 JUMP JUMPDEST PUSH2 0x2AE PUSH2 0x329 CALLDATASIZE PUSH1 0x4 PUSH2 0x1C98 JUMP JUMPDEST PUSH2 0x8E1 JUMP JUMPDEST PUSH2 0x2AE PUSH2 0x33C CALLDATASIZE PUSH1 0x4 PUSH2 0x1BA4 JUMP JUMPDEST PUSH2 0x919 JUMP JUMPDEST PUSH2 0x225 PUSH2 0x34F CALLDATASIZE PUSH1 0x4 PUSH2 0x1B2A JUMP JUMPDEST PUSH2 0x9FE JUMP JUMPDEST PUSH1 0x40 MLOAD PUSH1 0x0 DUP2 MSTORE PUSH1 0x20 ADD PUSH2 0x22F JUMP JUMPDEST PUSH2 0x263 PUSH2 0x371 CALLDATASIZE PUSH1 0x4 PUSH2 0x1D62 JUMP JUMPDEST PUSH2 0xA5C JUMP JUMPDEST PUSH2 0x2AE PUSH2 0x384 CALLDATASIZE PUSH1 0x4 PUSH2 0x1BA4 JUMP JUMPDEST PUSH2 0xB6C JUMP JUMPDEST PUSH2 0x263 PUSH2 0x397 CALLDATASIZE PUSH1 0x4 PUSH2 0x1D62 JUMP JUMPDEST PUSH2 0xB87 JUMP JUMPDEST PUSH2 0x283 PUSH2 0x3AA CALLDATASIZE PUSH1 0x4 PUSH2 0x1D62 JUMP JUMPDEST PUSH2 0xBE7 JUMP JUMPDEST PUSH2 0x283 PUSH2 0x3BD CALLDATASIZE PUSH1 0x4 PUSH2 0x1D62 JUMP JUMPDEST PUSH2 0xC35 JUMP JUMPDEST PUSH2 0x225 PUSH2 0x3D0 CALLDATASIZE PUSH1 0x4 PUSH2 0x1B2A JUMP JUMPDEST PUSH2 0xCAC JUMP JUMPDEST PUSH2 0x2AE PUSH2 0xD33 JUMP JUMPDEST PUSH2 0x283 PUSH2 0x3EB CALLDATASIZE PUSH1 0x4 PUSH2 0x1D62 JUMP JUMPDEST PUSH2 0xD99 JUMP JUMPDEST PUSH1 0x10 SLOAD PUSH2 0x225 JUMP JUMPDEST PUSH1 0xA SLOAD PUSH1 0x1 PUSH1 0x1 PUSH1 0xA0 SHL SUB AND PUSH2 0x283 JUMP JUMPDEST PUSH2 0x225 PUSH2 0x417 CALLDATASIZE PUSH1 0x4 PUSH2 0x1B2A JUMP JUMPDEST PUSH1 0x1 PUSH1 0x1 PUSH1 0xA0 SHL SUB AND PUSH1 0x0 SWAP1 DUP2 MSTORE PUSH1 0xF PUSH1 0x20 MSTORE PUSH1 0x40 SWAP1 KECCAK256 SLOAD SWAP1 JUMP JUMPDEST PUSH1 0x0 SLOAD PUSH1 0x1 PUSH1 0x1 PUSH1 0xA0 SHL SUB AND PUSH2 0x283 JUMP JUMPDEST PUSH2 0x263 PUSH2 0xE09 JUMP JUMPDEST PUSH1 0x10 SLOAD PUSH1 0x0 SWAP1 DUP2 MSTORE PUSH1 0xC PUSH1 0x20 MSTORE PUSH1 0x40 SWAP1 KECCAK256 SLOAD PUSH1 0x1 PUSH1 0x1 PUSH1 0xA0 SHL SUB AND PUSH2 0x283 JUMP JUMPDEST PUSH2 0x2AE PUSH2 0x479 CALLDATASIZE PUSH1 0x4 PUSH2 0x1C65 JUMP JUMPDEST PUSH2 0xE18 JUMP JUMPDEST PUSH1 0xA SLOAD PUSH1 0x1 PUSH1 0xA0 SHL SWAP1 DIV PUSH1 0xFF AND PUSH2 0x24B JUMP JUMPDEST PUSH2 0x2AE PUSH2 0x49E CALLDATASIZE PUSH1 0x4 PUSH2 0x1BE5 JUMP JUMPDEST PUSH2 0xF06 JUMP JUMPDEST PUSH2 0x263 PUSH2 0x4B1 CALLDATASIZE PUSH1 0x4 PUSH2 0x1B2A JUMP JUMPDEST PUSH2 0xFED JUMP JUMPDEST PUSH2 0x263 PUSH2 0x4C4 CALLDATASIZE PUSH1 0x4 PUSH2 0x1D62 JUMP JUMPDEST PUSH2 0x104D JUMP JUMPDEST PUSH2 0x2AE PUSH2 0x4D7 CALLDATASIZE PUSH1 0x4 PUSH2 0x1CFC JUMP JUMPDEST PUSH2 0x11D7 JUMP JUMPDEST PUSH2 0x24B PUSH2 0x4EA CALLDATASIZE PUSH1 0x4 PUSH2 0x1B6B JUMP JUMPDEST PUSH2 0x1245 JUMP JUMPDEST PUSH2 0x2AE PUSH2 0x4FD CALLDATASIZE PUSH1 0x4 PUSH2 0x1B2A JUMP JUMPDEST PUSH2 0x1273 JUMP JUMPDEST PUSH2 0x2AE PUSH2 0x133E JUMP JUMPDEST PUSH2 0x225 PUSH2 0x518 CALLDATASIZE PUSH1 0x4 PUSH2 0x1B2A JUMP JUMPDEST PUSH2 0x137D JUMP JUMPDEST PUSH1 0x0 PUSH1 0x1 PUSH1 0x1 PUSH1 0xE0 SHL SUB NOT DUP3 AND PUSH4 0x80AC58CD PUSH1 0xE0 SHL EQ DUP1 PUSH2 0x54E JUMPI POP PUSH1 0x1 PUSH1 0x1 PUSH1 0xE0 SHL SUB NOT DUP3 AND PUSH4 0x5B5E139F PUSH1 0xE0 SHL EQ JUMPDEST DUP1 PUSH2 0x569 JUMPI POP PUSH4 0x1FFC9A7 PUSH1 0xE0 SHL PUSH1 0x1 PUSH1 0x1 PUSH1 0xE0 SHL SUB NOT DUP4 AND EQ JUMPDEST DUP1 PUSH2 0x584 JUMPI POP PUSH1 0x1 PUSH1 0x1 PUSH1 0xE0 SHL SUB NOT DUP3 AND PUSH4 0xA85BD01 PUSH1 0xE1 SHL EQ JUMPDEST SWAP3 SWAP2 POP POP JUMP JUMPDEST PUSH1 0x60 PUSH1 0x3 DUP1 SLOAD PUSH2 0x599 SWAP1 PUSH2 0x2196 JUMP JUMPDEST DUP1 PUSH1 0x1F ADD PUSH1 0x20 DUP1 SWAP2 DIV MUL PUSH1 0x20 ADD PUSH1 0x40 MLOAD SWAP1 DUP2 ADD PUSH1 0x40 MSTORE DUP1 SWAP3 SWAP2 SWAP1 DUP2 DUP2 MSTORE PUSH1 0x20 ADD DUP3 DUP1 SLOAD PUSH2 0x5C5 SWAP1 PUSH2 0x2196 JUMP JUMPDEST DUP1 ISZERO PUSH2 0x612 JUMPI DUP1 PUSH1 0x1F LT PUSH2 0x5E7 JUMPI PUSH2 0x100 DUP1 DUP4 SLOAD DIV MUL DUP4 MSTORE SWAP2 PUSH1 0x20 ADD SWAP2 PUSH2 0x612 JUMP JUMPDEST DUP3 ADD SWAP2 SWAP1 PUSH1 0x0 MSTORE PUSH1 0x20 PUSH1 0x0 KECCAK256 SWAP1 JUMPDEST DUP2 SLOAD DUP2 MSTORE SWAP1 PUSH1 0x1 ADD SWAP1 PUSH1 0x20 ADD DUP1 DUP4 GT PUSH2 0x5F5 JUMPI DUP3 SWAP1 SUB PUSH1 0x1F AND DUP3 ADD SWAP2 JUMPDEST POP POP POP POP POP SWAP1 POP SWAP1 JUMP JUMPDEST PUSH1 0x0 DUP2 DUP2 MSTORE PUSH1 0x5 PUSH1 0x20 MSTORE PUSH1 0x40 DUP2 KECCAK256 SLOAD PUSH1 0x1 PUSH1 0x1 PUSH1 0xA0 SHL SUB AND PUSH2 0x69A JUMPI PUSH1 0x40 MLOAD PUSH3 0x461BCD PUSH1 0xE5 SHL DUP2 MSTORE PUSH1 0x20 PUSH1 0x4 DUP3 ADD MSTORE PUSH1 0x2C PUSH1 0x24 DUP3 ADD MSTORE PUSH32 0x4552433732313A20617070726F76656420717565727920666F72206E6F6E6578 PUSH1 0x44 DUP3 ADD MSTORE PUSH12 0x34B9BA32B73A103A37B5B2B7 PUSH1 0xA1 SHL PUSH1 0x64 DUP3 ADD MSTORE PUSH1 0x84 ADD JUMPDEST PUSH1 0x40 MLOAD DUP1 SWAP2 SUB SWAP1 REVERT JUMPDEST POP PUSH1 0x0 SWAP1 DUP2 MSTORE PUSH1 0x7 PUSH1 0x20 MSTORE PUSH1 0x40 SWAP1 KECCAK256 SLOAD PUSH1 0x1 PUSH1 0x1 PUSH1 0xA0 SHL SUB AND SWAP1 JUMP JUMPDEST PUSH1 0xA SLOAD PUSH1 0x1 PUSH1 0xA0 SHL SWAP1 DIV PUSH1 0xFF AND PUSH2 0x6DF JUMPI PUSH1 0x40 MLOAD PUSH3 0x461BCD PUSH1 0xE5 SHL DUP2 MSTORE PUSH1 0x4 ADD PUSH2 0x691 SWAP1 PUSH2 0x1EDF JUMP JUMPDEST PUSH1 0x40 MLOAD PUSH4 0x31A9108F PUSH1 0xE1 SHL DUP2 MSTORE PUSH1 0x4 DUP2 ADD DUP3 SWAP1 MSTORE PUSH1 0x0 SWAP1 ADDRESS SWAP1 PUSH4 0x6352211E SWAP1 PUSH1 0x24 ADD PUSH1 0x20 PUSH1 0x40 MLOAD DUP1 DUP4 SUB DUP2 DUP7 DUP1 EXTCODESIZE ISZERO DUP1 ISZERO PUSH2 0x719 JUMPI PUSH1 0x0 DUP1 REVERT JUMPDEST POP GAS STATICCALL ISZERO DUP1 ISZERO PUSH2 0x72D JUMPI RETURNDATASIZE PUSH1 0x0 DUP1 RETURNDATACOPY RETURNDATASIZE PUSH1 0x0 REVERT JUMPDEST POP POP POP POP PUSH1 0x40 MLOAD RETURNDATASIZE PUSH1 0x1F NOT PUSH1 0x1F DUP3 ADD AND DUP3 ADD DUP1 PUSH1 0x40 MSTORE POP DUP2 ADD SWAP1 PUSH2 0x751 SWAP2 SWAP1 PUSH2 0x1B4E JUMP JUMPDEST SWAP1 POP DUP1 PUSH1 0x1 PUSH1 0x1 PUSH1 0xA0 SHL SUB AND DUP4 PUSH1 0x1 PUSH1 0x1 PUSH1 0xA0 SHL SUB AND EQ ISZERO PUSH2 0x7BF JUMPI PUSH1 0x40 MLOAD PUSH3 0x461BCD PUSH1 0xE5 SHL DUP2 MSTORE PUSH1 0x20 PUSH1 0x4 DUP3 ADD MSTORE PUSH1 0x21 PUSH1 0x24 DUP3 ADD MSTORE PUSH32 0x4552433732313A20617070726F76616C20746F2063757272656E74206F776E65 PUSH1 0x44 DUP3 ADD MSTORE PUSH1 0x39 PUSH1 0xF9 SHL PUSH1 0x64 DUP3 ADD MSTORE PUSH1 0x84 ADD PUSH2 0x691 JUMP JUMPDEST CALLER PUSH1 0x1 PUSH1 0x1 PUSH1 0xA0 SHL SUB DUP3 AND EQ DUP1 PUSH2 0x7DB JUMPI POP PUSH2 0x7DB DUP2 CALLER PUSH2 0x1245 JUMP JUMPDEST PUSH2 0x84D JUMPI PUSH1 0x40 MLOAD PUSH3 0x461BCD PUSH1 0xE5 SHL DUP2 MSTORE PUSH1 0x20 PUSH1 0x4 DUP3 ADD MSTORE PUSH1 0x38 PUSH1 0x24 DUP3 ADD MSTORE PUSH32 0x4552433732313A20617070726F76652063616C6C6572206973206E6F74206F77 PUSH1 0x44 DUP3 ADD MSTORE PUSH32 0x6E6572206E6F7220617070726F76656420666F7220616C6C0000000000000000 PUSH1 0x64 DUP3 ADD MSTORE PUSH1 0x84 ADD PUSH2 0x691 JUMP JUMPDEST PUSH2 0x857 DUP4 DUP4 PUSH2 0x13DA JUMP JUMPDEST POP POP POP JUMP JUMPDEST PUSH1 0x1 PUSH1 0x1 PUSH1 0xA0 SHL SUB DUP2 AND PUSH1 0x0 SWAP1 DUP2 MSTORE PUSH1 0xB PUSH1 0x20 MSTORE PUSH1 0x40 DUP2 KECCAK256 SLOAD DUP3 SWAP1 PUSH1 0xFF AND PUSH2 0x896 JUMPI PUSH1 0x40 MLOAD PUSH3 0x461BCD PUSH1 0xE5 SHL DUP2 MSTORE PUSH1 0x4 ADD PUSH2 0x691 SWAP1 PUSH2 0x1E56 JUMP JUMPDEST PUSH1 0x1 PUSH1 0x1 PUSH1 0xA0 SHL SUB DUP4 AND PUSH1 0x0 SWAP1 DUP2 MSTORE PUSH1 0xD PUSH1 0x20 MSTORE PUSH1 0x40 SWAP1 KECCAK256 SLOAD PUSH1 0x10 SLOAD PUSH2 0x8BD SWAP1 PUSH1 0x1 PUSH2 0x2050 JUMP JUMPDEST PUSH2 0x8C7 SWAP2 SWAP1 PUSH2 0x2153 JUMP JUMPDEST SWAP2 POP JUMPDEST POP SWAP2 SWAP1 POP JUMP JUMPDEST PUSH4 0xA85BD01 PUSH1 0xE1 SHL JUMPDEST SWAP5 SWAP4 POP POP POP POP JUMP JUMPDEST PUSH1 0xA SLOAD PUSH1 0x1 PUSH1 0x1 PUSH1 0xA0 SHL SUB AND CALLER EQ PUSH2 0x90B JUMPI PUSH1 0x40 MLOAD PUSH3 0x461BCD PUSH1 0xE5 SHL DUP2 MSTORE PUSH1 0x4 ADD PUSH2 0x691 SWAP1 PUSH2 0x1FC8 JUMP JUMPDEST PUSH2 0x915 DUP3 DUP3 PUSH2 0x14B0 JUMP JUMPDEST POP POP JUMP JUMPDEST PUSH1 0xA SLOAD DUP3 SWAP1 DUP3 SWAP1 PUSH1 0x1 PUSH1 0xA0 SHL SWAP1 DIV PUSH1 0xFF AND PUSH2 0x9C6 JUMPI PUSH1 0xA SLOAD PUSH1 0x1 PUSH1 0x1 PUSH1 0xA0 SHL SUB AND CALLER EQ PUSH2 0x958 JUMPI PUSH1 0x40 MLOAD PUSH3 0x461BCD PUSH1 0xE5 SHL DUP2 MSTORE PUSH1 0x4 ADD PUSH2 0x691 SWAP1 PUSH2 0x1F6B JUMP JUMPDEST PUSH1 0x1 PUSH1 0x1 PUSH1 0xA0 SHL SUB DUP3 AND PUSH1 0x0 SWAP1 DUP2 MSTORE PUSH1 0xB PUSH1 0x20 MSTORE PUSH1 0x40 SWAP1 KECCAK256 SLOAD PUSH1 0xFF AND ISZERO PUSH2 0x9C1 JUMPI PUSH1 0x40 MLOAD PUSH3 0x461BCD PUSH1 0xE5 SHL DUP2 MSTORE PUSH1 0x20 PUSH1 0x4 DUP3 ADD DUP2 SWAP1 MSTORE PUSH1 0x24 DUP3 ADD MSTORE PUSH32 0x43616C6C65722068617320616C7265616479206265656E20616E206F776E6572 PUSH1 0x44 DUP3 ADD MSTORE PUSH1 0x64 ADD PUSH2 0x691 JUMP JUMPDEST PUSH2 0x9EC JUMP JUMPDEST PUSH2 0x9D0 CALLER DUP3 PUSH2 0x153C JUMP JUMPDEST PUSH2 0x9EC JUMPI PUSH1 0x40 MLOAD PUSH3 0x461BCD PUSH1 0xE5 SHL DUP2 MSTORE PUSH1 0x4 ADD PUSH2 0x691 SWAP1 PUSH2 0x1FFF JUMP JUMPDEST PUSH2 0x9F7 DUP6 DUP6 DUP6 PUSH2 0x1672 JUMP JUMPDEST POP POP POP POP POP JUMP JUMPDEST PUSH1 0x1 PUSH1 0x1 PUSH1 0xA0 SHL SUB DUP2 AND PUSH1 0x0 SWAP1 DUP2 MSTORE PUSH1 0xB PUSH1 0x20 MSTORE PUSH1 0x40 DUP2 KECCAK256 SLOAD DUP3 SWAP1 PUSH1 0xFF AND PUSH2 0xA38 JUMPI PUSH1 0x40 MLOAD PUSH3 0x461BCD PUSH1 0xE5 SHL DUP2 MSTORE PUSH1 0x4 ADD PUSH2 0x691 SWAP1 PUSH2 0x1E56 JUMP JUMPDEST PUSH1 0x1 PUSH1 0x1 PUSH1 0xA0 SHL SUB DUP4 AND PUSH1 0x0 SWAP1 DUP2 MSTORE PUSH1 0xD PUSH1 0x20 MSTORE PUSH1 0x40 SWAP1 KECCAK256 SLOAD PUSH2 0x8C7 SWAP1 PUSH1 0x2 PUSH2 0x20AB JUMP JUMPDEST PUSH1 0x60 DUP2 PUSH1 0x0 DUP2 GT DUP1 ISZERO PUSH2 0xA71 JUMPI POP PUSH1 0x10 SLOAD DUP2 GT ISZERO JUMPDEST PUSH2 0xA8D JUMPI PUSH1 0x40 MLOAD PUSH3 0x461BCD PUSH1 0xE5 SHL DUP2 MSTORE PUSH1 0x4 ADD PUSH2 0x691 SWAP1 PUSH2 0x1F34 JUMP JUMPDEST PUSH1 0xE PUSH1 0x0 PUSH1 0xC PUSH1 0x0 DUP7 PUSH1 0x10 SLOAD PUSH1 0x1 PUSH2 0xAA5 SWAP2 SWAP1 PUSH2 0x2050 JUMP JUMPDEST PUSH2 0xAAF SWAP2 SWAP1 PUSH2 0x2153 JUMP JUMPDEST DUP2 MSTORE PUSH1 0x20 DUP1 DUP3 ADD SWAP3 SWAP1 SWAP3 MSTORE PUSH1 0x40 SWAP1 DUP2 ADD PUSH1 0x0 SWAP1 DUP2 KECCAK256 SLOAD PUSH1 0x1 PUSH1 0x1 PUSH1 0xA0 SHL SUB AND DUP5 MSTORE SWAP2 DUP4 ADD SWAP4 SWAP1 SWAP4 MSTORE SWAP2 ADD SWAP1 KECCAK256 DUP1 SLOAD PUSH2 0xAE6 SWAP1 PUSH2 0x2196 JUMP JUMPDEST DUP1 PUSH1 0x1F ADD PUSH1 0x20 DUP1 SWAP2 DIV MUL PUSH1 0x20 ADD PUSH1 0x40 MLOAD SWAP1 DUP2 ADD PUSH1 0x40 MSTORE DUP1 SWAP3 SWAP2 SWAP1 DUP2 DUP2 MSTORE PUSH1 0x20 ADD DUP3 DUP1 SLOAD PUSH2 0xB12 SWAP1 PUSH2 0x2196 JUMP JUMPDEST DUP1 ISZERO PUSH2 0xB5F JUMPI DUP1 PUSH1 0x1F LT PUSH2 0xB34 JUMPI PUSH2 0x100 DUP1 DUP4 SLOAD DIV MUL DUP4 MSTORE SWAP2 PUSH1 0x20 ADD SWAP2 PUSH2 0xB5F JUMP JUMPDEST DUP3 ADD SWAP2 SWAP1 PUSH1 0x0 MSTORE PUSH1 0x20 PUSH1 0x0 KECCAK256 SWAP1 JUMPDEST DUP2 SLOAD DUP2 MSTORE SWAP1 PUSH1 0x1 ADD SWAP1 PUSH1 0x20 ADD DUP1 DUP4 GT PUSH2 0xB42 JUMPI DUP3 SWAP1 SUB PUSH1 0x1F AND DUP3 ADD SWAP2 JUMPDEST POP POP POP POP POP SWAP2 POP POP SWAP2 SWAP1 POP JUMP JUMPDEST PUSH2 0x857 DUP4 DUP4 DUP4 PUSH1 0x40 MLOAD DUP1 PUSH1 0x20 ADD PUSH1 0x40 MSTORE DUP1 PUSH1 0x0 DUP2 MSTORE POP PUSH2 0xF06 JUMP JUMPDEST PUSH1 0x60 DUP2 PUSH1 0x0 DUP2 GT DUP1 ISZERO PUSH2 0xB9C JUMPI POP PUSH1 0x10 SLOAD DUP2 GT ISZERO JUMPDEST PUSH2 0xBB8 JUMPI PUSH1 0x40 MLOAD PUSH3 0x461BCD PUSH1 0xE5 SHL DUP2 MSTORE PUSH1 0x4 ADD PUSH2 0x691 SWAP1 PUSH2 0x1F34 JUMP JUMPDEST PUSH1 0x0 DUP4 DUP2 MSTORE PUSH1 0xC PUSH1 0x20 SWAP1 DUP2 MSTORE PUSH1 0x40 DUP1 DUP4 KECCAK256 SLOAD PUSH1 0x1 PUSH1 0x1 PUSH1 0xA0 SHL SUB AND DUP4 MSTORE PUSH1 0xE SWAP1 SWAP2 MSTORE SWAP1 KECCAK256 DUP1 SLOAD PUSH2 0xAE6 SWAP1 PUSH2 0x2196 JUMP JUMPDEST PUSH1 0x0 DUP2 PUSH1 0x0 DUP2 GT DUP1 ISZERO PUSH2 0xBFC JUMPI POP PUSH1 0x10 SLOAD DUP2 GT ISZERO JUMPDEST PUSH2 0xC18 JUMPI PUSH1 0x40 MLOAD PUSH3 0x461BCD PUSH1 0xE5 SHL DUP2 MSTORE PUSH1 0x4 ADD PUSH2 0x691 SWAP1 PUSH2 0x1F34 JUMP JUMPDEST POP POP PUSH1 0x0 SWAP1 DUP2 MSTORE PUSH1 0xC PUSH1 0x20 MSTORE PUSH1 0x40 SWAP1 KECCAK256 SLOAD PUSH1 0x1 PUSH1 0x1 PUSH1 0xA0 SHL SUB AND SWAP1 JUMP JUMPDEST PUSH1 0x0 DUP2 DUP2 MSTORE PUSH1 0x5 PUSH1 0x20 MSTORE PUSH1 0x40 DUP2 KECCAK256 SLOAD PUSH1 0x1 PUSH1 0x1 PUSH1 0xA0 SHL SUB AND DUP1 PUSH2 0x584 JUMPI PUSH1 0x40 MLOAD PUSH3 0x461BCD PUSH1 0xE5 SHL DUP2 MSTORE PUSH1 0x20 PUSH1 0x4 DUP3 ADD MSTORE PUSH1 0x29 PUSH1 0x24 DUP3 ADD MSTORE PUSH32 0x4552433732313A206F776E657220717565727920666F72206E6F6E6578697374 PUSH1 0x44 DUP3 ADD MSTORE PUSH9 0x32B73A103A37B5B2B7 PUSH1 0xB9 SHL PUSH1 0x64 DUP3 ADD MSTORE PUSH1 0x84 ADD PUSH2 0x691 JUMP JUMPDEST PUSH1 0x0 PUSH1 0x1 PUSH1 0x1 PUSH1 0xA0 SHL SUB DUP3 AND PUSH2 0xD17 JUMPI PUSH1 0x40 MLOAD PUSH3 0x461BCD PUSH1 0xE5 SHL DUP2 MSTORE PUSH1 0x20 PUSH1 0x4 DUP3 ADD MSTORE PUSH1 0x2A PUSH1 0x24 DUP3 ADD MSTORE PUSH32 0x4552433732313A2062616C616E636520717565727920666F7220746865207A65 PUSH1 0x44 DUP3 ADD MSTORE PUSH10 0x726F2061646472657373 PUSH1 0xB0 SHL PUSH1 0x64 DUP3 ADD MSTORE PUSH1 0x84 ADD PUSH2 0x691 JUMP JUMPDEST POP PUSH1 0x1 PUSH1 0x1 PUSH1 0xA0 SHL SUB AND PUSH1 0x0 SWAP1 DUP2 MSTORE PUSH1 0x6 PUSH1 0x20 MSTORE PUSH1 0x40 SWAP1 KECCAK256 SLOAD SWAP1 JUMP JUMPDEST PUSH1 0x0 SLOAD PUSH1 0x1 PUSH1 0x1 PUSH1 0xA0 SHL SUB AND CALLER EQ PUSH2 0xD8D JUMPI PUSH1 0x40 MLOAD PUSH3 0x461BCD PUSH1 0xE5 SHL DUP2 MSTORE PUSH1 0x20 PUSH1 0x4 DUP3 ADD DUP2 SWAP1 MSTORE PUSH1 0x24 DUP3 ADD MSTORE PUSH32 0x4F776E61626C653A2063616C6C6572206973206E6F7420746865206F776E6572 PUSH1 0x44 DUP3 ADD MSTORE PUSH1 0x64 ADD PUSH2 0x691 JUMP JUMPDEST PUSH2 0xD97 PUSH1 0x0 PUSH2 0x1879 JUMP JUMPDEST JUMP JUMPDEST PUSH1 0x0 DUP2 PUSH1 0x0 DUP2 GT DUP1 ISZERO PUSH2 0xDAE JUMPI POP PUSH1 0x10 SLOAD DUP2 GT ISZERO JUMPDEST PUSH2 0xDCA JUMPI PUSH1 0x40 MLOAD PUSH3 0x461BCD PUSH1 0xE5 SHL DUP2 MSTORE PUSH1 0x4 ADD PUSH2 0x691 SWAP1 PUSH2 0x1F34 JUMP JUMPDEST PUSH1 0xC PUSH1 0x0 DUP5 PUSH1 0x10 SLOAD PUSH1 0x1 PUSH2 0xDDE SWAP2 SWAP1 PUSH2 0x2050 JUMP JUMPDEST PUSH2 0xDE8 SWAP2 SWAP1 PUSH2 0x2153 JUMP JUMPDEST DUP2 MSTORE PUSH1 0x20 DUP2 ADD SWAP2 SWAP1 SWAP2 MSTORE PUSH1 0x40 ADD PUSH1 0x0 KECCAK256 SLOAD PUSH1 0x1 PUSH1 0x1 PUSH1 0xA0 SHL SUB AND SWAP4 SWAP3 POP POP POP JUMP JUMPDEST PUSH1 0x60 PUSH1 0x4 DUP1 SLOAD PUSH2 0x599 SWAP1 PUSH2 0x2196 JUMP JUMPDEST PUSH1 0xA SLOAD PUSH1 0x1 PUSH1 0xA0 SHL SWAP1 DIV PUSH1 0xFF AND PUSH2 0xE41 JUMPI PUSH1 0x40 MLOAD PUSH3 0x461BCD PUSH1 0xE5 SHL DUP2 MSTORE PUSH1 0x4 ADD PUSH2 0x691 SWAP1 PUSH2 0x1EDF JUMP JUMPDEST PUSH1 0x1 PUSH1 0x1 PUSH1 0xA0 SHL SUB DUP3 AND CALLER EQ ISZERO PUSH2 0xE9A JUMPI PUSH1 0x40 MLOAD PUSH3 0x461BCD PUSH1 0xE5 SHL DUP2 MSTORE PUSH1 0x20 PUSH1 0x4 DUP3 ADD MSTORE PUSH1 0x19 PUSH1 0x24 DUP3 ADD MSTORE PUSH32 0x4552433732313A20617070726F766520746F2063616C6C657200000000000000 PUSH1 0x44 DUP3 ADD MSTORE PUSH1 0x64 ADD PUSH2 0x691 JUMP JUMPDEST CALLER PUSH1 0x0 DUP2 DUP2 MSTORE PUSH1 0x8 PUSH1 0x20 SWAP1 DUP2 MSTORE PUSH1 0x40 DUP1 DUP4 KECCAK256 PUSH1 0x1 PUSH1 0x1 PUSH1 0xA0 SHL SUB DUP8 AND DUP1 DUP6 MSTORE SWAP1 DUP4 MSTORE SWAP3 DUP2 SWAP1 KECCAK256 DUP1 SLOAD PUSH1 0xFF NOT AND DUP7 ISZERO ISZERO SWAP1 DUP2 OR SWAP1 SWAP2 SSTORE SWAP1 MLOAD SWAP1 DUP2 MSTORE SWAP2 SWAP3 SWAP2 PUSH32 0x17307EAB39AB6107E8899845AD3D59BD9653F200F220920489CA2B5937696C31 SWAP2 ADD PUSH1 0x40 MLOAD DUP1 SWAP2 SUB SWAP1 LOG3 POP POP JUMP JUMPDEST PUSH1 0xA SLOAD DUP4 SWAP1 DUP4 SWAP1 PUSH1 0x1 PUSH1 0xA0 SHL SWAP1 DIV PUSH1 0xFF AND PUSH2 0xFB3 JUMPI PUSH1 0xA SLOAD PUSH1 0x1 PUSH1 0x1 PUSH1 0xA0 SHL SUB AND CALLER EQ PUSH2 0xF45 JUMPI PUSH1 0x40 MLOAD PUSH3 0x461BCD PUSH1 0xE5 SHL DUP2 MSTORE PUSH1 0x4 ADD PUSH2 0x691 SWAP1 PUSH2 0x1F6B JUMP JUMPDEST PUSH1 0x1 PUSH1 0x1 PUSH1 0xA0 SHL SUB DUP3 AND PUSH1 0x0 SWAP1 DUP2 MSTORE PUSH1 0xB PUSH1 0x20 MSTORE PUSH1 0x40 SWAP1 KECCAK256 SLOAD PUSH1 0xFF AND ISZERO PUSH2 0xFAE JUMPI PUSH1 0x40 MLOAD PUSH3 0x461BCD PUSH1 0xE5 SHL DUP2 MSTORE PUSH1 0x20 PUSH1 0x4 DUP3 ADD DUP2 SWAP1 MSTORE PUSH1 0x24 DUP3 ADD MSTORE PUSH32 0x43616C6C65722068617320616C7265616479206265656E20616E206F776E6572 PUSH1 0x44 DUP3 ADD MSTORE PUSH1 0x64 ADD PUSH2 0x691 JUMP JUMPDEST PUSH2 0xFD9 JUMP JUMPDEST PUSH2 0xFBD CALLER DUP3 PUSH2 0x153C JUMP JUMPDEST PUSH2 0xFD9 JUMPI PUSH1 0x40 MLOAD PUSH3 0x461BCD PUSH1 0xE5 SHL DUP2 MSTORE PUSH1 0x4 ADD PUSH2 0x691 SWAP1 PUSH2 0x1FFF JUMP JUMPDEST PUSH2 0xFE5 DUP7 DUP7 DUP7 DUP7 PUSH2 0x18C9 JUMP JUMPDEST POP POP POP POP POP POP JUMP JUMPDEST PUSH1 0x1 PUSH1 0x1 PUSH1 0xA0 SHL SUB DUP2 AND PUSH1 0x0 SWAP1 DUP2 MSTORE PUSH1 0xB PUSH1 0x20 MSTORE PUSH1 0x40 SWAP1 KECCAK256 SLOAD PUSH1 0x60 SWAP1 DUP3 SWAP1 PUSH1 0xFF AND PUSH2 0x102A JUMPI PUSH1 0x40 MLOAD PUSH3 0x461BCD PUSH1 0xE5 SHL DUP2 MSTORE PUSH1 0x4 ADD PUSH2 0x691 SWAP1 PUSH2 0x1E56 JUMP JUMPDEST PUSH1 0x1 PUSH1 0x1 PUSH1 0xA0 SHL SUB DUP4 AND PUSH1 0x0 SWAP1 DUP2 MSTORE PUSH1 0xE PUSH1 0x20 MSTORE PUSH1 0x40 SWAP1 KECCAK256 DUP1 SLOAD PUSH2 0xAE6 SWAP1 PUSH2 0x2196 JUMP JUMPDEST PUSH1 0x0 DUP2 DUP2 MSTORE PUSH1 0x5 PUSH1 0x20 MSTORE PUSH1 0x40 SWAP1 KECCAK256 SLOAD PUSH1 0x60 SWAP1 PUSH1 0x1 PUSH1 0x1 PUSH1 0xA0 SHL SUB AND PUSH2 0x10CE JUMPI PUSH1 0x40 MLOAD PUSH3 0x461BCD PUSH1 0xE5 SHL DUP2 MSTORE PUSH1 0x20 PUSH1 0x4 DUP3 ADD MSTORE PUSH1 0x31 PUSH1 0x24 DUP3 ADD MSTORE PUSH32 0x45524337323155524953746F726167653A2055524920717565727920666F7220 PUSH1 0x44 DUP3 ADD MSTORE PUSH17 0x3737B732BC34B9BA32B73A103A37B5B2B7 PUSH1 0x79 SHL PUSH1 0x64 DUP3 ADD MSTORE PUSH1 0x84 ADD PUSH2 0x691 JUMP JUMPDEST PUSH1 0x0 DUP3 DUP2 MSTORE PUSH1 0x1 PUSH1 0x20 MSTORE PUSH1 0x40 DUP2 KECCAK256 DUP1 SLOAD PUSH2 0x10E7 SWAP1 PUSH2 0x2196 JUMP JUMPDEST DUP1 PUSH1 0x1F ADD PUSH1 0x20 DUP1 SWAP2 DIV MUL PUSH1 0x20 ADD PUSH1 0x40 MLOAD SWAP1 DUP2 ADD PUSH1 0x40 MSTORE DUP1 SWAP3 SWAP2 SWAP1 DUP2 DUP2 MSTORE PUSH1 0x20 ADD DUP3 DUP1 SLOAD PUSH2 0x1113 SWAP1 PUSH2 0x2196 JUMP JUMPDEST DUP1 ISZERO PUSH2 0x1160 JUMPI DUP1 PUSH1 0x1F LT PUSH2 0x1135 JUMPI PUSH2 0x100 DUP1 DUP4 SLOAD DIV MUL DUP4 MSTORE SWAP2 PUSH1 0x20 ADD SWAP2 PUSH2 0x1160 JUMP JUMPDEST DUP3 ADD SWAP2 SWAP1 PUSH1 0x0 MSTORE PUSH1 0x20 PUSH1 0x0 KECCAK256 SWAP1 JUMPDEST DUP2 SLOAD DUP2 MSTORE SWAP1 PUSH1 0x1 ADD SWAP1 PUSH1 0x20 ADD DUP1 DUP4 GT PUSH2 0x1143 JUMPI DUP3 SWAP1 SUB PUSH1 0x1F AND DUP3 ADD SWAP2 JUMPDEST POP POP POP POP POP SWAP1 POP PUSH1 0x0 PUSH2 0x1171 PUSH2 0x1902 JUMP JUMPDEST SWAP1 POP DUP1 MLOAD PUSH1 0x0 EQ ISZERO PUSH2 0x11A6 JUMPI DUP2 PUSH1 0x40 MLOAD PUSH1 0x20 ADD PUSH2 0x118E SWAP2 SWAP1 PUSH2 0x1DD7 JUMP JUMPDEST PUSH1 0x40 MLOAD PUSH1 0x20 DUP2 DUP4 SUB SUB DUP2 MSTORE SWAP1 PUSH1 0x40 MSTORE SWAP3 POP POP POP SWAP2 SWAP1 POP JUMP JUMPDEST DUP2 MLOAD ISZERO PUSH2 0x11C0 JUMPI DUP1 DUP5 PUSH1 0x40 MLOAD PUSH1 0x20 ADD PUSH2 0x118E SWAP3 SWAP2 SWAP1 PUSH2 0x1DA7 JUMP JUMPDEST POP POP PUSH1 0x40 DUP1 MLOAD PUSH1 0x20 DUP2 ADD SWAP1 SWAP2 MSTORE PUSH1 0x0 DUP2 MSTORE SWAP3 SWAP2 POP POP JUMP JUMPDEST PUSH1 0xA SLOAD PUSH1 0x1 PUSH1 0x1 PUSH1 0xA0 SHL SUB AND CALLER EQ PUSH2 0x1201 JUMPI PUSH1 0x40 MLOAD PUSH3 0x461BCD PUSH1 0xE5 SHL DUP2 MSTORE PUSH1 0x4 ADD PUSH2 0x691 SWAP1 PUSH2 0x1FC8 JUMP JUMPDEST PUSH1 0x1 PUSH1 0x1 PUSH1 0xA0 SHL SUB DUP3 AND PUSH1 0x0 SWAP1 DUP2 MSTORE PUSH1 0xF PUSH1 0x20 MSTORE PUSH1 0x40 SWAP1 KECCAK256 SLOAD PUSH2 0x1225 SWAP1 DUP3 SWAP1 PUSH2 0x2050 JUMP JUMPDEST PUSH1 0x1 PUSH1 0x1 PUSH1 0xA0 SHL SUB SWAP1 SWAP3 AND PUSH1 0x0 SWAP1 DUP2 MSTORE PUSH1 0xF PUSH1 0x20 MSTORE PUSH1 0x40 SWAP1 KECCAK256 SWAP2 SWAP1 SWAP2 SSTORE POP JUMP JUMPDEST PUSH1 0x1 PUSH1 0x1 PUSH1 0xA0 SHL SUB SWAP2 DUP3 AND PUSH1 0x0 SWAP1 DUP2 MSTORE PUSH1 0x8 PUSH1 0x20 SWAP1 DUP2 MSTORE PUSH1 0x40 DUP1 DUP4 KECCAK256 SWAP4 SWAP1 SWAP5 AND DUP3 MSTORE SWAP2 SWAP1 SWAP2 MSTORE KECCAK256 SLOAD PUSH1 0xFF AND SWAP1 JUMP JUMPDEST PUSH1 0x0 SLOAD PUSH1 0x1 PUSH1 0x1 PUSH1 0xA0 SHL SUB AND CALLER EQ PUSH2 0x12CD JUMPI PUSH1 0x40 MLOAD PUSH3 0x461BCD PUSH1 0xE5 SHL DUP2 MSTORE PUSH1 0x20 PUSH1 0x4 DUP3 ADD DUP2 SWAP1 MSTORE PUSH1 0x24 DUP3 ADD MSTORE PUSH32 0x4F776E61626C653A2063616C6C6572206973206E6F7420746865206F776E6572 PUSH1 0x44 DUP3 ADD MSTORE PUSH1 0x64 ADD PUSH2 0x691 JUMP JUMPDEST PUSH1 0x1 PUSH1 0x1 PUSH1 0xA0 SHL SUB DUP2 AND PUSH2 0x1332 JUMPI PUSH1 0x40 MLOAD PUSH3 0x461BCD PUSH1 0xE5 SHL DUP2 MSTORE PUSH1 0x20 PUSH1 0x4 DUP3 ADD MSTORE PUSH1 0x26 PUSH1 0x24 DUP3 ADD MSTORE PUSH32 0x4F776E61626C653A206E6577206F776E657220697320746865207A65726F2061 PUSH1 0x44 DUP3 ADD MSTORE PUSH6 0x646472657373 PUSH1 0xD0 SHL PUSH1 0x64 DUP3 ADD MSTORE PUSH1 0x84 ADD PUSH2 0x691 JUMP JUMPDEST PUSH2 0x133B DUP2 PUSH2 0x1879 JUMP JUMPDEST POP JUMP JUMPDEST PUSH1 0xA SLOAD PUSH1 0x1 PUSH1 0x1 PUSH1 0xA0 SHL SUB AND CALLER EQ PUSH2 0x1368 JUMPI PUSH1 0x40 MLOAD PUSH3 0x461BCD PUSH1 0xE5 SHL DUP2 MSTORE PUSH1 0x4 ADD PUSH2 0x691 SWAP1 PUSH2 0x1FC8 JUMP JUMPDEST PUSH1 0xA DUP1 SLOAD PUSH1 0xFF PUSH1 0xA0 SHL NOT AND PUSH1 0x1 PUSH1 0xA0 SHL OR SWAP1 SSTORE JUMP JUMPDEST PUSH1 0x1 PUSH1 0x1 PUSH1 0xA0 SHL SUB DUP2 AND PUSH1 0x0 SWAP1 DUP2 MSTORE PUSH1 0xB PUSH1 0x20 MSTORE PUSH1 0x40 DUP2 KECCAK256 SLOAD DUP3 SWAP1 PUSH1 0xFF AND PUSH2 0x13B7 JUMPI PUSH1 0x40 MLOAD PUSH3 0x461BCD PUSH1 0xE5 SHL DUP2 MSTORE PUSH1 0x4 ADD PUSH2 0x691 SWAP1 PUSH2 0x1E56 JUMP JUMPDEST POP POP PUSH1 0x1 PUSH1 0x1 PUSH1 0xA0 SHL SUB AND PUSH1 0x0 SWAP1 DUP2 MSTORE PUSH1 0xD PUSH1 0x20 MSTORE PUSH1 0x40 SWAP1 KECCAK256 SLOAD SWAP1 JUMP JUMPDEST EXTCODESIZE ISZERO ISZERO SWAP1 JUMP JUMPDEST PUSH1 0x0 DUP2 DUP2 MSTORE PUSH1 0x7 PUSH1 0x20 MSTORE PUSH1 0x40 SWAP1 DUP2 SWAP1 KECCAK256 DUP1 SLOAD PUSH1 0x1 PUSH1 0x1 PUSH1 0xA0 SHL SUB NOT AND PUSH1 0x1 PUSH1 0x1 PUSH1 0xA0 SHL SUB DUP6 AND SWAP1 DUP2 OR SWAP1 SWAP2 SSTORE SWAP1 MLOAD PUSH4 0x31A9108F PUSH1 0xE1 SHL DUP2 MSTORE PUSH1 0x4 DUP2 ADD DUP4 SWAP1 MSTORE DUP3 SWAP2 SWAP1 ADDRESS SWAP1 PUSH4 0x6352211E SWAP1 PUSH1 0x24 ADD PUSH1 0x20 PUSH1 0x40 MLOAD DUP1 DUP4 SUB DUP2 DUP7 DUP1 EXTCODESIZE ISZERO DUP1 ISZERO PUSH2 0x143F JUMPI PUSH1 0x0 DUP1 REVERT JUMPDEST POP GAS STATICCALL ISZERO DUP1 ISZERO PUSH2 0x1453 JUMPI RETURNDATASIZE PUSH1 0x0 DUP1 RETURNDATACOPY RETURNDATASIZE PUSH1 0x0 REVERT JUMPDEST POP POP POP POP PUSH1 0x40 MLOAD RETURNDATASIZE PUSH1 0x1F NOT PUSH1 0x1F DUP3 ADD AND DUP3 ADD DUP1 PUSH1 0x40 MSTORE POP DUP2 ADD SWAP1 PUSH2 0x1477 SWAP2 SWAP1 PUSH2 0x1B4E JUMP JUMPDEST PUSH1 0x1 PUSH1 0x1 PUSH1 0xA0 SHL SUB AND PUSH32 0x8C5BE1E5EBEC7D5BD14F71427D1E84F3DD0314C0F7B2291E5B200AC8C7C3B925 PUSH1 0x40 MLOAD PUSH1 0x40 MLOAD DUP1 SWAP2 SUB SWAP1 LOG4 POP POP JUMP JUMPDEST PUSH1 0x1 PUSH1 0x1 PUSH1 0xA0 SHL SUB DUP3 AND PUSH1 0x0 SWAP1 DUP2 MSTORE PUSH1 0xB PUSH1 0x20 MSTORE PUSH1 0x40 DUP2 KECCAK256 DUP1 SLOAD PUSH1 0xFF NOT AND PUSH1 0x1 OR SWAP1 SSTORE PUSH1 0x10 DUP1 SLOAD SWAP2 PUSH2 0x14E1 DUP4 PUSH2 0x21CB JUMP JUMPDEST SWAP1 SWAP2 SSTORE POP POP PUSH1 0x10 DUP1 SLOAD PUSH1 0x0 SWAP1 DUP2 MSTORE PUSH1 0xC PUSH1 0x20 SWAP1 DUP2 MSTORE PUSH1 0x40 DUP1 DUP4 KECCAK256 DUP1 SLOAD PUSH1 0x1 PUSH1 0x1 PUSH1 0xA0 SHL SUB NOT AND PUSH1 0x1 PUSH1 0x1 PUSH1 0xA0 SHL SUB DUP9 AND SWAP1 DUP2 OR SWAP1 SWAP2 SSTORE SWAP4 SLOAD SWAP4 DUP4 MSTORE PUSH1 0xD DUP3 MSTORE DUP1 DUP4 KECCAK256 SWAP4 SWAP1 SWAP4 SSTORE PUSH1 0xE DUP2 MSTORE SWAP2 SWAP1 KECCAK256 DUP3 MLOAD PUSH2 0x857 SWAP3 DUP5 ADD SWAP1 PUSH2 0x1A1B JUMP JUMPDEST PUSH1 0x0 DUP2 DUP2 MSTORE PUSH1 0x5 PUSH1 0x20 MSTORE PUSH1 0x40 DUP2 KECCAK256 SLOAD PUSH1 0x1 PUSH1 0x1 PUSH1 0xA0 SHL SUB AND PUSH2 0x15B5 JUMPI PUSH1 0x40 MLOAD PUSH3 0x461BCD PUSH1 0xE5 SHL DUP2 MSTORE PUSH1 0x20 PUSH1 0x4 DUP3 ADD MSTORE PUSH1 0x2C PUSH1 0x24 DUP3 ADD MSTORE PUSH32 0x4552433732313A206F70657261746F7220717565727920666F72206E6F6E6578 PUSH1 0x44 DUP3 ADD MSTORE PUSH12 0x34B9BA32B73A103A37B5B2B7 PUSH1 0xA1 SHL PUSH1 0x64 DUP3 ADD MSTORE PUSH1 0x84 ADD PUSH2 0x691 JUMP JUMPDEST PUSH1 0x40 MLOAD PUSH4 0x31A9108F PUSH1 0xE1 SHL DUP2 MSTORE PUSH1 0x4 DUP2 ADD DUP4 SWAP1 MSTORE PUSH1 0x0 SWAP1 ADDRESS SWAP1 PUSH4 0x6352211E SWAP1 PUSH1 0x24 ADD PUSH1 0x20 PUSH1 0x40 MLOAD DUP1 DUP4 SUB DUP2 DUP7 DUP1 EXTCODESIZE ISZERO DUP1 ISZERO PUSH2 0x15EF JUMPI PUSH1 0x0 DUP1 REVERT JUMPDEST POP GAS STATICCALL ISZERO DUP1 ISZERO PUSH2 0x1603 JUMPI RETURNDATASIZE PUSH1 0x0 DUP1 RETURNDATACOPY RETURNDATASIZE PUSH1 0x0 REVERT JUMPDEST POP POP POP POP PUSH1 0x40 MLOAD RETURNDATASIZE PUSH1 0x1F NOT PUSH1 0x1F DUP3 ADD AND DUP3 ADD DUP1 PUSH1 0x40 MSTORE POP DUP2 ADD SWAP1 PUSH2 0x1627 SWAP2 SWAP1 PUSH2 0x1B4E JUMP JUMPDEST SWAP1 POP DUP1 PUSH1 0x1 PUSH1 0x1 PUSH1 0xA0 SHL SUB AND DUP5 PUSH1 0x1 PUSH1 0x1 PUSH1 0xA0 SHL SUB AND EQ DUP1 PUSH2 0x1662 JUMPI POP DUP4 PUSH1 0x1 PUSH1 0x1 PUSH1 0xA0 SHL SUB AND PUSH2 0x1657 DUP5 PUSH2 0x61C JUMP JUMPDEST PUSH1 0x1 PUSH1 0x1 PUSH1 0xA0 SHL SUB AND EQ JUMPDEST DUP1 PUSH2 0x8D9 JUMPI POP PUSH2 0x8D9 DUP2 DUP6 PUSH2 0x1245 JUMP JUMPDEST PUSH1 0x40 MLOAD PUSH4 0x31A9108F PUSH1 0xE1 SHL DUP2 MSTORE PUSH1 0x4 DUP2 ADD DUP3 SWAP1 MSTORE PUSH1 0x1 PUSH1 0x1 PUSH1 0xA0 SHL SUB DUP5 AND SWAP1 ADDRESS SWAP1 PUSH4 0x6352211E SWAP1 PUSH1 0x24 ADD PUSH1 0x20 PUSH1 0x40 MLOAD DUP1 DUP4 SUB DUP2 DUP7 DUP1 EXTCODESIZE ISZERO DUP1 ISZERO PUSH2 0x16B4 JUMPI PUSH1 0x0 DUP1 REVERT JUMPDEST POP GAS STATICCALL ISZERO DUP1 ISZERO PUSH2 0x16C8 JUMPI RETURNDATASIZE PUSH1 0x0 DUP1 RETURNDATACOPY RETURNDATASIZE PUSH1 0x0 REVERT JUMPDEST POP POP POP POP PUSH1 0x40 MLOAD RETURNDATASIZE PUSH1 0x1F NOT PUSH1 0x1F DUP3 ADD AND DUP3 ADD DUP1 PUSH1 0x40 MSTORE POP DUP2 ADD SWAP1 PUSH2 0x16EC SWAP2 SWAP1 PUSH2 0x1B4E JUMP JUMPDEST PUSH1 0x1 PUSH1 0x1 PUSH1 0xA0 SHL SUB AND EQ PUSH2 0x1754 JUMPI PUSH1 0x40 MLOAD PUSH3 0x461BCD PUSH1 0xE5 SHL DUP2 MSTORE PUSH1 0x20 PUSH1 0x4 DUP3 ADD MSTORE PUSH1 0x29 PUSH1 0x24 DUP3 ADD MSTORE PUSH32 0x4552433732313A207472616E73666572206F6620746F6B656E20746861742069 PUSH1 0x44 DUP3 ADD MSTORE PUSH9 0x39903737BA1037BBB7 PUSH1 0xB9 SHL PUSH1 0x64 DUP3 ADD MSTORE PUSH1 0x84 ADD PUSH2 0x691 JUMP JUMPDEST PUSH1 0x1 PUSH1 0x1 PUSH1 0xA0 SHL SUB DUP3 AND PUSH2 0x17B6 JUMPI PUSH1 0x40 MLOAD PUSH3 0x461BCD PUSH1 0xE5 SHL DUP2 MSTORE PUSH1 0x20 PUSH1 0x4 DUP3 ADD MSTORE PUSH1 0x24 DUP1 DUP3 ADD MSTORE PUSH32 0x4552433732313A207472616E7366657220746F20746865207A65726F20616464 PUSH1 0x44 DUP3 ADD MSTORE PUSH4 0x72657373 PUSH1 0xE0 SHL PUSH1 0x64 DUP3 ADD MSTORE PUSH1 0x84 ADD PUSH2 0x691 JUMP JUMPDEST PUSH2 0x17C1 PUSH1 0x0 DUP3 PUSH2 0x13DA JUMP JUMPDEST PUSH1 0x1 PUSH1 0x1 PUSH1 0xA0 SHL SUB DUP4 AND PUSH1 0x0 SWAP1 DUP2 MSTORE PUSH1 0x6 PUSH1 0x20 MSTORE PUSH1 0x40 DUP2 KECCAK256 DUP1 SLOAD PUSH1 0x1 SWAP3 SWAP1 PUSH2 0x17EA SWAP1 DUP5 SWAP1 PUSH2 0x2153 JUMP JUMPDEST SWAP1 SWAP2 SSTORE POP POP PUSH1 0x1 PUSH1 0x1 PUSH1 0xA0 SHL SUB DUP3 AND PUSH1 0x0 SWAP1 DUP2 MSTORE PUSH1 0x6 PUSH1 0x20 MSTORE PUSH1 0x40 DUP2 KECCAK256 DUP1 SLOAD PUSH1 0x1 SWAP3 SWAP1 PUSH2 0x1818 SWAP1 DUP5 SWAP1 PUSH2 0x2050 JUMP JUMPDEST SWAP1 SWAP2 SSTORE POP POP PUSH1 0x0 DUP2 DUP2 MSTORE PUSH1 0x5 PUSH1 0x20 MSTORE PUSH1 0x40 DUP1 DUP3 KECCAK256 DUP1 SLOAD PUSH1 0x1 PUSH1 0x1 PUSH1 0xA0 SHL SUB NOT AND PUSH1 0x1 PUSH1 0x1 PUSH1 0xA0 SHL SUB DUP7 DUP2 AND SWAP2 DUP3 OR SWAP1 SWAP3 SSTORE SWAP2 MLOAD DUP5 SWAP4 SWAP2 DUP8 AND SWAP2 PUSH32 0xDDF252AD1BE2C89B69C2B068FC378DAA952BA7F163C4A11628F55A4DF523B3EF SWAP2 LOG4 POP POP POP JUMP JUMPDEST PUSH1 0x0 DUP1 SLOAD PUSH1 0x1 PUSH1 0x1 PUSH1 0xA0 SHL SUB DUP4 DUP2 AND PUSH1 0x1 PUSH1 0x1 PUSH1 0xA0 SHL SUB NOT DUP4 AND DUP2 OR DUP5 SSTORE PUSH1 0x40 MLOAD SWAP2 SWAP1 SWAP3 AND SWAP3 DUP4 SWAP2 PUSH32 0x8BE0079C531659141344CD1FD0A4F28419497F9722A3DAAFE3B4186F6B6457E0 SWAP2 SWAP1 LOG3 POP POP JUMP JUMPDEST PUSH2 0x18D4 DUP5 DUP5 DUP5 PUSH2 0x1672 JUMP JUMPDEST PUSH2 0x18E0 DUP5 DUP5 DUP5 DUP5 PUSH2 0x1911 JUMP JUMPDEST PUSH2 0x18FC JUMPI PUSH1 0x40 MLOAD PUSH3 0x461BCD PUSH1 0xE5 SHL DUP2 MSTORE PUSH1 0x4 ADD PUSH2 0x691 SWAP1 PUSH2 0x1E8D JUMP JUMPDEST POP POP POP POP JUMP JUMPDEST PUSH1 0x60 PUSH1 0x2 DUP1 SLOAD PUSH2 0x599 SWAP1 PUSH2 0x2196 JUMP JUMPDEST PUSH1 0x0 PUSH1 0x1 PUSH1 0x1 PUSH1 0xA0 SHL SUB DUP5 AND EXTCODESIZE ISZERO PUSH2 0x1A13 JUMPI PUSH1 0x40 MLOAD PUSH4 0xA85BD01 PUSH1 0xE1 SHL DUP2 MSTORE PUSH1 0x1 PUSH1 0x1 PUSH1 0xA0 SHL SUB DUP6 AND SWAP1 PUSH4 0x150B7A02 SWAP1 PUSH2 0x1955 SWAP1 CALLER SWAP1 DUP10 SWAP1 DUP9 SWAP1 DUP9 SWAP1 PUSH1 0x4 ADD PUSH2 0x1E06 JUMP JUMPDEST PUSH1 0x20 PUSH1 0x40 MLOAD DUP1 DUP4 SUB DUP2 PUSH1 0x0 DUP8 DUP1 EXTCODESIZE ISZERO DUP1 ISZERO PUSH2 0x196F JUMPI PUSH1 0x0 DUP1 REVERT JUMPDEST POP GAS CALL SWAP3 POP POP POP DUP1 ISZERO PUSH2 0x199F JUMPI POP PUSH1 0x40 DUP1 MLOAD PUSH1 0x1F RETURNDATASIZE SWAP1 DUP2 ADD PUSH1 0x1F NOT AND DUP3 ADD SWAP1 SWAP3 MSTORE PUSH2 0x199C SWAP2 DUP2 ADD SWAP1 PUSH2 0x1D45 JUMP JUMPDEST PUSH1 0x1 JUMPDEST PUSH2 0x19F9 JUMPI RETURNDATASIZE DUP1 DUP1 ISZERO PUSH2 0x19CD JUMPI PUSH1 0x40 MLOAD SWAP2 POP PUSH1 0x1F NOT PUSH1 0x3F RETURNDATASIZE ADD AND DUP3 ADD PUSH1 0x40 MSTORE RETURNDATASIZE DUP3 MSTORE RETURNDATASIZE PUSH1 0x0 PUSH1 0x20 DUP5 ADD RETURNDATACOPY PUSH2 0x19D2 JUMP JUMPDEST PUSH1 0x60 SWAP2 POP JUMPDEST POP DUP1 MLOAD PUSH2 0x19F1 JUMPI PUSH1 0x40 MLOAD PUSH3 0x461BCD PUSH1 0xE5 SHL DUP2 MSTORE PUSH1 0x4 ADD PUSH2 0x691 SWAP1 PUSH2 0x1E8D JUMP JUMPDEST DUP1 MLOAD DUP2 PUSH1 0x20 ADD REVERT JUMPDEST PUSH1 0x1 PUSH1 0x1 PUSH1 0xE0 SHL SUB NOT AND PUSH4 0xA85BD01 PUSH1 0xE1 SHL EQ SWAP1 POP PUSH2 0x8D9 JUMP JUMPDEST POP PUSH1 0x1 PUSH2 0x8D9 JUMP JUMPDEST DUP3 DUP1 SLOAD PUSH2 0x1A27 SWAP1 PUSH2 0x2196 JUMP JUMPDEST SWAP1 PUSH1 0x0 MSTORE PUSH1 0x20 PUSH1 0x0 KECCAK256 SWAP1 PUSH1 0x1F ADD PUSH1 0x20 SWAP1 DIV DUP2 ADD SWAP3 DUP3 PUSH2 0x1A49 JUMPI PUSH1 0x0 DUP6 SSTORE PUSH2 0x1A8F JUMP JUMPDEST DUP3 PUSH1 0x1F LT PUSH2 0x1A62 JUMPI DUP1 MLOAD PUSH1 0xFF NOT AND DUP4 DUP1 ADD OR DUP6 SSTORE PUSH2 0x1A8F JUMP JUMPDEST DUP3 DUP1 ADD PUSH1 0x1 ADD DUP6 SSTORE DUP3 ISZERO PUSH2 0x1A8F JUMPI SWAP2 DUP3 ADD JUMPDEST DUP3 DUP2 GT ISZERO PUSH2 0x1A8F JUMPI DUP3 MLOAD DUP3 SSTORE SWAP2 PUSH1 0x20 ADD SWAP2 SWAP1 PUSH1 0x1 ADD SWAP1 PUSH2 0x1A74 JUMP JUMPDEST POP PUSH2 0x1A9B SWAP3 SWAP2 POP PUSH2 0x1A9F JUMP JUMPDEST POP SWAP1 JUMP JUMPDEST JUMPDEST DUP1 DUP3 GT ISZERO PUSH2 0x1A9B JUMPI PUSH1 0x0 DUP2 SSTORE PUSH1 0x1 ADD PUSH2 0x1AA0 JUMP JUMPDEST PUSH1 0x0 PUSH8 0xFFFFFFFFFFFFFFFF DUP1 DUP5 GT ISZERO PUSH2 0x1ACF JUMPI PUSH2 0x1ACF PUSH2 0x21FC JUMP JUMPDEST PUSH1 0x40 MLOAD PUSH1 0x1F DUP6 ADD PUSH1 0x1F NOT SWAP1 DUP2 AND PUSH1 0x3F ADD AND DUP2 ADD SWAP1 DUP3 DUP3 GT DUP2 DUP4 LT OR ISZERO PUSH2 0x1AF7 JUMPI PUSH2 0x1AF7 PUSH2 0x21FC JUMP JUMPDEST DUP2 PUSH1 0x40 MSTORE DUP1 SWAP4 POP DUP6 DUP2 MSTORE DUP7 DUP7 DUP7 ADD GT ISZERO PUSH2 0x1B10 JUMPI PUSH1 0x0 DUP1 REVERT JUMPDEST DUP6 DUP6 PUSH1 0x20 DUP4 ADD CALLDATACOPY PUSH1 0x0 PUSH1 0x20 DUP8 DUP4 ADD ADD MSTORE POP POP POP SWAP4 SWAP3 POP POP POP JUMP JUMPDEST PUSH1 0x0 PUSH1 0x20 DUP3 DUP5 SUB SLT ISZERO PUSH2 0x1B3C JUMPI PUSH1 0x0 DUP1 REVERT JUMPDEST DUP2 CALLDATALOAD PUSH2 0x1B47 DUP2 PUSH2 0x2212 JUMP JUMPDEST SWAP4 SWAP3 POP POP POP JUMP JUMPDEST PUSH1 0x0 PUSH1 0x20 DUP3 DUP5 SUB SLT ISZERO PUSH2 0x1B60 JUMPI PUSH1 0x0 DUP1 REVERT JUMPDEST DUP2 MLOAD PUSH2 0x1B47 DUP2 PUSH2 0x2212 JUMP JUMPDEST PUSH1 0x0 DUP1 PUSH1 0x40 DUP4 DUP6 SUB SLT ISZERO PUSH2 0x1B7E JUMPI PUSH1 0x0 DUP1 REVERT JUMPDEST DUP3 CALLDATALOAD PUSH2 0x1B89 DUP2 PUSH2 0x2212 JUMP JUMPDEST SWAP2 POP PUSH1 0x20 DUP4 ADD CALLDATALOAD PUSH2 0x1B99 DUP2 PUSH2 0x2212 JUMP JUMPDEST DUP1 SWAP2 POP POP SWAP3 POP SWAP3 SWAP1 POP JUMP JUMPDEST PUSH1 0x0 DUP1 PUSH1 0x0 PUSH1 0x60 DUP5 DUP7 SUB SLT ISZERO PUSH2 0x1BB9 JUMPI PUSH1 0x0 DUP1 REVERT JUMPDEST DUP4 CALLDATALOAD PUSH2 0x1BC4 DUP2 PUSH2 0x2212 JUMP JUMPDEST SWAP3 POP PUSH1 0x20 DUP5 ADD CALLDATALOAD PUSH2 0x1BD4 DUP2 PUSH2 0x2212 JUMP JUMPDEST SWAP3 SWAP6 SWAP3 SWAP5 POP POP POP PUSH1 0x40 SWAP2 SWAP1 SWAP2 ADD CALLDATALOAD SWAP1 JUMP JUMPDEST PUSH1 0x0 DUP1 PUSH1 0x0 DUP1 PUSH1 0x80 DUP6 DUP8 SUB SLT ISZERO PUSH2 0x1BFB JUMPI PUSH1 0x0 DUP1 REVERT JUMPDEST DUP5 CALLDATALOAD PUSH2 0x1C06 DUP2 PUSH2 0x2212 JUMP JUMPDEST SWAP4 POP PUSH1 0x20 DUP6 ADD CALLDATALOAD PUSH2 0x1C16 DUP2 PUSH2 0x2212 JUMP JUMPDEST SWAP3 POP PUSH1 0x40 DUP6 ADD CALLDATALOAD SWAP2 POP PUSH1 0x60 DUP6 ADD CALLDATALOAD PUSH8 0xFFFFFFFFFFFFFFFF DUP2 GT ISZERO PUSH2 0x1C39 JUMPI PUSH1 0x0 DUP1 REVERT JUMPDEST DUP6 ADD PUSH1 0x1F DUP2 ADD DUP8 SGT PUSH2 0x1C4A JUMPI PUSH1 0x0 DUP1 REVERT JUMPDEST PUSH2 0x1C59 DUP8 DUP3 CALLDATALOAD PUSH1 0x20 DUP5 ADD PUSH2 0x1AB4 JUMP JUMPDEST SWAP2 POP POP SWAP3 SWAP6 SWAP2 SWAP5 POP SWAP3 POP JUMP JUMPDEST PUSH1 0x0 DUP1 PUSH1 0x40 DUP4 DUP6 SUB SLT ISZERO PUSH2 0x1C78 JUMPI PUSH1 0x0 DUP1 REVERT JUMPDEST DUP3 CALLDATALOAD PUSH2 0x1C83 DUP2 PUSH2 0x2212 JUMP JUMPDEST SWAP2 POP PUSH1 0x20 DUP4 ADD CALLDATALOAD DUP1 ISZERO ISZERO DUP2 EQ PUSH2 0x1B99 JUMPI PUSH1 0x0 DUP1 REVERT JUMPDEST PUSH1 0x0 DUP1 PUSH1 0x40 DUP4 DUP6 SUB SLT ISZERO PUSH2 0x1CAB JUMPI PUSH1 0x0 DUP1 REVERT JUMPDEST DUP3 CALLDATALOAD PUSH2 0x1CB6 DUP2 PUSH2 0x2212 JUMP JUMPDEST SWAP2 POP PUSH1 0x20 DUP4 ADD CALLDATALOAD PUSH8 0xFFFFFFFFFFFFFFFF DUP2 GT ISZERO PUSH2 0x1CD2 JUMPI PUSH1 0x0 DUP1 REVERT JUMPDEST DUP4 ADD PUSH1 0x1F DUP2 ADD DUP6 SGT PUSH2 0x1CE3 JUMPI PUSH1 0x0 DUP1 REVERT JUMPDEST PUSH2 0x1CF2 DUP6 DUP3 CALLDATALOAD PUSH1 0x20 DUP5 ADD PUSH2 0x1AB4 JUMP JUMPDEST SWAP2 POP POP SWAP3 POP SWAP3 SWAP1 POP JUMP JUMPDEST PUSH1 0x0 DUP1 PUSH1 0x40 DUP4 DUP6 SUB SLT ISZERO PUSH2 0x1D0F JUMPI PUSH1 0x0 DUP1 REVERT JUMPDEST DUP3 CALLDATALOAD PUSH2 0x1D1A DUP2 PUSH2 0x2212 JUMP JUMPDEST SWAP5 PUSH1 0x20 SWAP4 SWAP1 SWAP4 ADD CALLDATALOAD SWAP4 POP POP POP JUMP JUMPDEST PUSH1 0x0 PUSH1 0x20 DUP3 DUP5 SUB SLT ISZERO PUSH2 0x1D3A JUMPI PUSH1 0x0 DUP1 REVERT JUMPDEST DUP2 CALLDATALOAD PUSH2 0x1B47 DUP2 PUSH2 0x2227 JUMP JUMPDEST PUSH1 0x0 PUSH1 0x20 DUP3 DUP5 SUB SLT ISZERO PUSH2 0x1D57 JUMPI PUSH1 0x0 DUP1 REVERT JUMPDEST DUP2 MLOAD PUSH2 0x1B47 DUP2 PUSH2 0x2227 JUMP JUMPDEST PUSH1 0x0 PUSH1 0x20 DUP3 DUP5 SUB SLT ISZERO PUSH2 0x1D74 JUMPI PUSH1 0x0 DUP1 REVERT JUMPDEST POP CALLDATALOAD SWAP2 SWAP1 POP JUMP JUMPDEST PUSH1 0x0 DUP2 MLOAD DUP1 DUP5 MSTORE PUSH2 0x1D93 DUP2 PUSH1 0x20 DUP7 ADD PUSH1 0x20 DUP7 ADD PUSH2 0x216A JUMP JUMPDEST PUSH1 0x1F ADD PUSH1 0x1F NOT AND SWAP3 SWAP1 SWAP3 ADD PUSH1 0x20 ADD SWAP3 SWAP2 POP POP JUMP JUMPDEST PUSH1 0x0 DUP4 MLOAD PUSH2 0x1DB9 DUP2 DUP5 PUSH1 0x20 DUP9 ADD PUSH2 0x216A JUMP JUMPDEST SWAP2 SWAP1 SWAP2 ADD SWAP2 DUP3 MSTORE POP PUSH5 0x173539B7B7 PUSH1 0xD9 SHL PUSH1 0x20 DUP3 ADD MSTORE PUSH1 0x25 ADD SWAP2 SWAP1 POP JUMP JUMPDEST PUSH7 0x697066733A2F2F PUSH1 0xC8 SHL DUP2 MSTORE PUSH1 0x0 DUP3 MLOAD PUSH2 0x1DF9 DUP2 PUSH1 0x7 DUP6 ADD PUSH1 0x20 DUP8 ADD PUSH2 0x216A JUMP JUMPDEST SWAP2 SWAP1 SWAP2 ADD PUSH1 0x7 ADD SWAP3 SWAP2 POP POP JUMP JUMPDEST PUSH1 0x1 PUSH1 0x1 PUSH1 0xA0 SHL SUB DUP6 DUP2 AND DUP3 MSTORE DUP5 AND PUSH1 0x20 DUP3 ADD MSTORE PUSH1 0x40 DUP2 ADD DUP4 SWAP1 MSTORE PUSH1 0x80 PUSH1 0x60 DUP3 ADD DUP2 SWAP1 MSTORE PUSH1 0x0 SWAP1 PUSH2 0x1E39 SWAP1 DUP4 ADD DUP5 PUSH2 0x1D7B JUMP JUMPDEST SWAP7 SWAP6 POP POP POP POP POP POP JUMP JUMPDEST PUSH1 0x20 DUP2 MSTORE PUSH1 0x0 PUSH2 0x1B47 PUSH1 0x20 DUP4 ADD DUP5 PUSH2 0x1D7B JUMP JUMPDEST PUSH1 0x20 DUP1 DUP3 MSTORE PUSH1 0x1B SWAP1 DUP3 ADD MSTORE PUSH32 0x476976656E206164647265737320776173206E6F206F776E6572210000000000 PUSH1 0x40 DUP3 ADD MSTORE PUSH1 0x60 ADD SWAP1 JUMP JUMPDEST PUSH1 0x20 DUP1 DUP3 MSTORE PUSH1 0x32 SWAP1 DUP3 ADD MSTORE PUSH32 0x4552433732313A207472616E7366657220746F206E6F6E204552433732315265 PUSH1 0x40 DUP3 ADD MSTORE PUSH18 0x31B2B4BB32B91034B6B83632B6B2B73A32B9 PUSH1 0x71 SHL PUSH1 0x60 DUP3 ADD MSTORE PUSH1 0x80 ADD SWAP1 JUMP JUMPDEST PUSH1 0x20 DUP1 DUP3 MSTORE PUSH1 0x35 SWAP1 DUP3 ADD MSTORE PUSH32 0x43616E277420706572666F726D207468697320616374696F6E207768696C6520 PUSH1 0x40 DUP3 ADD MSTORE PUSH21 0x185D58DD1A5BDB881A185CC81B9BDD08195B991959 PUSH1 0x5A SHL PUSH1 0x60 DUP3 ADD MSTORE PUSH1 0x80 ADD SWAP1 JUMP JUMPDEST PUSH1 0x20 DUP1 DUP3 MSTORE PUSH1 0x19 SWAP1 DUP3 ADD MSTORE PUSH32 0x476976656E20706C616365206973206E6F742076616C69642100000000000000 PUSH1 0x40 DUP3 ADD MSTORE PUSH1 0x60 ADD SWAP1 JUMP JUMPDEST PUSH1 0x20 DUP1 DUP3 MSTORE PUSH1 0x38 SWAP1 DUP3 ADD MSTORE PUSH32 0x547261736E66657265722068617320746F206265207468652044455820776869 PUSH1 0x40 DUP3 ADD MSTORE PUSH32 0x6C652061756374696F6E20686173206E6F7420656E6465640000000000000000 PUSH1 0x60 DUP3 ADD MSTORE PUSH1 0x80 ADD SWAP1 JUMP JUMPDEST PUSH1 0x20 DUP1 DUP3 MSTORE PUSH1 0x19 SWAP1 DUP3 ADD MSTORE PUSH32 0x43616E206F6E6C792062652063616C6C65642062792044455800000000000000 PUSH1 0x40 DUP3 ADD MSTORE PUSH1 0x60 ADD SWAP1 JUMP JUMPDEST PUSH1 0x20 DUP1 DUP3 MSTORE PUSH1 0x31 SWAP1 DUP3 ADD MSTORE PUSH32 0x4552433732313A207472616E736665722063616C6C6572206973206E6F74206F PUSH1 0x40 DUP3 ADD MSTORE PUSH17 0x1DDB995C881B9BDC88185C1C1C9BDD9959 PUSH1 0x7A SHL PUSH1 0x60 DUP3 ADD MSTORE PUSH1 0x80 ADD SWAP1 JUMP JUMPDEST PUSH1 0x0 DUP3 NOT DUP3 GT ISZERO PUSH2 0x2063 JUMPI PUSH2 0x2063 PUSH2 0x21E6 JUMP JUMPDEST POP ADD SWAP1 JUMP JUMPDEST PUSH1 0x1 DUP2 DUP2 JUMPDEST DUP1 DUP6 GT ISZERO PUSH2 0x20A3 JUMPI DUP2 PUSH1 0x0 NOT DIV DUP3 GT ISZERO PUSH2 0x2089 JUMPI PUSH2 0x2089 PUSH2 0x21E6 JUMP JUMPDEST DUP1 DUP6 AND ISZERO PUSH2 0x2096 JUMPI SWAP2 DUP2 MUL SWAP2 JUMPDEST SWAP4 DUP5 SHR SWAP4 SWAP1 DUP1 MUL SWAP1 PUSH2 0x206D JUMP JUMPDEST POP SWAP3 POP SWAP3 SWAP1 POP JUMP JUMPDEST PUSH1 0x0 PUSH2 0x1B47 DUP4 DUP4 PUSH1 0x0 DUP3 PUSH2 0x20C1 JUMPI POP PUSH1 0x1 PUSH2 0x584 JUMP JUMPDEST DUP2 PUSH2 0x20CE JUMPI POP PUSH1 0x0 PUSH2 0x584 JUMP JUMPDEST DUP2 PUSH1 0x1 DUP2 EQ PUSH2 0x20E4 JUMPI PUSH1 0x2 DUP2 EQ PUSH2 0x20EE JUMPI PUSH2 0x210A JUMP JUMPDEST PUSH1 0x1 SWAP2 POP POP PUSH2 0x584 JUMP JUMPDEST PUSH1 0xFF DUP5 GT ISZERO PUSH2 0x20FF JUMPI PUSH2 0x20FF PUSH2 0x21E6 JUMP JUMPDEST POP POP PUSH1 0x1 DUP3 SHL PUSH2 0x584 JUMP JUMPDEST POP PUSH1 0x20 DUP4 LT PUSH2 0x133 DUP4 LT AND PUSH1 0x4E DUP5 LT PUSH1 0xB DUP5 LT AND OR ISZERO PUSH2 0x212D JUMPI POP DUP2 DUP2 EXP PUSH2 0x584 JUMP JUMPDEST PUSH2 0x2137 DUP4 DUP4 PUSH2 0x2068 JUMP JUMPDEST DUP1 PUSH1 0x0 NOT DIV DUP3 GT ISZERO PUSH2 0x214B JUMPI PUSH2 0x214B PUSH2 0x21E6 JUMP JUMPDEST MUL SWAP4 SWAP3 POP POP POP JUMP JUMPDEST PUSH1 0x0 DUP3 DUP3 LT ISZERO PUSH2 0x2165 JUMPI PUSH2 0x2165 PUSH2 0x21E6 JUMP JUMPDEST POP SUB SWAP1 JUMP JUMPDEST PUSH1 0x0 JUMPDEST DUP4 DUP2 LT ISZERO PUSH2 0x2185 JUMPI DUP2 DUP2 ADD MLOAD DUP4 DUP3 ADD MSTORE PUSH1 0x20 ADD PUSH2 0x216D JUMP JUMPDEST DUP4 DUP2 GT ISZERO PUSH2 0x18FC JUMPI POP POP PUSH1 0x0 SWAP2 ADD MSTORE JUMP JUMPDEST PUSH1 0x1 DUP2 DUP2 SHR SWAP1 DUP3 AND DUP1 PUSH2 0x21AA JUMPI PUSH1 0x7F DUP3 AND SWAP2 POP JUMPDEST PUSH1 0x20 DUP3 LT DUP2 EQ ISZERO PUSH2 0x8CA JUMPI PUSH4 0x4E487B71 PUSH1 0xE0 SHL PUSH1 0x0 MSTORE PUSH1 0x22 PUSH1 0x4 MSTORE PUSH1 0x24 PUSH1 0x0 REVERT JUMPDEST PUSH1 0x0 PUSH1 0x0 NOT DUP3 EQ ISZERO PUSH2 0x21DF JUMPI PUSH2 0x21DF PUSH2 0x21E6 JUMP JUMPDEST POP PUSH1 0x1 ADD SWAP1 JUMP JUMPDEST PUSH4 0x4E487B71 PUSH1 0xE0 SHL PUSH1 0x0 MSTORE PUSH1 0x11 PUSH1 0x4 MSTORE PUSH1 0x24 PUSH1 0x0 REVERT JUMPDEST PUSH4 0x4E487B71 PUSH1 0xE0 SHL PUSH1 0x0 MSTORE PUSH1 0x41 PUSH1 0x4 MSTORE PUSH1 0x24 PUSH1 0x0 REVERT JUMPDEST PUSH1 0x1 PUSH1 0x1 PUSH1 0xA0 SHL SUB DUP2 AND DUP2 EQ PUSH2 0x133B JUMPI PUSH1 0x0 DUP1 REVERT JUMPDEST PUSH1 0x1 PUSH1 0x1 PUSH1 0xE0 SHL SUB NOT DUP2 AND DUP2 EQ PUSH2 0x133B JUMPI PUSH1 0x0 DUP1 REVERT INVALID LOG2 PUSH5 0x6970667358 0x22 SLT KECCAK256 PUSH12 0x1FAB7270655D1A1FD9CD565D 0xF6 0xCB 0xAD 0xAD 0xBE STATICCALL SWAP1 0xCA 0xAE EXP 0xE9 SHR 0xD JUMPI EXTCODEHASH 0x2D BALANCE DIV SWAP6 PUSH5 0x736F6C6343 STOP ADDMOD MOD STOP CALLER PUSH1 0x80 PUSH1 0x40 MSTORE PUSH1 0x7 DUP1 SLOAD PUSH1 0xFF NOT AND SWAP1 SSTORE PUSH1 0x2 PUSH1 0xA SSTORE PUSH1 0x1 PUSH1 0xB SSTORE CALLVALUE DUP1 ISZERO PUSH3 0x25 JUMPI PUSH1 0x0 DUP1 REVERT JUMPDEST POP PUSH1 0x40 MLOAD PUSH3 0x14F8 CODESIZE SUB DUP1 PUSH3 0x14F8 DUP4 CODECOPY DUP2 ADD PUSH1 0x40 DUP2 SWAP1 MSTORE PUSH3 0x48 SWAP2 PUSH3 0x248 JUMP JUMPDEST PUSH1 0x1 PUSH1 0x0 SSTORE PUSH1 0x64 DUP2 GT PUSH3 0x95 JUMPI PUSH1 0x40 MLOAD PUSH3 0x461BCD PUSH1 0xE5 SHL DUP2 MSTORE PUSH1 0x20 PUSH1 0x4 DUP3 ADD MSTORE PUSH1 0xF PUSH1 0x24 DUP3 ADD MSTORE PUSH15 0x4261736520697320746F6F206C6F77 PUSH1 0x88 SHL PUSH1 0x44 DUP3 ADD MSTORE PUSH1 0x64 ADD JUMPDEST PUSH1 0x40 MLOAD DUP1 SWAP2 SUB SWAP1 REVERT JUMPDEST DUP2 PUSH1 0x64 PUSH3 0xA4 DUP4 DUP4 PUSH3 0x2DD JUMP JUMPDEST PUSH3 0xB0 SWAP2 SWAP1 PUSH3 0x2BA JUMP JUMPDEST GT PUSH3 0xFF JUMPI PUSH1 0x40 MLOAD PUSH3 0x461BCD PUSH1 0xE5 SHL DUP2 MSTORE PUSH1 0x20 PUSH1 0x4 DUP3 ADD MSTORE PUSH1 0x16 PUSH1 0x24 DUP3 ADD MSTORE PUSH32 0x496E76616C696420707269636520696E63726561736500000000000000000000 PUSH1 0x44 DUP3 ADD MSTORE PUSH1 0x64 ADD PUSH3 0x8C JUMP JUMPDEST TIMESTAMP PUSH1 0x6 SSTORE PUSH1 0x5 DUP5 SWAP1 SSTORE PUSH1 0x8 DUP4 SWAP1 SSTORE PUSH1 0x9 DUP3 SWAP1 SSTORE PUSH1 0x3 DUP2 SWAP1 SSTORE PUSH1 0xD DUP3 SWAP1 SSTORE PUSH1 0x64 PUSH3 0x12A DUP3 DUP5 PUSH3 0x2DD JUMP JUMPDEST PUSH3 0x136 SWAP2 SWAP1 PUSH3 0x2BA JUMP JUMPDEST PUSH1 0xC SSTORE PUSH1 0x2 DUP1 SLOAD PUSH1 0x1 PUSH1 0x1 PUSH1 0xA0 SHL SUB DUP8 AND PUSH1 0x1 PUSH1 0x1 PUSH1 0xA0 SHL SUB NOT SWAP2 DUP3 AND OR SWAP1 SWAP2 SSTORE PUSH1 0x1 DUP1 SLOAD SWAP1 SWAP2 AND PUSH20 0xD7BE0A8A457630E94F01F67BBC5300B0A53C9381 OR SWAP1 SSTORE PUSH1 0x8 SLOAD PUSH1 0x5 SLOAD PUSH3 0x192 SWAP2 PUSH3 0x18C SWAP2 PUSH3 0x29F JUMP JUMPDEST PUSH3 0x20D JUMP JUMPDEST PUSH1 0xB SLOAD PUSH1 0x9 SLOAD PUSH1 0x40 MLOAD ORIGIN SWAP3 PUSH32 0x6CEED9D5957B9E77F5D93D6312A4C8E5F63EF6F75CB9812F486B76336982B75D SWAP3 PUSH3 0x1FA SWAP3 SWAP2 DUP3 MSTORE PUSH1 0x20 DUP3 ADD MSTORE PUSH1 0x60 PUSH1 0x40 DUP3 ADD DUP2 SWAP1 MSTORE PUSH1 0x10 SWAP1 DUP3 ADD MSTORE PUSH16 0x2493B690333AB1B5B4B733903837B7B9 PUSH1 0x81 SHL PUSH1 0x80 DUP3 ADD MSTORE PUSH1 0xA0 ADD SWAP1 JUMP JUMPDEST PUSH1 0x40 MLOAD DUP1 SWAP2 SUB SWAP1 LOG2 POP POP POP POP POP PUSH3 0x315 JUMP JUMPDEST PUSH1 0x4 DUP2 SWAP1 SSTORE PUSH1 0x40 MLOAD DUP2 DUP2 MSTORE PUSH32 0x41F916EB2A7065889BF3A2125806ADAA5CA5A1C9BE36F179340901ABBF666D23 SWAP1 PUSH1 0x20 ADD PUSH1 0x40 MLOAD DUP1 SWAP2 SUB SWAP1 LOG1 POP JUMP JUMPDEST PUSH1 0x0 DUP1 PUSH1 0x0 DUP1 PUSH1 0x0 PUSH1 0xA0 DUP7 DUP9 SUB SLT ISZERO PUSH3 0x261 JUMPI PUSH1 0x0 DUP1 REVERT JUMPDEST DUP6 MLOAD PUSH1 0x1 PUSH1 0x1 PUSH1 0xA0 SHL SUB DUP2 AND DUP2 EQ PUSH3 0x279 JUMPI PUSH1 0x0 DUP1 REVERT JUMPDEST PUSH1 0x20 DUP8 ADD MLOAD PUSH1 0x40 DUP9 ADD MLOAD PUSH1 0x60 DUP10 ADD MLOAD PUSH1 0x80 SWAP1 SWAP10 ADD MLOAD SWAP3 SWAP11 SWAP2 SWAP10 POP SWAP8 SWAP7 POP SWAP1 SWAP5 POP SWAP3 POP POP POP JUMP JUMPDEST PUSH1 0x0 DUP3 NOT DUP3 GT ISZERO PUSH3 0x2B5 JUMPI PUSH3 0x2B5 PUSH3 0x2FF JUMP JUMPDEST POP ADD SWAP1 JUMP JUMPDEST PUSH1 0x0 DUP3 PUSH3 0x2D8 JUMPI PUSH4 0x4E487B71 PUSH1 0xE0 SHL PUSH1 0x0 MSTORE PUSH1 0x12 PUSH1 0x4 MSTORE PUSH1 0x24 PUSH1 0x0 REVERT JUMPDEST POP DIV SWAP1 JUMP JUMPDEST PUSH1 0x0 DUP2 PUSH1 0x0 NOT DIV DUP4 GT DUP3 ISZERO ISZERO AND ISZERO PUSH3 0x2FA JUMPI PUSH3 0x2FA PUSH3 0x2FF JUMP JUMPDEST POP MUL SWAP1 JUMP JUMPDEST PUSH4 0x4E487B71 PUSH1 0xE0 SHL PUSH1 0x0 MSTORE PUSH1 0x11 PUSH1 0x4 MSTORE PUSH1 0x24 PUSH1 0x0 REVERT JUMPDEST PUSH2 0x11D3 DUP1 PUSH3 0x325 PUSH1 0x0 CODECOPY PUSH1 0x0 RETURN INVALID PUSH1 0x80 PUSH1 0x40 MSTORE PUSH1 0x4 CALLDATASIZE LT PUSH2 0x9A JUMPI PUSH1 0x0 CALLDATALOAD PUSH1 0xE0 SHR DUP1 PUSH4 0x7F8ACED7 GT PUSH2 0x61 JUMPI DUP1 PUSH4 0x7F8ACED7 EQ PUSH2 0x158 JUMPI DUP1 PUSH4 0x8ECF0D0B EQ PUSH2 0x16D JUMPI DUP1 PUSH4 0xBAFFA903 EQ PUSH2 0x182 JUMPI DUP1 PUSH4 0xC5570261 EQ PUSH2 0x197 JUMPI DUP1 PUSH4 0xCAEE4DD3 EQ PUSH2 0x1AC JUMPI DUP1 PUSH4 0xE4D90C62 EQ PUSH2 0x1D4 JUMPI STOP JUMPDEST DUP1 PUSH4 0x150B7A02 EQ PUSH2 0xA3 JUMPI DUP1 PUSH4 0x2A2D64FF EQ PUSH2 0xEC JUMPI DUP1 PUSH4 0x544736E6 EQ PUSH2 0x10B JUMPI DUP1 PUSH4 0x644E9797 EQ PUSH2 0x12E JUMPI DUP1 PUSH4 0x7D58E3CF EQ PUSH2 0x143 JUMPI STOP JUMPDEST CALLDATASIZE PUSH2 0xA1 JUMPI STOP JUMPDEST STOP JUMPDEST CALLVALUE DUP1 ISZERO PUSH2 0xAF JUMPI PUSH1 0x0 DUP1 REVERT JUMPDEST POP PUSH2 0xCE PUSH2 0xBE CALLDATASIZE PUSH1 0x4 PUSH2 0xE2C JUMP JUMPDEST PUSH4 0xA85BD01 PUSH1 0xE1 SHL SWAP5 SWAP4 POP POP POP POP JUMP JUMPDEST PUSH1 0x40 MLOAD PUSH1 0x1 PUSH1 0x1 PUSH1 0xE0 SHL SUB NOT SWAP1 SWAP2 AND DUP2 MSTORE PUSH1 0x20 ADD JUMPDEST PUSH1 0x40 MLOAD DUP1 SWAP2 SUB SWAP1 RETURN JUMPDEST CALLVALUE DUP1 ISZERO PUSH2 0xF8 JUMPI PUSH1 0x0 DUP1 REVERT JUMPDEST POP PUSH1 0x4 SLOAD JUMPDEST PUSH1 0x40 MLOAD SWAP1 DUP2 MSTORE PUSH1 0x20 ADD PUSH2 0xE3 JUMP JUMPDEST CALLVALUE DUP1 ISZERO PUSH2 0x117 JUMPI PUSH1 0x0 DUP1 REVERT JUMPDEST POP PUSH1 0x7 SLOAD PUSH1 0xFF AND PUSH1 0x40 MLOAD SWAP1 ISZERO ISZERO DUP2 MSTORE PUSH1 0x20 ADD PUSH2 0xE3 JUMP JUMPDEST CALLVALUE DUP1 ISZERO PUSH2 0x13A JUMPI PUSH1 0x0 DUP1 REVERT JUMPDEST POP PUSH1 0x5 SLOAD PUSH2 0xFD JUMP JUMPDEST CALLVALUE DUP1 ISZERO PUSH2 0x14F JUMPI PUSH1 0x0 DUP1 REVERT JUMPDEST POP PUSH1 0xC SLOAD PUSH2 0xFD JUMP JUMPDEST CALLVALUE DUP1 ISZERO PUSH2 0x164 JUMPI PUSH1 0x0 DUP1 REVERT JUMPDEST POP PUSH1 0x3 SLOAD PUSH2 0xFD JUMP JUMPDEST CALLVALUE DUP1 ISZERO PUSH2 0x179 JUMPI PUSH1 0x0 DUP1 REVERT JUMPDEST POP PUSH1 0x6 SLOAD PUSH2 0xFD JUMP JUMPDEST CALLVALUE DUP1 ISZERO PUSH2 0x18E JUMPI PUSH1 0x0 DUP1 REVERT JUMPDEST POP PUSH1 0x9 SLOAD PUSH2 0xFD JUMP JUMPDEST CALLVALUE DUP1 ISZERO PUSH2 0x1A3 JUMPI PUSH1 0x0 DUP1 REVERT JUMPDEST POP PUSH1 0x8 SLOAD PUSH2 0xFD JUMP JUMPDEST CALLVALUE DUP1 ISZERO PUSH2 0x1B8 JUMPI PUSH1 0x0 DUP1 REVERT JUMPDEST POP PUSH1 0x2 SLOAD PUSH1 0x40 MLOAD PUSH1 0x1 PUSH1 0x1 PUSH1 0xA0 SHL SUB SWAP1 SWAP2 AND DUP2 MSTORE PUSH1 0x20 ADD PUSH2 0xE3 JUMP JUMPDEST CALLVALUE DUP1 ISZERO PUSH2 0x1E0 JUMPI PUSH1 0x0 DUP1 REVERT JUMPDEST POP PUSH2 0xA1 PUSH2 0x1EF CALLDATASIZE PUSH1 0x4 PUSH2 0xECE JUMP JUMPDEST PUSH1 0x2 PUSH1 0x0 SLOAD EQ ISZERO PUSH2 0x247 JUMPI PUSH1 0x40 MLOAD PUSH3 0x461BCD PUSH1 0xE5 SHL DUP2 MSTORE PUSH1 0x20 PUSH1 0x4 DUP3 ADD MSTORE PUSH1 0x1F PUSH1 0x24 DUP3 ADD MSTORE PUSH32 0x5265656E7472616E637947756172643A207265656E7472616E742063616C6C00 PUSH1 0x44 DUP3 ADD MSTORE PUSH1 0x64 ADD JUMPDEST PUSH1 0x40 MLOAD DUP1 SWAP2 SUB SWAP1 REVERT JUMPDEST PUSH1 0x2 PUSH1 0x0 SSTORE PUSH1 0x7 SLOAD PUSH1 0xFF AND PUSH2 0x2B6 JUMPI PUSH1 0x5 SLOAD TIMESTAMP LT ISZERO PUSH2 0x2A8 JUMPI PUSH1 0x40 MLOAD PUSH3 0x461BCD PUSH1 0xE5 SHL DUP2 MSTORE PUSH1 0x20 PUSH1 0x4 DUP3 ADD MSTORE PUSH1 0x1F PUSH1 0x24 DUP3 ADD MSTORE PUSH32 0x5468652061756374696F6E206861736E27742073746172746564207965742100 PUSH1 0x44 DUP3 ADD MSTORE PUSH1 0x64 ADD PUSH2 0x23E JUMP JUMPDEST PUSH1 0x7 DUP1 SLOAD PUSH1 0xFF NOT AND PUSH1 0x1 OR SWAP1 SSTORE JUMPDEST PUSH1 0x4 SLOAD TIMESTAMP LT PUSH2 0x3E3 JUMPI PUSH1 0x2 PUSH1 0x0 SWAP1 SLOAD SWAP1 PUSH2 0x100 EXP SWAP1 DIV PUSH1 0x1 PUSH1 0x1 PUSH1 0xA0 SHL SUB AND PUSH1 0x1 PUSH1 0x1 PUSH1 0xA0 SHL SUB AND PUSH4 0xFE67A54B PUSH1 0x40 MLOAD DUP2 PUSH4 0xFFFFFFFF AND PUSH1 0xE0 SHL DUP2 MSTORE PUSH1 0x4 ADD PUSH1 0x0 PUSH1 0x40 MLOAD DUP1 DUP4 SUB DUP2 PUSH1 0x0 DUP8 DUP1 EXTCODESIZE ISZERO DUP1 ISZERO PUSH2 0x30F JUMPI PUSH1 0x0 DUP1 REVERT JUMPDEST POP GAS CALL ISZERO DUP1 ISZERO PUSH2 0x323 JUMPI RETURNDATASIZE PUSH1 0x0 DUP1 RETURNDATACOPY RETURNDATASIZE PUSH1 0x0 REVERT JUMPDEST POP POP PUSH1 0x40 MLOAD PUSH1 0x1 DUP2 MSTORE PUSH32 0x65621228CD4667982E3B2306BDBEDB01C7F7D2EBD15463ABB9D9A1D6FF4D4CD8 SWAP3 POP PUSH1 0x20 ADD SWAP1 POP PUSH1 0x40 MLOAD DUP1 SWAP2 SUB SWAP1 LOG1 PUSH1 0x2 SLOAD PUSH1 0x40 MLOAD PUSH4 0x633CD29D PUSH1 0xE0 SHL DUP2 MSTORE PUSH1 0x1 PUSH1 0x4 DUP3 ADD MSTORE PUSH1 0x1 PUSH1 0x1 PUSH1 0xA0 SHL SUB SWAP1 SWAP2 AND SWAP1 PUSH4 0x633CD29D SWAP1 PUSH1 0x24 ADD PUSH1 0x20 PUSH1 0x40 MLOAD DUP1 DUP4 SUB DUP2 DUP7 DUP1 EXTCODESIZE ISZERO DUP1 ISZERO PUSH2 0x3A0 JUMPI PUSH1 0x0 DUP1 REVERT JUMPDEST POP GAS STATICCALL ISZERO DUP1 ISZERO PUSH2 0x3B4 JUMPI RETURNDATASIZE PUSH1 0x0 DUP1 RETURNDATACOPY RETURNDATASIZE PUSH1 0x0 REVERT JUMPDEST POP POP POP POP PUSH1 0x40 MLOAD RETURNDATASIZE PUSH1 0x1F NOT PUSH1 0x1F DUP3 ADD AND DUP3 ADD DUP1 PUSH1 0x40 MSTORE POP DUP2 ADD SWAP1 PUSH2 0x3D8 SWAP2 SWAP1 PUSH2 0xE08 JUMP JUMPDEST PUSH1 0x1 PUSH1 0x1 PUSH1 0xA0 SHL SUB AND SELFDESTRUCT JUMPDEST PUSH2 0x3ED DUP3 DUP3 PUSH2 0x3F6 JUMP JUMPDEST POP POP PUSH1 0x1 PUSH1 0x0 SSTORE JUMP JUMPDEST PUSH1 0xC SLOAD DUP2 LT ISZERO PUSH2 0x448 JUMPI PUSH1 0x40 MLOAD PUSH3 0x461BCD PUSH1 0xE5 SHL DUP2 MSTORE PUSH1 0x20 PUSH1 0x4 DUP3 ADD DUP2 SWAP1 MSTORE PUSH1 0x24 DUP3 ADD MSTORE PUSH32 0x596F75206861766520746F207061792074686520726967687420707269636521 PUSH1 0x44 DUP3 ADD MSTORE PUSH1 0x64 ADD PUSH2 0x23E JUMP JUMPDEST PUSH1 0x1 SLOAD PUSH1 0xC SLOAD PUSH1 0x40 MLOAD PUSH4 0x1EC49CE9 PUSH1 0xE2 SHL DUP2 MSTORE PUSH1 0x4 DUP2 ADD SWAP2 SWAP1 SWAP2 MSTORE CALLER PUSH1 0x24 DUP3 ADD MSTORE PUSH1 0x1 PUSH1 0x1 PUSH1 0xA0 SHL SUB SWAP1 SWAP2 AND SWAP1 PUSH4 0x7B1273A4 SWAP1 PUSH1 0x44 ADD PUSH1 0x0 PUSH1 0x40 MLOAD DUP1 DUP4 SUB DUP2 PUSH1 0x0 DUP8 DUP1 EXTCODESIZE ISZERO DUP1 ISZERO PUSH2 0x498 JUMPI PUSH1 0x0 DUP1 REVERT JUMPDEST POP GAS CALL ISZERO DUP1 ISZERO PUSH2 0x4AC JUMPI RETURNDATASIZE PUSH1 0x0 DUP1 RETURNDATACOPY RETURNDATASIZE PUSH1 0x0 REVERT JUMPDEST POP POP POP POP PUSH1 0x0 PUSH1 0xD SLOAD PUSH1 0x2 PUSH1 0xD SLOAD PUSH1 0xC SLOAD PUSH2 0x4C7 SWAP2 SWAP1 PUSH2 0x1127 JUMP JUMPDEST PUSH2 0x4D1 SWAP2 SWAP1 PUSH2 0xFF9 JUMP JUMPDEST PUSH2 0x4DB SWAP2 SWAP1 PUSH2 0xFE1 JUMP JUMPDEST SWAP1 POP PUSH1 0x0 DUP2 PUSH1 0xC SLOAD PUSH2 0x4ED SWAP2 SWAP1 PUSH2 0x1127 JUMP JUMPDEST SWAP1 POP PUSH2 0x51C PUSH1 0x64 PUSH1 0xA SLOAD PUSH1 0x64 PUSH2 0x503 SWAP2 SWAP1 PUSH2 0x1127 JUMP JUMPDEST PUSH2 0x50D SWAP1 DUP6 PUSH2 0x1108 JUMP JUMPDEST PUSH2 0x517 SWAP2 SWAP1 PUSH2 0xFF9 JUMP JUMPDEST PUSH2 0x77D JUMP JUMPDEST PUSH2 0x549 PUSH1 0x64 PUSH1 0xA SLOAD PUSH1 0x64 PUSH2 0x530 SWAP2 SWAP1 PUSH2 0x1127 JUMP JUMPDEST PUSH2 0x53A SWAP1 DUP5 PUSH2 0x1108 JUMP JUMPDEST PUSH2 0x544 SWAP2 SWAP1 PUSH2 0xFF9 JUMP JUMPDEST PUSH2 0x98C JUMP JUMPDEST SELFBALANCE PUSH2 0x553 DUP2 PUSH2 0xBDB JUMP JUMPDEST PUSH1 0x2 SLOAD PUSH1 0x40 DUP1 MLOAD PUSH4 0x10A38F5 PUSH1 0xE0 SHL DUP2 MSTORE SWAP1 MLOAD PUSH1 0x1 PUSH1 0x1 PUSH1 0xA0 SHL SUB SWAP1 SWAP3 AND SWAP2 PUSH4 0x42842E0E SWAP2 DUP4 SWAP2 PUSH4 0x6352211E SWAP2 DUP4 SWAP2 PUSH4 0x10A38F5 SWAP2 PUSH1 0x4 DUP1 DUP3 ADD SWAP3 PUSH1 0x20 SWAP3 SWAP1 SWAP2 SWAP1 DUP3 SWAP1 SUB ADD DUP2 DUP7 DUP1 EXTCODESIZE ISZERO DUP1 ISZERO PUSH2 0x5A8 JUMPI PUSH1 0x0 DUP1 REVERT JUMPDEST POP GAS STATICCALL ISZERO DUP1 ISZERO PUSH2 0x5BC JUMPI RETURNDATASIZE PUSH1 0x0 DUP1 RETURNDATACOPY RETURNDATASIZE PUSH1 0x0 REVERT JUMPDEST POP POP POP POP PUSH1 0x40 MLOAD RETURNDATASIZE PUSH1 0x1F NOT PUSH1 0x1F DUP3 ADD AND DUP3 ADD DUP1 PUSH1 0x40 MSTORE POP DUP2 ADD SWAP1 PUSH2 0x5E0 SWAP2 SWAP1 PUSH2 0xF27 JUMP JUMPDEST PUSH1 0x40 MLOAD DUP3 PUSH4 0xFFFFFFFF AND PUSH1 0xE0 SHL DUP2 MSTORE PUSH1 0x4 ADD PUSH2 0x5FE SWAP2 DUP2 MSTORE PUSH1 0x20 ADD SWAP1 JUMP JUMPDEST PUSH1 0x20 PUSH1 0x40 MLOAD DUP1 DUP4 SUB DUP2 DUP7 DUP1 EXTCODESIZE ISZERO DUP1 ISZERO PUSH2 0x616 JUMPI PUSH1 0x0 DUP1 REVERT JUMPDEST POP GAS STATICCALL ISZERO DUP1 ISZERO PUSH2 0x62A JUMPI RETURNDATASIZE PUSH1 0x0 DUP1 RETURNDATACOPY RETURNDATASIZE PUSH1 0x0 REVERT JUMPDEST POP POP POP POP PUSH1 0x40 MLOAD RETURNDATASIZE PUSH1 0x1F NOT PUSH1 0x1F DUP3 ADD AND DUP3 ADD DUP1 PUSH1 0x40 MSTORE POP DUP2 ADD SWAP1 PUSH2 0x64E SWAP2 SWAP1 PUSH2 0xE08 JUMP JUMPDEST PUSH1 0x2 SLOAD PUSH1 0x40 DUP1 MLOAD PUSH4 0x10A38F5 PUSH1 0xE0 SHL DUP2 MSTORE SWAP1 MLOAD CALLER SWAP3 PUSH1 0x1 PUSH1 0x1 PUSH1 0xA0 SHL SUB AND SWAP2 PUSH4 0x10A38F5 SWAP2 PUSH1 0x4 DUP1 DUP4 ADD SWAP3 PUSH1 0x20 SWAP3 SWAP2 SWAP1 DUP3 SWAP1 SUB ADD DUP2 DUP7 DUP1 EXTCODESIZE ISZERO DUP1 ISZERO PUSH2 0x692 JUMPI PUSH1 0x0 DUP1 REVERT JUMPDEST POP GAS STATICCALL ISZERO DUP1 ISZERO PUSH2 0x6A6 JUMPI RETURNDATASIZE PUSH1 0x0 DUP1 RETURNDATACOPY RETURNDATASIZE PUSH1 0x0 REVERT JUMPDEST POP POP POP POP PUSH1 0x40 MLOAD RETURNDATASIZE PUSH1 0x1F NOT PUSH1 0x1F DUP3 ADD AND DUP3 ADD DUP1 PUSH1 0x40 MSTORE POP DUP2 ADD SWAP1 PUSH2 0x6CA SWAP2 SWAP1 PUSH2 0xF27 JUMP JUMPDEST PUSH1 0x40 MLOAD PUSH1 0x1 PUSH1 0x1 PUSH1 0xE0 SHL SUB NOT PUSH1 0xE0 DUP7 SWAP1 SHL AND DUP2 MSTORE PUSH1 0x1 PUSH1 0x1 PUSH1 0xA0 SHL SUB SWAP4 DUP5 AND PUSH1 0x4 DUP3 ADD MSTORE SWAP3 SWAP1 SWAP2 AND PUSH1 0x24 DUP4 ADD MSTORE PUSH1 0x44 DUP3 ADD MSTORE PUSH1 0x64 ADD PUSH1 0x0 PUSH1 0x40 MLOAD DUP1 DUP4 SUB DUP2 PUSH1 0x0 DUP8 DUP1 EXTCODESIZE ISZERO DUP1 ISZERO PUSH2 0x719 JUMPI PUSH1 0x0 DUP1 REVERT JUMPDEST POP GAS CALL ISZERO DUP1 ISZERO PUSH2 0x72D JUMPI RETURNDATASIZE PUSH1 0x0 DUP1 RETURNDATACOPY RETURNDATASIZE PUSH1 0x0 REVERT JUMPDEST POP POP POP POP PUSH2 0x73B CALLER DUP7 PUSH2 0xCC7 JUMP JUMPDEST PUSH2 0x751 PUSH1 0x8 SLOAD TIMESTAMP PUSH2 0x74C SWAP2 SWAP1 PUSH2 0xFE1 JUMP JUMPDEST PUSH2 0xD57 JUMP JUMPDEST PUSH1 0xC SLOAD PUSH1 0xD DUP2 SWAP1 SSTORE PUSH1 0x3 SLOAD PUSH1 0x64 SWAP2 PUSH2 0x769 SWAP2 SWAP1 PUSH2 0x1108 JUMP JUMPDEST PUSH2 0x773 SWAP2 SWAP1 PUSH2 0xFF9 JUMP JUMPDEST PUSH1 0xC SSTORE POP POP POP POP POP JUMP JUMPDEST PUSH1 0x1 SLOAD PUSH1 0x2 SLOAD PUSH1 0xB SLOAD PUSH1 0x40 MLOAD PUSH4 0x633CD29D PUSH1 0xE0 SHL DUP2 MSTORE PUSH1 0x0 SWAP4 PUSH1 0x1 PUSH1 0x1 PUSH1 0xA0 SHL SUB SWAP1 DUP2 AND SWAP4 PUSH4 0xA9059CBB SWAP4 SWAP2 AND SWAP2 PUSH4 0x633CD29D SWAP2 PUSH2 0x7C1 SWAP2 PUSH1 0x4 ADD SWAP1 DUP2 MSTORE PUSH1 0x20 ADD SWAP1 JUMP JUMPDEST PUSH1 0x20 PUSH1 0x40 MLOAD DUP1 DUP4 SUB DUP2 DUP7 DUP1 EXTCODESIZE ISZERO DUP1 ISZERO PUSH2 0x7D9 JUMPI PUSH1 0x0 DUP1 REVERT JUMPDEST POP GAS STATICCALL ISZERO DUP1 ISZERO PUSH2 0x7ED JUMPI RETURNDATASIZE PUSH1 0x0 DUP1 RETURNDATACOPY RETURNDATASIZE PUSH1 0x0 REVERT JUMPDEST POP POP POP POP PUSH1 0x40 MLOAD RETURNDATASIZE PUSH1 0x1F NOT PUSH1 0x1F DUP3 ADD AND DUP3 ADD DUP1 PUSH1 0x40 MSTORE POP DUP2 ADD SWAP1 PUSH2 0x811 SWAP2 SWAP1 PUSH2 0xE08 JUMP JUMPDEST PUSH1 0x40 MLOAD PUSH1 0x1 PUSH1 0x1 PUSH1 0xE0 SHL SUB NOT PUSH1 0xE0 DUP5 SWAP1 SHL AND DUP2 MSTORE PUSH1 0x1 PUSH1 0x1 PUSH1 0xA0 SHL SUB SWAP1 SWAP2 AND PUSH1 0x4 DUP3 ADD MSTORE PUSH1 0x24 DUP2 ADD DUP6 SWAP1 MSTORE PUSH1 0x44 ADD PUSH1 0x20 PUSH1 0x40 MLOAD DUP1 DUP4 SUB DUP2 PUSH1 0x0 DUP8 DUP1 EXTCODESIZE ISZERO DUP1 ISZERO PUSH2 0x859 JUMPI PUSH1 0x0 DUP1 REVERT JUMPDEST POP GAS CALL ISZERO DUP1 ISZERO PUSH2 0x86D JUMPI RETURNDATASIZE PUSH1 0x0 DUP1 RETURNDATACOPY RETURNDATASIZE PUSH1 0x0 REVERT JUMPDEST POP POP POP POP PUSH1 0x40 MLOAD RETURNDATASIZE PUSH1 0x1F NOT PUSH1 0x1F DUP3 ADD AND DUP3 ADD DUP1 PUSH1 0x40 MSTORE POP DUP2 ADD SWAP1 PUSH2 0x891 SWAP2 SWAP1 PUSH2 0xEAC JUMP JUMPDEST SWAP1 POP DUP1 ISZERO PUSH2 0x988 JUMPI PUSH1 0x2 SLOAD PUSH1 0xB SLOAD PUSH1 0x40 MLOAD PUSH4 0x633CD29D PUSH1 0xE0 SHL DUP2 MSTORE PUSH1 0x1 PUSH1 0x1 PUSH1 0xA0 SHL SUB SWAP1 SWAP3 AND SWAP2 PUSH4 0xE6796AAA SWAP2 DUP4 SWAP2 PUSH4 0x633CD29D SWAP2 PUSH2 0x8D6 SWAP2 PUSH1 0x4 ADD SWAP1 DUP2 MSTORE PUSH1 0x20 ADD SWAP1 JUMP JUMPDEST PUSH1 0x20 PUSH1 0x40 MLOAD DUP1 DUP4 SUB DUP2 DUP7 DUP1 EXTCODESIZE ISZERO DUP1 ISZERO PUSH2 0x8EE JUMPI PUSH1 0x0 DUP1 REVERT JUMPDEST POP GAS STATICCALL ISZERO DUP1 ISZERO PUSH2 0x902 JUMPI RETURNDATASIZE PUSH1 0x0 DUP1 RETURNDATACOPY RETURNDATASIZE PUSH1 0x0 REVERT JUMPDEST POP POP POP POP PUSH1 0x40 MLOAD RETURNDATASIZE PUSH1 0x1F NOT PUSH1 0x1F DUP3 ADD AND DUP3 ADD DUP1 PUSH1 0x40 MSTORE POP DUP2 ADD SWAP1 PUSH2 0x926 SWAP2 SWAP1 PUSH2 0xE08 JUMP JUMPDEST PUSH1 0x40 MLOAD PUSH1 0x1 PUSH1 0x1 PUSH1 0xE0 SHL SUB NOT PUSH1 0xE0 DUP5 SWAP1 SHL AND DUP2 MSTORE PUSH1 0x1 PUSH1 0x1 PUSH1 0xA0 SHL SUB SWAP1 SWAP2 AND PUSH1 0x4 DUP3 ADD MSTORE PUSH1 0x24 DUP2 ADD DUP6 SWAP1 MSTORE PUSH1 0x44 ADD JUMPDEST PUSH1 0x0 PUSH1 0x40 MLOAD DUP1 DUP4 SUB DUP2 PUSH1 0x0 DUP8 DUP1 EXTCODESIZE ISZERO DUP1 ISZERO PUSH2 0x96F JUMPI PUSH1 0x0 DUP1 REVERT JUMPDEST POP GAS CALL ISZERO DUP1 ISZERO PUSH2 0x983 JUMPI RETURNDATASIZE PUSH1 0x0 DUP1 RETURNDATACOPY RETURNDATASIZE PUSH1 0x0 REVERT JUMPDEST POP POP POP POP JUMPDEST POP POP JUMP JUMPDEST PUSH1 0x1 JUMPDEST PUSH1 0xB SLOAD DUP2 GT PUSH2 0x988 JUMPI PUSH1 0x0 PUSH2 0x9A5 DUP3 PUSH1 0x2 PUSH2 0x105E JUMP JUMPDEST PUSH2 0x9AF SWAP1 DUP5 PUSH2 0xFF9 JUMP JUMPDEST SWAP1 POP PUSH1 0xB SLOAD DUP3 EQ ISZERO PUSH2 0x9C8 JUMPI PUSH2 0x9C5 DUP2 DUP1 PUSH2 0xFE1 JUMP JUMPDEST SWAP1 POP JUMPDEST DUP1 ISZERO PUSH2 0xBC8 JUMPI PUSH1 0x1 SLOAD PUSH1 0x2 SLOAD PUSH1 0x40 MLOAD PUSH4 0x633CD29D PUSH1 0xE0 SHL DUP2 MSTORE PUSH1 0x4 DUP2 ADD DUP6 SWAP1 MSTORE PUSH1 0x0 SWAP3 PUSH1 0x1 PUSH1 0x1 PUSH1 0xA0 SHL SUB SWAP1 DUP2 AND SWAP3 PUSH4 0xA9059CBB SWAP3 SWAP2 AND SWAP1 PUSH4 0x633CD29D SWAP1 PUSH1 0x24 ADD PUSH1 0x20 PUSH1 0x40 MLOAD DUP1 DUP4 SUB DUP2 DUP7 DUP1 EXTCODESIZE ISZERO DUP1 ISZERO PUSH2 0xA21 JUMPI PUSH1 0x0 DUP1 REVERT JUMPDEST POP GAS STATICCALL ISZERO DUP1 ISZERO PUSH2 0xA35 JUMPI RETURNDATASIZE PUSH1 0x0 DUP1 RETURNDATACOPY RETURNDATASIZE PUSH1 0x0 REVERT JUMPDEST POP POP POP POP PUSH1 0x40 MLOAD RETURNDATASIZE PUSH1 0x1F NOT PUSH1 0x1F DUP3 ADD AND DUP3 ADD DUP1 PUSH1 0x40 MSTORE POP DUP2 ADD SWAP1 PUSH2 0xA59 SWAP2 SWAP1 PUSH2 0xE08 JUMP JUMPDEST PUSH1 0x40 MLOAD PUSH1 0x1 PUSH1 0x1 PUSH1 0xE0 SHL SUB NOT PUSH1 0xE0 DUP5 SWAP1 SHL AND DUP2 MSTORE PUSH1 0x1 PUSH1 0x1 PUSH1 0xA0 SHL SUB SWAP1 SWAP2 AND PUSH1 0x4 DUP3 ADD MSTORE PUSH1 0x24 DUP2 ADD DUP6 SWAP1 MSTORE PUSH1 0x44 ADD PUSH1 0x20 PUSH1 0x40 MLOAD DUP1 DUP4 SUB DUP2 PUSH1 0x0 DUP8 DUP1 EXTCODESIZE ISZERO DUP1 ISZERO PUSH2 0xAA1 JUMPI PUSH1 0x0 DUP1 REVERT JUMPDEST POP GAS CALL ISZERO DUP1 ISZERO PUSH2 0xAB5 JUMPI RETURNDATASIZE PUSH1 0x0 DUP1 RETURNDATACOPY RETURNDATASIZE PUSH1 0x0 REVERT JUMPDEST POP POP POP POP PUSH1 0x40 MLOAD RETURNDATASIZE PUSH1 0x1F NOT PUSH1 0x1F DUP3 ADD AND DUP3 ADD DUP1 PUSH1 0x40 MSTORE POP DUP2 ADD SWAP1 PUSH2 0xAD9 SWAP2 SWAP1 PUSH2 0xEAC JUMP JUMPDEST SWAP1 POP DUP1 ISZERO PUSH2 0xBC6 JUMPI PUSH1 0x2 SLOAD PUSH1 0x40 MLOAD PUSH4 0x633CD29D PUSH1 0xE0 SHL DUP2 MSTORE PUSH1 0x4 DUP2 ADD DUP6 SWAP1 MSTORE PUSH1 0x1 PUSH1 0x1 PUSH1 0xA0 SHL SUB SWAP1 SWAP2 AND SWAP1 PUSH4 0xE6796AAA SWAP1 DUP3 SWAP1 PUSH4 0x633CD29D SWAP1 PUSH1 0x24 ADD PUSH1 0x20 PUSH1 0x40 MLOAD DUP1 DUP4 SUB DUP2 DUP7 DUP1 EXTCODESIZE ISZERO DUP1 ISZERO PUSH2 0xB2D JUMPI PUSH1 0x0 DUP1 REVERT JUMPDEST POP GAS STATICCALL ISZERO DUP1 ISZERO PUSH2 0xB41 JUMPI RETURNDATASIZE PUSH1 0x0 DUP1 RETURNDATACOPY RETURNDATASIZE PUSH1 0x0 REVERT JUMPDEST POP POP POP POP PUSH1 0x40 MLOAD RETURNDATASIZE PUSH1 0x1F NOT PUSH1 0x1F DUP3 ADD AND DUP3 ADD DUP1 PUSH1 0x40 MSTORE POP DUP2 ADD SWAP1 PUSH2 0xB65 SWAP2 SWAP1 PUSH2 0xE08 JUMP JUMPDEST PUSH1 0x40 MLOAD PUSH1 0x1 PUSH1 0x1 PUSH1 0xE0 SHL SUB NOT PUSH1 0xE0 DUP5 SWAP1 SHL AND DUP2 MSTORE PUSH1 0x1 PUSH1 0x1 PUSH1 0xA0 SHL SUB SWAP1 SWAP2 AND PUSH1 0x4 DUP3 ADD MSTORE PUSH1 0x24 DUP2 ADD DUP6 SWAP1 MSTORE PUSH1 0x44 ADD PUSH1 0x0 PUSH1 0x40 MLOAD DUP1 DUP4 SUB DUP2 PUSH1 0x0 DUP8 DUP1 EXTCODESIZE ISZERO DUP1 ISZERO PUSH2 0xBAD JUMPI PUSH1 0x0 DUP1 REVERT JUMPDEST POP GAS CALL ISZERO DUP1 ISZERO PUSH2 0xBC1 JUMPI RETURNDATASIZE PUSH1 0x0 DUP1 RETURNDATACOPY RETURNDATASIZE PUSH1 0x0 REVERT JUMPDEST POP POP POP POP JUMPDEST POP JUMPDEST POP DUP1 PUSH2 0xBD3 DUP2 PUSH2 0x113E JUMP JUMPDEST SWAP2 POP POP PUSH2 0x98F JUMP JUMPDEST PUSH1 0x1 SLOAD PUSH1 0x40 MLOAD PUSH4 0xA9059CBB PUSH1 0xE0 SHL DUP2 MSTORE PUSH20 0x2D48A3957C7246F5630A2CFF2FCBDF737E0177B4 PUSH1 0x4 DUP3 ADD MSTORE PUSH1 0x24 DUP2 ADD DUP4 SWAP1 MSTORE PUSH1 0x0 SWAP2 PUSH1 0x1 PUSH1 0x1 PUSH1 0xA0 SHL SUB AND SWAP1 PUSH4 0xA9059CBB SWAP1 PUSH1 0x44 ADD PUSH1 0x20 PUSH1 0x40 MLOAD DUP1 DUP4 SUB DUP2 PUSH1 0x0 DUP8 DUP1 EXTCODESIZE ISZERO DUP1 ISZERO PUSH2 0xC3C JUMPI PUSH1 0x0 DUP1 REVERT JUMPDEST POP GAS CALL ISZERO DUP1 ISZERO PUSH2 0xC50 JUMPI RETURNDATASIZE PUSH1 0x0 DUP1 RETURNDATACOPY RETURNDATASIZE PUSH1 0x0 REVERT JUMPDEST POP POP POP POP PUSH1 0x40 MLOAD RETURNDATASIZE PUSH1 0x1F NOT PUSH1 0x1F DUP3 ADD AND DUP3 ADD DUP1 PUSH1 0x40 MSTORE POP DUP2 ADD SWAP1 PUSH2 0xC74 SWAP2 SWAP1 PUSH2 0xEAC JUMP JUMPDEST SWAP1 POP DUP1 ISZERO PUSH2 0x988 JUMPI PUSH1 0x2 SLOAD PUSH1 0x40 MLOAD PUSH4 0x733CB555 PUSH1 0xE1 SHL DUP2 MSTORE PUSH20 0x2D48A3957C7246F5630A2CFF2FCBDF737E0177B4 PUSH1 0x4 DUP3 ADD MSTORE PUSH1 0x24 DUP2 ADD DUP5 SWAP1 MSTORE PUSH1 0x1 PUSH1 0x1 PUSH1 0xA0 SHL SUB SWAP1 SWAP2 AND SWAP1 PUSH4 0xE6796AAA SWAP1 PUSH1 0x44 ADD PUSH2 0x955 JUMP JUMPDEST PUSH1 0xB DUP1 SLOAD SWAP1 PUSH1 0x0 PUSH2 0xCD7 DUP4 PUSH2 0x113E JUMP JUMPDEST SWAP2 SWAP1 POP SSTORE POP DUP2 PUSH1 0x1 PUSH1 0x1 PUSH1 0xA0 SHL SUB AND PUSH32 0x6CEED9D5957B9E77F5D93D6312A4C8E5F63EF6F75CB9812F486B76336982B75D PUSH1 0xB SLOAD PUSH1 0xC SLOAD DUP5 PUSH1 0x40 MLOAD PUSH2 0xD1D SWAP4 SWAP3 SWAP2 SWAP1 PUSH2 0xFB9 JUMP JUMPDEST PUSH1 0x40 MLOAD DUP1 SWAP2 SUB SWAP1 LOG2 PUSH1 0x2 SLOAD PUSH1 0x40 MLOAD PUSH4 0xF62F713 PUSH1 0xE1 SHL DUP2 MSTORE PUSH1 0x1 PUSH1 0x1 PUSH1 0xA0 SHL SUB SWAP1 SWAP2 AND SWAP1 PUSH4 0x1EC5EE26 SWAP1 PUSH2 0x955 SWAP1 CALLER SWAP1 DUP6 SWAP1 PUSH1 0x4 ADD PUSH2 0xF8D JUMP JUMPDEST PUSH1 0x4 DUP2 SWAP1 SSTORE PUSH1 0x40 MLOAD DUP2 DUP2 MSTORE PUSH32 0x41F916EB2A7065889BF3A2125806ADAA5CA5A1C9BE36F179340901ABBF666D23 SWAP1 PUSH1 0x20 ADD PUSH1 0x40 MLOAD DUP1 SWAP2 SUB SWAP1 LOG1 POP JUMP JUMPDEST PUSH1 0x0 PUSH8 0xFFFFFFFFFFFFFFFF DUP1 DUP5 GT ISZERO PUSH2 0xDAD JUMPI PUSH2 0xDAD PUSH2 0x116F JUMP JUMPDEST PUSH1 0x40 MLOAD PUSH1 0x1F DUP6 ADD PUSH1 0x1F NOT SWAP1 DUP2 AND PUSH1 0x3F ADD AND DUP2 ADD SWAP1 DUP3 DUP3 GT DUP2 DUP4 LT OR ISZERO PUSH2 0xDD5 JUMPI PUSH2 0xDD5 PUSH2 0x116F JUMP JUMPDEST DUP2 PUSH1 0x40 MSTORE DUP1 SWAP4 POP DUP6 DUP2 MSTORE DUP7 DUP7 DUP7 ADD GT ISZERO PUSH2 0xDEE JUMPI PUSH1 0x0 DUP1 REVERT JUMPDEST DUP6 DUP6 PUSH1 0x20 DUP4 ADD CALLDATACOPY PUSH1 0x0 PUSH1 0x20 DUP8 DUP4 ADD ADD MSTORE POP POP POP SWAP4 SWAP3 POP POP POP JUMP JUMPDEST PUSH1 0x0 PUSH1 0x20 DUP3 DUP5 SUB SLT ISZERO PUSH2 0xE1A JUMPI PUSH1 0x0 DUP1 REVERT JUMPDEST DUP2 MLOAD PUSH2 0xE25 DUP2 PUSH2 0x1185 JUMP JUMPDEST SWAP4 SWAP3 POP POP POP JUMP JUMPDEST PUSH1 0x0 DUP1 PUSH1 0x0 DUP1 PUSH1 0x80 DUP6 DUP8 SUB SLT ISZERO PUSH2 0xE42 JUMPI PUSH1 0x0 DUP1 REVERT JUMPDEST DUP5 CALLDATALOAD PUSH2 0xE4D DUP2 PUSH2 0x1185 JUMP JUMPDEST SWAP4 POP PUSH1 0x20 DUP6 ADD CALLDATALOAD PUSH2 0xE5D DUP2 PUSH2 0x1185 JUMP JUMPDEST SWAP3 POP PUSH1 0x40 DUP6 ADD CALLDATALOAD SWAP2 POP PUSH1 0x60 DUP6 ADD CALLDATALOAD PUSH8 0xFFFFFFFFFFFFFFFF DUP2 GT ISZERO PUSH2 0xE80 JUMPI PUSH1 0x0 DUP1 REVERT JUMPDEST DUP6 ADD PUSH1 0x1F DUP2 ADD DUP8 SGT PUSH2 0xE91 JUMPI PUSH1 0x0 DUP1 REVERT JUMPDEST PUSH2 0xEA0 DUP8 DUP3 CALLDATALOAD PUSH1 0x20 DUP5 ADD PUSH2 0xD92 JUMP JUMPDEST SWAP2 POP POP SWAP3 SWAP6 SWAP2 SWAP5 POP SWAP3 POP JUMP JUMPDEST PUSH1 0x0 PUSH1 0x20 DUP3 DUP5 SUB SLT ISZERO PUSH2 0xEBE JUMPI PUSH1 0x0 DUP1 REVERT JUMPDEST DUP2 MLOAD DUP1 ISZERO ISZERO DUP2 EQ PUSH2 0xE25 JUMPI PUSH1 0x0 DUP1 REVERT JUMPDEST PUSH1 0x0 DUP1 PUSH1 0x40 DUP4 DUP6 SUB SLT ISZERO PUSH2 0xEE1 JUMPI PUSH1 0x0 DUP1 REVERT JUMPDEST DUP3 CALLDATALOAD PUSH8 0xFFFFFFFFFFFFFFFF DUP2 GT ISZERO PUSH2 0xEF8 JUMPI PUSH1 0x0 DUP1 REVERT JUMPDEST DUP4 ADD PUSH1 0x1F DUP2 ADD DUP6 SGT PUSH2 0xF09 JUMPI PUSH1 0x0 DUP1 REVERT JUMPDEST PUSH2 0xF18 DUP6 DUP3 CALLDATALOAD PUSH1 0x20 DUP5 ADD PUSH2 0xD92 JUMP JUMPDEST SWAP6 PUSH1 0x20 SWAP5 SWAP1 SWAP5 ADD CALLDATALOAD SWAP5 POP POP POP POP JUMP JUMPDEST PUSH1 0x0 PUSH1 0x20 DUP3 DUP5 SUB SLT ISZERO PUSH2 0xF39 JUMPI PUSH1 0x0 DUP1 REVERT JUMPDEST POP MLOAD SWAP2 SWAP1 POP JUMP JUMPDEST PUSH1 0x0 DUP2 MLOAD DUP1 DUP5 MSTORE PUSH1 0x0 JUMPDEST DUP2 DUP2 LT ISZERO PUSH2 0xF66 JUMPI PUSH1 0x20 DUP2 DUP6 ADD DUP2 ADD MLOAD DUP7 DUP4 ADD DUP3 ADD MSTORE ADD PUSH2 0xF4A JUMP JUMPDEST DUP2 DUP2 GT ISZERO PUSH2 0xF78 JUMPI PUSH1 0x0 PUSH1 0x20 DUP4 DUP8 ADD ADD MSTORE JUMPDEST POP PUSH1 0x1F ADD PUSH1 0x1F NOT AND SWAP3 SWAP1 SWAP3 ADD PUSH1 0x20 ADD SWAP3 SWAP2 POP POP JUMP JUMPDEST PUSH1 0x1 PUSH1 0x1 PUSH1 0xA0 SHL SUB DUP4 AND DUP2 MSTORE PUSH1 0x40 PUSH1 0x20 DUP3 ADD DUP2 SWAP1 MSTORE PUSH1 0x0 SWAP1 PUSH2 0xFB1 SWAP1 DUP4 ADD DUP5 PUSH2 0xF40 JUMP JUMPDEST SWAP5 SWAP4 POP POP POP POP JUMP JUMPDEST DUP4 DUP2 MSTORE DUP3 PUSH1 0x20 DUP3 ADD MSTORE PUSH1 0x60 PUSH1 0x40 DUP3 ADD MSTORE PUSH1 0x0 PUSH2 0xFD8 PUSH1 0x60 DUP4 ADD DUP5 PUSH2 0xF40 JUMP JUMPDEST SWAP6 SWAP5 POP POP POP POP POP JUMP JUMPDEST PUSH1 0x0 DUP3 NOT DUP3 GT ISZERO PUSH2 0xFF4 JUMPI PUSH2 0xFF4 PUSH2 0x1159 JUMP JUMPDEST POP ADD SWAP1 JUMP JUMPDEST PUSH1 0x0 DUP3 PUSH2 0x1016 JUMPI PUSH4 0x4E487B71 PUSH1 0xE0 SHL PUSH1 0x0 MSTORE PUSH1 0x12 PUSH1 0x4 MSTORE PUSH1 0x24 PUSH1 0x0 REVERT JUMPDEST POP DIV SWAP1 JUMP JUMPDEST PUSH1 0x1 DUP2 DUP2 JUMPDEST DUP1 DUP6 GT ISZERO PUSH2 0x1056 JUMPI DUP2 PUSH1 0x0 NOT DIV DUP3 GT ISZERO PUSH2 0x103C JUMPI PUSH2 0x103C PUSH2 0x1159 JUMP JUMPDEST DUP1 DUP6 AND ISZERO PUSH2 0x1049 JUMPI SWAP2 DUP2 MUL SWAP2 JUMPDEST SWAP4 DUP5 SHR SWAP4 SWAP1 DUP1 MUL SWAP1 PUSH2 0x1020 JUMP JUMPDEST POP SWAP3 POP SWAP3 SWAP1 POP JUMP JUMPDEST PUSH1 0x0 PUSH2 0xE25 DUP4 DUP4 PUSH1 0x0 DUP3 PUSH2 0x1074 JUMPI POP PUSH1 0x1 PUSH2 0x1102 JUMP JUMPDEST DUP2 PUSH2 0x1081 JUMPI POP PUSH1 0x0 PUSH2 0x1102 JUMP JUMPDEST DUP2 PUSH1 0x1 DUP2 EQ PUSH2 0x1097 JUMPI PUSH1 0x2 DUP2 EQ PUSH2 0x10A1 JUMPI PUSH2 0x10BD JUMP JUMPDEST PUSH1 0x1 SWAP2 POP POP PUSH2 0x1102 JUMP JUMPDEST PUSH1 0xFF DUP5 GT ISZERO PUSH2 0x10B2 JUMPI PUSH2 0x10B2 PUSH2 0x1159 JUMP JUMPDEST POP POP PUSH1 0x1 DUP3 SHL PUSH2 0x1102 JUMP JUMPDEST POP PUSH1 0x20 DUP4 LT PUSH2 0x133 DUP4 LT AND PUSH1 0x4E DUP5 LT PUSH1 0xB DUP5 LT AND OR ISZERO PUSH2 0x10E0 JUMPI POP DUP2 DUP2 EXP PUSH2 0x1102 JUMP JUMPDEST PUSH2 0x10EA DUP4 DUP4 PUSH2 0x101B JUMP JUMPDEST DUP1 PUSH1 0x0 NOT DIV DUP3 GT ISZERO PUSH2 0x10FE JUMPI PUSH2 0x10FE PUSH2 0x1159 JUMP JUMPDEST MUL SWAP1 POP JUMPDEST SWAP3 SWAP2 POP POP JUMP JUMPDEST PUSH1 0x0 DUP2 PUSH1 0x0 NOT DIV DUP4 GT DUP3 ISZERO ISZERO AND ISZERO PUSH2 0x1122 JUMPI PUSH2 0x1122 PUSH2 0x1159 JUMP JUMPDEST POP MUL SWAP1 JUMP JUMPDEST PUSH1 0x0 DUP3 DUP3 LT ISZERO PUSH2 0x1139 JUMPI PUSH2 0x1139 PUSH2 0x1159 JUMP JUMPDEST POP SUB SWAP1 JUMP JUMPDEST PUSH1 0x0 PUSH1 0x0 NOT DUP3 EQ ISZERO PUSH2 0x1152 JUMPI PUSH2 0x1152 PUSH2 0x1159 JUMP JUMPDEST POP PUSH1 0x1 ADD SWAP1 JUMP JUMPDEST PUSH4 0x4E487B71 PUSH1 0xE0 SHL PUSH1 0x0 MSTORE PUSH1 0x11 PUSH1 0x4 MSTORE PUSH1 0x24 PUSH1 0x0 REVERT JUMPDEST PUSH4 0x4E487B71 PUSH1 0xE0 SHL PUSH1 0x0 MSTORE PUSH1 0x41 PUSH1 0x4 MSTORE PUSH1 0x24 PUSH1 0x0 REVERT JUMPDEST PUSH1 0x1 PUSH1 0x1 PUSH1 0xA0 SHL SUB DUP2 AND DUP2 EQ PUSH2 0x119A JUMPI PUSH1 0x0 DUP1 REVERT JUMPDEST POP JUMP INVALID LOG2 PUSH5 0x6970667358 0x22 SLT KECCAK256 SWAP3 0xE0 POP 0xC3 GASLIMIT CODESIZE DUP16 0xEE DIV LT STATICCALL 0xB6 0xF9 0xC4 SELFBALANCE CREATE 0x4B SSTORE 0xE 0xE5 0xD7 0x25 DUP14 PUSH27 0xC40661A593F2E5BD64736F6C634300080600334552433732313A20 PUSH21 0x72616E7366657220746F206E6F6E20455243373231 MSTORE PUSH6 0x0 "},"gasEstimates":{"creation":{"codeDepositCost":"1763800","executionCost":"infinite","totalCost":"infinite"},"external":{"addEarning(address,uint256)":"26968","addNewOwner(address,string)":"infinite","addressWasOwner(address)":"2655","approve(address,uint256)":"infinite","balanceOf(address)":"2705","decimals()":"267","endAuction()":"26630","getApproved(uint256)":"4805","getDexAddress()":"2443","getEarned(address)":"2565","getMessageByOrder(uint256)":"infinite","getMessageByOwner(address)":"infinite","getMessageByPlace(uint256)":"infinite","getOrderByOwner(address)":"4884","getOwnerByOrder(uint256)":"4745","getOwnerByPlace(uint256)":"6990","getOwnerSize()":"2371","getPaidByOwner(address)":"infinite","getPlaceByOwner(address)":"7072","getRichest()":"4611","getTokenId()":"2317","isApprovedForAll(address,address)":"infinite","isEnded()":"2366","name()":"infinite","onERC721Received(address,address,uint256,bytes)":"infinite","owner()":"2398","ownerOf(uint256)":"2667","renounceOwnership()":"28160","safeTransferFrom(address,address,uint256)":"infinite","safeTransferFrom(address,address,uint256,bytes)":"infinite","setApprovalForAll(address,bool)":"28895","supportsInterface(bytes4)":"645","symbol()":"infinite","tokenURI(uint256)":"infinite","transferFrom(address,address,uint256)":"infinite","transferOwnership(address)":"infinite"},"internal":{"_approve(address,uint256)":"infinite","_baseURI()":"infinite","_beforeTokenTransfer(address,address,uint256)":"infinite","_burn(uint256)":"infinite","_checkOnERC721Received(address,address,uint256,bytes memory)":"infinite","_exists(uint256)":"infinite","_isApprovedOrOwner(address,uint256)":"infinite","_mint(address,uint256)":"infinite","_safeMint(address,uint256)":"infinite","_safeMint(address,uint256,bytes memory)":"infinite","_safeTransfer(address,address,uint256,bytes memory)":"infinite","_setTokenURI(uint256,string memory)":"infinite","_transfer(address,address,uint256)":"infinite","addOwner(address,string memory)":"infinite","byDex()":"infinite"}},"methodIdentifiers":{"addEarning(address,uint256)":"e6796aaa","addNewOwner(address,string)":"1ec5ee26","addressWasOwner(address)":"1d126fcb","approve(address,uint256)":"095ea7b3","balanceOf(address)":"70a08231","decimals()":"313ce567","endAuction()":"fe67a54b","getApproved(uint256)":"081812fc","getDexAddress()":"854cf3cf","getEarned(address)":"8620612b","getMessageByOrder(uint256)":"4d5623fb","getMessageByOwner(address)":"c65015cb","getMessageByPlace(uint256)":"3790d53d","getOrderByOwner(address)":"ff2e2888","getOwnerByOrder(uint256)":"633cd29d","getOwnerByPlace(uint256)":"82bf863d","getOwnerSize()":"8404dac7","getPaidByOwner(address)":"2820345a","getPlaceByOwner(address)":"0c4e1760","getRichest()":"9a5dd735","getTokenId()":"010a38f5","isApprovedForAll(address,address)":"e985e9c5","isEnded()":"a4fd6f56","name()":"06fdde03","onERC721Received(address,address,uint256,bytes)":"150b7a02","owner()":"8da5cb5b","ownerOf(uint256)":"6352211e","renounceOwnership()":"715018a6","safeTransferFrom(address,address,uint256)":"42842e0e","safeTransferFrom(address,address,uint256,bytes)":"b88d4fde","setApprovalForAll(address,bool)":"a22cb465","supportsInterface(bytes4)":"01ffc9a7","symbol()":"95d89b41","tokenURI(uint256)":"c87b56dd","transferFrom(address,address,uint256)":"23b872dd","transferOwnership(address)":"f2fde38b"}},"storageLayout":{"storage":[{"astId":2033,"contract":"Contract:RichCoin","label":"_owner","offset":0,"slot":"0","type":"t_address"},{"astId":31,"contract":"Contract:RichCoin","label":"_tokenURIs","offset":0,"slot":"1","type":"t_mapping(t_uint256,t_string_storage)"},{"astId":34,"contract":"Contract:RichCoin","label":"baseURI","offset":0,"slot":"2","type":"t_string_storage"},{"astId":125,"contract":"Contract:RichCoin","label":"_name","offset":0,"slot":"3","type":"t_string_storage"},{"astId":127,"contract":"Contract:RichCoin","label":"_symbol","offset":0,"slot":"4","type":"t_string_storage"},{"astId":131,"contract":"Contract:RichCoin","label":"_owners","offset":0,"slot":"5","type":"t_mapping(t_uint256,t_address)"},{"astId":135,"contract":"Contract:RichCoin","label":"_balances","offset":0,"slot":"6","type":"t_mapping(t_address,t_uint256)"},{"astId":139,"contract":"Contract:RichCoin","label":"_tokenApprovals","offset":0,"slot":"7","type":"t_mapping(t_uint256,t_address)"},{"astId":145,"contract":"Contract:RichCoin","label":"_operatorApprovals","offset":0,"slot":"8","type":"t_mapping(t_address,t_mapping(t_address,t_bool))"},{"astId":819,"contract":"Contract:RichCoin","label":"_tokenId","offset":0,"slot":"9","type":"t_uint256"},{"astId":822,"contract":"Contract:RichCoin","label":"_dex","offset":0,"slot":"10","type":"t_contract(DEX)1989"},{"astId":825,"contract":"Contract:RichCoin","label":"_ended","offset":20,"slot":"10","type":"t_bool"},{"astId":829,"contract":"Contract:RichCoin","label":"_wasOwner","offset":0,"slot":"11","type":"t_mapping(t_address,t_bool)"},{"astId":833,"contract":"Contract:RichCoin","label":"_ownerOrder","offset":0,"slot":"12","type":"t_mapping(t_uint256,t_address)"},{"astId":837,"contract":"Contract:RichCoin","label":"_orderToOwner","offset":0,"slot":"13","type":"t_mapping(t_address,t_uint256)"},{"astId":841,"contract":"Contract:RichCoin","label":"_ownerToMessage","offset":0,"slot":"14","type":"t_mapping(t_address,t_string_storage)"},{"astId":845,"contract":"Contract:RichCoin","label":"_earned","offset":0,"slot":"15","type":"t_mapping(t_address,t_uint256)"},{"astId":847,"contract":"Contract:RichCoin","label":"_counter","offset":0,"slot":"16","type":"t_uint256"}],"types":{"t_address":{"encoding":"inplace","label":"address","numberOfBytes":"20"},"t_bool":{"encoding":"inplace","label":"bool","numberOfBytes":"1"},"t_contract(DEX)1989":{"encoding":"inplace","label":"contract DEX","numberOfBytes":"20"},"t_mapping(t_address,t_bool)":{"encoding":"mapping","key":"t_address","label":"mapping(address => bool)","numberOfBytes":"32","value":"t_bool"},"t_mapping(t_address,t_mapping(t_address,t_bool))":{"encoding":"mapping","key":"t_address","label":"mapping(address => mapping(address => bool))","numberOfBytes":"32","value":"t_mapping(t_address,t_bool)"},"t_mapping(t_address,t_string_storage)":{"encoding":"mapping","key":"t_address","label":"mapping(address => string)","numberOfBytes":"32","value":"t_string_storage"},"t_mapping(t_address,t_uint256)":{"encoding":"mapping","key":"t_address","label":"mapping(address => uint256)","numberOfBytes":"32","value":"t_uint256"},"t_mapping(t_uint256,t_address)":{"encoding":"mapping","key":"t_uint256","label":"mapping(uint256 => address)","numberOfBytes":"32","value":"t_address"},"t_mapping(t_uint256,t_string_storage)":{"encoding":"mapping","key":"t_uint256","label":"mapping(uint256 => string)","numberOfBytes":"32","value":"t_string_storage"},"t_string_storage":{"encoding":"bytes","label":"string","numberOfBytes":"32"},"t_uint256":{"encoding":"inplace","label":"uint256","numberOfBytes":"32"}}},"userdoc":{"kind":"user","methods":{},"version":1}}