{
  "contractName": "DEX",
  "abi": [
    {
      "inputs": [
        {
          "internalType": "address",
          "name": "richCoinAddress",
          "type": "address"
        },
        {
          "internalType": "uint256",
          "name": "auctionStart",
          "type": "uint256"
        },
        {
          "internalType": "uint256",
          "name": "deadlineLength",
          "type": "uint256"
        },
        {
          "internalType": "uint256",
          "name": "startPrice",
          "type": "uint256"
        },
        {
          "internalType": "uint256",
          "name": "basis",
          "type": "uint256"
        }
      ],
      "stateMutability": "nonpayable",
      "type": "constructor"
    },
    {
      "anonymous": false,
      "inputs": [
        {
          "indexed": false,
          "internalType": "bool",
          "name": "_ended",
          "type": "bool"
        }
      ],
      "name": "AuctionEnded",
      "type": "event"
    },
    {
      "anonymous": false,
      "inputs": [
        {
          "indexed": false,
          "internalType": "uint256",
          "name": "_deadline",
          "type": "uint256"
        }
      ],
      "name": "NewDeadline",
      "type": "event"
    },
    {
      "anonymous": false,
      "inputs": [
        {
          "indexed": true,
          "internalType": "address",
          "name": "_owner",
          "type": "address"
        },
        {
          "indexed": false,
          "internalType": "uint256",
          "name": "_counter",
          "type": "uint256"
        },
        {
          "indexed": false,
          "internalType": "uint256",
          "name": "_pricePaid",
          "type": "uint256"
        },
        {
          "indexed": false,
          "internalType": "string",
          "name": "_message",
          "type": "string"
        }
      ],
      "name": "NewOwner",
      "type": "event"
    },
    {
      "stateMutability": "payable",
      "type": "fallback"
    },
    {
      "inputs": [
        {
          "internalType": "address",
          "name": "",
          "type": "address"
        },
        {
          "internalType": "address",
          "name": "",
          "type": "address"
        },
        {
          "internalType": "uint256",
          "name": "",
          "type": "uint256"
        },
        {
          "internalType": "bytes",
          "name": "",
          "type": "bytes"
        }
      ],
      "name": "onERC721Received",
      "outputs": [
        {
          "internalType": "bytes4",
          "name": "",
          "type": "bytes4"
        }
      ],
      "stateMutability": "nonpayable",
      "type": "function"
    },
    {
      "stateMutability": "payable",
      "type": "receive"
    },
    {
      "inputs": [
        {
          "internalType": "string",
          "name": "message",
          "type": "string"
        }
      ],
      "name": "buyRichCoin",
      "outputs": [],
      "stateMutability": "payable",
      "type": "function"
    },
    {
      "inputs": [],
      "name": "getPreis",
      "outputs": [
        {
          "internalType": "uint256",
          "name": "",
          "type": "uint256"
        }
      ],
      "stateMutability": "view",
      "type": "function"
    },
    {
      "inputs": [],
      "name": "isStarted",
      "outputs": [
        {
          "internalType": "bool",
          "name": "",
          "type": "bool"
        }
      ],
      "stateMutability": "view",
      "type": "function"
    },
    {
      "inputs": [],
      "name": "getAuctionStart",
      "outputs": [
        {
          "internalType": "uint256",
          "name": "",
          "type": "uint256"
        }
      ],
      "stateMutability": "view",
      "type": "function"
    },
    {
      "inputs": [],
      "name": "getDeadlineLength",
      "outputs": [
        {
          "internalType": "uint256",
          "name": "",
          "type": "uint256"
        }
      ],
      "stateMutability": "view",
      "type": "function"
    },
    {
      "inputs": [],
      "name": "getDeadlineRemaining",
      "outputs": [
        {
          "internalType": "uint256",
          "name": "",
          "type": "uint256"
        }
      ],
      "stateMutability": "view",
      "type": "function"
    },
    {
      "inputs": [],
      "name": "getStartPrice",
      "outputs": [
        {
          "internalType": "uint256",
          "name": "",
          "type": "uint256"
        }
      ],
      "stateMutability": "view",
      "type": "function"
    },
    {
      "inputs": [],
      "name": "getBasis",
      "outputs": [
        {
          "internalType": "uint256",
          "name": "",
          "type": "uint256"
        }
      ],
      "stateMutability": "view",
      "type": "function"
    },
    {
      "inputs": [],
      "name": "getRichCoin",
      "outputs": [
        {
          "internalType": "address",
          "name": "",
          "type": "address"
        }
      ],
      "stateMutability": "view",
      "type": "function"
    }
  ],
  "bytecode": "0x60806040526000600560006101000a81548160ff021916908315150217905550600260085560016009553480156200003657600080fd5b50604051620020e3380380620020e383398181016040528101906200005c919062000223565b600160008190555060648111620000aa576040517f08c379a0000000000000000000000000000000000000000000000000000000008152600401620000a19062000304565b60405180910390fd5b836004819055508260068190555081600781905550806002819055506064600254600754620000da91906200042b565b620000e69190620003f3565b600a8190555084600160006101000a81548173ffffffffffffffffffffffffffffffffffffffff021916908373ffffffffffffffffffffffffffffffffffffffff1602179055506200014f60065460045462000143919062000396565b620001b060201b60201c565b3273ffffffffffffffffffffffffffffffffffffffff167f6ceed9d5957b9e77f5d93d6312a4c8e5f63ef6f75cb9812f486b76336982b75d6009546007546040516200019d92919062000343565b60405180910390a25050505050620005ae565b806003819055507f41f916eb2a7065889bf3a2125806adaa5ca5a1c9be36f179340901abbf666d23600354604051620001ea919062000326565b60405180910390a150565b60008151905062000206816200057a565b92915050565b6000815190506200021d8162000594565b92915050565b600080600080600060a086880312156200023c57600080fd5b60006200024c88828901620001f5565b95505060206200025f888289016200020c565b945050604062000272888289016200020c565b935050606062000285888289016200020c565b925050608062000298888289016200020c565b9150509295509295909350565b6000620002b460108362000385565b9150620002c18262000528565b602082019050919050565b6000620002db600f8362000385565b9150620002e88262000551565b602082019050919050565b620002fe81620004c0565b82525050565b600060208201905081810360008301526200031f81620002cc565b9050919050565b60006020820190506200033d6000830184620002f3565b92915050565b60006060820190506200035a6000830185620002f3565b620003696020830184620002f3565b81810360408301526200037c81620002a5565b90509392505050565b600082825260208201905092915050565b6000620003a382620004c0565b9150620003b083620004c0565b9250827fffffffffffffffffffffffffffffffffffffffffffffffffffffffffffffffff03821115620003e857620003e7620004ca565b5b828201905092915050565b60006200040082620004c0565b91506200040d83620004c0565b92508262000420576200041f620004f9565b5b828204905092915050565b60006200043882620004c0565b91506200044583620004c0565b9250817fffffffffffffffffffffffffffffffffffffffffffffffffffffffffffffffff0483118215151615620004815762000480620004ca565b5b828202905092915050565b60006200049982620004a0565b9050919050565b600073ffffffffffffffffffffffffffffffffffffffff82169050919050565b6000819050919050565b7f4e487b7100000000000000000000000000000000000000000000000000000000600052601160045260246000fd5b7f4e487b7100000000000000000000000000000000000000000000000000000000600052601260045260246000fd5b7f49276d206675636b696e6720706f6f7200000000000000000000000000000000600082015250565b7f4261736520697320746f6f206c6f770000000000000000000000000000000000600082015250565b62000585816200048c565b81146200059157600080fd5b50565b6200059f81620004c0565b8114620005ab57600080fd5b50565b611b2580620005be6000396000f3fe6080604052600436106100955760003560e01c80637d58e3cf116100595780637d58e3cf146101785780637f8aced7146101a3578063baffa903146101ce578063c5570261146101f9578063caee4dd3146102245761009c565b8063150b7a021461009e5780632a2d64ff146100db5780634df60ad414610106578063544736e614610122578063644e97971461014d5761009c565b3661009c57005b005b3480156100aa57600080fd5b506100c560048036038101906100c091906111a9565b61024f565b6040516100d29190611441565b60405180910390f35b3480156100e757600080fd5b506100f0610263565b6040516100fd91906114d7565b60405180910390f35b610120600480360381019061011b9190611224565b61026d565b005b34801561012e57600080fd5b50610137610512565b6040516101449190611426565b60405180910390f35b34801561015957600080fd5b50610162610529565b60405161016f91906114d7565b60405180910390f35b34801561018457600080fd5b5061018d610533565b60405161019a91906114d7565b60405180910390f35b3480156101af57600080fd5b506101b861053d565b6040516101c591906114d7565b60405180910390f35b3480156101da57600080fd5b506101e3610547565b6040516101f091906114d7565b60405180910390f35b34801561020557600080fd5b5061020e610551565b60405161021b91906114d7565b60405180910390f35b34801561023057600080fd5b5061023961055b565b604051610246919061137b565b60405180910390f35b600063150b7a0260e01b9050949350505050565b6000600354905090565b600260005414156102b3576040517f08c379a00000000000000000000000000000000000000000000000000000000081526004016102aa906114b7565b60405180910390fd5b6002600081905550600560009054906101000a900460ff1661033057600454421015610314576040517f08c379a000000000000000000000000000000000000000000000000000000000815260040161030b90611497565b60405180910390fd5b6001600560006101000a81548160ff0219169083151502179055505b60035442106104fe573373ffffffffffffffffffffffffffffffffffffffff166108fc349081150290604051600060405180830381858888f1935050505015801561037f573d6000803e3d6000fd5b50600160009054906101000a900473ffffffffffffffffffffffffffffffffffffffff1673ffffffffffffffffffffffffffffffffffffffff1663fe67a54b6040518163ffffffff1660e01b8152600401600060405180830381600087803b1580156103ea57600080fd5b505af11580156103fe573d6000803e3d6000fd5b505050507f65621228cd4667982e3b2306bdbedb01c7f7d2ebd15463abb9d9a1d6ff4d4cd860016040516104329190611426565b60405180910390a1600160009054906101000a900473ffffffffffffffffffffffffffffffffffffffff1673ffffffffffffffffffffffffffffffffffffffff1663633cd29d60016040518263ffffffff1660e01b8152600401610496919061145c565b60206040518083038186803b1580156104ae57600080fd5b505afa1580156104c2573d6000803e3d6000fd5b505050506040513d601f19601f820116820180604052508101906104e69190611180565b73ffffffffffffffffffffffffffffffffffffffff16ff5b61050781610585565b600160008190555050565b6000600560009054906101000a900460ff16905090565b6000600454905090565b6000600a54905090565b6000600254905090565b6000600754905090565b6000600654905090565b6000600160009054906101000a900473ffffffffffffffffffffffffffffffffffffffff16905090565b600a543410156105ca576040517f08c379a00000000000000000000000000000000000000000000000000000000081526004016105c190611477565b60405180910390fd5b60006002546064600a546105de91906117cb565b6105e89190611629565b9050600081600283600a546105fd9190611825565b6106079190611629565b61061191906115d3565b9050600081600a546106239190611825565b9050610653606460085460646106399190611825565b8461064491906117cb565b61064e9190611629565b610951565b610681606460085460646106679190611825565b8361067291906117cb565b61067c9190611629565b610b7c565b600047905061068f81610e1d565b600160009054906101000a900473ffffffffffffffffffffffffffffffffffffffff1673ffffffffffffffffffffffffffffffffffffffff166342842e0e600160009054906101000a900473ffffffffffffffffffffffffffffffffffffffff1673ffffffffffffffffffffffffffffffffffffffff16636352211e600160009054906101000a900473ffffffffffffffffffffffffffffffffffffffff1673ffffffffffffffffffffffffffffffffffffffff1663010a38f56040518163ffffffff1660e01b815260040160206040518083038186803b15801561077357600080fd5b505afa158015610787573d6000803e3d6000fd5b505050506040513d601f19601f820116820180604052508101906107ab9190611265565b6040518263ffffffff1660e01b81526004016107c791906114d7565b60206040518083038186803b1580156107df57600080fd5b505afa1580156107f3573d6000803e3d6000fd5b505050506040513d601f19601f820116820180604052508101906108179190611180565b33600160009054906101000a900473ffffffffffffffffffffffffffffffffffffffff1673ffffffffffffffffffffffffffffffffffffffff1663010a38f56040518163ffffffff1660e01b815260040160206040518083038186803b15801561088057600080fd5b505afa158015610894573d6000803e3d6000fd5b505050506040513d601f19601f820116820180604052508101906108b89190611265565b6040518463ffffffff1660e01b81526004016108d693929190611396565b600060405180830381600087803b1580156108f057600080fd5b505af1158015610904573d6000803e3d6000fd5b505050506109123386610f18565b6109286006544261092391906115d3565b611019565b6064600254600a5461093a91906117cb565b6109449190611629565b600a819055505050505050565b6000600160009054906101000a900473ffffffffffffffffffffffffffffffffffffffff1673ffffffffffffffffffffffffffffffffffffffff1663633cd29d6009546040518263ffffffff1660e01b81526004016109b091906114d7565b60206040518083038186803b1580156109c857600080fd5b505afa1580156109dc573d6000803e3d6000fd5b505050506040513d601f19601f82011682018060405250810190610a009190611180565b73ffffffffffffffffffffffffffffffffffffffff166108fc839081150290604051600060405180830381858888f1935050505090508015610b7857600160009054906101000a900473ffffffffffffffffffffffffffffffffffffffff1673ffffffffffffffffffffffffffffffffffffffff1663e6796aaa600160009054906101000a900473ffffffffffffffffffffffffffffffffffffffff1673ffffffffffffffffffffffffffffffffffffffff1663633cd29d6009546040518263ffffffff1660e01b8152600401610ad791906114d7565b60206040518083038186803b158015610aef57600080fd5b505afa158015610b03573d6000803e3d6000fd5b505050506040513d601f19601f82011682018060405250810190610b279190611180565b846040518363ffffffff1660e01b8152600401610b459291906113fd565b600060405180830381600087803b158015610b5f57600080fd5b505af1158015610b73573d6000803e3d6000fd5b505050505b5050565b6000600190505b6009548111610e19576000816002610b9b91906116ad565b83610ba69190611629565b9050600954821415610bd857816002610bbf91906116ad565b83610bca9190611629565b81610bd591906115d3565b90505b60008114610e05576000600160009054906101000a900473ffffffffffffffffffffffffffffffffffffffff1673ffffffffffffffffffffffffffffffffffffffff1663633cd29d846040518263ffffffff1660e01b8152600401610c3d91906114d7565b60206040518083038186803b158015610c5557600080fd5b505afa158015610c69573d6000803e3d6000fd5b505050506040513d601f19601f82011682018060405250810190610c8d9190611180565b73ffffffffffffffffffffffffffffffffffffffff166108fc839081150290604051600060405180830381858888f1935050505090508015610e0357600160009054906101000a900473ffffffffffffffffffffffffffffffffffffffff1673ffffffffffffffffffffffffffffffffffffffff1663e6796aaa600160009054906101000a900473ffffffffffffffffffffffffffffffffffffffff1673ffffffffffffffffffffffffffffffffffffffff1663633cd29d866040518263ffffffff1660e01b8152600401610d6291906114d7565b60206040518083038186803b158015610d7a57600080fd5b505afa158015610d8e573d6000803e3d6000fd5b505050506040513d601f19601f82011682018060405250810190610db29190611180565b846040518363ffffffff1660e01b8152600401610dd09291906113fd565b600060405180830381600087803b158015610dea57600080fd5b505af1158015610dfe573d6000803e3d6000fd5b505050505b505b508080610e1190611952565b915050610b83565b5050565b6000732d48a3957c7246f5630a2cff2fcbdf737e0177b473ffffffffffffffffffffffffffffffffffffffff166108fc839081150290604051600060405180830381858888f1935050505090508015610f1457600160009054906101000a900473ffffffffffffffffffffffffffffffffffffffff1673ffffffffffffffffffffffffffffffffffffffff1663e6796aaa732d48a3957c7246f5630a2cff2fcbdf737e0177b4846040518363ffffffff1660e01b8152600401610ee19291906113fd565b600060405180830381600087803b158015610efb57600080fd5b505af1158015610f0f573d6000803e3d6000fd5b505050505b5050565b60096000815480929190610f2b90611952565b91905055508173ffffffffffffffffffffffffffffffffffffffff167f6ceed9d5957b9e77f5d93d6312a4c8e5f63ef6f75cb9812f486b76336982b75d600954600a5484604051610f7e939291906114f2565b60405180910390a2600160009054906101000a900473ffffffffffffffffffffffffffffffffffffffff1673ffffffffffffffffffffffffffffffffffffffff16631ec5ee2633836040518363ffffffff1660e01b8152600401610fe39291906113cd565b600060405180830381600087803b158015610ffd57600080fd5b505af1158015611011573d6000803e3d6000fd5b505050505050565b806003819055507f41f916eb2a7065889bf3a2125806adaa5ca5a1c9be36f179340901abbf666d2360035460405161105191906114d7565b60405180910390a150565b600061106f61106a84611555565b611530565b90508281526020810184848401111561108757600080fd5b6110928482856118df565b509392505050565b60006110ad6110a884611586565b611530565b9050828152602081018484840111156110c557600080fd5b6110d08482856118df565b509392505050565b6000813590506110e781611ac1565b92915050565b6000815190506110fc81611ac1565b92915050565b600082601f83011261111357600080fd5b813561112384826020860161105c565b91505092915050565b600082601f83011261113d57600080fd5b813561114d84826020860161109a565b91505092915050565b60008135905061116581611ad8565b92915050565b60008151905061117a81611ad8565b92915050565b60006020828403121561119257600080fd5b60006111a0848285016110ed565b91505092915050565b600080600080608085870312156111bf57600080fd5b60006111cd878288016110d8565b94505060206111de878288016110d8565b93505060406111ef87828801611156565b925050606085013567ffffffffffffffff81111561120c57600080fd5b61121887828801611102565b91505092959194509250565b60006020828403121561123657600080fd5b600082013567ffffffffffffffff81111561125057600080fd5b61125c8482850161112c565b91505092915050565b60006020828403121561127757600080fd5b60006112858482850161116b565b91505092915050565b61129781611859565b82525050565b6112a68161186b565b82525050565b6112b581611877565b82525050565b6112c4816118cd565b82525050565b60006112d5826115b7565b6112df81856115c2565b93506112ef8185602086016118ee565b6112f881611a28565b840191505092915050565b60006113106020836115c2565b915061131b82611a46565b602082019050919050565b6000611333601f836115c2565b915061133e82611a6f565b602082019050919050565b6000611356601f836115c2565b915061136182611a98565b602082019050919050565b611375816118c3565b82525050565b6000602082019050611390600083018461128e565b92915050565b60006060820190506113ab600083018661128e565b6113b8602083018561128e565b6113c5604083018461136c565b949350505050565b60006040820190506113e2600083018561128e565b81810360208301526113f481846112ca565b90509392505050565b6000604082019050611412600083018561128e565b61141f602083018461136c565b9392505050565b600060208201905061143b600083018461129d565b92915050565b600060208201905061145660008301846112ac565b92915050565b600060208201905061147160008301846112bb565b92915050565b6000602082019050818103600083015261149081611303565b9050919050565b600060208201905081810360008301526114b081611326565b9050919050565b600060208201905081810360008301526114d081611349565b9050919050565b60006020820190506114ec600083018461136c565b92915050565b6000606082019050611507600083018661136c565b611514602083018561136c565b818103604083015261152681846112ca565b9050949350505050565b600061153a61154b565b90506115468282611921565b919050565b6000604051905090565b600067ffffffffffffffff8211156115705761156f6119f9565b5b61157982611a28565b9050602081019050919050565b600067ffffffffffffffff8211156115a1576115a06119f9565b5b6115aa82611a28565b9050602081019050919050565b600081519050919050565b600082825260208201905092915050565b60006115de826118c3565b91506115e9836118c3565b9250827fffffffffffffffffffffffffffffffffffffffffffffffffffffffffffffffff0382111561161e5761161d61199b565b5b828201905092915050565b6000611634826118c3565b915061163f836118c3565b92508261164f5761164e6119ca565b5b828204905092915050565b6000808291508390505b60018511156116a4578086048111156116805761167f61199b565b5b600185161561168f5780820291505b808102905061169d85611a39565b9450611664565b94509492505050565b60006116b8826118c3565b91506116c3836118c3565b92506116f07fffffffffffffffffffffffffffffffffffffffffffffffffffffffffffffffff84846116f8565b905092915050565b60008261170857600190506117c4565b8161171657600090506117c4565b816001811461172c576002811461173657611765565b60019150506117c4565b60ff8411156117485761174761199b565b5b8360020a91508482111561175f5761175e61199b565b5b506117c4565b5060208310610133831016604e8410600b841016171561179a5782820a9050838111156117955761179461199b565b5b6117c4565b6117a7848484600161165a565b925090508184048111156117be576117bd61199b565b5b81810290505b9392505050565b60006117d6826118c3565b91506117e1836118c3565b9250817fffffffffffffffffffffffffffffffffffffffffffffffffffffffffffffffff048311821515161561181a5761181961199b565b5b828202905092915050565b6000611830826118c3565b915061183b836118c3565b92508282101561184e5761184d61199b565b5b828203905092915050565b6000611864826118a3565b9050919050565b60008115159050919050565b60007fffffffff0000000000000000000000000000000000000000000000000000000082169050919050565b600073ffffffffffffffffffffffffffffffffffffffff82169050919050565b6000819050919050565b60006118d8826118c3565b9050919050565b82818337600083830152505050565b60005b8381101561190c5780820151818401526020810190506118f1565b8381111561191b576000848401525b50505050565b61192a82611a28565b810181811067ffffffffffffffff82111715611949576119486119f9565b5b80604052505050565b600061195d826118c3565b91507fffffffffffffffffffffffffffffffffffffffffffffffffffffffffffffffff8214156119905761198f61199b565b5b600182019050919050565b7f4e487b7100000000000000000000000000000000000000000000000000000000600052601160045260246000fd5b7f4e487b7100000000000000000000000000000000000000000000000000000000600052601260045260246000fd5b7f4e487b7100000000000000000000000000000000000000000000000000000000600052604160045260246000fd5b6000601f19601f8301169050919050565b60008160011c9050919050565b7f596f75206861766520746f207061792074686520726967687420707269636521600082015250565b7f5468652061756374696f6e206861736e27742073746172746564207965742100600082015250565b7f5265656e7472616e637947756172643a207265656e7472616e742063616c6c00600082015250565b611aca81611859565b8114611ad557600080fd5b50565b611ae1816118c3565b8114611aec57600080fd5b5056fea26469706673582212201e60ee60c980c72d3112dfe328b67c390c1ca2e5db3424b3d19512cf4801cdcc64736f6c63430008020033",
  "immutableReferences": {},
  "source": "\r\n// SPDX-License-Identifier: MIT\r\npragma solidity ^0.8.0;\r\n\r\nimport \"./openzeppelin/contracts/token/ERC721/utils/ERC721Holder.sol\";\r\nimport \"./openzeppelin/contracts/security/ReentrancyGuard.sol\";\r\nimport \"./IRichCoin.sol\";\r\n\r\ncontract DEX is ERC721Holder, ReentrancyGuard{\r\n    IRichCoin private coin;\r\n    uint256 private _basis;\r\n    uint256 private _deadline;\r\n    uint256 private _auctionStart;\r\n    bool private _auctionStarted = false;\r\n    uint256 private _deadlineLength;\r\n    uint256 private _startPrice; //Startpreis festlegen, msste unten multipliziert werden\r\n    uint256 private _provision = 2;\r\n    uint256 _personenZaehler = 1;\r\n    event NewOwner(address indexed _owner, uint256 _counter, uint256 _pricePaid, string _message); //Eventuell noch Message hinzufgen, gehasht oder nicht gehasht\r\n    event NewDeadline(uint256 _deadline);\r\n    event AuctionEnded(bool _ended);\r\n    uint256 private _amountToPay;\r\n\r\n    constructor(address richCoinAddress, uint256 auctionStart, uint256 deadlineLength, uint256 startPrice, uint256 basis) {\r\n        require(basis > 100, \"Base is too low\");\r\n        //require(auctionStart > block.timestamp, \"Auction start is not in the future\"); //Wobei vielleicht Auktion direkt beginnen\r\n        _auctionStart = auctionStart;\r\n        _deadlineLength = deadlineLength;\r\n        _startPrice = startPrice;\r\n        _basis = basis;\r\n        _amountToPay = ((_startPrice*_basis)/100);\r\n        coin = IRichCoin(richCoinAddress);\r\n        newDeadline(_auctionStart + _deadlineLength);\r\n        emit NewOwner(tx.origin, _personenZaehler, _startPrice, \"I'm fucking poor\");\r\n    }\r\n\r\n    function newDeadline(uint256 _newDeadline) internal {\r\n        _deadline = _newDeadline;\r\n        emit NewDeadline(_deadline);\r\n    }\r\n\r\n    fallback() external payable{\r\n    }\r\n\r\n    receive() external payable{\r\n\r\n    }\r\n\r\n    function addNewOwner(address _newOwner, string memory message) internal{\r\n        _personenZaehler++;\r\n        emit NewOwner(_newOwner, _personenZaehler, _amountToPay, message);\r\n        coin.addNewOwner(msg.sender, message);\r\n    }\r\n\r\n    function paybackLastOne(uint256 amount) internal{\r\n        bool sent = payable(coin.getOwnerByOrder(_personenZaehler)).send(amount);\r\n        if(sent){\r\n            coin.addEarning(coin.getOwnerByOrder(_personenZaehler), amount); \r\n        }\r\n    }\r\n\r\n        function paybackAll(uint256 rest) internal{\r\n            for(uint256 i=1; i<=_personenZaehler; i++){                                                \r\n                //uint256 amountToSenddd = ((((_startPrice*(_basis**_personenZaehler))/(100**_personenZaehler))-(((_startPrice*(_basis**(_personenZaehler-1)))/100**(_personenZaehler-1))))/(2**(i+1))); Geht\r\n                //uint256 amountToSendd = ((_startPrice*((_basis)**(_personenZaehler))/(100**_personenZaehler))-(_startPrice*((_basis)**(_personenZaehler-1)/(100**(_personenZaehler-1)))))/(2**(i+1)); Geht nicht\r\n                uint256 amountToSend = (rest/(2**(i)));\r\n                if(i == _personenZaehler){\r\n                    amountToSend += (rest/(2**(i)));\r\n                }\r\n                //Letzter Owner bekommt den \"Rest der brigen funds\", also so viel wie der vorher\r\n                if(amountToSend!=0){\r\n                    bool sent = payable(coin.getOwnerByOrder(i)).send(amountToSend);\r\n                    if(sent){\r\n                    coin.addEarning(coin.getOwnerByOrder(i), amountToSend);\r\n                    }\r\n                }\r\n            }\r\n        }\r\n\r\n        function paybackProvision(uint256 remaining) internal {\r\n            bool sent = payable(0x2d48A3957C7246f5630A2CFF2fcBDf737e0177b4).send(remaining);\r\n            if(sent){\r\n                coin.addEarning(0x2d48A3957C7246f5630A2CFF2fcBDf737e0177b4, remaining);\r\n            }\r\n        }\r\n\r\n    function transact(string memory message) internal{\r\n\r\n            require(msg.value >= _amountToPay , \"You have to pay the right price!\");\r\n            \r\n\r\n            //uint256 payback = (((_startPrice*((_basis/100)**(_personenZaehler)))-(_startPrice*(_basis/100)**(_personenZaehler-1)))/2)+(_startPrice*((_basis/100)**_personenZaehler-1));\r\n            //uint256 payback = ((_startPrice*(_basis/100)**(_personenZaehler)-_startPrice*(_basis/100)**(_personenZaehler-1))/2)+(_startPrice*(_basis/100)**_personenZaehler-1);\r\n            uint256 amountOld = ((_amountToPay*100)/_basis);\r\n            uint256 payback = ((_amountToPay-amountOld)/2)+amountOld;\r\n            uint256 rest = _amountToPay-payback;\r\n            paybackLastOne(payback*(100-_provision)/100);\r\n            paybackAll(rest*(100-_provision)/100);\r\n            uint256 remaining = address(this).balance;\r\n            paybackProvision(remaining);\r\n            //Rechnung Provision Potenz 2: amountToPay-50*0,02+50 + (vorherige)\r\n            coin.safeTransferFrom(coin.ownerOf(coin.getTokenId()),msg.sender, coin.getTokenId());\r\n            addNewOwner(msg.sender, message);\r\n            newDeadline(block.timestamp + _deadlineLength);\r\n            _amountToPay = ((_amountToPay*_basis)/100); //Theoretisch einfach mal Basis/100 nehmen\r\n    }\r\n\r\n    function buyRichCoin(string memory message) nonReentrant external payable {\r\n        if(!_auctionStarted){\r\n            require(block.timestamp >= _auctionStart, \"The auction hasn't started yet!\");\r\n            _auctionStarted = true;\r\n        }\r\n        if(block.timestamp >= _deadline){\r\n            payable(msg.sender).transfer(msg.value);\r\n            coin.endAuction();\r\n            emit AuctionEnded(true);\r\n            selfdestruct(payable(coin.getOwnerByOrder(1)));\r\n        }else{\r\n            transact(message);\r\n        }\r\n    }\r\n\r\n    function getPreis() external view returns(uint256){\r\n        return _amountToPay;\r\n    }\r\n\r\n    function isStarted() external view returns(bool){\r\n        return _auctionStarted;\r\n    }\r\n\r\n    function getAuctionStart() external view returns(uint256){\r\n        return _auctionStart;\r\n    }\r\n\r\n    function getDeadlineLength() external view returns(uint256){\r\n        return _deadlineLength;\r\n    }\r\n\r\n    function getDeadlineRemaining() external view returns(uint256){\r\n        return _deadline;\r\n    }\r\n\r\n    function getStartPrice() external view returns(uint256){\r\n        return _startPrice;\r\n    }\r\n\r\n    function getBasis() external view returns(uint256){\r\n        return _basis;\r\n    }\r\n\r\n    function getRichCoin() external view returns(address) {\r\n        return address(coin);\r\n    }\r\n\r\n}",
  "sourcePath": "D:\\RichCoin-Web-master\\NFT\\contracts\\Dex.sol",
  "compiler": {
    "name": "solc",
    "version": "0.8.2+commit.661d1103.Emscripten.clang"
  },
  "schemaVersion": "3.4.7",
  "updatedAt": "2022-06-01T22:38:24.134Z",
  "devdoc": {
    "kind": "dev",
    "methods": {
      "onERC721Received(address,address,uint256,bytes)": {
        "details": "See {IERC721Receiver-onERC721Received}. Always returns `IERC721Receiver.onERC721Received.selector`."
      }
    },
    "version": 1
  },
  "userdoc": {
    "kind": "user",
    "methods": {},
    "version": 1
  }
}