{
  "contractName": "RichCoin",
  "abi": [
    {
      "inputs": [
        {
          "internalType": "string",
          "name": "__name",
          "type": "string"
        },
        {
          "internalType": "string",
          "name": "__symbol",
          "type": "string"
        },
        {
          "internalType": "uint256",
          "name": "auctionStart",
          "type": "uint256"
        },
        {
          "internalType": "uint256",
          "name": "deadlineLength",
          "type": "uint256"
        },
        {
          "internalType": "uint256",
          "name": "startPrice",
          "type": "uint256"
        },
        {
          "internalType": "uint256",
          "name": "basis",
          "type": "uint256"
        },
        {
          "internalType": "string",
          "name": "_tokenURI",
          "type": "string"
        },
        {
          "internalType": "string",
          "name": "_messageInput",
          "type": "string"
        }
      ],
      "stateMutability": "nonpayable",
      "type": "constructor"
    },
    {
      "anonymous": false,
      "inputs": [
        {
          "indexed": true,
          "internalType": "address",
          "name": "owner",
          "type": "address"
        },
        {
          "indexed": true,
          "internalType": "address",
          "name": "approved",
          "type": "address"
        },
        {
          "indexed": true,
          "internalType": "uint256",
          "name": "tokenId",
          "type": "uint256"
        }
      ],
      "name": "Approval",
      "type": "event"
    },
    {
      "anonymous": false,
      "inputs": [
        {
          "indexed": true,
          "internalType": "address",
          "name": "owner",
          "type": "address"
        },
        {
          "indexed": true,
          "internalType": "address",
          "name": "operator",
          "type": "address"
        },
        {
          "indexed": false,
          "internalType": "bool",
          "name": "approved",
          "type": "bool"
        }
      ],
      "name": "ApprovalForAll",
      "type": "event"
    },
    {
      "anonymous": false,
      "inputs": [
        {
          "indexed": false,
          "internalType": "string",
          "name": "___name",
          "type": "string"
        },
        {
          "indexed": false,
          "internalType": "string",
          "name": "___symbol",
          "type": "string"
        },
        {
          "indexed": false,
          "internalType": "uint256",
          "name": "_auctionStart",
          "type": "uint256"
        },
        {
          "indexed": false,
          "internalType": "uint256",
          "name": "_deadlineLength",
          "type": "uint256"
        },
        {
          "indexed": false,
          "internalType": "uint256",
          "name": "_startPrice",
          "type": "uint256"
        },
        {
          "indexed": false,
          "internalType": "uint256",
          "name": "_basis",
          "type": "uint256"
        },
        {
          "indexed": false,
          "internalType": "string",
          "name": "__tokenURI",
          "type": "string"
        }
      ],
      "name": "ContractCreated",
      "type": "event"
    },
    {
      "anonymous": false,
      "inputs": [
        {
          "indexed": true,
          "internalType": "address",
          "name": "previousOwner",
          "type": "address"
        },
        {
          "indexed": true,
          "internalType": "address",
          "name": "newOwner",
          "type": "address"
        }
      ],
      "name": "OwnershipTransferred",
      "type": "event"
    },
    {
      "anonymous": false,
      "inputs": [
        {
          "indexed": true,
          "internalType": "address",
          "name": "from",
          "type": "address"
        },
        {
          "indexed": true,
          "internalType": "address",
          "name": "to",
          "type": "address"
        },
        {
          "indexed": true,
          "internalType": "uint256",
          "name": "tokenId",
          "type": "uint256"
        }
      ],
      "name": "Transfer",
      "type": "event"
    },
    {
      "inputs": [
        {
          "internalType": "address",
          "name": "",
          "type": "address"
        },
        {
          "internalType": "address",
          "name": "",
          "type": "address"
        },
        {
          "internalType": "uint256",
          "name": "",
          "type": "uint256"
        },
        {
          "internalType": "bytes",
          "name": "",
          "type": "bytes"
        }
      ],
      "name": "onERC721Received",
      "outputs": [
        {
          "internalType": "bytes4",
          "name": "",
          "type": "bytes4"
        }
      ],
      "stateMutability": "nonpayable",
      "type": "function"
    },
    {
      "inputs": [],
      "name": "owner",
      "outputs": [
        {
          "internalType": "address",
          "name": "",
          "type": "address"
        }
      ],
      "stateMutability": "view",
      "type": "function"
    },
    {
      "inputs": [],
      "name": "renounceOwnership",
      "outputs": [],
      "stateMutability": "nonpayable",
      "type": "function"
    },
    {
      "inputs": [
        {
          "internalType": "address",
          "name": "newOwner",
          "type": "address"
        }
      ],
      "name": "transferOwnership",
      "outputs": [],
      "stateMutability": "nonpayable",
      "type": "function"
    },
    {
      "inputs": [
        {
          "internalType": "uint256",
          "name": "tokenId",
          "type": "uint256"
        }
      ],
      "name": "tokenURI",
      "outputs": [
        {
          "internalType": "string",
          "name": "",
          "type": "string"
        }
      ],
      "stateMutability": "view",
      "type": "function"
    },
    {
      "inputs": [
        {
          "internalType": "bytes4",
          "name": "interfaceId",
          "type": "bytes4"
        }
      ],
      "name": "supportsInterface",
      "outputs": [
        {
          "internalType": "bool",
          "name": "",
          "type": "bool"
        }
      ],
      "stateMutability": "view",
      "type": "function"
    },
    {
      "inputs": [],
      "name": "decimals",
      "outputs": [
        {
          "internalType": "uint8",
          "name": "",
          "type": "uint8"
        }
      ],
      "stateMutability": "pure",
      "type": "function"
    },
    {
      "inputs": [
        {
          "internalType": "address",
          "name": "owner",
          "type": "address"
        }
      ],
      "name": "balanceOf",
      "outputs": [
        {
          "internalType": "uint256",
          "name": "",
          "type": "uint256"
        }
      ],
      "stateMutability": "view",
      "type": "function"
    },
    {
      "inputs": [
        {
          "internalType": "uint256",
          "name": "tokenId",
          "type": "uint256"
        }
      ],
      "name": "ownerOf",
      "outputs": [
        {
          "internalType": "address",
          "name": "",
          "type": "address"
        }
      ],
      "stateMutability": "view",
      "type": "function"
    },
    {
      "inputs": [],
      "name": "name",
      "outputs": [
        {
          "internalType": "string",
          "name": "",
          "type": "string"
        }
      ],
      "stateMutability": "view",
      "type": "function"
    },
    {
      "inputs": [],
      "name": "symbol",
      "outputs": [
        {
          "internalType": "string",
          "name": "",
          "type": "string"
        }
      ],
      "stateMutability": "view",
      "type": "function"
    },
    {
      "inputs": [
        {
          "internalType": "address",
          "name": "to",
          "type": "address"
        },
        {
          "internalType": "uint256",
          "name": "tokenId",
          "type": "uint256"
        }
      ],
      "name": "approve",
      "outputs": [],
      "stateMutability": "nonpayable",
      "type": "function"
    },
    {
      "inputs": [
        {
          "internalType": "uint256",
          "name": "tokenId",
          "type": "uint256"
        }
      ],
      "name": "getApproved",
      "outputs": [
        {
          "internalType": "address",
          "name": "",
          "type": "address"
        }
      ],
      "stateMutability": "view",
      "type": "function"
    },
    {
      "inputs": [
        {
          "internalType": "address",
          "name": "operator",
          "type": "address"
        },
        {
          "internalType": "bool",
          "name": "approved",
          "type": "bool"
        }
      ],
      "name": "setApprovalForAll",
      "outputs": [],
      "stateMutability": "nonpayable",
      "type": "function"
    },
    {
      "inputs": [
        {
          "internalType": "address",
          "name": "owner",
          "type": "address"
        },
        {
          "internalType": "address",
          "name": "operator",
          "type": "address"
        }
      ],
      "name": "isApprovedForAll",
      "outputs": [
        {
          "internalType": "bool",
          "name": "",
          "type": "bool"
        }
      ],
      "stateMutability": "view",
      "type": "function"
    },
    {
      "inputs": [
        {
          "internalType": "address",
          "name": "from",
          "type": "address"
        },
        {
          "internalType": "address",
          "name": "to",
          "type": "address"
        },
        {
          "internalType": "uint256",
          "name": "tokenId",
          "type": "uint256"
        }
      ],
      "name": "transferFrom",
      "outputs": [],
      "stateMutability": "nonpayable",
      "type": "function"
    },
    {
      "inputs": [
        {
          "internalType": "address",
          "name": "from",
          "type": "address"
        },
        {
          "internalType": "address",
          "name": "to",
          "type": "address"
        },
        {
          "internalType": "uint256",
          "name": "tokenId",
          "type": "uint256"
        }
      ],
      "name": "safeTransferFrom",
      "outputs": [],
      "stateMutability": "nonpayable",
      "type": "function"
    },
    {
      "inputs": [
        {
          "internalType": "address",
          "name": "from",
          "type": "address"
        },
        {
          "internalType": "address",
          "name": "to",
          "type": "address"
        },
        {
          "internalType": "uint256",
          "name": "tokenId",
          "type": "uint256"
        },
        {
          "internalType": "bytes",
          "name": "_data",
          "type": "bytes"
        }
      ],
      "name": "safeTransferFrom",
      "outputs": [],
      "stateMutability": "nonpayable",
      "type": "function"
    },
    {
      "inputs": [
        {
          "internalType": "address",
          "name": "_address",
          "type": "address"
        }
      ],
      "name": "getEarned",
      "outputs": [
        {
          "internalType": "uint256",
          "name": "",
          "type": "uint256"
        }
      ],
      "stateMutability": "view",
      "type": "function"
    },
    {
      "inputs": [
        {
          "internalType": "address",
          "name": "_address",
          "type": "address"
        },
        {
          "internalType": "uint256",
          "name": "_amount",
          "type": "uint256"
        }
      ],
      "name": "addEarning",
      "outputs": [],
      "stateMutability": "nonpayable",
      "type": "function"
    },
    {
      "inputs": [],
      "name": "getDexAddress",
      "outputs": [
        {
          "internalType": "address",
          "name": "",
          "type": "address"
        }
      ],
      "stateMutability": "view",
      "type": "function"
    },
    {
      "inputs": [
        {
          "internalType": "address",
          "name": "_newOwner",
          "type": "address"
        },
        {
          "internalType": "string",
          "name": "message",
          "type": "string"
        }
      ],
      "name": "addNewOwner",
      "outputs": [],
      "stateMutability": "nonpayable",
      "type": "function"
    },
    {
      "inputs": [],
      "name": "getTokenId",
      "outputs": [
        {
          "internalType": "uint256",
          "name": "",
          "type": "uint256"
        }
      ],
      "stateMutability": "view",
      "type": "function"
    },
    {
      "inputs": [],
      "name": "endAuction",
      "outputs": [],
      "stateMutability": "nonpayable",
      "type": "function"
    },
    {
      "inputs": [],
      "name": "isEnded",
      "outputs": [
        {
          "internalType": "bool",
          "name": "",
          "type": "bool"
        }
      ],
      "stateMutability": "view",
      "type": "function"
    },
    {
      "inputs": [],
      "name": "getOwnerSize",
      "outputs": [
        {
          "internalType": "uint256",
          "name": "",
          "type": "uint256"
        }
      ],
      "stateMutability": "view",
      "type": "function"
    },
    {
      "inputs": [],
      "name": "getRichest",
      "outputs": [
        {
          "internalType": "address",
          "name": "",
          "type": "address"
        }
      ],
      "stateMutability": "view",
      "type": "function"
    },
    {
      "inputs": [
        {
          "internalType": "uint256",
          "name": "_placeN",
          "type": "uint256"
        }
      ],
      "name": "getOwnerByPlace",
      "outputs": [
        {
          "internalType": "address",
          "name": "",
          "type": "address"
        }
      ],
      "stateMutability": "view",
      "type": "function"
    },
    {
      "inputs": [
        {
          "internalType": "uint256",
          "name": "_placeN",
          "type": "uint256"
        }
      ],
      "name": "getMessageByPlace",
      "outputs": [
        {
          "internalType": "string",
          "name": "",
          "type": "string"
        }
      ],
      "stateMutability": "view",
      "type": "function"
    },
    {
      "inputs": [
        {
          "internalType": "address",
          "name": "_address",
          "type": "address"
        }
      ],
      "name": "getPlaceByOwner",
      "outputs": [
        {
          "internalType": "uint256",
          "name": "",
          "type": "uint256"
        }
      ],
      "stateMutability": "view",
      "type": "function"
    },
    {
      "inputs": [
        {
          "internalType": "address",
          "name": "_address",
          "type": "address"
        }
      ],
      "name": "getMessageByOwner",
      "outputs": [
        {
          "internalType": "string",
          "name": "",
          "type": "string"
        }
      ],
      "stateMutability": "view",
      "type": "function"
    },
    {
      "inputs": [
        {
          "internalType": "uint256",
          "name": "number",
          "type": "uint256"
        }
      ],
      "name": "getOwnerByOrder",
      "outputs": [
        {
          "internalType": "address",
          "name": "",
          "type": "address"
        }
      ],
      "stateMutability": "view",
      "type": "function"
    },
    {
      "inputs": [
        {
          "internalType": "uint256",
          "name": "number",
          "type": "uint256"
        }
      ],
      "name": "getMessageByOrder",
      "outputs": [
        {
          "internalType": "string",
          "name": "",
          "type": "string"
        }
      ],
      "stateMutability": "view",
      "type": "function"
    },
    {
      "inputs": [
        {
          "internalType": "address",
          "name": "_address",
          "type": "address"
        }
      ],
      "name": "getOrderByOwner",
      "outputs": [
        {
          "internalType": "uint256",
          "name": "",
          "type": "uint256"
        }
      ],
      "stateMutability": "view",
      "type": "function"
    },
    {
      "inputs": [
        {
          "internalType": "address",
          "name": "_address",
          "type": "address"
        }
      ],
      "name": "getPaidByOwner",
      "outputs": [
        {
          "internalType": "uint256",
          "name": "",
          "type": "uint256"
        }
      ],
      "stateMutability": "view",
      "type": "function"
    },
    {
      "inputs": [
        {
          "internalType": "address",
          "name": "_address",
          "type": "address"
        }
      ],
      "name": "addressWasOwner",
      "outputs": [
        {
          "internalType": "bool",
          "name": "",
          "type": "bool"
        }
      ],
      "stateMutability": "view",
      "type": "function"
    }
  ],
  "bytecode": "0x608060405260405180602001604052806000815250600290805190602001906200002b92919062000951565b506000600a60146101000a81548160ff0219169083151502179055503480156200005457600080fd5b5060405162007a5f38038062007a5f83398181016040528101906200007a919062000adb565b6200009a6200008e620001e660201b60201c565b620001ee60201b60201c565b8760039080519060200190620000b292919062000951565b508660049080519060200190620000cb92919062000951565b503086868686604051620000df90620009e2565b620000ef95949392919062000d96565b604051809103906000f0801580156200010c573d6000803e3d6000fd5b50600a60006101000a81548173ffffffffffffffffffffffffffffffffffffffff021916908373ffffffffffffffffffffffffffffffffffffffff160217905550600033905060006009819055506200016e81600954620002b260201b60201c565b62000181600084620002d860201b60201c565b6200019333836200035960201b60201c565b7ec7947f43485688b2f636fcdd616229dc345b08d5b66d9ced2ced30fbde511389898989898989604051620001cf979695949392919062000df3565b60405180910390a15050505050505050506200131d565b600033905090565b60008060009054906101000a900473ffffffffffffffffffffffffffffffffffffffff169050816000806101000a81548173ffffffffffffffffffffffffffffffffffffffff021916908373ffffffffffffffffffffffffffffffffffffffff1602179055508173ffffffffffffffffffffffffffffffffffffffff168173ffffffffffffffffffffffffffffffffffffffff167f8be0079c531659141344cd1fd0a4f28419497f9722a3daafe3b4186f6b6457e060405160405180910390a35050565b620002d4828260405180602001604052806000815250620004bf60201b60201c565b5050565b620002e9826200052d60201b60201c565b6200032b576040517f08c379a0000000000000000000000000000000000000000000000000000000008152600401620003229062000ec9565b60405180910390fd5b806001600084815260200190815260200160002090805190602001906200035492919062000951565b505050565b6001600b60008473ffffffffffffffffffffffffffffffffffffffff1673ffffffffffffffffffffffffffffffffffffffff16815260200190815260200160002060006101000a81548160ff02191690831515021790555060106000815480929190620003c6906200110d565b919050555081600c6000601054815260200190815260200160002060006101000a81548173ffffffffffffffffffffffffffffffffffffffff021916908373ffffffffffffffffffffffffffffffffffffffff160217905550601054600d60008473ffffffffffffffffffffffffffffffffffffffff1673ffffffffffffffffffffffffffffffffffffffff1681526020019081526020016000208190555080600e60008473ffffffffffffffffffffffffffffffffffffffff1673ffffffffffffffffffffffffffffffffffffffff1681526020019081526020016000209080519060200190620004ba92919062000951565b505050565b620004d183836200059960201b60201c565b620004e660008484846200077f60201b60201c565b62000528576040517f08c379a00000000000000000000000000000000000000000000000000000000081526004016200051f9062000e85565b60405180910390fd5b505050565b60008073ffffffffffffffffffffffffffffffffffffffff166005600084815260200190815260200160002060009054906101000a900473ffffffffffffffffffffffffffffffffffffffff1673ffffffffffffffffffffffffffffffffffffffff1614159050919050565b600073ffffffffffffffffffffffffffffffffffffffff168273ffffffffffffffffffffffffffffffffffffffff1614156200060c576040517f08c379a0000000000000000000000000000000000000000000000000000000008152600401620006039062000eeb565b60405180910390fd5b6200061d816200052d60201b60201c565b1562000660576040517f08c379a0000000000000000000000000000000000000000000000000000000008152600401620006579062000ea7565b60405180910390fd5b62000674600083836200093960201b60201c565b6001600660008473ffffffffffffffffffffffffffffffffffffffff1673ffffffffffffffffffffffffffffffffffffffff1681526020019081526020016000206000828254620006c6919062000fa4565b92505081905550816005600083815260200190815260200160002060006101000a81548173ffffffffffffffffffffffffffffffffffffffff021916908373ffffffffffffffffffffffffffffffffffffffff160217905550808273ffffffffffffffffffffffffffffffffffffffff16600073ffffffffffffffffffffffffffffffffffffffff167fddf252ad1be2c89b69c2b068fc378daa952ba7f163c4a11628f55a4df523b3ef60405160405180910390a45050565b6000620007ad8473ffffffffffffffffffffffffffffffffffffffff166200093e60201b620020b21760201c565b156200092c578373ffffffffffffffffffffffffffffffffffffffff1663150b7a02620007df620001e660201b60201c565b8786866040518563ffffffff1660e01b815260040162000803949392919062000d42565b602060405180830381600087803b1580156200081e57600080fd5b505af19250505080156200085257506040513d601f19601f820116820180604052508101906200084f919062000aaf565b60015b620008db573d806000811462000885576040519150601f19603f3d011682016040523d82523d6000602084013e6200088a565b606091505b50600081511415620008d3576040517f08c379a0000000000000000000000000000000000000000000000000000000008152600401620008ca9062000e85565b60405180910390fd5b805181602001fd5b63150b7a0260e01b7bffffffffffffffffffffffffffffffffffffffffffffffffffffffff1916817bffffffffffffffffffffffffffffffffffffffffffffffffffffffff19161491505062000931565b600190505b949350505050565b505050565b600080823b905060008111915050919050565b8280546200095f90620010a1565b90600052602060002090601f016020900481019282620009835760008555620009cf565b82601f106200099e57805160ff1916838001178555620009cf565b82800160010185558215620009cf579182015b82811115620009ce578251825591602001919060010190620009b1565b5b509050620009de9190620009f0565b5090565b61239e80620056c183390190565b5b8082111562000a0b576000816000905550600101620009f1565b5090565b600062000a2662000a208462000f36565b62000f0d565b90508281526020810184848401111562000a3f57600080fd5b62000a4c8482856200106b565b509392505050565b60008151905062000a6581620012e9565b92915050565b600082601f83011262000a7d57600080fd5b815162000a8f84826020860162000a0f565b91505092915050565b60008151905062000aa98162001303565b92915050565b60006020828403121562000ac257600080fd5b600062000ad28482850162000a54565b91505092915050565b600080600080600080600080610100898b03121562000af957600080fd5b600089015167ffffffffffffffff81111562000b1457600080fd5b62000b228b828c0162000a6b565b985050602089015167ffffffffffffffff81111562000b4057600080fd5b62000b4e8b828c0162000a6b565b975050604062000b618b828c0162000a98565b965050606062000b748b828c0162000a98565b955050608062000b878b828c0162000a98565b94505060a062000b9a8b828c0162000a98565b93505060c089015167ffffffffffffffff81111562000bb857600080fd5b62000bc68b828c0162000a6b565b92505060e089015167ffffffffffffffff81111562000be457600080fd5b62000bf28b828c0162000a6b565b9150509295985092959890939650565b62000c0d8162001001565b82525050565b600062000c208262000f6c565b62000c2c818562000f82565b935062000c3e8185602086016200106b565b62000c4981620011e8565b840191505092915050565b600062000c618262000f77565b62000c6d818562000f93565b935062000c7f8185602086016200106b565b62000c8a81620011e8565b840191505092915050565b600062000ca460328362000f93565b915062000cb182620011f9565b604082019050919050565b600062000ccb601c8362000f93565b915062000cd88262001248565b602082019050919050565b600062000cf2602e8362000f93565b915062000cff8262001271565b604082019050919050565b600062000d1960208362000f93565b915062000d2682620012c0565b602082019050919050565b62000d3c8162001061565b82525050565b600060808201905062000d59600083018762000c02565b62000d68602083018662000c02565b62000d77604083018562000d31565b818103606083015262000d8b818462000c13565b905095945050505050565b600060a08201905062000dad600083018862000c02565b62000dbc602083018762000d31565b62000dcb604083018662000d31565b62000dda606083018562000d31565b62000de9608083018462000d31565b9695505050505050565b600060e082019050818103600083015262000e0f818a62000c54565b9050818103602083015262000e25818962000c54565b905062000e36604083018862000d31565b62000e45606083018762000d31565b62000e54608083018662000d31565b62000e6360a083018562000d31565b81810360c083015262000e77818462000c54565b905098975050505050505050565b6000602082019050818103600083015262000ea08162000c95565b9050919050565b6000602082019050818103600083015262000ec28162000cbc565b9050919050565b6000602082019050818103600083015262000ee48162000ce3565b9050919050565b6000602082019050818103600083015262000f068162000d0a565b9050919050565b600062000f1962000f2c565b905062000f278282620010d7565b919050565b6000604051905090565b600067ffffffffffffffff82111562000f545762000f53620011b9565b5b62000f5f82620011e8565b9050602081019050919050565b600081519050919050565b600081519050919050565b600082825260208201905092915050565b600082825260208201905092915050565b600062000fb18262001061565b915062000fbe8362001061565b9250827fffffffffffffffffffffffffffffffffffffffffffffffffffffffffffffffff0382111562000ff65762000ff56200115b565b5b828201905092915050565b60006200100e8262001041565b9050919050565b60007fffffffff0000000000000000000000000000000000000000000000000000000082169050919050565b600073ffffffffffffffffffffffffffffffffffffffff82169050919050565b6000819050919050565b60005b838110156200108b5780820151818401526020810190506200106e565b838111156200109b576000848401525b50505050565b60006002820490506001821680620010ba57607f821691505b60208210811415620010d157620010d06200118a565b5b50919050565b620010e282620011e8565b810181811067ffffffffffffffff82111715620011045762001103620011b9565b5b80604052505050565b60006200111a8262001061565b91507fffffffffffffffffffffffffffffffffffffffffffffffffffffffffffffffff82141562001150576200114f6200115b565b5b600182019050919050565b7f4e487b7100000000000000000000000000000000000000000000000000000000600052601160045260246000fd5b7f4e487b7100000000000000000000000000000000000000000000000000000000600052602260045260246000fd5b7f4e487b7100000000000000000000000000000000000000000000000000000000600052604160045260246000fd5b6000601f19601f8301169050919050565b7f4552433732313a207472616e7366657220746f206e6f6e20455243373231526560008201527f63656976657220696d706c656d656e7465720000000000000000000000000000602082015250565b7f4552433732313a20746f6b656e20616c7265616479206d696e74656400000000600082015250565b7f45524337323155524953746f726167653a2055524920736574206f66206e6f6e60008201527f6578697374656e7420746f6b656e000000000000000000000000000000000000602082015250565b7f4552433732313a206d696e7420746f20746865207a65726f2061646472657373600082015250565b620012f48162001015565b81146200130057600080fd5b50565b6200130e8162001061565b81146200131a57600080fd5b50565b614394806200132d6000396000f3fe608060405234801561001057600080fd5b506004361061021c5760003560e01c8063715018a611610125578063a4fd6f56116100ad578063e6796aaa1161007c578063e6796aaa146106b1578063e985e9c5146106cd578063f2fde38b146106fd578063fe67a54b14610719578063ff2e2888146107235761021c565b8063a4fd6f5614610617578063b88d4fde14610635578063c65015cb14610651578063c87b56dd146106815761021c565b80638620612b116100f45780638620612b146105715780638da5cb5b146105a157806395d89b41146105bf5780639a5dd735146105dd578063a22cb465146105fb5761021c565b8063715018a6146104fb57806382bf863d146105055780638404dac714610535578063854cf3cf146105535761021c565b806323b872dd116101a857806342842e0e1161017757806342842e0e1461041f5780634d5623fb1461043b578063633cd29d1461046b5780636352211e1461049b57806370a08231146104cb5761021c565b806323b872dd146103855780632820345a146103a1578063313ce567146103d15780633790d53d146103ef5761021c565b8063095ea7b3116101ef578063095ea7b3146102bd5780630c4e1760146102d9578063150b7a02146103095780631d126fcb146103395780631ec5ee26146103695761021c565b8063010a38f51461022157806301ffc9a71461023f57806306fdde031461026f578063081812fc1461028d575b600080fd5b610229610753565b6040516102369190613849565b60405180910390f35b61025960048036038101906102549190613033565b61075d565b6040516102669190613571565b60405180910390f35b6102776108a7565b60405161028491906135a7565b60405180910390f35b6102a760048036038101906102a29190613085565b610939565b6040516102b4919061350a565b60405180910390f35b6102d760048036038101906102d29190612ff7565b6109be565b005b6102f360048036038101906102ee9190612e0f565b610b9e565b6040516103009190613849565b60405180910390f35b610323600480360381019061031e9190612eec565b610c8e565b604051610330919061358c565b60405180910390f35b610353600480360381019061034e9190612e0f565b610ca2565b6040516103609190613571565b60405180910390f35b610383600480360381019061037e9190612fa3565b610cf8565b005b61039f600480360381019061039a9190612e9d565b610d4d565b005b6103bb60048036038101906103b69190612e0f565b610e98565b6040516103c89190613849565b60405180910390f35b6103d9610f7b565b6040516103e69190613864565b60405180910390f35b61040960048036038101906104049190613085565b610f80565b60405161041691906135a7565b60405180910390f35b61043960048036038101906104349190612e9d565b6110f0565b005b61045560048036038101906104509190613085565b611110565b60405161046291906135a7565b60405180910390f35b61048560048036038101906104809190613085565b611267565b604051610492919061350a565b60405180910390f35b6104b560048036038101906104b09190613085565b6112f7565b6040516104c2919061350a565b60405180910390f35b6104e560048036038101906104e09190612e0f565b6113a9565b6040516104f29190613849565b60405180910390f35b610503611461565b005b61051f600480360381019061051a9190613085565b6114e9565b60405161052c919061350a565b60405180910390f35b61053d611592565b60405161054a9190613849565b60405180910390f35b61055b61159c565b604051610568919061350a565b60405180910390f35b61058b60048036038101906105869190612e0f565b6115c6565b6040516105989190613849565b60405180910390f35b6105a961160f565b6040516105b6919061350a565b60405180910390f35b6105c7611638565b6040516105d491906135a7565b60405180910390f35b6105e56116ca565b6040516105f2919061350a565b60405180910390f35b61061560048036038101906106109190612f67565b611707565b005b61061f6118d7565b60405161062c9190613571565b60405180910390f35b61064f600480360381019061064a9190612eec565b6118ee565b005b61066b60048036038101906106669190612e0f565b611a3b565b60405161067891906135a7565b60405180910390f35b61069b60048036038101906106969190613085565b611b9a565b6040516106a891906135a7565b60405180910390f35b6106cb60048036038101906106c69190612ff7565b611d12565b005b6106e760048036038101906106e29190612e61565b611deb565b6040516106f49190613571565b60405180910390f35b61071760048036038101906107129190612e0f565b611e7f565b005b610721611f77565b005b61073d60048036038101906107389190612e0f565b611fdb565b60405161074a9190613849565b60405180910390f35b6000600954905090565b60007f80ac58cd000000000000000000000000000000000000000000000000000000007bffffffffffffffffffffffffffffffffffffffffffffffffffffffff1916827bffffffffffffffffffffffffffffffffffffffffffffffffffffffff1916148061082857507f5b5e139f000000000000000000000000000000000000000000000000000000007bffffffffffffffffffffffffffffffffffffffffffffffffffffffff1916827bffffffffffffffffffffffffffffffffffffffffffffffffffffffff1916145b806108385750610837826120c5565b5b806108a057507f150b7a02000000000000000000000000000000000000000000000000000000007bffffffffffffffffffffffffffffffffffffffffffffffffffffffff1916827bffffffffffffffffffffffffffffffffffffffffffffffffffffffff1916145b9050919050565b6060600380546108b690613c07565b80601f01602080910402602001604051908101604052809291908181526020018280546108e290613c07565b801561092f5780601f106109045761010080835404028352916020019161092f565b820191906000526020600020905b81548152906001019060200180831161091257829003601f168201915b5050505050905090565b60006109448261212f565b610983576040517f08c379a000000000000000000000000000000000000000000000000000000000815260040161097a906137a9565b60405180910390fd5b6007600083815260200190815260200160002060009054906101000a900473ffffffffffffffffffffffffffffffffffffffff169050919050565b600a60149054906101000a900460ff16610a0d576040517f08c379a0000000000000000000000000000000000000000000000000000000008152600401610a0490613629565b60405180910390fd5b60003073ffffffffffffffffffffffffffffffffffffffff16636352211e836040518263ffffffff1660e01b8152600401610a489190613849565b60206040518083038186803b158015610a6057600080fd5b505afa158015610a74573d6000803e3d6000fd5b505050506040513d601f19601f82011682018060405250810190610a989190612e38565b90508073ffffffffffffffffffffffffffffffffffffffff168373ffffffffffffffffffffffffffffffffffffffff161415610b09576040517f08c379a0000000000000000000000000000000000000000000000000000000008152600401610b0090613809565b60405180910390fd5b8073ffffffffffffffffffffffffffffffffffffffff163373ffffffffffffffffffffffffffffffffffffffff161480610b505750610b4f81610b4a61219b565b611deb565b5b610b8f576040517f08c379a0000000000000000000000000000000000000000000000000000000008152600401610b8690613729565b60405180910390fd5b610b9983836121a3565b505050565b600081600b60008273ffffffffffffffffffffffffffffffffffffffff1673ffffffffffffffffffffffffffffffffffffffff16815260200190815260200160002060009054906101000a900460ff16610c2d576040517f08c379a0000000000000000000000000000000000000000000000000000000008152600401610c24906135c9565b60405180910390fd5b600d60008473ffffffffffffffffffffffffffffffffffffffff1673ffffffffffffffffffffffffffffffffffffffff168152602001908152602001600020546001601054610c7c9190613949565b610c869190613b10565b915050919050565b600063150b7a0260e01b9050949350505050565b6000600b60008373ffffffffffffffffffffffffffffffffffffffff1673ffffffffffffffffffffffffffffffffffffffff16815260200190815260200160002060009054906101000a900460ff169050919050565b610d006122dc565b610d3f576040517f08c379a0000000000000000000000000000000000000000000000000000000008152600401610d36906136c9565b60405180910390fd5b610d498282612334565b5050565b8181600a60149054906101000a900460ff16610e3c57610d6b6122dc565b610daa576040517f08c379a0000000000000000000000000000000000000000000000000000000008152600401610da190613669565b60405180910390fd5b600b60008373ffffffffffffffffffffffffffffffffffffffff1673ffffffffffffffffffffffffffffffffffffffff16815260200190815260200160002060009054906101000a900460ff1615610e37576040517f08c379a0000000000000000000000000000000000000000000000000000000008152600401610e2e906136e9565b60405180910390fd5b610e86565b610e463382612496565b610e85576040517f08c379a0000000000000000000000000000000000000000000000000000000008152600401610e7c90613829565b60405180910390fd5b5b610e918585856125f4565b5050505050565b600081600b60008273ffffffffffffffffffffffffffffffffffffffff1673ffffffffffffffffffffffffffffffffffffffff16815260200190815260200160002060009054906101000a900460ff16610f27576040517f08c379a0000000000000000000000000000000000000000000000000000000008152600401610f1e906135c9565b60405180910390fd5b600d60008473ffffffffffffffffffffffffffffffffffffffff1673ffffffffffffffffffffffffffffffffffffffff168152602001908152602001600020546002610f7391906139f2565b915050919050565b600090565b606081600081118015610f9557506010548111155b610fd4576040517f08c379a0000000000000000000000000000000000000000000000000000000008152600401610fcb90613649565b60405180910390fd5b600e6000600c6000866001601054610fec9190613949565b610ff69190613b10565b815260200190815260200160002060009054906101000a900473ffffffffffffffffffffffffffffffffffffffff1673ffffffffffffffffffffffffffffffffffffffff1673ffffffffffffffffffffffffffffffffffffffff168152602001908152602001600020805461106a90613c07565b80601f016020809104026020016040519081016040528092919081815260200182805461109690613c07565b80156110e35780601f106110b8576101008083540402835291602001916110e3565b820191906000526020600020905b8154815290600101906020018083116110c657829003601f168201915b5050505050915050919050565b61110b838383604051806020016040528060008152506118ee565b505050565b60608160008111801561112557506010548111155b611164576040517f08c379a000000000000000000000000000000000000000000000000000000000815260040161115b90613649565b60405180910390fd5b600e6000600c600086815260200190815260200160002060009054906101000a900473ffffffffffffffffffffffffffffffffffffffff1673ffffffffffffffffffffffffffffffffffffffff1673ffffffffffffffffffffffffffffffffffffffff16815260200190815260200160002080546111e190613c07565b80601f016020809104026020016040519081016040528092919081815260200182805461120d90613c07565b801561125a5780601f1061122f5761010080835404028352916020019161125a565b820191906000526020600020905b81548152906001019060200180831161123d57829003601f168201915b5050505050915050919050565b60008160008111801561127c57506010548111155b6112bb576040517f08c379a00000000000000000000000000000000000000000000000000000000081526004016112b290613649565b60405180910390fd5b600c600084815260200190815260200160002060009054906101000a900473ffffffffffffffffffffffffffffffffffffffff16915050919050565b6000806005600084815260200190815260200160002060009054906101000a900473ffffffffffffffffffffffffffffffffffffffff169050600073ffffffffffffffffffffffffffffffffffffffff168173ffffffffffffffffffffffffffffffffffffffff1614156113a0576040517f08c379a000000000000000000000000000000000000000000000000000000000815260040161139790613769565b60405180910390fd5b80915050919050565b60008073ffffffffffffffffffffffffffffffffffffffff168273ffffffffffffffffffffffffffffffffffffffff16141561141a576040517f08c379a000000000000000000000000000000000000000000000000000000000815260040161141190613749565b60405180910390fd5b600660008373ffffffffffffffffffffffffffffffffffffffff1673ffffffffffffffffffffffffffffffffffffffff168152602001908152602001600020549050919050565b61146961219b565b73ffffffffffffffffffffffffffffffffffffffff1661148761160f565b73ffffffffffffffffffffffffffffffffffffffff16146114dd576040517f08c379a00000000000000000000000000000000000000000000000000000000081526004016114d4906137c9565b60405180910390fd5b6114e760006128d0565b565b6000816000811180156114fe57506010548111155b61153d576040517f08c379a000000000000000000000000000000000000000000000000000000000815260040161153490613649565b60405180910390fd5b600c60008460016010546115519190613949565b61155b9190613b10565b815260200190815260200160002060009054906101000a900473ffffffffffffffffffffffffffffffffffffffff16915050919050565b6000601054905090565b6000600a60009054906101000a900473ffffffffffffffffffffffffffffffffffffffff16905090565b6000600f60008373ffffffffffffffffffffffffffffffffffffffff1673ffffffffffffffffffffffffffffffffffffffff168152602001908152602001600020549050919050565b60008060009054906101000a900473ffffffffffffffffffffffffffffffffffffffff16905090565b60606004805461164790613c07565b80601f016020809104026020016040519081016040528092919081815260200182805461167390613c07565b80156116c05780601f10611695576101008083540402835291602001916116c0565b820191906000526020600020905b8154815290600101906020018083116116a357829003601f168201915b5050505050905090565b6000600c6000601054815260200190815260200160002060009054906101000a900473ffffffffffffffffffffffffffffffffffffffff16905090565b600a60149054906101000a900460ff16611756576040517f08c379a000000000000000000000000000000000000000000000000000000000815260040161174d90613629565b60405180910390fd5b61175e61219b565b73ffffffffffffffffffffffffffffffffffffffff168273ffffffffffffffffffffffffffffffffffffffff1614156117cc576040517f08c379a00000000000000000000000000000000000000000000000000000000081526004016117c3906136a9565b60405180910390fd5b80600860006117d961219b565b73ffffffffffffffffffffffffffffffffffffffff1673ffffffffffffffffffffffffffffffffffffffff16815260200190815260200160002060008473ffffffffffffffffffffffffffffffffffffffff1673ffffffffffffffffffffffffffffffffffffffff16815260200190815260200160002060006101000a81548160ff0219169083151502179055508173ffffffffffffffffffffffffffffffffffffffff1661188661219b565b73ffffffffffffffffffffffffffffffffffffffff167f17307eab39ab6107e8899845ad3d59bd9653f200f220920489ca2b5937696c31836040516118cb9190613571565b60405180910390a35050565b6000600a60149054906101000a900460ff16905090565b8282600a60149054906101000a900460ff166119dd5761190c6122dc565b61194b576040517f08c379a000000000000000000000000000000000000000000000000000000000815260040161194290613669565b60405180910390fd5b600b60008373ffffffffffffffffffffffffffffffffffffffff1673ffffffffffffffffffffffffffffffffffffffff16815260200190815260200160002060009054906101000a900460ff16156119d8576040517f08c379a00000000000000000000000000000000000000000000000000000000081526004016119cf906136e9565b60405180910390fd5b611a27565b6119e73382612496565b611a26576040517f08c379a0000000000000000000000000000000000000000000000000000000008152600401611a1d90613829565b60405180910390fd5b5b611a3386868686612994565b505050505050565b606081600b60008273ffffffffffffffffffffffffffffffffffffffff1673ffffffffffffffffffffffffffffffffffffffff16815260200190815260200160002060009054906101000a900460ff16611aca576040517f08c379a0000000000000000000000000000000000000000000000000000000008152600401611ac1906135c9565b60405180910390fd5b600e60008473ffffffffffffffffffffffffffffffffffffffff1673ffffffffffffffffffffffffffffffffffffffff1681526020019081526020016000208054611b1490613c07565b80601f0160208091040260200160405190810160405280929190818152602001828054611b4090613c07565b8015611b8d5780601f10611b6257610100808354040283529160200191611b8d565b820191906000526020600020905b815481529060010190602001808311611b7057829003601f168201915b5050505050915050919050565b6060611ba58261212f565b611be4576040517f08c379a0000000000000000000000000000000000000000000000000000000008152600401611bdb90613789565b60405180910390fd5b6000600160008481526020019081526020016000208054611c0490613c07565b80601f0160208091040260200160405190810160405280929190818152602001828054611c3090613c07565b8015611c7d5780601f10611c5257610100808354040283529160200191611c7d565b820191906000526020600020905b815481529060010190602001808311611c6057829003601f168201915b505050505090506000611c8e6129f0565b9050600081511415611cc35781604051602001611cab91906134e8565b60405160208183030381529060405292505050611d0d565b600082511115611cf8578084604051602001611ce09291906134b5565b60405160208183030381529060405292505050611d0d565b60405180602001604052806000815250925050505b919050565b611d1a6122dc565b611d59576040517f08c379a0000000000000000000000000000000000000000000000000000000008152600401611d50906136c9565b60405180910390fd5b80600f60008473ffffffffffffffffffffffffffffffffffffffff1673ffffffffffffffffffffffffffffffffffffffff16815260200190815260200160002054611da49190613949565b600f60008473ffffffffffffffffffffffffffffffffffffffff1673ffffffffffffffffffffffffffffffffffffffff168152602001908152602001600020819055505050565b6000600860008473ffffffffffffffffffffffffffffffffffffffff1673ffffffffffffffffffffffffffffffffffffffff16815260200190815260200160002060008373ffffffffffffffffffffffffffffffffffffffff1673ffffffffffffffffffffffffffffffffffffffff16815260200190815260200160002060009054906101000a900460ff16905092915050565b611e8761219b565b73ffffffffffffffffffffffffffffffffffffffff16611ea561160f565b73ffffffffffffffffffffffffffffffffffffffff1614611efb576040517f08c379a0000000000000000000000000000000000000000000000000000000008152600401611ef2906137c9565b60405180910390fd5b600073ffffffffffffffffffffffffffffffffffffffff168173ffffffffffffffffffffffffffffffffffffffff161415611f6b576040517f08c379a0000000000000000000000000000000000000000000000000000000008152600401611f6290613609565b60405180910390fd5b611f74816128d0565b50565b611f7f6122dc565b611fbe576040517f08c379a0000000000000000000000000000000000000000000000000000000008152600401611fb5906136c9565b60405180910390fd5b6001600a60146101000a81548160ff021916908315150217905550565b600081600b60008273ffffffffffffffffffffffffffffffffffffffff1673ffffffffffffffffffffffffffffffffffffffff16815260200190815260200160002060009054906101000a900460ff1661206a576040517f08c379a0000000000000000000000000000000000000000000000000000000008152600401612061906135c9565b60405180910390fd5b600d60008473ffffffffffffffffffffffffffffffffffffffff1673ffffffffffffffffffffffffffffffffffffffff16815260200190815260200160002054915050919050565b600080823b905060008111915050919050565b60007f01ffc9a7000000000000000000000000000000000000000000000000000000007bffffffffffffffffffffffffffffffffffffffffffffffffffffffff1916827bffffffffffffffffffffffffffffffffffffffffffffffffffffffff1916149050919050565b60008073ffffffffffffffffffffffffffffffffffffffff166005600084815260200190815260200160002060009054906101000a900473ffffffffffffffffffffffffffffffffffffffff1673ffffffffffffffffffffffffffffffffffffffff1614159050919050565b600033905090565b816007600083815260200190815260200160002060006101000a81548173ffffffffffffffffffffffffffffffffffffffff021916908373ffffffffffffffffffffffffffffffffffffffff160217905550808273ffffffffffffffffffffffffffffffffffffffff163073ffffffffffffffffffffffffffffffffffffffff16636352211e846040518263ffffffff1660e01b81526004016122469190613849565b60206040518083038186803b15801561225e57600080fd5b505afa158015612272573d6000803e3d6000fd5b505050506040513d601f19601f820116820180604052508101906122969190612e38565b73ffffffffffffffffffffffffffffffffffffffff167f8c5be1e5ebec7d5bd14f71427d1e84f3dd0314c0f7b2291e5b200ac8c7c3b92560405160405180910390a45050565b6000600a60009054906101000a900473ffffffffffffffffffffffffffffffffffffffff1673ffffffffffffffffffffffffffffffffffffffff163373ffffffffffffffffffffffffffffffffffffffff1614905090565b6001600b60008473ffffffffffffffffffffffffffffffffffffffff1673ffffffffffffffffffffffffffffffffffffffff16815260200190815260200160002060006101000a81548160ff0219169083151502179055506010600081548092919061239f90613c6a565b919050555081600c6000601054815260200190815260200160002060006101000a81548173ffffffffffffffffffffffffffffffffffffffff021916908373ffffffffffffffffffffffffffffffffffffffff160217905550601054600d60008473ffffffffffffffffffffffffffffffffffffffff1673ffffffffffffffffffffffffffffffffffffffff1681526020019081526020016000208190555080600e60008473ffffffffffffffffffffffffffffffffffffffff1673ffffffffffffffffffffffffffffffffffffffff1681526020019081526020016000209080519060200190612491929190612c1e565b505050565b60006124a18261212f565b6124e0576040517f08c379a00000000000000000000000000000000000000000000000000000000081526004016124d790613709565b60405180910390fd5b60003073ffffffffffffffffffffffffffffffffffffffff16636352211e846040518263ffffffff1660e01b815260040161251b9190613849565b60206040518083038186803b15801561253357600080fd5b505afa158015612547573d6000803e3d6000fd5b505050506040513d601f19601f8201168201806040525081019061256b9190612e38565b90508073ffffffffffffffffffffffffffffffffffffffff168473ffffffffffffffffffffffffffffffffffffffff1614806125da57508373ffffffffffffffffffffffffffffffffffffffff166125c284610939565b73ffffffffffffffffffffffffffffffffffffffff16145b806125eb57506125ea8185611deb565b5b91505092915050565b8273ffffffffffffffffffffffffffffffffffffffff163073ffffffffffffffffffffffffffffffffffffffff16636352211e836040518263ffffffff1660e01b81526004016126449190613849565b60206040518083038186803b15801561265c57600080fd5b505afa158015612670573d6000803e3d6000fd5b505050506040513d601f19601f820116820180604052508101906126949190612e38565b73ffffffffffffffffffffffffffffffffffffffff16146126ea576040517f08c379a00000000000000000000000000000000000000000000000000000000081526004016126e1906137e9565b60405180910390fd5b600073ffffffffffffffffffffffffffffffffffffffff168273ffffffffffffffffffffffffffffffffffffffff16141561275a576040517f08c379a000000000000000000000000000000000000000000000000000000000815260040161275190613689565b60405180910390fd5b612765838383612a82565b6127706000826121a3565b6001600660008573ffffffffffffffffffffffffffffffffffffffff1673ffffffffffffffffffffffffffffffffffffffff16815260200190815260200160002060008282546127c09190613b10565b925050819055506001600660008473ffffffffffffffffffffffffffffffffffffffff1673ffffffffffffffffffffffffffffffffffffffff16815260200190815260200160002060008282546128179190613949565b92505081905550816005600083815260200190815260200160002060006101000a81548173ffffffffffffffffffffffffffffffffffffffff021916908373ffffffffffffffffffffffffffffffffffffffff160217905550808273ffffffffffffffffffffffffffffffffffffffff168473ffffffffffffffffffffffffffffffffffffffff167fddf252ad1be2c89b69c2b068fc378daa952ba7f163c4a11628f55a4df523b3ef60405160405180910390a4505050565b60008060009054906101000a900473ffffffffffffffffffffffffffffffffffffffff169050816000806101000a81548173ffffffffffffffffffffffffffffffffffffffff021916908373ffffffffffffffffffffffffffffffffffffffff1602179055508173ffffffffffffffffffffffffffffffffffffffff168173ffffffffffffffffffffffffffffffffffffffff167f8be0079c531659141344cd1fd0a4f28419497f9722a3daafe3b4186f6b6457e060405160405180910390a35050565b61299f8484846125f4565b6129ab84848484612a87565b6129ea576040517f08c379a00000000000000000000000000000000000000000000000000000000081526004016129e1906135e9565b60405180910390fd5b50505050565b6060600280546129ff90613c07565b80601f0160208091040260200160405190810160405280929190818152602001828054612a2b90613c07565b8015612a785780601f10612a4d57610100808354040283529160200191612a78565b820191906000526020600020905b815481529060010190602001808311612a5b57829003601f168201915b5050505050905090565b505050565b6000612aa88473ffffffffffffffffffffffffffffffffffffffff166120b2565b15612c11578373ffffffffffffffffffffffffffffffffffffffff1663150b7a02612ad161219b565b8786866040518563ffffffff1660e01b8152600401612af39493929190613525565b602060405180830381600087803b158015612b0d57600080fd5b505af1925050508015612b3e57506040513d601f19601f82011682018060405250810190612b3b919061305c565b60015b612bc1573d8060008114612b6e576040519150601f19603f3d011682016040523d82523d6000602084013e612b73565b606091505b50600081511415612bb9576040517f08c379a0000000000000000000000000000000000000000000000000000000008152600401612bb0906135e9565b60405180910390fd5b805181602001fd5b63150b7a0260e01b7bffffffffffffffffffffffffffffffffffffffffffffffffffffffff1916817bffffffffffffffffffffffffffffffffffffffffffffffffffffffff191614915050612c16565b600190505b949350505050565b828054612c2a90613c07565b90600052602060002090601f016020900481019282612c4c5760008555612c93565b82601f10612c6557805160ff1916838001178555612c93565b82800160010185558215612c93579182015b82811115612c92578251825591602001919060010190612c77565b5b509050612ca09190612ca4565b5090565b5b80821115612cbd576000816000905550600101612ca5565b5090565b6000612cd4612ccf846138a4565b61387f565b905082815260208101848484011115612cec57600080fd5b612cf7848285613bc5565b509392505050565b6000612d12612d0d846138d5565b61387f565b905082815260208101848484011115612d2a57600080fd5b612d35848285613bc5565b509392505050565b600081359050612d4c81614302565b92915050565b600081519050612d6181614302565b92915050565b600081359050612d7681614319565b92915050565b600081359050612d8b81614330565b92915050565b600081519050612da081614330565b92915050565b600082601f830112612db757600080fd5b8135612dc7848260208601612cc1565b91505092915050565b600082601f830112612de157600080fd5b8135612df1848260208601612cff565b91505092915050565b600081359050612e0981614347565b92915050565b600060208284031215612e2157600080fd5b6000612e2f84828501612d3d565b91505092915050565b600060208284031215612e4a57600080fd5b6000612e5884828501612d52565b91505092915050565b60008060408385031215612e7457600080fd5b6000612e8285828601612d3d565b9250506020612e9385828601612d3d565b9150509250929050565b600080600060608486031215612eb257600080fd5b6000612ec086828701612d3d565b9350506020612ed186828701612d3d565b9250506040612ee286828701612dfa565b9150509250925092565b60008060008060808587031215612f0257600080fd5b6000612f1087828801612d3d565b9450506020612f2187828801612d3d565b9350506040612f3287828801612dfa565b925050606085013567ffffffffffffffff811115612f4f57600080fd5b612f5b87828801612da6565b91505092959194509250565b60008060408385031215612f7a57600080fd5b6000612f8885828601612d3d565b9250506020612f9985828601612d67565b9150509250929050565b60008060408385031215612fb657600080fd5b6000612fc485828601612d3d565b925050602083013567ffffffffffffffff811115612fe157600080fd5b612fed85828601612dd0565b9150509250929050565b6000806040838503121561300a57600080fd5b600061301885828601612d3d565b925050602061302985828601612dfa565b9150509250929050565b60006020828403121561304557600080fd5b600061305384828501612d7c565b91505092915050565b60006020828403121561306e57600080fd5b600061307c84828501612d91565b91505092915050565b60006020828403121561309757600080fd5b60006130a584828501612dfa565b91505092915050565b6130b781613b44565b82525050565b6130c681613b56565b82525050565b6130d581613b62565b82525050565b60006130e682613906565b6130f0818561391c565b9350613100818560208601613bd4565b61310981613d4a565b840191505092915050565b600061311f82613911565b613129818561392d565b9350613139818560208601613bd4565b61314281613d4a565b840191505092915050565b600061315882613911565b613162818561393e565b9350613172818560208601613bd4565b80840191505092915050565b600061318b601b8361392d565b915061319682613d68565b602082019050919050565b60006131ae60328361392d565b91506131b982613d91565b604082019050919050565b60006131d160268361392d565b91506131dc82613de0565b604082019050919050565b60006131f460358361392d565b91506131ff82613e2f565b604082019050919050565b600061321760198361392d565b915061322282613e7e565b602082019050919050565b600061323a60388361392d565b915061324582613ea7565b604082019050919050565b600061325d60248361392d565b915061326882613ef6565b604082019050919050565b600061328060198361392d565b915061328b82613f45565b602082019050919050565b60006132a360198361392d565b91506132ae82613f6e565b602082019050919050565b60006132c660208361392d565b91506132d182613f97565b602082019050919050565b60006132e9602c8361392d565b91506132f482613fc0565b604082019050919050565b600061330c60078361393e565b91506133178261400f565b600782019050919050565b600061332f60388361392d565b915061333a82614038565b604082019050919050565b6000613352602a8361392d565b915061335d82614087565b604082019050919050565b600061337560298361392d565b9150613380826140d6565b604082019050919050565b600061339860318361392d565b91506133a382614125565b604082019050919050565b60006133bb602c8361392d565b91506133c682614174565b604082019050919050565b60006133de60058361393e565b91506133e9826141c3565b600582019050919050565b600061340160208361392d565b915061340c826141ec565b602082019050919050565b600061342460298361392d565b915061342f82614215565b604082019050919050565b600061344760218361392d565b915061345282614264565b604082019050919050565b600061346a60318361392d565b9150613475826142b3565b604082019050919050565b61348981613bae565b82525050565b6134a061349b82613bae565b613cb3565b82525050565b6134af81613bb8565b82525050565b60006134c1828561314d565b91506134cd828461348f565b6020820191506134dc826133d1565b91508190509392505050565b60006134f3826132ff565b91506134ff828461314d565b915081905092915050565b600060208201905061351f60008301846130ae565b92915050565b600060808201905061353a60008301876130ae565b61354760208301866130ae565b6135546040830185613480565b818103606083015261356681846130db565b905095945050505050565b600060208201905061358660008301846130bd565b92915050565b60006020820190506135a160008301846130cc565b92915050565b600060208201905081810360008301526135c18184613114565b905092915050565b600060208201905081810360008301526135e28161317e565b9050919050565b60006020820190508181036000830152613602816131a1565b9050919050565b60006020820190508181036000830152613622816131c4565b9050919050565b60006020820190508181036000830152613642816131e7565b9050919050565b600060208201905081810360008301526136628161320a565b9050919050565b600060208201905081810360008301526136828161322d565b9050919050565b600060208201905081810360008301526136a281613250565b9050919050565b600060208201905081810360008301526136c281613273565b9050919050565b600060208201905081810360008301526136e281613296565b9050919050565b60006020820190508181036000830152613702816132b9565b9050919050565b60006020820190508181036000830152613722816132dc565b9050919050565b6000602082019050818103600083015261374281613322565b9050919050565b6000602082019050818103600083015261376281613345565b9050919050565b6000602082019050818103600083015261378281613368565b9050919050565b600060208201905081810360008301526137a28161338b565b9050919050565b600060208201905081810360008301526137c2816133ae565b9050919050565b600060208201905081810360008301526137e2816133f4565b9050919050565b6000602082019050818103600083015261380281613417565b9050919050565b600060208201905081810360008301526138228161343a565b9050919050565b600060208201905081810360008301526138428161345d565b9050919050565b600060208201905061385e6000830184613480565b92915050565b600060208201905061387960008301846134a6565b92915050565b600061388961389a565b90506138958282613c39565b919050565b6000604051905090565b600067ffffffffffffffff8211156138bf576138be613d1b565b5b6138c882613d4a565b9050602081019050919050565b600067ffffffffffffffff8211156138f0576138ef613d1b565b5b6138f982613d4a565b9050602081019050919050565b600081519050919050565b600081519050919050565b600082825260208201905092915050565b600082825260208201905092915050565b600081905092915050565b600061395482613bae565b915061395f83613bae565b9250827fffffffffffffffffffffffffffffffffffffffffffffffffffffffffffffffff0382111561399457613993613cbd565b5b828201905092915050565b6000808291508390505b60018511156139e9578086048111156139c5576139c4613cbd565b5b60018516156139d45780820291505b80810290506139e285613d5b565b94506139a9565b94509492505050565b60006139fd82613bae565b9150613a0883613bae565b9250613a357fffffffffffffffffffffffffffffffffffffffffffffffffffffffffffffffff8484613a3d565b905092915050565b600082613a4d5760019050613b09565b81613a5b5760009050613b09565b8160018114613a715760028114613a7b57613aaa565b6001915050613b09565b60ff841115613a8d57613a8c613cbd565b5b8360020a915084821115613aa457613aa3613cbd565b5b50613b09565b5060208310610133831016604e8410600b8410161715613adf5782820a905083811115613ada57613ad9613cbd565b5b613b09565b613aec848484600161399f565b92509050818404811115613b0357613b02613cbd565b5b81810290505b9392505050565b6000613b1b82613bae565b9150613b2683613bae565b925082821015613b3957613b38613cbd565b5b828203905092915050565b6000613b4f82613b8e565b9050919050565b60008115159050919050565b60007fffffffff0000000000000000000000000000000000000000000000000000000082169050919050565b600073ffffffffffffffffffffffffffffffffffffffff82169050919050565b6000819050919050565b600060ff82169050919050565b82818337600083830152505050565b60005b83811015613bf2578082015181840152602081019050613bd7565b83811115613c01576000848401525b50505050565b60006002820490506001821680613c1f57607f821691505b60208210811415613c3357613c32613cec565b5b50919050565b613c4282613d4a565b810181811067ffffffffffffffff82111715613c6157613c60613d1b565b5b80604052505050565b6000613c7582613bae565b91507fffffffffffffffffffffffffffffffffffffffffffffffffffffffffffffffff821415613ca857613ca7613cbd565b5b600182019050919050565b6000819050919050565b7f4e487b7100000000000000000000000000000000000000000000000000000000600052601160045260246000fd5b7f4e487b7100000000000000000000000000000000000000000000000000000000600052602260045260246000fd5b7f4e487b7100000000000000000000000000000000000000000000000000000000600052604160045260246000fd5b6000601f19601f8301169050919050565b60008160011c9050919050565b7f476976656e206164647265737320776173206e6f206f776e6572210000000000600082015250565b7f4552433732313a207472616e7366657220746f206e6f6e20455243373231526560008201527f63656976657220696d706c656d656e7465720000000000000000000000000000602082015250565b7f4f776e61626c653a206e6577206f776e657220697320746865207a65726f206160008201527f6464726573730000000000000000000000000000000000000000000000000000602082015250565b7f43616e277420706572666f726d207468697320616374696f6e207768696c652060008201527f61756374696f6e20686173206e6f7420656e6465640000000000000000000000602082015250565b7f476976656e20706c616365206973206e6f742076616c69642100000000000000600082015250565b7f547261736e66657265722068617320746f20626520746865204445582077686960008201527f6c652061756374696f6e20686173206e6f7420656e6465640000000000000000602082015250565b7f4552433732313a207472616e7366657220746f20746865207a65726f2061646460008201527f7265737300000000000000000000000000000000000000000000000000000000602082015250565b7f4552433732313a20617070726f766520746f2063616c6c657200000000000000600082015250565b7f43616e206f6e6c792062652063616c6c65642062792044455800000000000000600082015250565b7f43616c6c65722068617320616c7265616479206265656e20616e206f776e6572600082015250565b7f4552433732313a206f70657261746f7220717565727920666f72206e6f6e657860008201527f697374656e7420746f6b656e0000000000000000000000000000000000000000602082015250565b7f697066733a2f2f00000000000000000000000000000000000000000000000000600082015250565b7f4552433732313a20617070726f76652063616c6c6572206973206e6f74206f7760008201527f6e6572206e6f7220617070726f76656420666f7220616c6c0000000000000000602082015250565b7f4552433732313a2062616c616e636520717565727920666f7220746865207a6560008201527f726f206164647265737300000000000000000000000000000000000000000000602082015250565b7f4552433732313a206f776e657220717565727920666f72206e6f6e657869737460008201527f656e7420746f6b656e0000000000000000000000000000000000000000000000602082015250565b7f45524337323155524953746f726167653a2055524920717565727920666f722060008201527f6e6f6e6578697374656e7420746f6b656e000000000000000000000000000000602082015250565b7f4552433732313a20617070726f76656420717565727920666f72206e6f6e657860008201527f697374656e7420746f6b656e0000000000000000000000000000000000000000602082015250565b7f2e6a736f6e000000000000000000000000000000000000000000000000000000600082015250565b7f4f776e61626c653a2063616c6c6572206973206e6f7420746865206f776e6572600082015250565b7f4552433732313a207472616e73666572206f6620746f6b656e2074686174206960008201527f73206e6f74206f776e0000000000000000000000000000000000000000000000602082015250565b7f4552433732313a20617070726f76616c20746f2063757272656e74206f776e6560008201527f7200000000000000000000000000000000000000000000000000000000000000602082015250565b7f4552433732313a207472616e736665722063616c6c6572206973206e6f74206f60008201527f776e6572206e6f7220617070726f766564000000000000000000000000000000602082015250565b61430b81613b44565b811461431657600080fd5b50565b61432281613b56565b811461432d57600080fd5b50565b61433981613b62565b811461434457600080fd5b50565b61435081613bae565b811461435b57600080fd5b5056fea2646970667358221220f56abc05a0e990912e096c2c28406fe6f2da77fc043b24fdddbca536ffff3fc464736f6c6343000802003360806040526000600660006101000a81548160ff02191690831515021790555060026009556001600a553480156200003657600080fd5b506040516200239e3803806200239e83398181016040528101906200005c919062000278565b600160008190555060648111620000aa576040517f08c379a0000000000000000000000000000000000000000000000000000000008152600401620000a19062000359565b60405180910390fd5b836005819055508260078190555081600881905550806003819055506064600354600854620000da919062000480565b620000e6919062000448565b600b8190555084600260006101000a81548173ffffffffffffffffffffffffffffffffffffffff021916908373ffffffffffffffffffffffffffffffffffffffff160217905550735de511f786c4a7588511a233e1b92a7d3fc172c2600160006101000a81548173ffffffffffffffffffffffffffffffffffffffff021916908373ffffffffffffffffffffffffffffffffffffffff160217905550620001a4600754600554620001989190620003eb565b6200020560201b60201c565b3273ffffffffffffffffffffffffffffffffffffffff167f6ceed9d5957b9e77f5d93d6312a4c8e5f63ef6f75cb9812f486b76336982b75d600a54600854604051620001f292919062000398565b60405180910390a2505050505062000603565b806004819055507f41f916eb2a7065889bf3a2125806adaa5ca5a1c9be36f179340901abbf666d236004546040516200023f91906200037b565b60405180910390a150565b6000815190506200025b81620005cf565b92915050565b6000815190506200027281620005e9565b92915050565b600080600080600060a086880312156200029157600080fd5b6000620002a1888289016200024a565b9550506020620002b48882890162000261565b9450506040620002c78882890162000261565b9350506060620002da8882890162000261565b9250506080620002ed8882890162000261565b9150509295509295909350565b600062000309601083620003da565b915062000316826200057d565b602082019050919050565b600062000330600f83620003da565b91506200033d82620005a6565b602082019050919050565b620003538162000515565b82525050565b60006020820190508181036000830152620003748162000321565b9050919050565b600060208201905062000392600083018462000348565b92915050565b6000606082019050620003af600083018562000348565b620003be602083018462000348565b8181036040830152620003d181620002fa565b90509392505050565b600082825260208201905092915050565b6000620003f88262000515565b9150620004058362000515565b9250827fffffffffffffffffffffffffffffffffffffffffffffffffffffffffffffffff038211156200043d576200043c6200051f565b5b828201905092915050565b6000620004558262000515565b9150620004628362000515565b9250826200047557620004746200054e565b5b828204905092915050565b60006200048d8262000515565b91506200049a8362000515565b9250817fffffffffffffffffffffffffffffffffffffffffffffffffffffffffffffffff0483118215151615620004d657620004d56200051f565b5b828202905092915050565b6000620004ee82620004f5565b9050919050565b600073ffffffffffffffffffffffffffffffffffffffff82169050919050565b6000819050919050565b7f4e487b7100000000000000000000000000000000000000000000000000000000600052601160045260246000fd5b7f4e487b7100000000000000000000000000000000000000000000000000000000600052601260045260246000fd5b7f49276d206675636b696e6720706f6f7200000000000000000000000000000000600082015250565b7f4261736520697320746f6f206c6f770000000000000000000000000000000000600082015250565b620005da81620004e1565b8114620005e657600080fd5b50565b620005f48162000515565b81146200060057600080fd5b50565b611d8b80620006136000396000f3fe6080604052600436106100955760003560e01c80637f8aced7116100595780637f8aced714610187578063baffa903146101b2578063c5570261146101dd578063caee4dd314610208578063e4d90c62146102335761009c565b8063150b7a021461009e5780632a2d64ff146100db578063544736e614610106578063644e9797146101315780637d58e3cf1461015c5761009c565b3661009c57005b005b3480156100aa57600080fd5b506100c560048036038101906100c091906113bc565b61024f565b6040516100d29190611690565b60405180910390f35b3480156100e757600080fd5b506100f0610263565b6040516100fd9190611726565b60405180910390f35b34801561011257600080fd5b5061011b61026d565b6040516101289190611675565b60405180910390f35b34801561013d57600080fd5b50610146610284565b6040516101539190611726565b60405180910390f35b34801561016857600080fd5b5061017161028e565b60405161017e9190611726565b60405180910390f35b34801561019357600080fd5b5061019c610298565b6040516101a99190611726565b60405180910390f35b3480156101be57600080fd5b506101c76102a2565b6040516101d49190611726565b60405180910390f35b3480156101e957600080fd5b506101f26102ac565b6040516101ff9190611726565b60405180910390f35b34801561021457600080fd5b5061021d6102b6565b60405161022a91906115ca565b60405180910390f35b61024d60048036038101906102489190611460565b6102e0565b005b600063150b7a0260e01b9050949350505050565b6000600454905090565b6000600660009054906101000a900460ff16905090565b6000600554905090565b6000600b54905090565b6000600354905090565b6000600854905090565b6000600754905090565b6000600260009054906101000a900473ffffffffffffffffffffffffffffffffffffffff16905090565b60026000541415610326576040517f08c379a000000000000000000000000000000000000000000000000000000000815260040161031d90611706565b60405180910390fd5b6002600081905550600660009054906101000a900460ff166103a357600554421015610387576040517f08c379a000000000000000000000000000000000000000000000000000000000815260040161037e906116e6565b60405180910390fd5b6001600660006101000a81548160ff0219169083151502179055505b6004544210610571573373ffffffffffffffffffffffffffffffffffffffff166108fc349081150290604051600060405180830381858888f193505050501580156103f2573d6000803e3d6000fd5b50600260009054906101000a900473ffffffffffffffffffffffffffffffffffffffff1673ffffffffffffffffffffffffffffffffffffffff1663fe67a54b6040518163ffffffff1660e01b8152600401600060405180830381600087803b15801561045d57600080fd5b505af1158015610471573d6000803e3d6000fd5b505050507f65621228cd4667982e3b2306bdbedb01c7f7d2ebd15463abb9d9a1d6ff4d4cd860016040516104a59190611675565b60405180910390a1600260009054906101000a900473ffffffffffffffffffffffffffffffffffffffff1673ffffffffffffffffffffffffffffffffffffffff1663633cd29d60016040518263ffffffff1660e01b815260040161050991906116ab565b60206040518083038186803b15801561052157600080fd5b505afa158015610535573d6000803e3d6000fd5b505050506040513d601f19601f820116820180604052508101906105599190611393565b73ffffffffffffffffffffffffffffffffffffffff16ff5b61057b8282610587565b60016000819055505050565b600b548110156105cc576040517f08c379a00000000000000000000000000000000000000000000000000000000081526004016105c3906116c6565b60405180910390fd5b600160009054906101000a900473ffffffffffffffffffffffffffffffffffffffff1673ffffffffffffffffffffffffffffffffffffffff16637bdee35c826040518263ffffffff1660e01b81526004016106279190611726565b600060405180830381600087803b15801561064157600080fd5b505af1158015610655573d6000803e3d6000fd5b5050505060006003546064600b5461066d9190611a1a565b6106779190611878565b9050600081600283600b5461068c9190611a74565b6106969190611878565b6106a09190611822565b9050600081600b546106b29190611a74565b90506106e2606460095460646106c89190611a74565b846106d39190611a1a565b6106dd9190611878565b6109e1565b610710606460095460646106f69190611a74565b836107019190611a1a565b61070b9190611878565b610c86565b600047905061071e81610fa1565b600260009054906101000a900473ffffffffffffffffffffffffffffffffffffffff1673ffffffffffffffffffffffffffffffffffffffff166342842e0e600260009054906101000a900473ffffffffffffffffffffffffffffffffffffffff1673ffffffffffffffffffffffffffffffffffffffff16636352211e600260009054906101000a900473ffffffffffffffffffffffffffffffffffffffff1673ffffffffffffffffffffffffffffffffffffffff1663010a38f56040518163ffffffff1660e01b815260040160206040518083038186803b15801561080257600080fd5b505afa158015610816573d6000803e3d6000fd5b505050506040513d601f19601f8201168201806040525081019061083a91906114b4565b6040518263ffffffff1660e01b81526004016108569190611726565b60206040518083038186803b15801561086e57600080fd5b505afa158015610882573d6000803e3d6000fd5b505050506040513d601f19601f820116820180604052508101906108a69190611393565b33600260009054906101000a900473ffffffffffffffffffffffffffffffffffffffff1673ffffffffffffffffffffffffffffffffffffffff1663010a38f56040518163ffffffff1660e01b815260040160206040518083038186803b15801561090f57600080fd5b505afa158015610923573d6000803e3d6000fd5b505050506040513d601f19601f8201168201806040525081019061094791906114b4565b6040518463ffffffff1660e01b8152600401610965939291906115e5565b600060405180830381600087803b15801561097f57600080fd5b505af1158015610993573d6000803e3d6000fd5b505050506109a13387611116565b6109b7600754426109b29190611822565b611217565b6064600354600b546109c99190611a1a565b6109d39190611878565b600b81905550505050505050565b6000600160009054906101000a900473ffffffffffffffffffffffffffffffffffffffff1673ffffffffffffffffffffffffffffffffffffffff1663a9059cbb600260009054906101000a900473ffffffffffffffffffffffffffffffffffffffff1673ffffffffffffffffffffffffffffffffffffffff1663633cd29d600a546040518263ffffffff1660e01b8152600401610a7e9190611726565b60206040518083038186803b158015610a9657600080fd5b505afa158015610aaa573d6000803e3d6000fd5b505050506040513d601f19601f82011682018060405250810190610ace9190611393565b846040518363ffffffff1660e01b8152600401610aec92919061164c565b602060405180830381600087803b158015610b0657600080fd5b505af1158015610b1a573d6000803e3d6000fd5b505050506040513d601f19601f82011682018060405250810190610b3e9190611437565b90508015610c8257600260009054906101000a900473ffffffffffffffffffffffffffffffffffffffff1673ffffffffffffffffffffffffffffffffffffffff1663e6796aaa600260009054906101000a900473ffffffffffffffffffffffffffffffffffffffff1673ffffffffffffffffffffffffffffffffffffffff1663633cd29d600a546040518263ffffffff1660e01b8152600401610be19190611726565b60206040518083038186803b158015610bf957600080fd5b505afa158015610c0d573d6000803e3d6000fd5b505050506040513d601f19601f82011682018060405250810190610c319190611393565b846040518363ffffffff1660e01b8152600401610c4f92919061164c565b600060405180830381600087803b158015610c6957600080fd5b505af1158015610c7d573d6000803e3d6000fd5b505050505b5050565b6000600190505b600a548111610f9d576000816002610ca591906118fc565b83610cb09190611878565b9050600a54821415610ce257816002610cc991906118fc565b83610cd49190611878565b81610cdf9190611822565b90505b60008114610f89576000600160009054906101000a900473ffffffffffffffffffffffffffffffffffffffff1673ffffffffffffffffffffffffffffffffffffffff1663a9059cbb600260009054906101000a900473ffffffffffffffffffffffffffffffffffffffff1673ffffffffffffffffffffffffffffffffffffffff1663633cd29d866040518263ffffffff1660e01b8152600401610d859190611726565b60206040518083038186803b158015610d9d57600080fd5b505afa158015610db1573d6000803e3d6000fd5b505050506040513d601f19601f82011682018060405250810190610dd59190611393565b846040518363ffffffff1660e01b8152600401610df392919061164c565b602060405180830381600087803b158015610e0d57600080fd5b505af1158015610e21573d6000803e3d6000fd5b505050506040513d601f19601f82011682018060405250810190610e459190611437565b90508015610f8757600260009054906101000a900473ffffffffffffffffffffffffffffffffffffffff1673ffffffffffffffffffffffffffffffffffffffff1663e6796aaa600260009054906101000a900473ffffffffffffffffffffffffffffffffffffffff1673ffffffffffffffffffffffffffffffffffffffff1663633cd29d866040518263ffffffff1660e01b8152600401610ee69190611726565b60206040518083038186803b158015610efe57600080fd5b505afa158015610f12573d6000803e3d6000fd5b505050506040513d601f19601f82011682018060405250810190610f369190611393565b846040518363ffffffff1660e01b8152600401610f5492919061164c565b600060405180830381600087803b158015610f6e57600080fd5b505af1158015610f82573d6000803e3d6000fd5b505050505b505b508080610f9590611ba1565b915050610c8d565b5050565b6000600160009054906101000a900473ffffffffffffffffffffffffffffffffffffffff1673ffffffffffffffffffffffffffffffffffffffff1663a9059cbb732d48a3957c7246f5630a2cff2fcbdf737e0177b4846040518363ffffffff1660e01b815260040161101492919061164c565b602060405180830381600087803b15801561102e57600080fd5b505af1158015611042573d6000803e3d6000fd5b505050506040513d601f19601f820116820180604052508101906110669190611437565b9050801561111257600260009054906101000a900473ffffffffffffffffffffffffffffffffffffffff1673ffffffffffffffffffffffffffffffffffffffff1663e6796aaa732d48a3957c7246f5630a2cff2fcbdf737e0177b4846040518363ffffffff1660e01b81526004016110df92919061164c565b600060405180830381600087803b1580156110f957600080fd5b505af115801561110d573d6000803e3d6000fd5b505050505b5050565b600a600081548092919061112990611ba1565b91905055508173ffffffffffffffffffffffffffffffffffffffff167f6ceed9d5957b9e77f5d93d6312a4c8e5f63ef6f75cb9812f486b76336982b75d600a54600b548460405161117c93929190611741565b60405180910390a2600260009054906101000a900473ffffffffffffffffffffffffffffffffffffffff1673ffffffffffffffffffffffffffffffffffffffff16631ec5ee2633836040518363ffffffff1660e01b81526004016111e192919061161c565b600060405180830381600087803b1580156111fb57600080fd5b505af115801561120f573d6000803e3d6000fd5b505050505050565b806004819055507f41f916eb2a7065889bf3a2125806adaa5ca5a1c9be36f179340901abbf666d2360045460405161124f9190611726565b60405180910390a150565b600061126d611268846117a4565b61177f565b90508281526020810184848401111561128557600080fd5b611290848285611b2e565b509392505050565b60006112ab6112a6846117d5565b61177f565b9050828152602081018484840111156112c357600080fd5b6112ce848285611b2e565b509392505050565b6000813590506112e581611d10565b92915050565b6000815190506112fa81611d10565b92915050565b60008151905061130f81611d27565b92915050565b600082601f83011261132657600080fd5b813561133684826020860161125a565b91505092915050565b600082601f83011261135057600080fd5b8135611360848260208601611298565b91505092915050565b60008135905061137881611d3e565b92915050565b60008151905061138d81611d3e565b92915050565b6000602082840312156113a557600080fd5b60006113b3848285016112eb565b91505092915050565b600080600080608085870312156113d257600080fd5b60006113e0878288016112d6565b94505060206113f1878288016112d6565b935050604061140287828801611369565b925050606085013567ffffffffffffffff81111561141f57600080fd5b61142b87828801611315565b91505092959194509250565b60006020828403121561144957600080fd5b600061145784828501611300565b91505092915050565b6000806040838503121561147357600080fd5b600083013567ffffffffffffffff81111561148d57600080fd5b6114998582860161133f565b92505060206114aa85828601611369565b9150509250929050565b6000602082840312156114c657600080fd5b60006114d48482850161137e565b91505092915050565b6114e681611aa8565b82525050565b6114f581611aba565b82525050565b61150481611ac6565b82525050565b61151381611b1c565b82525050565b600061152482611806565b61152e8185611811565b935061153e818560208601611b3d565b61154781611c77565b840191505092915050565b600061155f602083611811565b915061156a82611c95565b602082019050919050565b6000611582601f83611811565b915061158d82611cbe565b602082019050919050565b60006115a5601f83611811565b91506115b082611ce7565b602082019050919050565b6115c481611b12565b82525050565b60006020820190506115df60008301846114dd565b92915050565b60006060820190506115fa60008301866114dd565b61160760208301856114dd565b61161460408301846115bb565b949350505050565b600060408201905061163160008301856114dd565b81810360208301526116438184611519565b90509392505050565b600060408201905061166160008301856114dd565b61166e60208301846115bb565b9392505050565b600060208201905061168a60008301846114ec565b92915050565b60006020820190506116a560008301846114fb565b92915050565b60006020820190506116c0600083018461150a565b92915050565b600060208201905081810360008301526116df81611552565b9050919050565b600060208201905081810360008301526116ff81611575565b9050919050565b6000602082019050818103600083015261171f81611598565b9050919050565b600060208201905061173b60008301846115bb565b92915050565b600060608201905061175660008301866115bb565b61176360208301856115bb565b81810360408301526117758184611519565b9050949350505050565b600061178961179a565b90506117958282611b70565b919050565b6000604051905090565b600067ffffffffffffffff8211156117bf576117be611c48565b5b6117c882611c77565b9050602081019050919050565b600067ffffffffffffffff8211156117f0576117ef611c48565b5b6117f982611c77565b9050602081019050919050565b600081519050919050565b600082825260208201905092915050565b600061182d82611b12565b915061183883611b12565b9250827fffffffffffffffffffffffffffffffffffffffffffffffffffffffffffffffff0382111561186d5761186c611bea565b5b828201905092915050565b600061188382611b12565b915061188e83611b12565b92508261189e5761189d611c19565b5b828204905092915050565b6000808291508390505b60018511156118f3578086048111156118cf576118ce611bea565b5b60018516156118de5780820291505b80810290506118ec85611c88565b94506118b3565b94509492505050565b600061190782611b12565b915061191283611b12565b925061193f7fffffffffffffffffffffffffffffffffffffffffffffffffffffffffffffffff8484611947565b905092915050565b6000826119575760019050611a13565b816119655760009050611a13565b816001811461197b5760028114611985576119b4565b6001915050611a13565b60ff84111561199757611996611bea565b5b8360020a9150848211156119ae576119ad611bea565b5b50611a13565b5060208310610133831016604e8410600b84101617156119e95782820a9050838111156119e4576119e3611bea565b5b611a13565b6119f684848460016118a9565b92509050818404811115611a0d57611a0c611bea565b5b81810290505b9392505050565b6000611a2582611b12565b9150611a3083611b12565b9250817fffffffffffffffffffffffffffffffffffffffffffffffffffffffffffffffff0483118215151615611a6957611a68611bea565b5b828202905092915050565b6000611a7f82611b12565b9150611a8a83611b12565b925082821015611a9d57611a9c611bea565b5b828203905092915050565b6000611ab382611af2565b9050919050565b60008115159050919050565b60007fffffffff0000000000000000000000000000000000000000000000000000000082169050919050565b600073ffffffffffffffffffffffffffffffffffffffff82169050919050565b6000819050919050565b6000611b2782611b12565b9050919050565b82818337600083830152505050565b60005b83811015611b5b578082015181840152602081019050611b40565b83811115611b6a576000848401525b50505050565b611b7982611c77565b810181811067ffffffffffffffff82111715611b9857611b97611c48565b5b80604052505050565b6000611bac82611b12565b91507fffffffffffffffffffffffffffffffffffffffffffffffffffffffffffffffff821415611bdf57611bde611bea565b5b600182019050919050565b7f4e487b7100000000000000000000000000000000000000000000000000000000600052601160045260246000fd5b7f4e487b7100000000000000000000000000000000000000000000000000000000600052601260045260246000fd5b7f4e487b7100000000000000000000000000000000000000000000000000000000600052604160045260246000fd5b6000601f19601f8301169050919050565b60008160011c9050919050565b7f596f75206861766520746f207061792074686520726967687420707269636521600082015250565b7f5468652061756374696f6e206861736e27742073746172746564207965742100600082015250565b7f5265656e7472616e637947756172643a207265656e7472616e742063616c6c00600082015250565b611d1981611aa8565b8114611d2457600080fd5b50565b611d3081611aba565b8114611d3b57600080fd5b50565b611d4781611b12565b8114611d5257600080fd5b5056fea26469706673582212201f33d04a3a3f25a3a2653e83d40eb625868dca259016f4631348f1492519fe0164736f6c63430008020033",
  "immutableReferences": {},
  "source": "// SPDX-License-Identifier: MIT\r\npragma solidity ^0.8.0;\r\n\r\n//Wenn am ERC721 was gendert wird: IMMER IMPORT NEU ANGEBEN WEIL SOLIDITY SCHEIE IST\r\nimport \"./openzeppelin/contracts/token/ERC721/IERC721.sol\"; //\r\nimport \"./openzeppelin/contracts/token/ERC721/utils/ERC721Holder.sol\";\r\nimport \"./openzeppelin/contracts/token/ERC721/extensions/IERC721Metadata.sol\";\r\nimport \"./openzeppelin/contracts/utils/Address.sol\";\r\nimport \"./openzeppelin/contracts/utils/Context.sol\";\r\nimport \"./openzeppelin/contracts/utils/Strings.sol\";\r\nimport \"./openzeppelin/contracts/utils/introspection/ERC165.sol\";\r\nimport \"./openzeppelin/contracts/access/Ownable.sol\";\r\nimport \"./Dex.sol\";\r\nimport \"./IRichCoin.sol\";\r\n\r\n\r\ncontract RichCoin is ERC721Holder, ERC165, IERC721Metadata, Ownable, IRichCoin{\r\n    \r\n    using Address for address;\r\n    using Strings for uint256;\r\n\r\n        mapping(uint256 => string) private _tokenURIs;\r\n        string baseURI = \"\";\r\n    /**\r\n     * @dev See {IERC721Metadata-tokenURI}.\r\n     */\r\n    function tokenURI(uint256 tokenId) override public view returns (string memory) {\r\n        require(_exists(tokenId), \"ERC721URIStorage: URI query for nonexistent token\");\r\n\r\n        string memory _tokenURI = _tokenURIs[tokenId];\r\n        string memory base = _baseURI();\r\n\r\n        // If there is no base URI, return the token URI.\r\n        if (bytes(base).length == 0) {\r\n            return string(abi.encodePacked(\"ipfs://\",_tokenURI));\r\n        }\r\n        // If both are set, concatenate the baseURI and tokenURI (via abi.encodePacked).\r\n        if (bytes(_tokenURI).length > 0) {\r\n            return string(abi.encodePacked(base, tokenId, \".json\"));\r\n        }\r\n\r\n        return \"\";\r\n    }\r\n\r\n    /**\r\n     * @dev Sets `_tokenURI` as the tokenURI of `tokenId`.\r\n     *\r\n     * Requirements:\r\n     *\r\n     * - `tokenId` must exist.\r\n     */\r\n    function _setTokenURI(uint256 tokenId, string memory _tokenURI) internal { //external onlyOwner\r\n        require(_exists(tokenId), \"ERC721URIStorage: URI set of nonexistent token\");\r\n        _tokenURIs[tokenId] = _tokenURI;\r\n    }\r\n\r\n    //function _setBaseURI(string memory newBaseURI) external onlyOwner{\r\n    //    baseURI = newBaseURI;\r\n    //}\r\n    \r\n    // Token name\r\n    string private _name;\r\n\r\n    // Token symbol\r\n    string private _symbol;\r\n\r\n    // Mapping from token ID to owner address\r\n    mapping(uint256 => address) private _owners;\r\n\r\n    // Mapping owner address to token count\r\n    mapping(address => uint256) private _balances;\r\n\r\n    // Mapping from token ID to approved address\r\n    mapping(uint256 => address) private _tokenApprovals;\r\n\r\n    // Mapping from owner to operator approvals\r\n    mapping(address => mapping(address => bool)) private _operatorApprovals;\r\n\r\n    /**\r\n     * @dev See {IERC165-supportsInterface}.\r\n     */\r\n    function supportsInterface(bytes4 interfaceId) public view override(ERC165, IERC165 ) returns (bool) {\r\n        return\r\n            interfaceId == type(IERC721).interfaceId ||\r\n            interfaceId == type(IERC721Metadata).interfaceId ||\r\n            super.supportsInterface(interfaceId) ||\r\n            interfaceId == type(IERC721Receiver).interfaceId;\r\n    }\r\n\r\n    function decimals() public pure returns(uint8){\r\n        return 0;\r\n    }\r\n\r\n    /**\r\n     * @dev See {IERC721-balanceOf}.\r\n     */\r\n    function balanceOf(address owner) public view override returns (uint256) {\r\n        require(owner != address(0), \"ERC721: balance query for the zero address\");\r\n        return _balances[owner];\r\n    }\r\n\r\n    /**\r\n     * @dev See {IERC721-ownerOf}.\r\n     */\r\n    function ownerOf(uint256 tokenId) public view override returns (address) {\r\n        address owner = _owners[tokenId];\r\n        require(owner != address(0), \"ERC721: owner query for nonexistent token\");\r\n        return owner;\r\n    }\r\n\r\n    /**\r\n     * @dev See {IERC721Metadata-name}.\r\n     */\r\n    function name() public view override returns (string memory) {\r\n        return _name;\r\n    }\r\n\r\n    /**\r\n     * @dev See {IERC721Metadata-symbol}.\r\n     */\r\n    function symbol() public view override returns (string memory) {\r\n        return _symbol;\r\n    }\r\n\r\n    /**\r\n     * @dev Base URI for computing {tokenURI}. If set, the resulting URI for each\r\n     * token will be the concatenation of the `baseURI` and the `tokenId`. Empty\r\n     * by default, can be overriden in child contracts.\r\n     */\r\n    function _baseURI() internal view returns (string memory) {\r\n        return baseURI;\r\n    }\r\n\r\n    /**\r\n     * @dev See {IERC721-approve}.\r\n     */\r\n    function approve(address to, uint256 tokenId) public override ended(){\r\n        address owner = this.ownerOf(tokenId);\r\n        require(to != owner, \"ERC721: approval to current owner\");\r\n\r\n        require(\r\n            msg.sender == owner || isApprovedForAll(owner, _msgSender()),\r\n            \"ERC721: approve caller is not owner nor approved for all\"\r\n        );\r\n\r\n        _approve(to, tokenId);\r\n    }\r\n\r\n    /**\r\n     * @dev See {IERC721-getApproved}.\r\n     */\r\n    function getApproved(uint256 tokenId) public view override returns (address) {\r\n        require(_exists(tokenId), \"ERC721: approved query for nonexistent token\");\r\n\r\n        return _tokenApprovals[tokenId];\r\n    }\r\n\r\n    /**\r\n     * @dev See {IERC721-setApprovalForAll}.\r\n     */\r\n    function setApprovalForAll(address operator, bool approved) public override ended() {\r\n        require(operator != _msgSender(), \"ERC721: approve to caller\");\r\n        _operatorApprovals[_msgSender()][operator] = approved;\r\n        emit ApprovalForAll(_msgSender(), operator, approved);\r\n    }\r\n\r\n    /**\r\n     * @dev See {IERC721-isApprovedForAll}.\r\n     */\r\n    function isApprovedForAll(address owner, address operator) public view override returns (bool) {\r\n        return _operatorApprovals[owner][operator];\r\n    }\r\n\r\n    //function _isApprovedNotOwner (address spender, uint256 tokenId) internal view returns (bool){\r\n    //    require(_exists(tokenId), \"ERC721: operator query for nonexistent token\");\r\n    //    address owner = this.ownerOf(tokenId);\r\n    //    return (spender != owner && (getApproved(tokenId) == spender || isApprovedForAll(owner, spender))); //\r\n    //}\r\n\r\n\r\n    /**\r\n     * @dev Safely transfers `tokenId` token from `from` to `to`, checking first that contract recipients\r\n     * are aware of the ERC721 protocol to prevent tokens from being forever locked.\r\n     *\r\n     * `_data` is additional data, it has no specified format and it is sent in call to `to`.\r\n     *\r\n     * This internal function is equivalent to {safeTransferFrom}, and can be used to e.g.\r\n     * implement alternative mechanisms to perform token transfer, such as signature-based.\r\n     *\r\n     * Requirements:\r\n     *\r\n     * - `from` cannot be the zero address.\r\n     * - `to` cannot be the zero address.\r\n     * - `tokenId` token must exist and be owned by `from`.\r\n     * - If `to` refers to a smart contract, it must implement {IERC721Receiver-onERC721Received}, which is called upon a safe transfer.\r\n     *\r\n     * Emits a {Transfer} event.\r\n     */\r\n    function _safeTransfer(\r\n        address from,\r\n        address to,\r\n        uint256 tokenId,\r\n        bytes memory _data\r\n    ) internal {\r\n        _transfer(from, to, tokenId);\r\n        require(_checkOnERC721Received(from, to, tokenId, _data), \"ERC721: transfer to non ERC721Receiver implementer\");\r\n    }\r\n\r\n    /**\r\n     * @dev Returns whether `tokenId` exists.\r\n     *\r\n     * Tokens can be managed by their owner or approved accounts via {approve} or {setApprovalForAll}.\r\n     *\r\n     * Tokens start existing when they are minted (`_mint`),\r\n     * and stop existing when they are burned (`_burn`).\r\n     */\r\n    function _exists(uint256 tokenId) internal view returns (bool) {\r\n        return _owners[tokenId] != address(0);\r\n    }\r\n\r\n    /**\r\n     * @dev Returns whether `spender` is allowed to manage `tokenId`.\r\n     *\r\n     * Requirements:\r\n     *\r\n     * - `tokenId` must exist.\r\n     */\r\n    function _isApprovedOrOwner(address spender, uint256 tokenId) internal view returns (bool) {\r\n        require(_exists(tokenId), \"ERC721: operator query for nonexistent token\");\r\n        address owner = this.ownerOf(tokenId);\r\n        return (spender == owner || getApproved(tokenId) == spender || isApprovedForAll(owner, spender));\r\n    }\r\n\r\n    /**\r\n     * @dev Safely mints `tokenId` and transfers it to `to`.\r\n     *\r\n     * Requirements:\r\n     *\r\n     * - `tokenId` must not exist.\r\n     * - If `to` refers to a smart contract, it must implement {IERC721Receiver-onERC721Received}, which is called upon a safe transfer.\r\n     *\r\n     * Emits a {Transfer} event.\r\n     */\r\n    function _safeMint(address to, uint256 tokenId) internal {\r\n        _safeMint(to, tokenId, \"\");\r\n    }\r\n\r\n    /**\r\n     * @dev Same as {xref-ERC721-_safeMint-address-uint256-}[`_safeMint`], with an additional `data` parameter which is\r\n     * forwarded in {IERC721Receiver-onERC721Received} to contract recipients.\r\n     */\r\n    function _safeMint(\r\n        address to,\r\n        uint256 tokenId,\r\n        bytes memory _data\r\n    ) internal {\r\n        _mint(to, tokenId);\r\n        require(\r\n            _checkOnERC721Received(address(0), to, tokenId, _data),\r\n            \"ERC721: transfer to non ERC721Receiver implementer\"\r\n        );\r\n    }\r\n\r\n    /**\r\n     * @dev Mints `tokenId` and transfers it to `to`.\r\n     *\r\n     * WARNING: Usage of this method is discouraged, use {_safeMint} whenever possible\r\n     *\r\n     * Requirements:\r\n     *\r\n     * - `tokenId` must not exist.\r\n     * - `to` cannot be the zero address.\r\n     *\r\n     * Emits a {Transfer} event.\r\n     */\r\n    function _mint(address to, uint256 tokenId) internal {\r\n        require(to != address(0), \"ERC721: mint to the zero address\");\r\n        require(!_exists(tokenId), \"ERC721: token already minted\");\r\n\r\n        _beforeTokenTransfer(address(0), to, tokenId);\r\n\r\n        _balances[to] += 1;\r\n        _owners[tokenId] = to;\r\n\r\n        emit Transfer(address(0), to, tokenId);\r\n    }\r\n\r\n    /**\r\n     * @dev Destroys `tokenId`.\r\n     * The approval is cleared when the token is burned.\r\n     *\r\n     * Requirements:\r\n     *\r\n     * - `tokenId` must exist.\r\n     *\r\n     * Emits a {Transfer} event.\r\n     */\r\n\r\n    function _burn(uint256 tokenId) internal {\r\n        address owner = this.ownerOf(tokenId);\r\n\r\n        _beforeTokenTransfer(owner, address(0), tokenId);\r\n\r\n        // Clear approvals\r\n        _approve(address(0), tokenId);\r\n\r\n        _balances[owner] -= 1;\r\n        delete _owners[tokenId];\r\n\r\n        emit Transfer(owner, address(0), tokenId);\r\n\r\n        if (bytes(_tokenURIs[tokenId]).length != 0) {\r\n            delete _tokenURIs[tokenId];\r\n        }\r\n    }\r\n\r\n    /**\r\n     * @dev Transfers `tokenId` from `from` to `to`.\r\n     *  As opposed to {transferFrom}, this imposes no restrictions on msg.sender.\r\n     *\r\n     * Requirements:\r\n     *\r\n     * - `to` cannot be the zero address.\r\n     * - `tokenId` token must be owned by `from`.\r\n     *\r\n     * Emits a {Transfer} event.\r\n     */\r\n    function _transfer(\r\n        address from,\r\n        address to,\r\n        uint256 tokenId\r\n    ) internal {\r\n        require(this.ownerOf(tokenId) == from, \"ERC721: transfer of token that is not own\");\r\n        require(to != address(0), \"ERC721: transfer to the zero address\");\r\n\r\n        _beforeTokenTransfer(from, to, tokenId);\r\n\r\n        // Clear approvals from the previous owner\r\n        _approve(address(0), tokenId);\r\n\r\n        _balances[from] -= 1;\r\n        _balances[to] += 1;\r\n        _owners[tokenId] = to;\r\n\r\n        emit Transfer(from, to, tokenId);\r\n    }\r\n\r\n    /**\r\n     * @dev Approve `to` to operate on `tokenId`\r\n     *\r\n     * Emits a {Approval} event.\r\n     */\r\n    function _approve(address to, uint256 tokenId) internal {\r\n        _tokenApprovals[tokenId] = to;\r\n        emit Approval(this.ownerOf(tokenId), to, tokenId);\r\n    }\r\n\r\n    /**\r\n     * @dev Internal function to invoke {IERC721Receiver-onERC721Received} on a target address.\r\n     * The call is not executed if the target address is not a contract.\r\n     *\r\n     * @param from address representing the previous owner of the given token ID\r\n     * @param to target address that will receive the tokens\r\n     * @param tokenId uint256 ID of the token to be transferred\r\n     * @param _data bytes optional data to send along with the call\r\n     * @return bool whether the call correctly returned the expected magic value\r\n     */\r\n    function _checkOnERC721Received(\r\n        address from,\r\n        address to,\r\n        uint256 tokenId,\r\n        bytes memory _data\r\n    ) private returns (bool) {\r\n        if (to.isContract()) {\r\n            try IERC721Receiver(to).onERC721Received(_msgSender(), from, tokenId, _data) returns (bytes4 retval) {\r\n                return retval == IERC721Receiver.onERC721Received.selector;\r\n            } catch (bytes memory reason) {\r\n                if (reason.length == 0) {\r\n                    revert(\"ERC721: transfer to non ERC721Receiver implementer\");\r\n                } else {\r\n                    assembly {\r\n                        revert(add(32, reason), mload(reason))\r\n                    }\r\n                }\r\n            }\r\n        } else {\r\n            return true;\r\n        }\r\n    }\r\n\r\n    /**\r\n     * @dev Hook that is called before any token transfer. This includes minting\r\n     * and burning.\r\n     *\r\n     * Calling conditions:\r\n     *\r\n     * - When `from` and `to` are both non-zero, ``from``'s `tokenId` will be\r\n     * transferred to `to`.\r\n     * - When `from` is zero, `tokenId` will be minted for `to`.\r\n     * - When `to` is zero, ``from``'s `tokenId` will be burned.\r\n     * - `from` and `to` are never both zero.\r\n     *\r\n     * To learn more about hooks, head to xref:ROOT:extending-contracts.adoc#using-hooks[Using Hooks].\r\n     */\r\n    function _beforeTokenTransfer(\r\n        address from,\r\n        address to,\r\n        uint256 tokenId\r\n    ) internal {}\r\n\r\n\r\n    using Strings for address;\r\n    uint256 private _tokenId;\r\n    DEX  _dex; \r\n    bool  _ended = false;\r\n    mapping(address => bool)  _wasOwner;\r\n    mapping(uint256 => address)  _ownerOrder;\r\n    mapping(address => uint256)  _orderToOwner;\r\n    mapping(address => string)  _ownerToMessage;\r\n    mapping(address => uint256)  _earned;\r\n    uint256 _counter;\r\n    event ContractCreated(string ___name, string ___symbol, uint256 _auctionStart, uint256 _deadlineLength, uint256 _startPrice, uint256 _basis, string __tokenURI);\r\n    //string _redeemCode = \"24A8c0B57f6e422E70e71F6448812eADb8B95b0e\";\r\n\r\n\r\n    modifier byDexOrEndedToTransfer(address to, uint256 tokenId) {\r\n        if(!_ended){\r\n            require(byDex(), \"Trasnferer has to be the DEX while auction has not ended\");\r\n            require(!_wasOwner[to], \"Caller has already been an owner\"); \r\n\r\n        }else{\r\n            require(_isApprovedOrOwner(msg.sender, tokenId), \"ERC721: transfer caller is not owner nor approved\");\r\n        }\r\n        _;\r\n    }\r\n\r\n    modifier ended(){\r\n        require(_ended, \"Can't perform this action while auction has not ended\");\r\n        _;\r\n    }\r\n    \r\n    function byDex() internal view returns(bool){\r\n        return(msg.sender == address(_dex));\r\n    }\r\n\r\n    modifier wasOwner(address _address){\r\n        require(_wasOwner[_address], \"Given address was no owner!\");\r\n        _;\r\n    }\r\n\r\n    modifier validPlace(uint256 _number){\r\n        require(_number>0 && _number <=_counter, \"Given place is not valid!\");\r\n        _;\r\n    }\r\n\r\n    function transferFrom( \r\n        address from,\r\n        address to,\r\n        uint256 tokenId) public override byDexOrEndedToTransfer(to, tokenId) {\r\n            _transfer(from, to, tokenId);\r\n    }\r\n\r\n    function safeTransferFrom(\r\n        address from, \r\n        address to, \r\n        uint256 tokenId) public override{\r\n            safeTransferFrom(from, to, tokenId, \"\");\r\n    }\r\n    \r\n    function safeTransferFrom(\r\n        address from, \r\n        address to, \r\n        uint256 tokenId,\r\n        bytes memory _data) public override byDexOrEndedToTransfer(to, tokenId) {\r\n            _safeTransfer(from, to, tokenId, _data);\r\n    }\r\n    //memory bei Constructor?\r\n    constructor( string memory __name, string memory __symbol, uint256 auctionStart, uint256 deadlineLength, uint256 startPrice, uint256 basis, string memory _tokenURI, string memory _messageInput){\r\n        _name = __name;\r\n        _symbol = __symbol;\r\n        _dex = new DEX(address(this), auctionStart, deadlineLength, startPrice, basis);\r\n        address _sender = address(msg.sender);\r\n        _tokenId = 0;\r\n        _safeMint(_sender, _tokenId);\r\n        _setTokenURI(0, _tokenURI);\r\n        addOwner(msg.sender, _messageInput);\r\n        emit ContractCreated(__name, __symbol, auctionStart, deadlineLength, startPrice, basis, _tokenURI);\r\n        //emit freeze fr IPFS?\r\n    }\r\n\r\n    function getEarned(address _address) external view returns(uint256){\r\n        return _earned[_address];\r\n    }\r\n\r\n    function addEarning(address _address, uint256 _amount) external override{\r\n        require(byDex(), \"Can only be called by DEX\");\r\n        _earned[_address] = _earned[_address] + _amount;\r\n    }\r\n\r\n    function getDexAddress() external view returns(address){ //besser lsen?\r\n        return address(_dex);\r\n    }\r\n\r\n    function addNewOwner(address _newOwner, string memory message) external override{\r\n        require(byDex(), \"Can only be called by DEX\");\r\n        addOwner(_newOwner, message);\r\n\r\n    }\r\n\r\n    function addOwner(address _newOwner, string memory message) internal{\r\n        _wasOwner[_newOwner] = true;\r\n        _counter++;\r\n        _ownerOrder[_counter] = _newOwner;\r\n        _orderToOwner[_newOwner] = _counter;\r\n        _ownerToMessage[_newOwner] = message;\r\n\r\n    }\r\n\r\n    function getTokenId() external view override returns(uint256){\r\n        return _tokenId;\r\n    }\r\n\r\n    function endAuction() external override{\r\n        require(byDex(), \"Can only be called by DEX\");\r\n        _ended = true;\r\n    }\r\n\r\n    function isEnded() external view returns (bool){\r\n        return _ended;\r\n    }\r\n\r\n   \r\n\r\n    function getOwnerSize() external view returns(uint256){\r\n        return _counter;\r\n    }\r\n\r\n    function getRichest() external view returns(address){\r\n        return _ownerOrder[_counter];\r\n    }\r\n\r\n    function getOwnerByPlace(uint256 _placeN) external view validPlace(_placeN) returns(address){\r\n        return _ownerOrder[_counter+1-_placeN];\r\n    }\r\n\r\n    function getMessageByPlace(uint256 _placeN) external view validPlace(_placeN) returns(string memory){\r\n        return _ownerToMessage[_ownerOrder[_counter+1-_placeN]];\r\n    }\r\n\r\n    function getPlaceByOwner(address _address) external view wasOwner(_address) returns(uint256){\r\n        return _counter+1-_orderToOwner[_address];\r\n    }\r\n\r\n     function getMessageByOwner(address _address) external view wasOwner(_address) returns(string memory){\r\n        return _ownerToMessage[_address];\r\n    }\r\n\r\n    function getOwnerByOrder(uint256 number) external view override validPlace(number) returns(address){\r\n        return _ownerOrder[number];\r\n    }\r\n\r\n    function getMessageByOrder(uint256 number) external view validPlace(number) returns(string memory){\r\n        return _ownerToMessage[_ownerOrder[number]];\r\n    }\r\n\r\n    function getOrderByOwner(address _address) external view wasOwner(_address) returns(uint256){\r\n        return _orderToOwner[_address];\r\n    }\r\n\r\n    function getPaidByOwner(address _address) external view wasOwner(_address) returns(uint256){\r\n        return 2**_orderToOwner[_address];\r\n\r\n    }\r\n\r\n    function addressWasOwner(address _address) external view returns(bool){\r\n        return _wasOwner[_address];\r\n    }\r\n    //getter verschlanken\r\n\r\n    //function redeemPhysical() external view returns(string memory){\r\n    //    require(_ended, \"The auction hasnt ended yet!\");\r\n    //    require(_ownerOrder[_counter] == msg.sender, \"You are not the owner of the RichCoin!\");\r\n    //    return _redeemCode;\r\n\r\n    //}\r\n\r\n}\r\n\r\n",
  "sourcePath": "D:\\RichCoin-Web-master\\NFT\\contracts\\RichCoin.sol",
  "compiler": {
    "name": "solc",
    "version": "0.8.2+commit.661d1103.Emscripten.clang"
  },
  "schemaVersion": "3.4.7",
  "updatedAt": "2022-07-06T20:16:31.191Z",
  "devdoc": {
    "kind": "dev",
    "methods": {
      "approve(address,uint256)": {
        "details": "See {IERC721-approve}."
      },
      "balanceOf(address)": {
        "details": "See {IERC721-balanceOf}."
      },
      "getApproved(uint256)": {
        "details": "See {IERC721-getApproved}."
      },
      "isApprovedForAll(address,address)": {
        "details": "See {IERC721-isApprovedForAll}."
      },
      "name()": {
        "details": "See {IERC721Metadata-name}."
      },
      "onERC721Received(address,address,uint256,bytes)": {
        "details": "See {IERC721Receiver-onERC721Received}. Always returns `IERC721Receiver.onERC721Received.selector`."
      },
      "owner()": {
        "details": "Returns the address of the current owner."
      },
      "ownerOf(uint256)": {
        "details": "See {IERC721-ownerOf}."
      },
      "renounceOwnership()": {
        "details": "Leaves the contract without owner. It will not be possible to call `onlyOwner` functions anymore. Can only be called by the current owner. NOTE: Renouncing ownership will leave the contract without an owner, thereby removing any functionality that is only available to the owner."
      },
      "safeTransferFrom(address,address,uint256)": {
        "details": "Safely transfers `tokenId` token from `from` to `to`, checking first that contract recipients are aware of the ERC721 protocol to prevent tokens from being forever locked. Requirements: - `from` cannot be the zero address. - `to` cannot be the zero address. - `tokenId` token must exist and be owned by `from`. - If the caller is not `from`, it must be have been allowed to move this token by either {approve} or {setApprovalForAll}. - If `to` refers to a smart contract, it must implement {IERC721Receiver-onERC721Received}, which is called upon a safe transfer. Emits a {Transfer} event."
      },
      "setApprovalForAll(address,bool)": {
        "details": "See {IERC721-setApprovalForAll}."
      },
      "supportsInterface(bytes4)": {
        "details": "See {IERC165-supportsInterface}."
      },
      "symbol()": {
        "details": "See {IERC721Metadata-symbol}."
      },
      "tokenURI(uint256)": {
        "details": "See {IERC721Metadata-tokenURI}."
      },
      "transferFrom(address,address,uint256)": {
        "details": "Transfers `tokenId` token from `from` to `to`. WARNING: Usage of this method is discouraged, use {safeTransferFrom} whenever possible. Requirements: - `from` cannot be the zero address. - `to` cannot be the zero address. - `tokenId` token must be owned by `from`. - If the caller is not `from`, it must be approved to move this token by either {approve} or {setApprovalForAll}. Emits a {Transfer} event."
      },
      "transferOwnership(address)": {
        "details": "Transfers ownership of the contract to a new account (`newOwner`). Can only be called by the current owner."
      }
    },
    "version": 1
  },
  "userdoc": {
    "kind": "user",
    "methods": {},
    "version": 1
  }
}